:020000040002F8
:1060000078970020C1630200C9630200CB630200DD
:10601000CD630200CF630200D163020000000000E4
:10602000000000000000000000000000D363020038
:10603000D563020000000000D7630200D9630200AC
:1060400011750200DB630200257C0200217702004B
:1060500031770200DB630200016C020079750200F7
:10606000DB630200DB630200DB630200DB63020030
:10607000DB630200DB630200DB630200DB63020020
:10608000DB63020069750200DB630200DB63020070
:10609000DB630200DB630200E1770200DB630200E6
:1060A000DB630200DB630200DB630200DB630200F0
:1060B000DB630200DB630200000000000000000060
:1060C000DB630200DB630200DB630200DB630200D0
:1060D000DB630200DB630200DB6302000000000000
:1060E00000000000000000000000000000000000B0
:1060F00000000000000000000000000000000000A0
:10610000000000000000000000000000000000008F
:10611000000000000000000000000000000000007F
:10612000000000000000000000000000000000006F
:10613000000000000000000000000000000000005F
:10614000000000000000000000000000000000004F
:10615000000000000000000000000000000000003F
:10616000000000000000000000000000000000002F
:10617000000000000000000000000000000000001F
:10618000000000000000000000000000000000000F
:1061900000000000000000000000000000000000FF
:1061A00000000000000000000000000000000000EF
:1061B00000000000000000000000000000000000DF
:1061C00000000000000000000000000000000000CF
:1061D00000000000000000000000000000000000BF
:1061E00000000000000000000000000000000000AF
:1061F000000000000000000000000000000000009F
:10620000DFF80CD000F076F90048004739A602000C
:106210007897002030B450E8012F93B2C48923440A
:106220008489A34228BF1B1B0489A34202BFBFF37A
:106230002F8F002007E0C3EA020340E80134002C5E
:10624000E9D14FF001000A6030BC704750E8012FDF
:10625000C2EA024240E801210029F7D1704730B478
:1062600050E8022F1FFAA2F3C488A34202BFBFF373
:106270002F8F00200DE0C48923448489A34228BFC6
:106280001B1BC2EA034340E80234002CE8D14FF064
:1062900001000A6030BC704750E8022FC2EA224277
:1062A00040E802210029F7D17047034653E8022F46
:1062B000D988B2EB324F4FF0000017BF92B241EADB
:1062C000014142EA014104E05A68B2EB324F08BF93
:1062D000012043E80212002AE8D1704730B4044696
:1062E00054E8000F0D4644E80053002BF8D1156028
:1062F00030BC704730B4044654E8000F40EA010552
:1063000044E80053002BF7D1156030BC704730B41F
:10631000044654E8000F00EA010544E80053002B4E
:10632000F7D1156030BC704730B4044654E8000F14
:1063300080EA010544E80053002BF7D1156030BC1A
:10634000704730B4044654E8000F00EB010544E800
:106350000053002BF7D1156030BC704730B40446B1
:1063600054E8000FA0EB010544E80053002BF7D1DF
:10637000156030BC704770B404464FF0000054E81C
:10638000006F0D68AE4207BF44E80023012044E8D7
:1063900000630E60002B1CBF0020F0E770BC70474C
:1063A00030B4044654E8000F88422CBF451A054615
:1063B00044E80053002BF5D1156030BC7047000055
:1063C0000648804706480047FEE7FEE7FEE7FEE78F
:1063D000FEE7FEE7FEE7FEE7FEE7FEE78D78020058
:1063E000016202002DE9F05F0546002092469B46BF
:1063F00088460646814640241BE0284641464746DB
:10640000224600F067F853465A46C01A914110D30D
:1064100011461846224600F016F82D1A67EB0108BF
:106420004F4622460120002100F00DF817EB00092D
:106430004E41201EA4F10104DFDC484631462A46C5
:106440004346BDE8F09F202A04DB203A00FA02F11F
:10645000002070479140C2F1200320FA03F3194352
:10646000904070470048704774E9020040EA010319
:106470009B0703D009E008C9121F08C0042AFAD2FA
:1064800003E011F8013B00F8013B521EF9D27047BE
:10649000D2B201E000F8012B491EFBD27047002266
:1064A000F6E710B513460A4604461946FFF7F0FF13
:1064B000204610BD421C10F8011B0029FBD1801A98
:1064C0007047034611F8012B00F8012B002AF9D17F
:1064D00018467047202A04DB203A21FA02F00021F6
:1064E000704721FA02F3D040C2F1200291400843E4
:1064F00019467047064C074D06E0E06840F001037E
:1065000094E8070098471034AC42F6D3FFF77CFEBE
:1065100014F2020034F2020070B58C1810F8015B1E
:1065200015F0070301D110F8013B2A1106D110F82C
:10653000012B03E010F8016B01F8016B5B1EF9D130
:106540002B0705D40023521E0DD401F8013BFAE7B6
:1065500010F8013BCB1A921C03E013F8015B01F821
:10656000015B521EF9D5A142D8D3002070BD10B5F1
:10657000062004F050FF072004F04DFF082004F02F
:106580004AFF092004F047FF062004F0BFFF09205E
:1065900004F0BCFF082004F0B9FFBDE8104007205C
:1065A00004F088BF10B507F0E3FE6E486C4990F820
:1065B0001A314A6803EB430300EBC30383F88D20D1
:1065C00090F81A41130A04EB440400EBC404120CC3
:1065D00084F88E3090F81A3103EB430300EBC303C9
:1065E00083F88F2090F81A318A6803EB430300EB9D
:1065F000C30383F8902090F81A41130A04EB440473
:1066000000EBC404120C84F8913090F81A3103EBBB
:10661000430300EBC30383F8922090F81A31CA6851
:1066200003EB430300EBC30383F8932090F81A4174
:10663000130A04EB440400EBC404120C84F89430F5
:1066400090F81A3103EB430300EBC30383F8952062
:1066500090F81A310A6903EB430300EBC30383F894
:10666000962090F81A41130A04EB440400EBC4048A
:10667000120C84F8973090F81A3103EB430300EBC7
:10668000C30383F8982090F81A314A6903EB430357
:1066900000EBC30383F8992090F81A41130A04EB26
:1066A000440400EBC404120C84F89A3090F81A31B8
:1066B00003EB430300EBC30383F89B2090F81A31EC
:1066C0008A6903EB430300EBC30383F89C2090F833
:1066D0001A41130A04EB440400EBC404120C84F8BE
:1066E0009D3090F81A3103EB430300EBC30383F8AA
:1066F0009E2090F81A31CA6903EB430300EBC303F1
:1067000083F89F2090F81A41130A04EB440400EB2D
:10671000C404120C84F8A03090F81A3103EB430340
:1067200000EBC30383F8A12090F81A21096A02EB59
:10673000420200EBC20282F8A21090F81A310A0A53
:1067400003EB430300EBC303090C83F8A32090F889
:106750001A2102EB420200EBC20080F8A41010BD27
:10676000C45200200450002010B5062004F0A2FE00
:10677000062000F081F8012004F08CFBBDE81040F9
:10678000062004F0C3BE10B5062004F093FE0820D6
:1067900000F072F8FA20401E0028FCDCBDE8104032
:1067A000062004F0B3BE10B5092004F083FEBDE856
:1067B0001040002000F0F5B810B5062004F07AFE75
:1067C000042000F059F8FA20401E0028FCDC0620C6
:1067D00004F09CFEBDE81040012004F05BBB10B546
:1067E000062004F067FE102000F046F8FA20401E54
:1067F0000028FCDC062004F089FEBDE810400120E2
:1068000004F048BB10B5062004F054FE112000F03F
:1068100033F8FA20401E0028FCDC062004F076FE47
:10682000BDE81040012004F035BB000070B50446FF
:106830004030C6B20D46062004F03CFE304600F063
:106840001BF8F920401E0028FCDC002000F014F8A2
:10685000F820401E0028FCDC284600F00DF8F82047
:10686000401E0028FCDC062004F050FE0148005DBC
:1068700070BD0000346C00201FB50A49012201F5EB
:106880008073087014468DE81E0007480022694690
:1068900006F090F908B101F057FB0448007804B005
:1068A00010BD0000346A0020ACE50200346B00200B
:1068B00010B5104C4FF6FF71E088884203D0227863
:1068C0000AB9012222706278002A12D0884210D1BF
:1068D00009480A49401AC008032101EB004008A1F9
:1068E00005F024F8094890F8540074DF002800D11E
:1068F000607010BDE44F0020C4F2020044F20200B8
:1069000053544F5020414456000000003C54002096
:1069100010B5154C6088401C80B260800A2813D0E6
:1069200004DC012810D005280DD115E00F2813D064
:10693000142808D11B2004F0DBFD192004F0D8FD39
:1069400000206080207110BD1B2004F0A5FDBDE873
:106950001040192004F0CCBD1B2004F0C9FDBDE897
:106960001040192004F098BDF64F0020F0B5491EE4
:10697000CCB2002212E00021A51A0BE000EB410688
:1069800030F8117073889F4202D9778020F8113057
:10699000491CC9B28D42F1DC521CD2B2A242EAD3E8
:1069A000F0BD38B1012804D14FF0A0418004C1F8F6
:1069B00008057047122004F076BD70B54FF0A04571
:1069C0004FF40036012811D000281FD1112004F007
:1069D0006AFD0A2004F03EFAC5F80865012004F0BB
:1069E00039FABDE87040112004F05DBD002411208B
:1069F00004F059FD012004F02DFAC5F808650120C6
:106A000004F028FA641CE4B2082CF0D370BD10B571
:106A10001B2004F0E4FC1A2004F0E1FC192004F02F
:106A2000DEFC192004F064FD1A2004F061FDBDE8CD
:106A300010401B2004F05CBD1CB500231420009303
:106A40001A461946019304F071FC122004F0CFFCA1
:106A5000112004F0CCFC0120FFF7AFFFBDE81C4083
:106A60000120FFF79EBF00001FB505F09FFD08B194
:106A700001F06AFA2148224A0168009141680191B7
:106A800081680291C068039000208DF801008DF8A4
:106A900005008DF809008DF80D006946032005F00A
:106AA0001FFD08B101F050FA154A01A91C2005F09C
:106AB00017FD08B101F048FA114A02A9152005F0A6
:106AC0000FFD08B101F040FA0D4A03A9132005F0AB
:106AD00007FD08B101F038FA0121032005F0B0FCF0
:106AE00001211C2005F0ACFC0121152005F0A8FCBB
:106AF0000121132005F0A4FC1FBD000040E50200A9
:106B00002971020000B591B040216846FFF7C7FC2B
:106B10000DA1684602F007FD10A106A802F003FDD2
:106B20000EA10AA802F0FFFC0EA108A802F0FBFCCF
:106B300001208DF83C00684602F0ACF9002801D035
:106B400001F002FA11B000BDE5BFB5E9809AE699FF
:106B5000BAE883BDE7A791E68A80000056302E3060
:106B60002E310000733133325F6E726635325F53FF
:106B7000444B5F31372E312E3000000040F60202C8
:106B8000904201D3642139E0A0F5FA62322A01D2A1
:106B90005A2133E0A0F29E72322A01D250212DE018
:106BA000A0F26C72322A01D2462127E0A0F23A729A
:106BB000322A01D23C2121E0A0F5E162322A01D241
:106BC00032211BE0A0F2D662322A01D2282115E040
:106BD000A0F2A462322A01D21E210FE0A0F272625A
:106BE000322A01D2142109E0A0F5C862322A01D864
:106BF0000A2103E0B0F5C86F00D2002108467047B3
:106C00002DE9F8430025DFF894804FF480760124C5
:106C10002F460095304604F09DFC38B1D8F80403A7
:106C2000204203D0304604F08BFC2543361D64001F
:106C30007F1CB6B2082FEDD34FF4BE74204604F08B
:106C400089FC48B1204604F07BFC45F000456A46CB
:106C50000121002004F00AFC15F0FF0F16D00126D8
:106C600000242E420ED008EB8401D1F81005D1F893
:106C70001015C0F304200A4AC1F3014152F8242040
:106C800002B190477600641C082CEAD3002D02DA8A
:106C9000684606F043FBBDE8F88300000060004052
:106CA000D86D0020002210B51346032905D20188B3
:106CB00040880844C0F34E0010BD891E07E000BFA5
:106CC00000EB4204521C6488D2B223449BB28A4235
:106CD000F6DB93FBF1F080B210BD000010B500F0C0
:106CE000BFF900F0EFF9134CB4F9000003F098FC81
:106CF00084ED030AB4F9020003F092FC84ED040A67
:106D0000B4F9040003F08CFC84ED050AB4F9060024
:106D100003F07AFC84ED060AB4F9080003F074FC71
:106D200084ED070AB4F90A0003F06EFC84ED080A4A
:106D300010BD00009C52002070B5152004F0D0FB5F
:106D4000084C002508B1257009E00A2004F092F8EB
:106D5000152004F0C5FB002802D1012020706580B9
:106D600070BD0000E04F002070B513480178012984
:106D700021D14188491C89B24180C8291BD900F022
:106D800091F84FF0A0444FF00065C4F80C554FF453
:106D9000617004F5A16404F06DF8256007490220D4
:106DA000C1F8000702E000BF00F01CFD152004F050
:106DB00097FB0128F8D070BDE04F00206C00005018
:106DC00010B50D4C6088401C80B26080282802D02D
:106DD000322807D103E0192004F05EFB02E01920FD
:106DE00004F086FB6088372804D9192004F080FB62
:106DF0000020608010BD0000F64F002010B50D4C43
:106E00006088401C80B26080142802D0282807D1F6
:106E100003E0192004F040FB02E0192004F068FBB5
:106E20006088B0F5967F04D9192004F061FB00203A
:106E3000608010BDF64F00200A48007805280FD268
:106E4000DFE800F0030507090B0000F02BB8FFF79F
:106E5000B7BFFFF7D3BF00F007B81A2004F01CBB80
:106E600070470000F64F002010B50D4C6088401CA4
:106E700080B26080142802D0282807D103E01B20AC
:106E800004F00AFB02E01B2004F032FB6088B0F53E
:106E9000967F04D91B2004F02BFB0020608010BDDE
:106EA000F64F002010B5192004F022FB1A2004F040
:106EB0001FFBBDE810401B2004F01ABB1F492048EF
:106EC00091ED030ABCEEC00A10EE102A80F80B21E7
:106ED000002280F80C2191ED040ABCEEC00A10EEED
:106EE000103A80F80D3180F80E2191ED050ABCEEC4
:106EF000C00A10EE103A80F80F3180F8102191EDA1
:106F0000060ABCEEC00A10EE103A80F8113180F883
:106F1000122191ED070ABCEEC00A10EE103A80F87B
:106F2000133180F8142191ED080ABCEEC00A10EE6E
:106F3000101A80F8151180F8162170479C52002015
:106F4000045000201A491B4891ED030ABCEEC00A08
:106F500010EE102A00F87C2F0022427091ED040AF6
:106F6000BCEEC00A10EE103A8370C27091ED050AB3
:106F7000BCEEC00A10EE103A0371427191ED060AA0
:106F8000BCEEC00A10EE103A8371C27191ED070A8F
:106F9000BCEEC00A10EE103A0372427291ED080A7C
:106FA000BCEEC00A10EE101A8172C2727047000067
:106FB0009C520020045000200EB502AA8DF8080053
:106FC0000120034600906B21054804F0A2F801233C
:106FD00001AA6B21024804F099F89DF804000EBD47
:106FE000E8E5020010B50121102000F009F80028A2
:106FF000F9D10C21112000F003F80028F9D110BDBF
:107000001CB502238DF8040000208DF805100090B7
:1070100001AA6B21034804F07CF8002801D000F09D
:1070200093FF1CBDE8E5020010B530211020FFF7EA
:10703000E7FF3C211120FFF7E3FF03210D20FFF7BD
:10704000DFFF80210B20FFF7DBFF10211520FFF76A
:10705000D7FFE021BDE810401620FFF7D1BF0000A8
:1070600070B51E20FFF7A8FFC00727D02920FFF723
:10707000A3FF60F307042820FFF79EFF60F30F24AF
:107080002B20FFF799FF60F317442A20FFF794FFA6
:1070900060F31F642D20FFF78FFF60F307052C209E
:1070A000FFF78AFF60F30F25A0B241BA04480180C0
:1070B000210C49BA4180A9B249BA818070BD000053
:1070C0009C52002070B51E20FFF776FF800727D561
:1070D0002320FFF771FF60F307042220FFF76CFF06
:1070E00060F30F242520FFF767FF60F31744242087
:1070F000FFF762FF60F31F642720FFF75DFF60F377
:1071000007052620FFF758FF60F30F25A0B241BA0C
:107110000448C180210C49BA0181A9B249BA418110
:1071200070BD00009C5200202DE9FF47884C0646A8
:10713000A4F12008002794F81E3194F81F2194F838
:107140001C01DFF81092B8F80C1040F6D86C3D46E0
:10715000032E04D01C2E7BD0152E7AD081E0002B7C
:1071600078D0002A76D000287FD04FF07E0A012800
:1071700036D0022879D1614501D9A8F80C50FFF723
:1071800011FA94F81A01401CC0B284F81A010528BB
:107190006BD184F81A5194F81B015346401C84F8B3
:1071A0001B0184F88CA084F8055184F8065184F8FA
:1071B000070100204A462118401C91F88A50B8F86F
:1071C0000C10C0B25554491CA8F80C107E28F2D3FC
:1071D00088B248447E380090ADF804306946A7E094
:1071E000614501D9A8F80C50FFF7DCF994F81A01B1
:1071F000401CC0B284F81A01052836D184F81A510F
:1072000094F81B01401CC0B284F81B0194F81D11B6
:1072100001292CD084F88CA084F8055184F80651FB
:1072200084F807015346002041464D462218401C71
:1072300092F88A708A89C0B2AF54521C8A817E2823
:10724000F4D390B248447E380090ADF8043002E0A8
:1072500038E079E009E069463F4804F097FD01F025
:10726000D5FB132E01D100F027FDBDE8FF8784F880
:107270001D510420211891F88A102154401CC0B2DD
:107280007C28F7D3FFF75EFE8A22A27084F887700D
:10729000380A84F8880094F81B0184F889000020DB
:1072A00041464D46275C8B89401CC0B2EF545B1CA5
:1072B0008B818A28F6D398B248448A380090ADF87A
:1072C0000420C4E7002BD0D0002ACED0012835D02E
:1072D0000328CAD1614501D9A8F80C50FFF7FEFC7C
:1072E00094F81B01401C84F81B0104F58574FFF71A
:1072F000E5FD122323706573A573607CE0730021A4
:107300004846A4F585746218491C92F80851B8F8EB
:107310000C20C9B28554521CA8F80C201229F2D3B3
:1073200091B209EB010012380290ADF80C3002A9BD
:10733000094804F02BFD01F069FB96E7FFF7CEFC4E
:10734000012084F81D0190E7FFF7F6FC8DE70000AF
:107350000450002084580020F8F202001FB5094BA9
:107360000FCB8DE80F00074800231A4669461038F6
:1073700003F0ACFE08B100F0E7FD02480C3805F060
:1073800067FC1FBDF8E50200FEB53A4A07CA8DE862
:10739000070038480021103805F0E0F908B100F086
:1073A000D3FD6946002005F061F908B100F0CCFD7D
:1073B0003149002005F05CFA304C2F4861780A38DA
:1073C00004EB4101408948806078401CC0B2607085
:1073D0000A2843D1002565700A21A01CFFF7C6FAD0
:1073E0000A21A01CFFF75EFCE0824FF416714843AF
:1073F000800A00EB40004FF6FF7101EA400220488E
:1074000020492283401AC108032000EB01400646B0
:107410001DA104F08FFA2078012823D0A17E208BB3
:1074200000F006FCE076A076E17E4FF6FE721B4887
:1074300001F0DAF9050011D0082D0FD0132D0DD071
:10744000112D0BD043F20140854207D0E27E304639
:1074500013A104F06FFA284600F076FDBDE8FE4067
:1074600005F066BA208BFFF789FBE076A0762570E1
:10747000DAE7000068E50200EE4F0020245100200A
:10748000C4F2020044F202006261747465725F61CA
:1074900064635F646174613A202564007058002061
:1074A00042617474657279206C6576656C205075E4
:1074B0007368204F4B213A202564000010B5094C19
:1074C000207910B1FFF724FA01E0FFF7B5FC20782E
:1074D000032805D0042803D0BDE81040FFF744BCC2
:1074E00010BD0000F64F0020084810B501780029B3
:1074F0000BD0002101701321C08876DF08B100F0A5
:1075000023FDBDE8104006F0B5B910BDE44F0020E2
:1075100070B54FF48076304603F08CFC114CB50505
:1075200060B1304603F08DFC0120C5F80803607996
:1075300020B9012060712168002088474FF48276CD
:10754000304603F077FC00280AD0304603F079FC7F
:107550000220C5F808032168BDE8704001200847F3
:1075600070BD0000E451002002490248091F09686B
:1075700000680847205200202DE9FE434FF482782E
:10758000404604F085FC4C4F00254C4C012600B3CE
:10759000404604F085FC94F82E0010B194F82F10AA
:1075A000D1B18DF80050616801912189ADF80810C2
:1075B000E26832B1218B618362602181E56010B1A4
:1075C00002E0257400E03E6021686846884784F840
:1075D0002F5094F82E0060B34FF48077384604F0B3
:1075E00057FC30B3384604F05BFC628B94F82D10E6
:1075F0008A420AD9A2EB010080B260832289A2EB01
:107600000000626802EB400005E007D1E06828B1A5
:1076100084F82F60658304F029FC04E08A4202D1DB
:1076200084F82F606583404604F03AFC2248001D30
:1076300006604FF48877384604F02AFC48B1384693
:1076400004F02EFC257402208DF8000021686846A5
:1076500088474FF48A77384604F01AFC28B1384638
:1076600004F01EFC2574BDE8FE834FF000484FF483
:107670008C7967691DE000BFB7FA87F028FA00F13E
:1076800009EB80058F43284604F002FC88B12846A8
:1076900004F006FCA5F58C75E8088DF8040045F3A8
:1076A0008000401C8DF800608DF805002168684658
:1076B0008847002FE0D1D6E700700040406E0020E0
:1076C00000F02EBB70B50E46144900EB400001EBF4
:1076D000C0051446E86A183520B101280FD00228E9
:1076E00005D113E0284600F04FFBA04201D2002450
:1076F00011E022463146284600F07EFB0BE028468A
:1077000000F042FBA042F4D20446F2E7314628469C
:1077100000F045FB0446204670BD0000A874002020
:107720000149024806F08ABB4C6C00200030004042
:1077300038B54FF040200E4C0025C0F80851D0F865
:1077400008110091214606F0D1FA00280ED1A07F41
:10775000FF2801D003F0D3FE65772572D4E900211C
:1077600001B004F10800BDE83040104738BD00000A
:10777000086A00201FB5164A0023D2E90601526AA2
:10778000CDE90001FF208DF803000A218DF80110DA
:1077900004218DF8021005218DF8001006218DF8C6
:1077A0000410C1078DF80500039200208DF80D002C
:1077B00001208DF80C00064802911A4669460830EF
:1077C00003F070FC002801D000F0BEFB1FBD0000DC
:1077D000A0E50200014805F0B1B90000ACE50200E7
:1077E00004F016BD10B5002001F074FF08B100F0E0
:1077F000ABFB0321152003F016FE0221132003F03A
:1078000012FE00F053FCFEF7CEFFFFF7EBFBFFF795
:10781000E1FF00F001FA022003F0D0FD032003F0A5
:10782000CDFD042003F0CAFD052003F0C7FD0620AE
:1078300003F0C4FD072003F0C1FD082003F0BEFDE6
:10784000092003F0BBFD0A2003F0B8FD112003F06E
:10785000B5FD122003F0B2FD142003F0AFFD192096
:1078600003F0ACFD1A2003F0A9FD1C2003F0A6FDD7
:107870001D2003F0A3FD1E2003F0A0FD33DF002830
:1078800003D0BDE8104000F05FBB10BDF0B5D04A9A
:10789000D0494FF080541368D4F830010978D4F8F7
:1078A0003421451CC1F3031107D084461646012735
:1078B0000025BCF1060F04D013E003F0FF0C0E46C8
:1078C000F5E7032E05D0042E03D0052E01D0062E99
:1078D00007D1B4F82463DFF800C3C6F30426CCF85C
:1078E0000060DEB2062E06D1032904D1DFF8F0C213
:1078F000BA4ECCF87460461C06D084464FEA0206A5
:10790000BCF1060F04D013E003F0FF0C0E46F7E7BE
:10791000032E05D0042E03D0052E01D0062E07D14C
:10792000D4F84462DFF8BCC2C6F34236CCF800603B
:10793000DEB2062E08D1032906D1AB4ED6F800C020
:107940002CF0807CC6F800C0461C05D08446164644
:10795000BCF1060F04D014E003F0FF0C0E46F7E76D
:10796000032E05D0042E03D0052E01D0062E08D1FB
:107970004FF08046C6F80C51C6F81051994E361F8C
:107980003560DEB2062E08D1032906D1DFF854C2D5
:1079900003260CF1640CCCF80060DEB2062E11D187
:1079A00003290FD1DFF844C20526CCF800608F4EC2
:1079B000783637608D4E083635600CF1040C3F2662
:1079C000CCF80060461C05D084461646BCF1060F74
:1079D00004D087E003F0FF0C0E46F7E7032E7CD0BF
:1079E000042E7FD0052E01D0062E7BD1804E366826
:1079F000DFF800C2CCF800607D4E361D36680CF111
:107A0000040CCCF800607A4E083636680CF1040C91
:107A1000CCF80060764E0C3636680CF1040CCCF8CD
:107A20000060734E103636680CF1040CCCF8006020
:107A30006F4E143636680CF1040CCCF800606C4EB6
:107A400018363668DFF8ACC10CF1200CCCF80060B9
:107A5000674E1C3636680CF1040CCCF80060644E9E
:107A6000203636680CF1040CCCF80060604E2436E9
:107A700036680CF1040CCCF800605D4E2836366890
:107A80000CF1040CCCF80060594E2C3636680CF121
:107A9000040CCCF80060564E30363668DFF854C11E
:107AA0000CF1400CCCF80060514E343636680CF1C5
:107AB000040CCCF800604E4E383636680CF1040CDD
:107AC000CCF800604A4E3C3636680CF1040CCCF819
:107AD0000060474E4036366800E003E00CF1040CCD
:107AE000CCF80060461C05D084461646BCF1060F53
:107AF00004D011E003F0FF0C0E46F7E7032E05D08B
:107B0000042E03D0052E01D0062E05D1D4F85842FC
:107B1000394E04F04F043460441C04D0034611462F
:107B2000062B02D010E0DBB2FAE7032905D00429C6
:107B300003D0052901D0062906D130490B68DB079F
:107B400002D06FF001030B6006280CD1032A0AD083
:107B5000042A08D0052A06D0062A04D1284801683C
:107B600041F48061016020487438016841F470017B
:107B70000160BFF34F8FBFF36F8F4FF01021D1F82B
:107B80000C02C00720D01F4A17601F480368002B53
:107B9000FCD0D1F80C3223F00103C1F80C3201689B
:107BA0000029FCD0156001680029FCD0BFF34F8F7D
:107BB0000D48F0380168154A01F4E0611143016095
:107BC000BFF34F8F00BFFDE7124911480860F0BDB9
:107BD000E00F00F0E80F00F0403501400DF0ADBAC5
:107BE00000C007403C050040FCED00E0105600409E
:107BF0000404001020C50040E40E004000040040D2
:107C00003C17004004E5014000E401400400FA058F
:107C10000090D00398520020014805F0CFB8000032
:107C2000ECE502000148006800470000EC5100202C
:107C300040F60C02904201D364207047A0F2DA7241
:107C40001E2A01D85A207047A0F5F5621E2A01D8D5
:107C500050207047A0F276721E2A01D84620704745
:107C6000A0F244721E2A01D83C207047A0F2127282
:107C70001E2A01D832207047A0F5DC621E2A01D8E6
:107C800028207047A0F2AE621E2A01D81E2070473D
:107C9000A0F27C621E2A01D814207047A0F24A622A
:107CA0001E2A01D80A20704740F23662904201D85D
:107CB000002070470846704710B5132003F010FCF1
:107CC000154C012814D0132003F00AFC002821D100
:107CD000207800281ED0C82003F0CCF8132003F031
:107CE000FFFB002816D12070BDE8104005F006BE4D
:107CF0000A2003F0BFF8132003F0F2FB012809D19A
:107D00002070FEF7D5FDFFF7EFFBFFF7CBF8034937
:107D10000320087010BD0000E64F0020F64F002041
:107D200010B5124C02202061606111A0A06104F125
:107D30007800E0614FF4007020620020A062606271
:107D40000BA1A164E06204F51E71E1641021A0653D
:107D5000C4E91410E06509A1E01DFEF7B2FB08A11B
:107D60002046FEF7AEFB2020A07110BDA8740020B5
:107D70005465726D696E616C0000000052545400CD
:107D800053454747455200000269C1688A4203D8FB
:107D90008068401A104400E0501A401E70472DE9D8
:107DA000F047C4681746894606464FF00008306918
:107DB000A04201D9051B02E0B168201A0D1AB06873
:107DC0006D1E001BA84200D80546BD4200D33D46AB
:107DD00070682A4620444946FEF748FBB0687F1B7E
:107DE0002C44A844A944A04200D10024F460002FF0
:107DF000DDD14046BDE8F0872DE9F04104468846D4
:107E0000D4E90207C51BE168606816460844B5421C
:107E100006D94146FEF72AFBB819E060BDE8F081BB
:107E20002A464146FEF722FB761B08EB0501324647
:107E30006068FEF71BFBE660F0E702E008C8121F6F
:107E400008C1002AFAD170477047002001E001C143
:107E5000121F002AFBD170470121202803DA81403C
:107E60000548014003E0402802DA2038814009B18A
:107E70000120704700207047FC06FFBD90F82400E9
:107E8000012801D01F207047EE20704710B5012255
:107E90000221002001F0FCFB08B1072810D10722C5
:107EA0000221012001F0F4FB08B1072808D10021CC
:107EB0000A22084601F0ECFB08B1072800D1002097
:107EC00010BD000072B603F0C9FD00BF03F012FC44
:107ED0000028FBD111481249401AC408012000EBC8
:107EE000044010A103F022FD11480068C00700D033
:107EF00000BE022000EB04400EA103F017FDBFF30B
:107F00004F8F0B48E43801680E4A01F4E0611143D9
:107F10000160BFF34F8F00BFFDE70000C4F2020015
:107F200044F20200466174616C206572726F7200E7
:107F3000F0ED00E053797374656D207265736574BC
:107F4000000000000400FA050EB500210091CDE903
:107F500001106A4644F20100FFF7B4FF0EBD0000B5
:107F600010B502280ED108480849401AC10803205C
:107F700000EB0140044606A103F0D8FC204610A106
:107F800003F0D4FC012010BDC4F2020044F2020050
:107F9000506F776572206D616E6167656D656E7497
:107FA0002077616E747320746F207265736574201E
:107FB000746F20444655206D6F64652E00000000EC
:107FC000506F776572206D616E6167656D656E7467
:107FD00020616C6C6F77656420746F2072657365C7
:107FE0007420746F20444655206D6F64652E000028
:107FF000014801F0D6BF0000005200203AB10068ED
:108000000129426100D00021016100207047072052
:108010007047000038B51148082358224168009184
:108020000F49006802F0E7FC002815D10D4A6946A7
:108030000D4801F0BBFF04000ED101210A4802F0F7
:1080400030F80123094A1946074801F082FF064922
:10805000012008390870204638BD000078E602008B
:10806000806E0020E5D4020000520020FFFF7F0058
:1080700070B50446007F0D4608B1002070BDA261B6
:1080800002F01AF9401941F10001C4E90201206926
:1080900000B125612146BDE87040002005F00ABE10
:1080A000014600200877012005F004BE03490020A6
:1080B00008700146022005F0FDBD0000F8510020C7
:1080C00030B5EFF3108172B60D4A9468012324B1E4
:1080D0000370002900D162B630BD93604FF0E023F9
:1080E000D3F88051074C25401560C3F88041D3F880
:1080F000844154605A17C3F8842100220270E8E7D3
:10810000D86E0020FC06FFBD0B498A68002A11D0FA
:1081100000280FD1EFF3108072B60B684FF0E02209
:10812000C2F800314B68C2F8043100228A6000288E
:1081300000D162B670470000D86E002070B50446CA
:1081400090B0087B0D468DF83800202105A8FEF779
:10815000A6F942F61920ADF814000120ADF8180078
:10816000ADF81A000EA80790617C9DF82100A21DB1
:1081700061F3041040F002008DF82100A87B8DF817
:108180002700687B8DF82500A08805A901F076FC02
:1081900000281CD1A968E1B10FA801F0D5F9064665
:1081A00014216846FEF77BF942F60810ADF800008E
:1081B000E87B8DF806000FA8ADF80A60ADF80E60F8
:1081C0000490E08804F10E02694601F037FE10B019
:1081D00070BD0020E081FAE70A4601461046AEDF96
:1081E00070470000074810B500224FF40051406965
:1081F000FFF73EFF002803D0BDE81040FFF7A4BE04
:1082000010BD000040E5020070B51500044609D01D
:108210000020286034B1206820B1A079800703D005
:10822000072070BD0E2070BD084600F0BFFBC0B235
:10823000142804D02179814203D8042070BD052080
:1082400070BDE288216800FB02102860002070BD2C
:108250002DE9FC47002517880646158090F82D006B
:108260001446894630B13A462146484600F01CFC87
:10827000051E09D1B0784FF00C0A18B32088C84603
:10828000001DB84202D95046BDE8FC87684679DF38
:108290000028F9D12088032108F80010208819212E
:1082A000401C80B2208008F800102088401C80B25A
:1082B000208000EB0801BDF8000005F0F9FF2188DF
:1082C00008442080F0780222C8B1218896F9033052
:1082D00001F1030C4846BC45D5D8425421884FF0E3
:1082E000010C491C89B2218000F801C02188491C79
:1082F00089B2218009F801302088401C20807068F4
:10830000B8B1218890F9003001F1030C4846BC4512
:10831000B9D8425421880A22491C89B2218042548A
:108320002188491C89B2218009F801302088401C2D
:108330002080308950B1CDE900474B46062202210A
:1083400006F1080006F090F8051E9DD1308A50B164
:10835000CDE900474B460722032106F1100006F045
:1083600083F8051E90D1308B50B1CDE900474B46C4
:108370001522142106F1180006F076F8051E83D1A7
:10838000306A30B13B462246494601F08CFC051E5E
:10839000DBD1706A30B13B462246494602F04EFAC4
:1083A000051ED2D196F82C0038B13B4622464946EC
:1083B000304605F0BBF9051EC7D1307838B13B46D1
:1083C00022464946304602F0C3FA051EBDD1284672
:1083D0005AE718B504460020ADF8000013466A4677
:1083E000204600F006F8002802D0BDF80000204426
:1083F00018BD70B5E0B1DAB1002402E0045D2C4490
:10840000A4B2651C8D4206D21688A642F6D806197B
:1084100076789E42F2D18C420AD2A31C005D9BB2B8
:1084200000B1401E0004000C02D01C188C4201D97F
:10843000002070BD138070BD80F8301070472DE9AA
:10844000F0410D00044606D02CB195F87A000026C4
:10845000012803D006E00E20BDE8F08195F89800D1
:10846000012829D0D5F8A000042825D0D5F89C00F3
:10847000042821D04FF00108A6702C2205F17801C4
:10848000201DFDF7F3FF84F83060D5F8A400606389
:10849000D5F8A800A0634FF6FF70A4F8240404F5F3
:1084A0008260C4F82004C4F82664A4F82A6484F81E
:1084B0002C64207810B104E00720CDE7FF2084F879
:1084C000540004F155072046C4F81074FFF7D6FC99
:1084D000A4F8140404F2144239462846FFF7B8FE03
:1084E0000028B9D104F23120C4F818042046FFF75F
:1084F000C5FCA4F81C0404F21C4205F13C00D4F8AD
:108500001814FFF7A5FE0028A6D184F85180208B0F
:10851000A4F8480084F83C80266484F850606069C0
:1085200000216064454604F13C02781E72DF002899
:1085300092D1257090E72C22001DFDF797BF000017
:1085400010B50288102A1BD0112A20D0262A1DD14E
:10855000007A0C46012801D0022817D1A078052105
:10856000401CB0FBF1F201FB1201204600F024F8A0
:1085700000280BD0A16B002908D0BDE810400847A7
:10858000C27B012A02D18088A1F8240410BD094BC6
:1085900000221C780CB11A7010BD81F82E240C46F4
:1085A0008088B1F824148842F6D120790028F3D1CC
:1085B0000121DAE7905100202DE9F05F04460078B0
:1085C0000F4698B1A7700025C4F82654A4F82A5481
:1085D00084F82C54A079012608B1012F09D0E07944
:1085E00080B1012F05D0022F03D00BE00820BDE899
:1085F000F09F616B21B184F82D640820884701E069
:1086000084F82D5404F2274100200A5C0AB1304658
:1086100003E0401C0628F8D300204FF002084FF07A
:10862000030B012F06D0022F0CD0032F0FD0042FE5
:1086300015D110E0A17929B194F8241011B908B12D
:1086400030460DE0E17911B108B1404608E0207AEA
:1086500008B1584604E0607A08B1042000E02846DA
:10866000A070616B41B1032801D0042804D1607966
:1086700010B194F82E0498B184F82F5404F13C0002
:1086800018210746FDF70BFF84F83C6004F12C002D
:1086900004F0FAFD58B194F82C0084F8510008E079
:1086A00084F8305484F82F6407208847E6E784F87C
:1086B000516094F8240058B104F1280004F0E4FD5E
:1086C00020B194F8280084F8520001E084F8526048
:1086D00084F85050A27804F2264104F582694FF0E4
:1086E000060A052A64D2DFE802F07C030F2242006A
:1086F00084F83160C4F82054C4E9101584F83C8033
:108700008020A4F8480055E084F8318094F82420B3
:10871000384612B10722027001E080F800B0228AC8
:108720008281C4F820544160E168B96042E0606928
:10873000B860208BB88194F824003D46002820467C
:1087400002D084F83CA001E084F83C6005F06EFEA5
:1087500050B185F814800421204601F03AFD38BB61
:10876000052184F8311021E084F831B01EE0E06981
:10877000B860208CB88194F824003D46002820463B
:1087800002D084F83CA001E084F83C6005F04EFE85
:1087900048B185F814800421204601F01AFD38B94B
:1087A00084F831A002E0042084F83100C4F8209459
:1087B000A07878B13A4604F15400D4F8201472DF5E
:1087C00000287FF414AF94F8301094F8540073DF4D
:1087D0000028F6D1616B11B194F831008847002070
:1087E00005E784F83150F5E7F7B594B01746050072
:1087F0003CD0287C9DF854100024884252D000269A
:108800004FF0010E0D9615A8ADF834E00E90ADF8BE
:108810003660E9880DAA4FF6FF70ACDF040026D160
:108820009DF854002874687CA0B30F96109611969A
:108830001296E888ADF83C00BDF83600ADF840006F
:108840000DA811900E981290A7F57F408DF83EE08C
:10885000FE3805D039460FA8FFF7BEFC044621E0DC
:10886000684600F09DF800256F460FE00E2017B017
:10887000F0BD00BF07EB4506B08800F0ABF802285A
:1088800003D144B10FA9B088AEDF6D1C0098A84297
:10889000F0D807E005E0B1880FA8FFF79DFC04467B
:1088A000F3E708242046E2E738B50D46040018D067
:1088B000BDB12868206028796074FF2020740120F1
:1088C0008DF8020041F60F00ADF80000221D694648
:1088D0000120A8DF002803D129462046FFF72EFCFF
:1088E00038BD0E2038BD38B5002924D0002822D04C
:1088F0000288502A1FD10546487C0C4600281AD011
:10890000E9886289A81D914215D14189022912D1B5
:10891000216800290FD00C3000F012FE08B10020B1
:1089200000E001208DF80000A888ADF80200226860
:1089300069462046904738BD70B5040012D0014604
:108940001C221448FDF792FD1248134D0560206863
:1089500050B17ADF002806D120680168296040689C
:10896000686005E00E2070BD0B487BDF0028FAD15F
:1089700008484FF6FF711438084A20F8041B0549CF
:10898000343901600021FFF739FB0028EBD00320C8
:1089900070BD00002C6D002092510020C5E3020044
:1089A0000149496801F060B9486D002010B50446DE
:1089B00000F022F808B1204610BD142010BD0000C0
:1089C0000346034880680A46194601F016BC0000B9
:1089D000486D002070B50546002400F00DF838B150
:1089E0002946044802F051F808B1022400E00124AD
:1089F000204670BD506D0020142801D30020704720
:108A00000146014802F041B84C6D0020F8B5234CF6
:108A10000026ADF80060E07804F1180598B3A88846
:108A2000ADF80000E3886A4604F5AE70296800F0EE
:108A30009DFC082829D0132827D0052825D018B355
:108A4000FFF782FA21E0154900221831144803F09B
:108A500037F9052816D008B1FFF776FAA888ADF8DF
:108A60000000E3886A460F48296800F07FFC082868
:108A700006D0132804D0052802D028B1FFF764FAE5
:108A80000120E070F8BD00E0E670054803F05FF9F2
:108A90000028F7D1E0780028D5D0F3E7E44F002094
:108AA000F8F20200405100207CB5054608880C46CB
:108AB0000930904201D90C207CBD68466DDF00284A
:108AC000FAD121880820685420881B21401C80B2DC
:108AD000208029542088401C80B220802844DDF862
:108AE00001100160BDF8051081802088801D80B2D2
:108AF00020809DF80010490800D0012129542088C9
:108B0000401C208000207CBD10B502F0D3F9002865
:108B100009D105484FF0030C00DF002803D1BDE860
:108B2000104002F035BA10BD4C77002018B103494F
:108B30000860002070470E2070470000945200200B
:108B400010B54FF0FF3100203DDF00280BD1B121DF
:108B50003CDF002807D104484169012088470220F2
:108B600003F090F8002010BD30770020044810B5C5
:108B70000068416900208847BDE81040FFF7E0BF6A
:108B80009452002010B588B0044620216846FDF7B5
:108B900086FC0320ADF8000020788DF802009DF8D7
:108BA0000D00172140F028008DF80D0001208DF8F0
:108BB00010008DF81300ADF804108DF812008DF838
:108BC0000C008DF811006088A21D694600F056FF68
:108BD00008B010BD10B5184C86B01ECC8DE81E0034
:108BE00048B1164C4FF6FF71A1800068002160610A
:108BF000217618B104E00E2006B010BD1048606167
:108C00000E48FFF793FF0028F6D101208DF81200DF
:108C10004FF65960ADF81000A21C04A90120A8DF8E
:108C20000028E9D10549684662DF0028E4D10348FD
:108C3000FFF7A8FFE0E70000E0E80200307700203F
:108C4000A1A1020010B5002823D003881C4C102BD2
:108C500017D02146112B8A8815D0C988512B19D0DD
:108C6000532B16D1C088884213D1207E002810D003
:108C7000FFF77CFF00280CD06169BDE8104002209E
:108C80000847808804E08088824202D14FF6FF7056
:108C9000A08010BD83889342FBD110F8062F022AD2
:108CA000F7D142888A42F4D1017A0429F1D0062909
:108CB000EFD00529EDD0BDE81040801C04F006BAC5
:108CC000307700202DE9F0410546007B042601277E
:108CD0002E4C012811D002282CD00226287B3146A8
:108CE00000F08EF818B12068416903208847206899
:108CF00041690220BDE8F041084720684FF00008B4
:108D0000417E49B10621012000F07AF800283BD0CD
:108D1000206841690320EDE707760121084600F04D
:108D20006FF8002830D02268112882F81880D5D139
:108D30000626D3E76A7B142A22D80AB3DFF85080CC
:108D400005F10E0108F10400FDF790FB697BC8F8FE
:108D5000181021684046497E0029BFD1A0F10C01BE
:108D60000A68011F904768B10F28B7D109480A491E
:108D7000401AC00807EB0040084902F0D7FDADE7F4
:108D80000526ABE720684776BDE8F08194520020C5
:108D900058770020C4F2020044F2020084F002007E
:108DA00070B5154900250A68002A24D04A68002AAF
:108DB00021D00831904708281DD0104C0028206889
:108DC00045760ED00621022000F01AF818B120686E
:108DD000416903208847206841690220BDE870404E
:108DE00008470121022000F00BF8002803D020687A
:108DF00041690320F2E770BD4C77002094520020B7
:108E000086B00323ADF8003020238DF814308DF8A0
:108E1000150000220E48019202928DF81610C188AA
:108E2000ADF8041002218DF8061005A90491ADF8E3
:108E30000820CDF80CD0808801A9AEDF002804D12D
:108E4000BDF80010032900D00C2006B070470000C8
:108E50003077002000B58BB0002814D168462C2153
:108E6000FDF71DFB402104910021012005918DF8A3
:108E700004008DF8000069460448FFF75CFB002100
:108E80000348FFF79DFD0BB000BD00003C540020DF
:108E9000E99E02001FB5044601208DF8060041F648
:108EA0000A00ADF80400494A01A90120A8DF002802
:108EB0007DD122885AB14548801C009094F83C30FE
:108EC00042F62920616800F0A9FD00287BD12289A3
:108ED0005AB13E480A30009094F83C3042F62420C3
:108EE000E16800F09BFD00286DD1228A5AB1374815
:108EF0001230009094F83C3042F62520616900F071
:108F00008DFD00285FD1228B5AB130481A30009075
:108F100094F83C3042F62720E16900F07FFD0028FC
:108F200051D1228C5AB129482230009094F83C301B
:108F300042F62620616A00F071FD002843D1228D9F
:108F40005AB122482A30009094F83C3042F628204A
:108F5000E16A00F063FD002835D1216B79B102A8E8
:108F600004F01EFE194808223230009094F83C307C
:108F700002A942F6232000F051FD002823D1606BA6
:108F800060B112493A3100910279016894F83C309D
:108F900042F62A2000F042FD002814D1A16B89B1CD
:108FA00002A804F0A1F909484230009000E00AE06C
:108FB00094F83C30072202A942F6502000F02EFD22
:108FC000002800D1002004B010BD00009A510020FC
:108FD0002DE9F84F394D01880027B5F806C0044641
:108FE000212952D01CDC3648364A344EA0EB020010
:108FF0004FEAD0004FF0030806F1120608EB0040DC
:109000004FF0010906F10E0A102913D011292AD0B8
:10901000132926D100231A46852160467FDF42E0CE
:109020003B2946D0522939D056291AD1808813219C
:1090300076DF38E024A102F079FC072000F04AFB3B
:1090400008B1FEF781FFA188E980224801F07AFE8D
:1090500008B1FEF779FFFDF725FF022030708AF88E
:109060001F91BDE8F88F1CA102F060FC4FF6FF7065
:10907000E880FDF717FFA87810B186F8008001E0BE
:1090800086F800908AF81F71EBE7009780886946A0
:109090008FDF0028E5D0FEF757FFE2E700231A46EE
:1090A00019466046B1DF0028DBD0BDE8F84FFEF777
:1090B0004BBF8088132176DFF5E70000E44F0020E6
:1090C000C4F2020044F20200436F6E6E6563746581
:1090D0006400000030540020446973636F6E6E6555
:1090E000637465640000000010B51A4C0188606864
:1090F00010290ED011292BD1401E606028D1FEF717
:10910000C5FE002824D02168002921D0BDE81040E8
:109110000847D0B900210122084600F0B9FA08B189
:1091200007280FD107220221012000F0B1FA08B16F
:10913000072807D104220221002000F0A9FA20B15B
:10914000072802D0216801B188476068401C606030
:1091500010BD0000885100202DE9F04701883B4EEA
:1091600040F2F3194FF6FF7510291BD011293ED09C
:10917000122954D0502946D1C188F289841D9142C8
:1091800041D1618902293ED18688304601F02CF90F
:10919000050038D004F10C0000F0D2F9A8B329463C
:1091A00030464EE0C17B8788044601292BD1A84672
:1091B000284601F019F9050017D02F8000202872E9
:1091C000234843464A460168C5F80A104068C5F876
:1091D0000E0004F1100105F10A0001F07CF968723B
:1091E000F08900280FD129462AE0042013E0808866
:1091F00001F0FAF8040006D06068FEF751FF08B1EC
:1092000004F064FA2580BDE8F087FFE76868FEF7A0
:1092100047FF0028F7D0BDE8F04704F057BA878829
:109220000646384601F0E0F80400ECD02B464A46EA
:1092300006F1080104F10A0001F04DF960722146BF
:109240003846BDE8F04700F075BD00002C6D0020E9
:10925000925100202DE9F04F04468688018842484B
:1092600097B0834610290CD0112950D010301929FD
:109270006AD01A2974D1217A0C09042C4DD3012209
:109280004CE0394D083DA868C0430B9069680BA8B5
:1092900001F01CFC0B990CA800F0E6FC2C220CA998
:1092A0006846FDF7E3F80027E946A84610E000BF4E
:1092B00009EB47005FF00005B0F804A008EB85005B
:1092C0005146001D01F0D6FB6D1C1E2DF6D37F1CF0
:1092D0000098B842ECD8142E05D317B00420BDE88E
:1092E000F04FFEF731BE3146584601F0D9FB31460A
:1092F00008F1040001F0D4FBE07B022830D117B064
:109300003146BDE8F04F1848001D01F0C9BB17B049
:109310003146BDE8F04F01F0ADBB0022314600F010
:1093200053FF032C01D3012200E000220E483146F6
:109330000C3000F049FF022C01D3012200E0002292
:1093400009483146083006E0217A002908D1617ABF
:10935000C1F3C002314617B0BDE8F04F00F034BF92
:1093600017B0BDE8F08F0000506D0020F0B585B05B
:1093700016460F4604001D4614D004AA194660691B
:10938000FEF742FF00280BD1A5F57F40FF380BD038
:10939000049848B1007848B13088F42808D90720EB
:1093A00005B0F0BD0E20FBE70520F9E70820F7E740
:1093B00000200090019002900390A088ADF800007A
:1093C00001208DF80200CDE9026769462846AEDF2C
:1093D000E6E7000070B5354D04008EB02DCD08AE27
:1093E00086E82D005FD0E9B30868A061214608A88F
:1093F00062DF002855D120788DF832004CF6F0401D
:10940000ADF83000A21C0CA90120A8DF002848D12B
:1094100020216846FDF743F84CF6F240ADF8000015
:10942000207801258DF802008DF80C509DF80D0074
:10943000F426ADF8046040F00C008DF81150ADF842
:1094400006508DF80D008DF81250608804F10C0262
:10945000694600F013FB002823D120216846FDF760
:109460001EF800E01FE04CF6F140ADF80000207857
:109470008DF802008DF80C509DF80D008DF81150FC
:10948000ADF8046040F010008DF81250ADF80650B1
:109490008DF80D008DF813506088221D694600F08C
:1094A000EDFA0EB070BD0E20FBE7000054E602009E
:1094B00070B588B00446002927D0002C25D0084676
:1094C0002188102923D0502927D057291DD105469E
:1094D000A188406906AAFEF797FE002815D1069ECE
:1094E0003078002811D0A86900280ED018216846CD
:1094F000FCF7D5FF01208DF800000195A088ADF89C
:1095000008000396A9696846884708B070BD08B08E
:109510002146BDE8704003F04FBD08B02146BDE8CC
:10952000704003F05FBE70B504460D460846FCF778
:10953000C1FF2080656070BD0078C0F340007047B7
:10954000007800F0010070470A7802704978417095
:109550000220704707490B5C4FF0A041D1F8042569
:109560000120984020EA0203C1F808351040C1F8F4
:109570000C05704708E602000249085C012101F071
:10958000D3BF000008E602000249085C002101F098
:10959000CBBF000008E602000649095C4FF0A0407E
:1095A000D0F80405C84010F0010000D0012080F080
:1095B0000100704708E6020010B500242046FFF7BE
:1095C000DBFF641C042CF9D310BD10B50024204629
:1095D000FFF7DAFF641C042CF9D310BD10B5024666
:1095E000064B4FF0FF3000215C5C944201D10846ED
:1095F00010BD491C0429F7D310BD00000CE6020081
:109600002DE9F0470D468146FFF7E8FF04460428A0
:1096100036D2DFF874801B481C4EA8F10C0725B326
:10962000012D0ED0022D2BD104EB4400304445789F
:10963000002D25D0B968002922D02846BDE8F04782
:10964000084704EB4401755C0E44717849B10E4A39
:109650004FF48041093A8068FEF70AFD08B987F89F
:109660000390B17808F80410E2E78068FEF718FD6F
:1096700004EB4401314418F804008D78A842D7D097
:10968000BDE8F08710E6020084510020C86C00207D
:1096900070B50023042810D20D4D00EB4004012AC0
:1096A00002D101290CD00022094E00EB40003044C9
:1096B00061B1012906D0022906D00723184670BDE2
:1096C0000E30C2B22A55F9E74270F7E78270F5E72B
:1096D000C86C0020044A014600201279D20702D04B
:1096E000084600F003B87047785100202DE9F05F7C
:1096F0006E4C054600266078B34618B184F801B078
:1097000000F00CFF6A4F4FF47A694FF4C87A4FF0BB
:109710000108182D69D2DFE805F00C1313384754FF
:10972000696E727B727BC58484848484B3B6B9BC51
:10973000C5C500F0F3FE3868FEF7B2FC06465CE0F3
:109740000020FFF729FF00284FF0000008D0FFF7A6
:1097500013FF022D02D14FF4E16008E0484606E015
:10976000FFF712FF022D01D1C82000E05046410C46
:10977000C0034FF47A72801841F100012570520045
:109780000023FCF72FFE01462AE00020FFF704FF2C
:1097900000284FF0000004D0FFF7EEFE4FF44870B1
:1097A000E5E7FFF7F1FEDFE70020FFF7F5FE002811
:1097B0004FF0000002D0FFF7DFFECFE7FFF7E4FE37
:1097C000D4E70020FFF7E8FE00284FF0000002D0A9
:1097D000FFF7D2FE01E0FFF7D7FE257040F6CD413E
:1097E00000223868FEF744FC064646E00020FFF7FA
:1097F000B1FE257008E0002051E025703DE084F8BE
:1098000001800120FFF7A6FE002240F26661E8E732
:1098100084F801800120FFF79DFE00224FF40051E3
:10982000DFE77868FEF73CFC0646D5F1110000D072
:109830002EB10220FFF7A0FE84F802B01DE001283F
:1098400016D980B2C8214843C117C90341EA504123
:10985000C0034FF47A72801841F1000152000023D6
:10986000FCF7C0FD014600227868FEF701FC0646C1
:109870000220FFF789FE84F802803046BDE8F09FA1
:1098800000F04CFEB9E700F049FEB4E700F046FEF8
:1098900004E000F043FE0020FFF776FE0120FFF712
:1098A00073FEAAE7FFF791FEA7E7000078510020BA
:1098B00010E602002DE9F84F0546861C00208DF8C1
:1098C000000091460F464FF0010A6846FEF7F8FB8C
:1098D0001B4C04F21C4860683860D4E90101194F40
:1098E000401A3968081A0EE00121404601F0E8F8F4
:1098F00000F038FE0146404601F0E2F8D4E90101EB
:10990000401A3968081A401C8642EDD8B9F1000F98
:1099100003D0052065F3891002E0062065F39F500F
:1099200061683A68114004EB8101C86060683044A6
:1099300060609DF80000FEF7E7FB5046BDE8F88F39
:10994000887000203C52002070B50D4604460A295C
:1099500002D10D21FFF7F8FFA0682268411CA16029
:109960001554D4E90101814204D32046BDE870407A
:1099700001F0E3BB70BD000004488168406881428B
:1099800001D101207047002070470000887000203E
:10999000032805D10349A9200860002002F072B90C
:1099A000704700002005004005494FF0FF320828AD
:1099B00041F8202002D3084480F85420704700006A
:1099C000D86D0020F0B54FF0FF3512B10023082606
:1099D00001E008230F260C4C05E000BF54F823706B
:1099E0007F1C04D05B1CB342F8D32846F0BD261878
:1099F0005DB286F83C5044F82310002AF5D1E118F6
:109A000081F85400F1E70000D86D002002490844B5
:109A100090F93C0070470000D86D00202DE9F0411E
:109A200088B01E46DDF8388014460D00074602D186
:109A30000020FEF789FA14B90020FEF785FA2021EC
:109A40006846FCF72CFD9DF80D00ADF8044040F091
:109A500002008DF80D000848ADF80070ADF8064022
:109A600002958DF8116042466946008800F006F8BC
:109A700008B0BDE8F08100009A5100202DE9F043C4
:109A80008146887891B090460C4600B901208DF847
:109A90003E002088ADF83C0000250095607C6946BA
:109AA00003F0D0FE6E46A07C711C03F0CBFEE07B81
:109AB00000289DF8020002D040F0080001E020F0EC
:109AC00008008DF80200217C11B140F0100001E087
:109AD00020F010008DF80200217B11B140F0010050
:109AE00001E020F001008DF80200217D09B1022182
:109AF00000E0012161F342008DF802001C2102A860
:109B0000FCF7CDFC607BC10601D4800617D50E950D
:109B10000EAFE07C791C03F095FE9DF838000797A6
:109B200020F00F00401C20F0F00010308DF83800BD
:109B30009DF83A0020F00600801C8DF83A00607B0A
:109B40008DF80800A07B8DF80900142109A8FCF706
:109B5000A6FC0FA8CDE90906A088ADF83000A068E2
:109B600020B1E088ADF82C00A0680D90A06998B3F2
:109B700001950088ADF81000A06901AD01A94088E9
:109B8000ADF81200A069406806950390A069007BBB
:109B900003F058FEA069691C407B03F053FEA069E6
:109BA000807A00289DF8060002D040F0080001E00D
:109BB00020F008008DF80600A169C97A11B140F0C3
:109BC000100001E020F010008DF80600A169097A6C
:109BD00019B140F0010002E00DE020F001008DF825
:109BE0000600A169897B09B1022100E0012161F32E
:109BF00042008DF80600E06900B10590434609AACD
:109C000002A94846AADF11B0BDE8F08370B5084C40
:109C1000050009D010342168002907D008682060A9
:109C2000496828468847F6E70834F4E770BD000025
:109C3000C46D0020054A012120B1012805D1917091
:109C4000FFF7E4BF51700020FAE77047C46D0020B1
:109C500010B5D0E90234D1E90220D11AA04101D3D4
:109C6000012010BD002010BD73B58CB00646002049
:109C700000900D9880B100246D4621460DA800F09B
:109C800004FF30B1009805EB400084800098401C30
:109C90000090641C142CF0D32C2269463046FCF74B
:109CA000E5FB0EB070BD2DE9F04117880646B81DE2
:109CB00014460D46984202D90C20BDE8F081318847
:109CC000072206290AD34FF4486C4FF6FF7361450B
:109CD00001D9994202D17088062801D21046ECE7DA
:109CE000604501D99842F9D1994203D0984201D0F8
:109CF0008142F3D80520E85520881221401C80B20B
:109D0000208029542088401C80B22080411930884E
:109D100004F0CEFA2188084480B22080411970886E
:109D200004F0C6FA2188084420800020C5E7FEF729
:109D30000BB9000038B54A7A0F4B62B100220A72A3
:109D40005969002906D001228DF80020ADF80200E3
:109D50006846884738BD0A7A62B19B684C680246FB
:109D600019462046FEF784F90028F3D0BDE83840B4
:109D700003F0ACBC5B68F1E72C6D002070B588B0D7
:109D80000646002005900690ADF81410ADF81610A8
:109D90000190029001AA05A9304690DF050021D06C
:109DA00002F0DAFA0346114811493246401AC10856
:109DB000012000EB014004460E4901F0C2FDBDF850
:109DC000042012B9BDF8060028B1BDF806302046BF
:109DD00009A101F0B6FDBDF808201AB120461649C8
:109DE00001F0A8FD08B0284670BD000054F2020042
:109DF00044F20200BCE90200546865207265717586
:109E000065737465642054582F5258207061636BD9
:109E10006574206C656E67746820697320746F6F59
:109E2000206C6F6E672062792025752F2575206F55
:109E300063746574732E000008EA0200F0B587B001
:109E40000C4607461646142101A8FCF728FBA0780B
:109E500000B901208DF81A002088ADF8180006A876
:109E60000190A079694603F0EDFC6D46E079691C2C
:109E700003F0E8FCE07800289DF8020002D040F0F2
:109E8000080001E020F008008DF80200217911B1EE
:109E900040F0100001E020F010008DF80200617920
:109EA00011B140F0010001E020F001008DF8020046
:109EB000217A09B1022100E0012161F342008DF80D
:109EC000020002956089ADF80C00A089ADF80E0083
:109ED000E089ADF8100020690590324601A93846A6
:109EE000ABDF07B0F0BD000030B40446132176DFCD
:109EF00003000BD0064807492246401AC008022139
:109F000001EB004030BC044901F01BBD30BC704780
:109F1000C4F2020044F2020078E9020010B5002108
:109F2000024800F0DEFD80F3100010BDA474002094
:109F30004FF480328A400168C1F848230068C0F8B5
:109F4000082370474FF4A07202EB810189B200F040
:109F500031B92DE9F04105460E464FF4A07000EBF3
:109F6000860081B228684FF48034B440984622F0CD
:109F70007F47C0F808432868C0F84843286801F0C4
:109F80006EFF286800EB8600C0F840752868C0F8AE
:109F90004443B8F1000F02D02868C0F80443BDE87C
:109FA000F0810068D0F804057047000070B543796F
:109FB000234C44F823204279231D03EBC202224C98
:109FC0001579204A121BD4082DB10825022000EB78
:109FD00004401EA130E005680A88C5F8082590F9FC
:109FE00004208978002A4FEA411104DB02F1E022C3
:109FF00082F8001405E002F00F0202F1E02282F87C
:10A00000141D90F904100122002909DB01F01F053D
:10A0100002FA05F54909890001F1E021C1F8005172
:10A020004179002503EBC1010A71417943F8310000
:10A03000032000EB04400EA101F078FC284670BD1F
:10A040001C520020ACF2020044F2020052544320A1
:10A05000696E7374616E636520616C7265616479A9
:10A0600020696E697469616C697A65642E0000000C
:10A070005254433A20696E697469616C697A656407
:10A080002E00000090F90400002809DB00F01F02F8
:10A09000012191404009800000F1E020C0F8001249
:10A0A00070470A46022100F07CB84FF4827100F03C
:10A0B00081B800680121016070470068012141609A
:10A0C00070472DE9F05F07460C464FF4A07000EB97
:10A0D00084001FFA80FA38684FF48036A6409B4609
:10A0E00022F07F45C0F848633868C0F808633868D4
:10A0F000D0F8048500EB8402D2F84095C2F8408580
:10A100005146386801F0ABFEA9EB080020F07F4013
:10A11000012806D1102002F08BF95146386801F071
:10A120009EFE3868D0F80485C0F84463A5EB0801AA
:10A1300021F07F413868012900EB840010D0C0F87D
:10A1400040553868D0F804156FF07F4C6A1A521EDB
:10A1500022F07F42ACEB0B03934217D362B118E0BD
:10A160006D1CC0F84055102002F062F93868D0F834
:10A17000040540450AD10CE000EB84006D1CC0F8DA
:10A1800040553868D0F80405884202D00D20BDE85B
:10A19000F09F01223146384600F003F80020F6E730
:10A1A00070470368C3F84413002A02D00068C0F85F
:10A1B0000413704710B5006842581AB101F04FFE01
:10A1C000012010BD002010BD0AB100F069BC00F0F4
:10A1D00051BC70B50D460446B0F81414D0F8100404
:10A1E0000122FEF7F6F800B1057004F13C0204F517
:10A1F000826104F1540072DF70BDF7B517460E009E
:10A2000011D00098002560B100242146684600F076
:10A210003CFC18B1A0B23946B0476D1C641C142C2C
:10A22000F3D32846FEBD0020FEBD00000C484A883E
:10A23000C3889A4213D10A88A2F52063773B0ED1D6
:10A240008988C91E8AB20281064807491346401A06
:10A25000C008032101EB004004A101F072BB70476C
:10A26000E44F0020C4F2020044F202004461746131
:10A27000206C656E2069732073657420746F2030C4
:10A28000782558282564290010B50949094800F0A7
:10A290009FFC08B1FDF758FEF721064800F08CFC42
:10A2A000002803D0BDE81040FDF74EBE10BD0000F1
:10A2B0002DA202001C54002010B50B48FFF771FEC0
:10A2C000094A083AD2E90434C018D2E9063244F106
:10A2D0000001C31A71EB020204D24FF080728018A1
:10A2E00041F1000110BD00000052002010B54FF4F4
:10A2F000FA74204600F0CEFDFCF736FA204600F056
:10A30000C9FDFCF77FFA204600F0C4FD962101202C
:10A31000FCF78CFA642000F0BDFDC0210220FCF7A0
:10A3200085FA642000F0B6FDEC210320FCF77EFAEC
:10A33000642000F0AFFDFF210D20FCF777FA6420C8
:10A3400000F0A8FDFF210E20FCF770FA642000F059
:10A35000A1FD20211520FCF769FA642000F09AFD88
:10A3600060210520FCF762FA0A2000F093FD6021CD
:10A370000620FCF75BFA0A2000F08CFD6021072024
:10A38000FCF754FA0A2000F085FD60210820FCF754
:10A390004DFA0A2000F07EFD60210920FCF746FA04
:10A3A0000A2000F077FD60210A20FCF73FFA0A201E
:10A3B00000F070FD60210B20FCF738FA0A2000F055
:10A3C00069FD60210C20FCF731FA0A2000F062FDE3
:10A3D000FCF7D9F9642000F05DFDFCF700FABDE858
:10A3E0001040642000F056BD0146034802888A42AE
:10A3F00000D0002070470000186D00202DE9FC5FA0
:10A400000E008346DDE90C47C6F1000098469246EF
:10A41000814600D40846012503E000BF90FBFAF016
:10A420006D1C5045FADAA84500D9454624B1002EE6
:10A4300001DB780700D5641EB80702D5B8F1000F1C
:10A440000AD0F80708D13CB1A54205D220215846D0
:10A45000641EFFF779FAF6E7002E02DA4E462D2148
:10A4600002E0780703D52B215846FFF76DFA07F075
:10A47000030002280BD1B8F1000F08D13CB1A5426E
:10A4800005D230215846641EFFF75EFAF6E7CDE9A3
:10A490000047434652463146584603F00FFFBDE899
:10A4A000FC9F024600201268530713D502F00300F8
:10A4B000012802D002280CD105E0C2F383100B68FA
:10A4C000801C184404E00223086803EB92521044F5
:10A4D000086001207047F0B58488A518944200D820
:10A4E0002246A41AC288D6189A4200D81346D21A15
:10A4F0004B880788BB420CD34088834209D88888A0
:10A50000A04206D3A84204D8C888904201D3B042E2
:10A5100001D90020F0BD0120F0BD00000A4810B5AF
:10A52000807860B1002401E0022C06D02046FFF7BD
:10A5300023F8641C042CF7D310BD0324F6E7BDE810
:10A540001040FFF739B8000078510020F721018052
:10A5500017214180002101714171FB2181711B2173
:10A56000C17170472DE9FF410026244800F0A5FA8B
:10A570002248001F074600F0A0FA214C2149A0689C
:10A5800000900D6800E000986946284004EB8000C8
:10A590000C30FFF786FF0028F5D101AA009901EAE7
:10A5A000050304EB8303491CDB6842F82030401CA0
:10A5B00000910228F2D3019800F0030001280BD08B
:10A5C000022810D10198032101EB90500099BDF8A9
:10A5D0000A6001EB900005E00198BDF80A60C0F345
:10A5E000831008440090384600F064FA08B10098DF
:10A5F000A06004B03046BDE8F0810000A0740020E7
:10A60000887000203C52002000EE100ADFED030AA3
:10A61000B8EEC00A20EE200A7047000000008C420D
:10A6200000EE100ADFED030AB8EEC00A20EE200AA1
:10A630007047000023DB793DACB0FEF765FAFCF70C
:10A64000E6F9FCF7F9F9FCF789FEFCF7EDFCFBF7FE
:10A650008EFFFDF78FF8FFF749FEFCF7ADF8FCF72A
:10A66000C1FCFCF701FA4FF48041002001F0CAF967
:10A6700008B1FDF769FC01F02FF8FDF7CBFC08B13C
:10A68000FDF762FC594A01215948FDF7B7FC08B1B2
:10A69000FDF75AFC5648574A0121001DFDF7AEFC54
:10A6A00008B1FDF751FC01F0B7FA08B1FDF74CFC19
:10A6B00001F074FD08B1FDF747FC00246946012054
:10A6C000009401F009FC08B1FDF73EFC684601F07A
:10A6D0009DFC08B1FDF738FC9DF8080046A120F06C
:10A6E0000F00401C20F0F00010308DF80800082208
:10A6F00002A87CDF08B1FDF727FC00941020ADF81C
:10A7000000000194ADF80200ADF804404FF4C870A9
:10A71000ADF8060068467ADF08B1FDF715FCFFF7D3
:10A72000B3FD03F047F8AC216846FBF7B8FE022002
:10A730008DF800008DF8024006208DF803000120FE
:10A740003049ADF84C0014918DF87C004020CDE9E3
:10A7500022042D48299069462C48FDF770FE08B167
:10A76000FDF7F2FB01212948FDF766FE1C21684632
:10A77000FBF795FE4FF4A030CDE900404FF4F020F8
:10A78000029023480590032522488DF80C5006902E
:10A79000ADF80E408DF810406846FEF7CDF808B1D0
:10A7A000FDF7D2FBFCF77EFB02F05EFDFDF71AFD24
:10A7B00001203FDF08B1FDF7C7FB03211348FDF778
:10A7C000FBFE08B1FDF7C0FB13481449401AC0084E
:10A7D00005EB004012A101F0A9F800BF00F08AFFCC
:10A7E0000028FBD101F02CFAF8E70000BD7402004C
:10A7F00050E502008973020045636F6E48616E6424
:10A8000000000000F24F002025CF02003C54002041
:10A810009DCF02002F9D0200C4F2020044F202000C
:10A8200054656D706C617465206578616D706C65E0
:10A8300020737461727465642E00000070B5144654
:10A8400082880E4605462088111D0144921C9942BB
:10A8500001D8FE2A01D90C2070BD521C3254208828
:10A86000FF21401C80B2208031542088401C80B2DF
:10A8700020808119288803F01BFD2188084480B2BC
:10A880002080AA8842B1A96841B13044FBF7EEFDAF
:10A890002088A98808442080002070BD072070BD52
:10A8A0002DE9F047C5881E1DB6FBF5F78946B6FBB6
:10A8B000F5F1044605FB176C407916686843DDF82E
:10A8C00020A0F718001F874200D9C61A166001E0C1
:10A8D0002468491E0029FBD1A5EB0C078846B74226
:10A8E00016D818E004EB0C00001D09EB0803BAF1C0
:10A8F000000F3A4602D00146184600E01946FBF721
:10A90000B5FD2468F61B4FF0000CB844B54201D9E0
:10A91000374600E02F46002EE4D1BDE8F087000066
:10A9200030B5024651B101F081F80021074C08E032
:10A9300034F821301568AB4202D11160002030BDDF
:10A94000491C8142F4D3052030BD00000000000006
:10A95000F8B50F46017814460546012901D16878FB
:10A9600030B12088821C9A4232D8012902D006E0F8
:10A970000720F8BD69780144891C994228D8181A23
:10A98000801E86B2ADF800602188B81C0844694674
:10A990007DDF0028EDD12978022904D06878BDF840
:10A9A0000020904205D3BDF80000B04201D8092034
:10A9B0000AE00820012905D16978B14202D8ADF832
:10A9C000001001E0ADF80060BDF80010FE2901D9CB
:10A9D0000C20F8BD2288491CB9542188491C89B231
:10A9E000218078542088401C2080BDF80010084445
:10A9F00020800020F8BD10B531B1B2FBF3F403FBA9
:10AA000014241CB1092010BD0E2010BD01600021CE
:10AA1000416081608281C381084610BD70B50C46DB
:10AA20000546FBF7F7FB002802D021882868084478
:10AA300070BD10B50A8849888A4203D1FBF72CFC07
:10AA4000012010BD002010BD70B50C460546FBF777
:10AA500006FC002802D061882868084470BD10B543
:10AA60000A8849888A4203D1FBF7F0FB012010BD18
:10AA7000002010BD01F01F0301229A40D243490972
:10AA800000EB8100114600F021B84A0950F822007D
:10AA900001F01F0201219140084000D001207047C1
:10AAA00001F01F0301229A40490900EB8100114681
:10AAB00000F01CB8002100F00FB8012100F016B81A
:10AAC00008B56A46FBF73DFC009808BD08B56A4624
:10AAD000FBF71DFC009808BD08B56A46FBF717FC9C
:10AAE00008BD08B56A46FBF7F9FB08BD08B56A461C
:10AAF000FBF700FC009808BD08B56A46FBF72EFC82
:10AB0000009808BD38B5044600258DF80050684609
:10AB1000FDF7D6FA21686268086890420ED9401E97
:10AB200008600178238AE26801FB0325227A216804
:10AB3000101AC0B20A79824200D208719DF8000052
:10AB4000FDF7E2FA284638BD38B5054600208DF8F5
:10AB500000000C466846FDF7B3FAE868298A201A17
:10AB6000B0FBF1F12A681068431C136001709DF876
:10AB70000000FDF7C9FA38BD10B530B1017A42685E
:10AB80000368891AC9B21A6006E00E2010BD036876
:10AB90001A68541C1C601170491EC9B2F7D20068B3
:10ABA00000210171084610BDC20800F00703012012
:10ABB000895C98400840704728B1A1F11702E12A4A
:10ABC00003D3072070470E20704701800020704794
:10ABD00010B560B10161F72120F8021B20F8021BBB
:10ABE000FB2100F8021BFFF7B1FC002010BD0E2076
:10ABF00010BD0000F0B5858893B00C46002D39D10A
:10AC0000018800263F4F24293BD006DC102909D0BB
:10AC100011290CD0232958D14FE03A290BD05529BE
:10AC200053D129E00146204602F0FCF94DE0A01D79
:10AC3000FFF78CFC49E02246408934F8061F814228
:10AC400000D808466080172800D21720608010695D
:10AC500070B1607960B1D7E90001CDE90301ADF8C9
:10AC60000E506088ADF81000136903A9104698478C
:10AC70006671267113B0F0BD0146204602F05CFA01
:10AC800023E0011D2C2206A8FBF7F0FBBDF81800FD
:10AC9000BDF81C2004EBC0014A732269AAB1D7E9B0
:10ACA0000423CDE90423ADF81200487B8DF814008D
:10ACB0002269204604A9904707E0017A207B884258
:10ACC00000D201462846FFF759F8A07A0028D1D0D3
:10ACD000E1882846A5DF012580B11128CAD001F0FE
:10ACE0003BFB02460848094913B0401AC00805EB6F
:10ACF0000040BDE8F04006A100F01CBEA672E5725F
:10AD0000B8E700003CE6020054F2020044F2020000
:10AD100073645F626C655F67617474635F657863B9
:10AD200068616E67655F6D74755F72657175657377
:10AD30007428292072657475726E65642025732EDF
:10AD40000000000020B10278DE2A03D008207047FE
:10AD50000E20704741800020704760B159B10278E1
:10AD6000DE2A0AD009684160DE2101704FF6FF71CA
:10AD70004180002070470E207047082070477FB543
:10AD8000054600294DD0002D4BD008780C46DE2812
:10AD900047D1A8886188884202D1204603F052FB3F
:10ADA0002888012825D002283BD011283AD05128E4
:10ADB00037D135F8040F6188884232D1A978A81CB0
:10ADC00002292ED1017A042903D0062901D00529B0
:10ADD00027D10021009102228DF8002001914FF42B
:10ADE000C07202910391ADF80420007A05280FD0BB
:10ADF00010E0297A2046012913D1A988428891427E
:10AE00000FD10121017204B0BDE8704003F01ABBFC
:10AE1000ADF8041028886946B0DF002801D06168C9
:10AE200088477FBDA88861888842FAD14FF6FF70B5
:10AE300060807FBD00F180400068002800D00120C4
:10AE4000704708B500F18040002101600068009063
:10AE500008BD00002DE9F041040007D0044E4FF476
:10AE60007A47751C3846A847641EFAD1BDE8F081C0
:10AE700080E502002DE9F041040007D0044E4FF4B4
:10AE80007A47751C3846A847641EFAD1BDE8F081A0
:10AE900090E502002DE9F041040007D0044E4FF484
:10AEA0007A47751C3846A847641EFAD1BDE8F08180
:10AEB000A0E5020070B540F6F8700468601C02D18D
:10AEC0004FF0102044691248124B4FF00102A3EBDF
:10AED00000004FEAD000611C02EB004512D00321B4
:10AEE00001EB004022460CA100F024FD204613DFB8
:10AEF000040005D0284613A100F018FD204670BDBF
:10AF0000002070BD28461CA100F010FD042070BD7B
:10AF100044F20200C4F2020053657474696E672043
:10AF2000766563746F72207461626C6520746F2043
:10AF3000626F6F746C6F616465723A20307825308F
:10AF4000387800004661696C65642072756E6E69C0
:10AF50006E672073645F736F66746465766963659A
:10AF60005F766563746F725F7461626C655F626166
:10AF700073655F73657400004E6F20626F6F746C51
:10AF80006F616465722077617320666F756E64000F
:10AF900070B50C480C490D4A401AC508032000EB57
:10AFA00005400BA100F0C6FC084813DF040007D0E1
:10AFB000012000EB054011A100F0B8FC204670BD57
:10AFC000002070BDC4F2020044F2020000600200E2
:10AFD00053657474696E6720766563746F7220744C
:10AFE00061626C6520746F206D61696E20617070A4
:10AFF0003A20307825303878000000004661696CCE
:10B0000065642072756E6E696E672073645F736F1E
:10B0100066746465766963655F766563746F725F95
:10B020007461626C655F626173655F736574000073
:10B0300070B50D4C0125207808B185260EE0002062
:10B04000A06060602061E060084801F0B9F9064640
:10B0500001F0F0F808B901F09DF9257001F092F9BE
:10B0600000B1A570304670BDC46D0020359C020053
:10B0700038B500258DF800506846FDF721F8084CDA
:10B08000E068401EE060E06828B901F07BF910B983
:10B0900001F0A6F9A5709DF80000FDF735F838BD60
:10B0A000C46D002030B41C460378064D45F82320BB
:10B0B0000C3545F8234002B1034A30BC001D01F0B5
:10B0C00071BC0000F069002055DA02002DE9F04162
:10B0D000064604780B4815460F4640F824200830F1
:10B0E00040F82430487B10B1084602F031FE0DB123
:10B0F000054A00E0002223463946301DBDE8F041F4
:10B1000001F0B6BD68510020FDDD0200001D01F018
:10B1100021BE38B5001D049C009401F033FE38BDFB
:10B120000FB408B50399002904D004AA00926A4616
:10B1300000F00FF801B05DF814FB10B5826804460A
:10B14000002A05D0D4E90403216898470020A060B4
:10B1500010BD2DE9FC4791460C00804676D014F8CE
:10B16000011B39B125290ED04046FEF7EDFB2078B2
:10B170000028F4D198F80C00002867D04046BDE8BC
:10B18000FC47FFF7DABF0020012221782B291BD0D2
:10B190002D2902D0302908D102E040F0010001E061
:10B1A00040F00200641C002AEFD100252A290ED0AD
:10B1B0002178A1F130020A2A11D205EB850201EBB8
:10B1C0004205641C303DF1E740F00400EAE7D9F89D
:10B1D00000100B1DC9F800300968641C0D4421786B
:10B1E00000232E290BD114F8011FA1F130020A2AE5
:10B1F00005D203EB830201EB4203303BF3E76C29FA
:10B200000DD068290BD0692921D00BDC252918D055
:10B21000582931D063290ED0642915D117E014F8CC
:10B22000011FECE7702969D0732932D075291BD032
:10B23000782909D120E0D9F80000011DC9F80010D3
:10B2400001784046FEF780FB641C90E76CE0D9F87B
:10B2500000100A1DC9F800200968CDE900500A2233
:10B260004046FFF7CBF8EFE7D9F800100A1DC9F800
:10B27000002009680A2206E0D9F800100A1DC9F862
:10B28000002009681022CDE90050404603F016F86E
:10B29000DAE7D9F8001000270A1DC9F800200E6867
:10B2A000C00705D112E04046761C7F1CFEF74CFB20
:10B2B00031780029F7D104E0202140466D1EFEF7C9
:10B2C00043FBBD42C0D9002DF6D1BDE74EB130469B
:10B2D000FBF7F0F8074604E0202140466D1EFEF71C
:10B2E00033FBBD4206D9002DF6D103E04046761C63
:10B2F000FEF72AFB31780029F8D1A5E7D9F800003C
:10B30000011DC9F80010056830214046FEF71CFBFE
:10B3100078214046FEF718FB08200021CDE9000106
:10B32000034610222946B0E7BDE8FC8770B541EA24
:10B330004201DDE904564FF0A04441EA830141EAAD
:10B34000052104EB800041EA0641C0F8001770BDFA
:10B3500070B541EA4201DDE904564FF0A04441EAEC
:10B36000830141EA052104EB800041EA0641C0F86F
:10B37000001770BD70B541EA4201DDE904564FF097
:10B38000A04441EA830141EA052104EB800041EA3F
:10B390000641C0F8001770BD70B541EA4201DDE911
:10B3A00004564FF0A04441EA830141EA052104EB31
:10B3B000800041EA0641C0F8001770BD4FF0A0427E
:10B3C00002EB80000221C0F8001770471CB5002175
:10B3D00000910B4601220191FFF7CCFF1CBD4FF0FD
:10B3E000A04202EB80000321C0F8001770471CB593
:10B3F000002100910B46012201911146FFF796FFB3
:10B400001CBD1CB5002100910B4601220191114683
:10B41000FFF79EFF1CBD4FF0A04202EB800003210E
:10B42000C0F8001770474FF0A04202EB8000D0F840
:10B43000002722F44032C0F80027D0F8002742EA63
:10B440000141C0F8001770474FF0A04202EB8000A6
:10B45000D0F8002722F44032C0F80027D0F80027A7
:10B4600042EA0141C0F800177047000038B5094BA7
:10B4700044181B6800936B4608E000BF53F8201087
:10B48000D1F8205520C2C1F82055401C8442F5D87F
:10B4900038BD000064E602004FF0A0420121814067
:10B4A000C2F80C1570474FF0A04201218140C2F84C
:10B4B0000C1570474FF0A04201218140C2F80C15D5
:10B4C000704742094FF0000100D1491E00F01F00F3
:10B4D000012282400A4201D00120704700207047BB
:10B4E0004FF0A041D1F81015C14001F001007047A4
:10B4F0004FF0A04201218140C2F8081570474FF07B
:10B50000A04201218140C2F8081570474FF0A042C7
:10B5100001218140C2F8081570474FF0A042012177
:10B520008140C2F80815704701224FF0A0438240C5
:10B5300011B1C3F808257047C3F80C257047000007
:10B54000034908B50844002101600068009008BD67
:10B550000060004002494058012800D00020704798
:10B560000060004030B5154A01460020D2F8104472
:10B5700023460AE0DB681D79854205D1401C0A2874
:10B58000F6DB4FF0FF3030BD1B68002BF2D1431CBF
:10B59000F9D0CB681871D2F8103443B1DB68CC68AD
:10B5A0001B682360D2F81024D268116030BDC2F845
:10B5B0001014C96800220A6030BD000088700020A5
:10B5C0007047FCF77DB8704708B5034A00924023E6
:10B5D000024A00F005F808BDDDD60200F06E00203A
:10B5E000F0B595B01C4615460F4608461A9E00F069
:10B5F000EDFA182109A8FAF752FF0E96CDE9095481
:10B600000023082203A9384600F0F5FA05980690B1
:10B61000BDF81000ADF81C00BDF81200ADF81E001A
:10B6200000208DF821000398082600F0030001286F
:10B6300002D0022818D032E003983346850AC0F3BE
:10B64000C2008DF8200003980FA9C0F38314A20054
:10B65000384600F0D0FA09A8009006AB22460FA9A0
:10B66000284600F00FFA1AE00398840DC0F3C200D8
:10B670008DF82000082C01D2254600E0082533462D
:10B680002A460FA9384600F0B6FA2E44641B09ABCF
:10B6900006AA29460FA800F05DF9002CEAD1384629
:10B6A00000F09AFA15B0F0BD0A4A012902EBC00079
:10B6B00007D0022907D0032907D0042907D000208A
:10B6C0007047022070470420704700797047407926
:10B6D0007047000044F2020010B5FFF772FF04212A
:10B6E0000348FFF73FFF02490120C968487110BDB8
:10B6F00034F202002DE9F04F8DB0FEF73DF918B19C
:10B7000000200DB0BDE8F08F7E4C4FF0000BC4F868
:10B7100018B4BFF34F8F7C49A06802900D68D846DB
:10B72000284004EB80000BE0D4F8180470B961687D
:10B730000298814201D8A160E2E7284004EB800032
:10B740000C3002A9FEF7ADFE0028EDD1002005AABD
:10B75000029901EA050304EB8303491CDB6842F804
:10B760002030401C02910228F2D3059800F003001B
:10B77000022802D001284DD0AAE005985022810D60
:10B780008946B2EB905F00D850210E4666F39F5079
:10B79000059008315D4800F0D0F9070078D000F03E
:10B7A00015FA4346082205A9384600F02CFA0299FA
:10B7B00008F1080A2940681A8000001D864222D933
:10B7C000504D0C3530B1C2B204EB8101301A9046B5
:10B7D0000C3104E02946F2B2002590462846C6B254
:10B7E0005346384600F00FFA0AEB080325B13246FB
:10B7F0002946384600F007FA029909F1030001EBE7
:10B80000900002903BE004EB8101534632463846FB
:10B810000C31EFE70598C0F38310062800D306200B
:10B82000059960F38911C1F38310801C0591810093
:10B83000364800F082F907004AD000F0C7F94346C5
:10B84000082205A9384600F0DEF908F108080026AC
:10B850000FE00298434600EA0501401C04EB810119
:10B860000290042238460C3100F0CDF908F10408AA
:10B87000761C0598C0F38310B042EAD847B1D4F8DB
:10B880001054D4F8180478B1384600F0A5F934E023
:10B890001EE0E8684079012804D12A682846394624
:10B8A00012689047E8680568002DF2D1384600F02C
:10B8B00093F98DF800B06846FCF702FCD4F8180440
:10B8C00008B90298A0609DF80000FCF71DFC14E088
:10B8D000D4F8104405E02168204689688847E0686C
:10B8E0000468002CF7D10A480A49401AC00802210E
:10B8F00001EB004008A100F019F8FEF73DF880F0D8
:10B900000100FEE6887000203C520020E4F20200B4
:10B91000C4F2020044F202004261636B656E64731C
:10B9200020666C75736865640000000000231A4689
:10B9300002F0ECB808B5012300926A4602F0E6F87E
:10B9400008BD1CB5CDE9002302236A4602F0DEF8EB
:10B950001CBD00002DE9F0470E4680461C4692466D
:10B96000082940D894F80C900020207319461046FE
:10B9700001F054FD0025B54206D218F805201BA1A0
:10B980002046FFF7CDFB03E01AA12046FFF7C8FBD6
:10B990006D1C082DEFD318A12046FFF7C1FB002531
:10B9A000B54212D218F805707E2F08D8FAF75AFD62
:10B9B0000068C05D10F03E0F01D03A4600E02E2234
:10B9C0000EA12046FFF7ACFB03E00DA12046FFF7D8
:10B9D000A7FB6D1C082DE3D301222146504601F040
:10B9E000FFFC84F80C90BDE8F08700002025303281
:10B9F00078000000202020007C000000256300006B
:10BA000020000000064910B500200870054800F02D
:10BA1000E1F8002803D1044800F013FA002010BD1B
:10BA200088700020E4F2020028E80200024803497E
:10BA3000401AC00870470000E4F2020044F202001D
:10BA400013B56846FEF76CFF08B100201CBD024824
:10BA5000009950F831001CBD44F2020070B508484E
:10BA60000125D0F81044057007E0E06845712168B1
:10BA7000204649688847E0680468002CF5D170BD0D
:10BA8000887000202DE9FF4781460C9D00200C4660
:10BA90002F7B2873984616462946184601F0BEFCAF
:10BAA000072E42D2DFE806F004090F161F2A3600DF
:10BAB00049462846FFF734FB37E0494628462268C6
:10BAC000FFF72EFB31E0D4E9002349462846FFF773
:10BAD00027FB2AE0A0680090D4E9002349462846C5
