:020000040800F2
:10000000B0080020AD010008AD370008152E00082B
:1000100089370008B90A0008CD3E0008000000003A
:10002000000000000000000000000000B1390008DE
:10003000F50B000800000000ED370008C539000886
:10004000C7010008C7010008C7010008C701000870
:10005000C7010008C7010008F70B0008C701000826
:10006000FD0B0008C7010008030C0008C7010008C9
:10007000C7010008C7010008C7010008C701000840
:10008000C7010008C7010008C70100080000000000
:10009000000000000000000000000000C701000890
:1000A000613A0008793A00086D3A0008C701000873
:1000B000C7010008853A0008913A0008C701000806
:1000C000C7010008C7010008C7010008C7010008F0
:1000D000C7010008C13E0008C70100080000000079
:1000E000C7010008C7010008C701000800000000A0
:1000F000000000000000000000000000C701000830
:1001000000000000C70100089D3A0008C701000870
:1001100000000000000000000000000000000000DF
:10012000390B0008C7010008C7010008C701000813
:10013000C7010008000000000000000000000000EF
:10014000000000000000000000000000C7010008DF
:10015000C7010008C7010008450B0008C7010008D7
:10016000C7010008C70100080000000000000000EF
:10017000000000000000000000000000000000007F
:1001800000000000C701000800000000000000009F
:10019000C7010008C7010008DFF80CD000F0D8FA4A
:1001A00000480047F14C0008B0080020064880478E
:1001B00006480047FEE7FEE7FEE7FEE7FEE7FEE74C
:1001C000FEE7FEE7FEE7FEE7513A00089901000866
:1001D0002DE9F05F0546002092469B46884606467C
:1001E000814640241BE0284641464746224600F00F
:1001F000F8F953465A46C01A914110D31146184691
:10020000224600F0DFF92D1A67EB01084F4622461F
:100210000120002100F0D6F917EB00094E41201E05
:10022000A4F10104DFDC484631462A464346BDE8D6
:10023000F09FD2B201E000F8012B491EFBD27047BB
:100240000022F6E710B513460A4604461946FFF7A2
:10025000F0FF204610BD2DE9FE4F804681EA0300E5
:10026000C00F0C46009021F0004123F00045B8EB90
:100270000200A94105D24046214690461C460B4645
:10028000024623F00040104347D0270DC7F30A0071
:10029000C3F30A510290401A019040286BDAC3F36D
:1002A000130040F4801B0098924620B10023D2EB4B
:1002B000030A63EB0B0B01985946C0F1400250460C
:1002C00000F080F906460D4650465946019A00F066
:1002D00098F910EB08006141002487EA115284EA82
:1002E000E7731A4340D0009A62B3019A012A4FEA99
:1002F000075215DC001B61EB02014FF0004202EADD
:100300000752CDE90042001C41F5801132462B46D0
:1003100000F0CFF903B0BDE8F08F40462146F9E781
:10032000001B61EB0201001C41F5801300185B41CA
:100330002018A2F5001747EB030140EAD570B61963
:100340006D4111E06D084FEA360645EAC0754FEA87
:100350000752001B61EB0201001C41F580114908A6
:100360004FEA30000019514132462B4603B0BDE838
:10037000F04F00F08FB90098012240000023D0EB2D
:10038000020263EBE073009821464FEAE074B8EB99
:10039000000061EB0401E9E783F000435BE781F0D3
:1003A000004158E72DE9FE4F81EA030404F00044C0
:1003B00021F0004100944FF0000B23F0004350EA7D
:1003C00001045ED052EA03045BD0C3F30A54C1F3C4
:1003D0000A552C44A4F2F3340194A0FB0254C1F357
:1003E000130141F48011C3F3130343F4801301FBA1
:1003F000024400FB034E840A970A44EA815447EA08
:100400008357A4FB076802958D0A05FB07854FEA11
:10041000932C04FB0C542705029D4FEA065847EA2B
:100420001637B5EB08056EEB070C870E920E47EA00
:10043000811742EA8312A7FB0201B6EB0B0164EBC2
:1004400000042B0D43EA0C335E1844EB1C50DA46D3
:100450005146E7FB0201C5F313044FEA0B3343EAAD
:1004600014534FEA0432019C43EA0603A4F10C043E
:100470000294009CCDE900B400F01BF903B0BDE884
:10048000F08F00200146F9E72DE9F04D81EA0304E1
:1004900004F0004B21F0004514464FF0000A23F011
:1004A000004150EA050220D054EA01021DD0C5F3F4
:1004B0000A570246C5F31303C1F31300C1F30A56EA
:1004C00040F4801543F48013A7EB0608101BD646B2
:1004D00008F2FD3873EB050002D308F1010801E0D2
:1004E00092185B41B8F1000F03DA00200146BDE825
:1004F000F08D00204FF48011064684460EE0171B55
:1005000073EB050705D3121B63EB050306434CEAA7
:10051000010C49084FEA300092185B4150EA01078C
:10052000EDD152EA030012D082EA040083EA050109
:10053000084305D0101BAB4106D20122002306E080
:1005400000224FF0004302E06FF0010253101AEB5B
:1005500006004CEB085110EB0A0041EB0B01BDE823
:10056000F04D00F097B800F0004230F000400AD0A3
:10057000C10D01F56071C0F3160042EA0151C208D5
:1005800040071143704700200146704701F00043C7
:1005900030B421F0004150EA010206D00A0DA2F564
:1005A0006072C1F31301002A02DC30BC00207047E6
:1005B000440F44EAC104C100E01830BC00EBC25053
:1005C00000F031B8202A04DB203A00FA02F10020C2
:1005D00070479140C2F1200320FA03F31943904081
:1005E0007047202A04DB203A21FA02F000217047EC
:1005F00021FA02F3D040C2F120029140084319468B
:100600007047202A06DBCB17203A41FA02F043EA72
:10061000E07306E041FA02F3D040C2F120029140BB
:100620000843194670470029A8BF7047401C49007D
:1006300008BF20F00100704710B4B0FA80FC00FA47
:100640000CF050EA010404BF10BC704749B1CCF172
:10065000200421FA04F411FA0CF118BF01212143FE
:100660000843A3EB0C01CB1D4FEA00614FEA1020B9
:1006700042BF002010BC704700EBC350104400295B
:10068000A4BF10BC7047401C490008BF20F0010007
:1006900010BC704710B5141E73F1000408DA401C3A
:1006A00041F1000192185B411A4301D120F0010091
:1006B00010BD2DE9F04D92469B4611B1B1FA81F281
:1006C00002E0B0FA80F220329046FFF77BFF04464A
:1006D0000F4640EA0A0041EA0B0153465A460843D6
:1006E00013D0114653EA010019D0C8F14002504618
:1006F000FFF777FF05460E46504659464246FFF73C
:1007000061FF084305D0012004E020463946BDE8DA
:10071000F08D0020054346EAE0762C4337430A98E3
:100720006305E40AA0EB08000022FD0A44EA4754EE
:100730000A3002D500200146E9E701051019694198
:10074000DDE9084500196941BDE8F04DA2E7000068
:10075000064C074D06E0E06840F0010394E807000E
:1007600098471034AC42F6D3FFF71AFD80510008C9
:10077000A05100082DE9F04D00231A461B1A8A41AA
:1007800003DB00200146BDE8F08DC1F30A52C1F33E
:10079000130141F480154FF0000BD10702D100186E
:1007A0006D41521E0027044640F2FF11384601EB0E
:1007B000620A3E468046024600204FF48011FFF751
:1007C00010FFC2197141BB1846EB0100B4EB030CDA
:1007D00075EB000C04D3E41A65EB000517460E46D2
:1007E000241908F101006D4180463428E3DDF91930
:1007F00046EB0600091BA84103D24FF0FF32134617
:1008000001E0002213461BEB070046EB0A51BDE84E
:10081000F04DFFF73FBF10B50146806B026C12F040
:10082000500F05D0026CD20626D500F0BDFA10BDDF
:10083000016C41F40071016401688A6812F0405F44
:1008400017D1027EAAB9CA6A12F4700F02D08A6860
:1008500052050ED44A6822F020024A60016C21F44D
:1008600080710164016CC90403D4016C41F0010181
:10087000016400F097FA10BD806BC26CBDE81040B7
:100880000846104710B5806B40210164416C41F06F
:100890000401416400F088FA10BD10B5806B00F0CF
:1008A00082FA10BD464910B54A6822F440324A60C7
:1008B0004A6843681A434A6001684A6822F48072B1
:1008C0004A6001684A68036942EA03224A60016893
:1008D0004A6822F040724A6001684A6883681A4395
:1008E0004A6001688A6822F400628A6001688A6846
:1008F000C3681A438A60816A6FF07062D1420168EE
:100900008A6822F070628A6001688A680CD0836A03
:100910001A438A6001688A6822F040528A6001683E
:100920008A68C36A1A4301E022F040528A60016873
:100930008A6822F002028A6001688A68037E42EABD
:1009400043028A6090F82010002901684A680FD09D
:1009500042F400624A6001684A6822F460424A60D8
:1009600001684A68174C436A04EB43331A4301E0B9
:1009700022F400624A600168CA6A22F47002CA6204
:100980000168CA6A838B104C04EB03531A43CA6292
:1009900001688A6822F400728A6001688A6890F8A7
:1009A000303042EA43228A6001688A6822F4806219
:1009B0008A6001688A68406942EA8020886010BDC8
:1009C0000023014000E0FFFF0000F0FF144810B5D5
:1009D000016886B041F001010160016801F0010188
:1009E0000591016841F0020101600068022400F0F5
:1009F00002000590012000904FF48810CDE9010419
:100A00006946084800F0F6FD102000904FF40410ED
:100A1000CDE901046946044800F0ECFD06B010BDC4
:100A2000303802400000024000040240124810B476
:100A30001249002343800C88114A017822F81140A2
:100A4000491CC9B201700A2913D103705FF000017B
:100A5000448832F81130491C2344C9B243800A2922
:100A6000F6D399B20A22B1FBF2F1418010BC00F03A
:100A700009B810BC704700005C0000204400002052
:100A8000880400200B4841888288914201D30221CA
:100A900006E00289914205D3C288914202D8012121
:100AA000818170474289914201D80021F8E781890C
:100AB000F6E700005C000020FEE7000070B50024AF
:100AC0000A4E2546142000F089FCD6F810020128B1
:100AD00005D06D1CEDB2052DF4D9002070BD641C4D
:100AE000E4B20025322CEDD3012070BD00804042DD
:100AF0000122104907280BD2DFE800F004180B0888
:100B00000E111400C1F89822C1F89C22C1F8A0224D
:100B10007047C1F89C227047C1F8A02206E0C1F8D6
:100B2000A022F6E7C1F8A022C1F89C22C1F89822C1
:100B30007047000000804042014800F0DDBA00002C
:100B400048010020014800F0D7BA0000F00300205F
:100B500001681823CAB2103AB2FBF3F2054B6FF3E7
:100B60000901032A9B5CC36500D9091D81650846FC
:100B7000704700002050000810B5014600208B6926
:100B80008A6A4FF0C07453B1B3F5005F15D072B1EB
:100B9000012A0CD0022A0AD0032A09D104E01AB192
:100BA000012A06D0022A03D1C96AC90100D5012051
:100BB00010BDC96AA142FAD010BD002AF7D0012A9F
:100BC000F2D0022AF3D0032AF3D010BD30B5046866
:100BD000256825F480252560046863608368402BC0
:100BE000036803D099600068C26030BD9A600068F5
:100BF000C16030BD7047012000F0F0BC042000F05F
:100C0000EDBC102000F0EABC72B600250B4E0024AB
:100C10000020FFF76DFF032002F0CAFDC82000F09E
:100C2000DDFB0320FFF764FFC82000F0D7FB641C46
:100C3000E4B2142CECD3C6F89452E8E700804042AA
:100C400078B50024009490F83C20012A19D00122A4
:100C500080F83C200A6807230568092A13D9EE6842
:100C60000A3A02EB420293409E43EE600B788A6898
:100C70000A3B03EB43039A400368DD682A43DA60CA
:100C800010E0022078BD2E6902EB420293409E43A1
:100C90002E610B788A6803EB43039A4003681D6951
:100CA0002A431A614A681F23072A13D205686E6B0C
:100CB000521E02EB820293409E436E630A8893B2F7
:100CC0000A79521E02EB820293400268556B2B4355
:100CD000536327E005680D2A12D22E6BD21F02EB58
:100CE000820293409E432E630B790A88DB1F92B2E7
:100CF00003EB83039A4003681D6B2A431A6311E0D8
:100D0000EE6A0D3A02EB820293409E43EE620B794B
:100D10000A880D3B92B203EB83039A400368DD6AB5
:100D20002A43DA621B4B0568194A9D420AD10D68B5
:100D3000122D07D1556825F400055560556845F416
:100D40008005556005689D421DD1134D0B68AB426F
:100D500001D0112B17D1536823F4800353605368DB
:100D600043F4000353600968A9420CD10B490C4AB3
:100D70000968B1FBF2F101EB8101490000E0491E75
:100D800000910029FBD180F83C40002078BD000094
:100D9000002301400020014012000010400000200C
:100DA00040420F0070477047704770B504004FF025
:100DB000000503D0206C002610B107E0012070BDB3
:100DC000204600F01DF8666484F83C60206CC00684
:100DD00010D4206C20F4885040F00200206420469B
:100DE000FFF760FD6664206C20F0020040F0010017
:100DF000206400E0012584F83C60284670BD0000B6
:100E000070B586B0064614216846FFF719FA2549E1
:100E10003068884243D124480025016841F480713C
:100E200001600068204900F480701439059008685A
:100E300040F001000860086800F0010005900868B3
:100E400040F0020008600868032400F002000590EA
:100E5000FE208DE831006946144800F0CBFB009479
:100E600069461348CDE9014500F0C4FB124C114816
:100E7000C4E900050015A560C4E903508000606165
:100E80008000A0618011E0610002C4E908052046ED
:100E900000F002FA08B1FFF7B7FEB463A66306B02C
:100EA00070BD0000002001404438024000000240B4
:100EB000000402401064024048010020F8B50446D6
:100EC00000200E46009094F83C10012907D0012123
:100ED00084F83C1021688B68DB0702D011E0022007
:100EE000F8BD8B6843F001038B603649364B0968C7
:100EF000B1FBF3F101EB410100E0491E0091002933
:100F0000FBD121688B68DB0503D58B6823F48073E4
:100F10008B6021688B68DB0749D0236C40F2016548
:100F2000AB4343F4807323644968490505D5216CBC
:100F300021F4005141F480512164216CC90404D58D
:100F4000616C21F00601616400E0606484F83C009B
:100F5000A16B1F481D4DC863A16B1E480864A16B9F
:100F60001D48C86421686FF022000860206841684D
:100F700041F0806141602068816841F48071816046
:100F80002168134632464C31A06B00F0EFF96868D7
:100F9000C006206802D01149884210D1816811F042
:100FA000405F0CD1816841F08041816007E0206C96
:100FB00040F010002064606C40F00100606400208C
:100FC000F8BD00004000002040420F000023014017
:100FD000170800089B080008850800080020014049
:100FE0002DE9F0410446876D00F002FC064694F8B6
:100FF00035000025022806D08020606584F8345032
:101000000120BDE8F0812068016821F0160101602F
:101010002068416921F080014161206C08B9A06C11
:1010200020B12068016821F0080101602068016892
:1010300021F0010101600CE000F0DAFB801B0528C3
:1010400007D920206065032084F8350084F83450E7
:10105000D7E720680068C007EED194F85C103F2005
:101060008840B860012084F8350084F834500020AE
:10107000C7E790F83510022903D08021416501208F
:101080007047052180F835100068016821F00101E2
:1010900001600020704770B504002BD094F8350033
:1010A000022826D02068016821F001010160206833
:1010B0000025056020684560206885602068C5605F
:1010C000206805612168212048612046FFF740FD26
:1010D000E56325646564A564E564256594F85C2092
:1010E0003F2191408160656584F8355084F8345023
:1010F000002070BD012070BD2DE9F84304464FF07B
:101100000009CDF8009063484FF41651A56D0068B2
:10111000B0FBF1F72E6894F85C10082000FA01F19A
:1011200031420FD021680A6852070BD50A6822F0B5
:1011300004020A6094F85C108840A860606D40F07A
:101140000100606594F85C104FF0010808FA01F0A6
:10115000304208D021684969090604D5A860606D4D
:1011600040F00200606594F85C1004208840304232
:1011700008D021680968890704D5A860606D40F02F
:101180000400606594F85C1010208840304218D04C
:1011900021680968090714D5A86020680168490317
:1011A00004D50068000308D5A16C07E00168C905F3
:1011B00003D4016821F008010160216C09B12046C7
:1011C000884794F85C1020208840304231D0216854
:1011D0000968C9062DD5A86094F83500052820684F
:1011E000016806D0490347D5006800031DD4616C2F
:1011F0001CE021F0160101602068416921F08001A6
:101200004161206C08B9A06C20B12068016821F010
:101210000801016094F85C103F208840A86084F8C1
:10122000358084F83490216D1FE0E16B09B12046D0
:101230008847606D00282BD0606DC00714D0052052
:1012400084F835002068016821F0010101600098F0
:10125000401C0090B84203D820680068C007F6D14F
:1012600084F8358084F83490E16C002910D001B006
:101270002046BDE8F04308470168C905D5D4016898
:1012800021F01001016084F8358084F83490CCE7B7
:10129000BDE8F883400000202DE9F041044600F04D
:1012A000A7FA06465CB1022084F83500002584F8D0
:1012B00034502068016821F0010101600DE0012037
:1012C000BDE8F08100F094FA801B052805D92020A4
:1012D0006065032084F83500F2E720680068C007E5
:1012E000F0D12268116820480140D4E90103184375
:1012F000D4E903363343184363691843A369184399
:10130000E3691843236A18430843616A042903D137
:10131000D4E90B1319430843106020684069666ADA
:1013200020F0070130460E43012704280CD1A06AA3
:101330000643E06A40B12046FFF71EFC20B1402082
:10134000606584F83570BAE7206846612046FFF78B
:10135000FFFB94F85C203F2191408160656584F833
:1013600035700020ACE700003F8010F02DE9F0411F
:101370000446866D90F83400002501280DD0012028
:1013800084F8340094F835700020012F07D084F8D9
:10139000340002252846BDE8F0810220FBE7022741
:1013A00084F8357060652046FFF710FC94F85C10F7
:1013B0003F208840B0602068016841F0160101605C
:1013C000206C20B12068016841F0080101602068AC
:1013D000016841F001010160DCE7000070B50446DE
:1013E00000F006FA0546601C02D004480078044468
:1013F00000F0FEF9401BA042FAD370BD340000207B
:101400002DE9F04F0022DFF808B101264FF00F0957
:1014100006FA02F401EA0403A34273D122F003079F
:101420005F44D7F8088895074FEA157C09FA0CFA4B
:101430000AEA0805DFF8DC80404502D14FF00008D9
:101440001DE0DFF8D480404502D14FF0010816E0DE
:10145000DFF8C880404502D14FF002080FE0DFF806
:10146000C080404502D14FF0030808E0DFF8B480A7
:10147000404502D14FF0040801E04FF0070808FA98
:101480000CF8A84521D1284DD5F800C02CEA030C52
:10149000C5F800C02D1DD5F800C02CEA030CC5F816
:1014A00000C02D1DD5F800C02CEA030CC5F800C003
:1014B0002D1DD5F800C02CEA030CC5F800C0D7F8E4
:1014C000085825EA0A05C7F8085805685700032395
:1014D000BB409D430560D50800EB8505D5F820C0CD
:1014E00057074FEAD76809FA08F72CEA070CC5F83E
:1014F00020C0C5689D43C5604568A54345608468B4
:101500009C438460521C102A82D3BDE8F08F0000F7
:101510000030014000000240000402400008024088
:10152000000C024000100240003C014070B5264E05
:10153000012401280BD0102831D004282ED12348B3
:10154000047002F055F9BDE8704001F04BBE204D2B
:10155000D5F8100208BB01F08FFE01281DD11D48EF
:1015600001F06EF81C4801F06BF802F017F9062044
:10157000FFF7BEFA052002F01BF90020C5F8B402FF
:101580004FF49670FFF72AFF02F000F90620FFF7EC
:10159000AFFAC5F8B44202F00DFA346070BDFFF73F
:1015A0008DFA70B902F0FAF8052002F001F9C820AE
:1015B000FFF714FF02F0EAF80620FFF799FA02F0AD
:1015C000F9F91020306070BD143C01400900002082
:1015D00000804042FC01002064030020044910B553
:1015E0000A68024202D00860FFF7A0FF10BD0000A9
:1015F000143C01402DE9F84FDFF8B8A10022012486
:101600000AF1040B03254FF00F090BF1040E00BF84
:101610000B6804FA02F63340B34273D10F7907F036
:101620000307012F01D0022F16D187684FEA420825
:1016300005FA08FC27EA0C07D1F80CC00CFA08FCE4
:101640004CEA070CC0F808C04768B7430E79C6F3E8
:10165000001696403E4346600E79F643B6070DD01D
:10166000C768560005FA06FC27EA0C07D1F808C03F
:101670000CFA06FC4CEA070CC0F80CC00E7906F018
:101680000306022E10D1D60800EB8608D8F8206099
:1016900057074FEAD76C09FA0CF7BE430F6907FAF0
:1016A0000CF73743C8F8207006684FEA420C05FA79
:1016B0000CF7BE430F7907F0030707FA0CF737431F
:1016C00007604E6816F4403F6DD03B4E376847F4D4
:1016D00080473760366822F0030706F4804600969C
:1016E000364E07EB060CDCF8086897073F0F09FA3F
:1016F00007F826EA0806DFF8C880404503D14FF016
:1017000000081EE04FE0DFF8BC80404502D14FF0FA
:10171000010816E0DFF8B080404502D14FF0020822
:101720000FE0DFF8A880404502D14FF0030808E041
:10173000DFF89C80404502D14FF0040801E04FF0F3
:10174000070808FA07F848EA0608CCF80888DAF823
:1017500000605746D1F804C09E435FEACC3C00D5F8
:101760001E433E60DBF800605F46D1F804C09E4334
:101770005FEA8C3C00D51E433E60DEF80060774691
:10178000D1F804C09E435FEACC2C00D51E433E60D6
:10179000084F0C373E68D1F804C09E435FEA8C2C9A
:1017A00000D51E433E60521C102AFFF431AFBDE845
:1017B000F88F0000003C01404438024000300140F6
:1017C000000002400004024000080240000C0240F9
:1017D00000100240426921EA02030A4043EA024142
:1017E000816170470AB1816170470904FBE700001D
:1017F00001488068704700003400002070B5040084
:1018000025D094F83D00002520B984F83C502046AE
:1018100000F04CFA242084F83D002068016821F093
:10182000010101602068016841F400410160206805
:10183000016821F40041016000F0BEFB4D4A61687F
:10184000914201D84C4900E04C49884201D2012024
:1018500070BD4B492368B0FBF1F15E6826F03F068E
:101860000E435E606368934206D94FF49673594302
:101870004FF47A73B1FBF3F12368491C1E6A26F01A
:101880003F06314319626168914210D84900401EF9
:10189000B0FBF1F2521CC2F30B02042A01D2042065
:1018A00022E0B0FBF1F0401CC0F30B001CE0A2688A
:1018B000F2B301EBC10303EB0116431EB3FBF6F3D6
:1018C0005B1C43F480431B0549D092B301EBC1027A
:1018D00002EB0111401EB0FBF1F0401CC0F30B0005
:1018E00040F4804040F400402168CA694CF6FF7320
:1018F0009A431043C861D4E9071001432068026885
:1019000022F0C00211430160D4E9030101432068C1
:10191000826848F2FF339A4311438160D4E905019C
:1019200008432168CA6822F0FF021043C86001E042
:101930000EE016E02068016841F0010101602564B5
:10194000202084F83D00256384F83E50002070BDBF
:1019500001EB4106431EB3FBF6F35B1CB3E701202A
:10196000C2E701EB4101401EB0FBF1F0401CC0F3A7
:101970000B00B7E7A086010080841E0000093D002F
:1019800040420F002DE9FF4F83B09A46DDE91197E1
:1019900093460446DDF84080FFF72AFF054694F899
:1019A0003D00202870D1192301227149204600955D
:1019B00001F040FB0028F5D194F83C00012863D0E9
:1019C000012084F83C0020680168C90703D1016840
:1019D00041F0010101602068016821F400610160AB
:1019E000222084F83D00402084F83E000026266432
:1019F000C4F82480A4F82A90608D20855D48E062B8
:101A0000CDE9007553465A462046049901F01AFA6A
:101A100000287CD1208DD0B1012821D00228206857
:101A200024D0416980690090208D032869D801285D
:101A30002BD0514902283B464FF00002009559D067
:101A40008846204601F0F6FA002860D13CE0206884
:101A5000416981690091016841F40071016077E09A
:101A60002068016821F480610160F0E7016821F4D9
:101A7000806101602068016841F4006101602068B4
:101A800041698069009063E06FE02A46394620464C
:101A900001F04FFB98BB20680069616A08704EE056
:101AA0002068016841F40071016020680069616A82
:101AB0000870606A401C6062218D491E2185618D1D
:101AC000491E6185216838E02068016821F4806141
:101AD000016020680069616A0870606A401C606289
:101AE000208D401E2085608D401E60853B46002273
:101AF00041460095204601F09DFA00B9D0E706E086
:101B0000FFE72A463946204601F013FB18B10120B1
:101B100007B0BDE8F08F20680069616A0870606AEC
:101B2000401C6062218D491E2185618D491E6185A1
:101B300021684A69D24352070AD409690170606A70
:101B4000401C6062208D401E2085608D401E608597
:101B5000208D00287FF468AF202084F83D0084F8B1
:101B60003E6084F83C600020D2E70220D0E700000D
:101B7000020010000000FFFF040001002DE9FF4FEC
:101B800083B09A46DDE9119793460446DDF840801C
:101B9000FFF72EFE054694F83D0020287FD119233B
:101BA000012240492046009501F044FA002876D1F0
:101BB00094F83C00012872D0012084F83C00206891
:101BC0000168C90703D1016841F001010160206883
:101BD000016821F400610160212084F83D0040206B
:101BE00084F83E0000262664C4F82480A4F82A90D5
:101BF000608D20852C48E062CDE9007553465A4639
:101C00002046049901F09CF970B930E02A46394623
:101C1000204601F0C1FA58B1206C042804D1206894
:101C2000016841F400710160012007B0BDE8F08F48
:101C3000606A216800780861606A401C6062218DDA
:101C4000491E89B22185628D521E628522685369C0
:101C5000DB435B070BD469B100781061606A401CFC
:101C60006062208D401E2085608D401E6085208D25
:101C70000028CBD12A463946204601F0B5F9002884
:101C8000CAD154F83D0B016841F400710160202075
:101C900004F81E09E67766770020C6E7FFE7022012
:101CA000C3E70000020010000000FFFFF0B587B09E
:101CB000044614216846FEF7C3FA1A492068884290
:101CC0002DD119480024016841F00201016000682B
:101CD000122500F0020005904FF48060CDE9000568
:101CE000032602940420CDE90360104F694638466C
:101CF000FFF780FC0820CDE9000502940920CDE91A
:101D0000036069463846FFF775FC074810300168E4
:101D100041F480010160006800F48000059007B084
:101D2000F0BD00000058004030380240000402407E
:101D300002488168027811448160704734000020B5
:101D40000B4810B5016841F400710160016841F46D
:101D500080610160016841F480710160032000F03E
:101D60007FF8002000F006F800F024F8002010BDF5
:101D7000003C024070B50D4D04464FF47A7128784E
:101D8000B1FBF0F00A490968B1FBF0F000F01CFB70
:101D900048B9102C07D200222146501E00F040F80E
:101DA00000206C6070BD012070BD00003400002078
:101DB000400000200A4808B5016841F480410160F4
:101DC000006800F4804000900548001F016841F061
:101DD00080510160006800F08050009008BD000054
:101DE0004438024000280DDB00F01F020121914021
:101DF0004009800000F1E020C0F88011BFF34F8F50
:101E0000BFF36F8F7047002809DB00F01F0201212C
:101E100091404009800000F1E020C0F800117047B7
:101E2000F0B40E4B1B680C46C3F30223C3F1070545
:101E3000042D00D90425191D072901D2002300E033
:101E4000DB1E012606FA05F1491E214099409E40FD
:101E5000761E16403143F0BC02F066B80CED00E08F
:101E6000064900F0070208684FF6FF03184040EAF1
:101E70000220034A10430860704700000CED00E0A8
:101E80000000FA052DE9F0470E46050065D0DFF8A1
:101E90001481D8F80000F7B200F00700B04207D272
:101EA00088F80070D8F8000000F00700B04254D164
:101EB00028683D4C810712D5400703D5206840F4BF
:101EC000E05020602878000703D5206840F4604087
:101ED00020602068A96820F0F0000843206028787E
:101EE000C0072DD0304968680839012812D002286F
:101EF00013D0032811D00968890700292DDA216839
:101F000021F0030101432160FFF772FC814641F299
:101F1000883A0EE009688903EFE709688901ECE770
:101F2000FFF766FCA0EB0901514502D90320BDE88B
:101F3000F0872068696800F00C00B0EB810FEFD1EA
:101F4000D8F80010404601F00701B14207D90770E8
:101F5000006800F00700B04201D00120E7E72878D0
:101F6000400705D52068E96820F4E0500843206068
:101F70002878000706D52068296920F4604040EAE7
:101F8000C100206000F038F82168084AC1F303114D
:101F9000515CC8400649086006480068FFF7EAFE41
:101FA0000020C4E7003C02400838024028500008E6
:101FB00040000020380000200448054900680968F6
:101FC000044AC1F38221515CC840704740000020A0
:101FD000083802403850000804480549006809687C
:101FE000044AC1F34231515CC840704740000020B0
:101FF0000838024038500008154810B5006810F045
:102000000C02144813D01449042A0FD0082A0ED108
:102010000F4C241F2268236802F03F025B0207D5A1
:102020002068C0F38810A0FB010106E0084610BD3F
:102030002168C1F38811A1FB00010023FEF7C8F855
:102040002168C1F30141491C4900B0FBF1F010BD0A
:10205000083802400024F40040787D012DE9F84F53
:1020600004006ED02078DFF84C93C007A9F1040576
:102070004AD009F104000168C1F38101012908D0A7
:102080000068C0F3810002280AD1D9F8000040029C
:1020900006D52868800337D560680028E1D033E092
:1020A0006068B0F5803F10D0B0F5A02F286810D040
:1020B00020F480302860286820F480202860606840
:1020C000A8B1FFF795FB06460DE0286840F4803084
:1020D000F4E740F480202860F7E700BFFFF788FBB3
:1020E000801B642873D828688003F7D50CE0FFF7BD
:1020F0007FFB064605E000BFFFF77AFB801B6428E4
:10210000F0D828688003F7D42078DFF8AC82800705
:102110004FF0000A3ED5A748001D016811F00C0FD2
:1021200008D00068C0F3810002280BD1D9F8000064
:10213000400207D42868800716D5E068012800D13E
:1021400012E033E1E068B8B10120C8F80000FFF701
:102150004FFB064605E000BFFFF74AFB801B022845
:10216000C0D828688007F7D52868216920F0F800D2
:1021700040EAC10028600DE0C8F800A0FFF738FB76
:10218000064604E0FFF734FB801B02281FD82868AE
:102190008007F7D42078000722D5864F87486169E9
:1021A000703771B101210160FFF722FB064604E0A0
:1021B000FFF71EFB801B022809D838688007F7D577
:1021C0000EE0C0F800A0FFF713FB064605E082E032
:1021D000FFF70EFB801B02287DD838688007F7D4F4
:1021E0002078400768D5DFF8CCB100270BF13C0B15
:1021F000DBF80000C0000BD4DBF8001041F0805188
:10220000CBF80010DBF80000012700F080500090B0
:102210006B4E3068C00510D4306840F48070306078
:10222000FFF7E6FA009005E0FFF7E2FA0099401A9E
:10223000022850D83068C005F6D55E4EA0686C36CE
:1022400001280FD00528306810D020F00100306040
:10225000306820F004003060A068B8B1FFF7C8FA19
:1022600000900FE0306840F00100F4E740F0040017
:102270003060F7E7FFF7BCFA0099411A41F2883065
:10228000814266D830688007F4D50EE0FFF7B0FAD7
:10229000009007E0FFF7ACFA0099411A41F288304C
:1022A000814256D830688007F4D42FB1DBF8001093
:1022B00021F08051CBF80010A069C8B33D49091D39
:1022C0000968C1F3810102294AD00228504607D08B
:1022D000C8F8600000E03CE0FFF78AFA04463BE003
:1022E0004746C8F86000FFF783FA064605E000BFDE
:1022F000FFF77EFA801B02282BD828688001F7D4CC
:10230000D4E907010843A16A2E4A490802EB0141BA
:10231000626A41EA8211084394F82C1040EA016194
:10232000C9F8001001203866FFF762FA044606E09B
:102330003EE000BFFFF75CFA001B022809D82868BE
:102340008001F7D534E000BFFFF752FA001B0228E6
:1023500002D90320BDE8F88F28688001F4D427E073
:102360000128F7D0D9F80000E26900F48001914219
:102370001CD1226A00F03F01914217D147F6C0718B
:10238000626A0140B1EB821F10D1A26A4FF0FF33A5
:1023900000F4403103EB5202B1EB024F06D194F846
:1023A0002C1000F07060B0EB016F01D00120D1E77C
:1023B0000020CFE70438024000004742800E474229
:1023C000007000400000FFFF10B5401EB0F1807F9C
:1023D00001D3012010BD4FF0E02460610F21601790
:1023E00001F0A2FD0020A06107202061002010BDA7
:1023F0007047704770B590F83C20012A2CD001241A
:1024000080F83C40022280F83D2003685A689D68AD
:1024100022F070060A6832435A60104B02689A42F2
:102420000ED0B2F1804F0BD00D4B9A4208D00D4B1D
:102430009A4205D00C4B9A4202D00C4B9A4204D1DE
:10244000496825F080031943916080F83D400021E0
:1024500080F83C10084670BD022070BD00000140AD
:102460000004004000080040000C00400040014013
:1024700010B5040003D094F83D0010B107E001202E
:1024800010BD002084F83C00204600F01FF8022018
:1024900084F83D00211D206801F006FB012084F82E
:1024A000460084F83E0084F83F0084F8400084F839
:1024B000410084F8420084F8430084F8440084F822
:1024C000450084F83D00002010BD000008B53A4AE0
:1024D00001683A4891420ED1016841F00201016061
:1024E0000068002200F00200009005211D20FFF787
:1024F00097FC1D205AE0324A91420ED1016841F00A
:10250000040101600068002200F004000090052131
:102510001E20FFF785FC1E2048E02A4A91420ED17A
:10252000016841F0080101600068002200F0080025
:10253000009002213220FFF773FC322036E01F4862
:10254000214A001D91420ED1016841F480310160A1
:102550000068002200F48030009005211820FFF769
:102560005FFC182022E0194A91420ED1016841F423
:10257000003101600068002200F400300090012169
:102580001920FFF74DFC192010E0114A914211D19A
:10259000016841F4802101600068002200F480207D
:1025A000009005211A20FFF73BFC1A20BDE80840E7
:1025B000FFF729BC08BD000000040040403802407D
:1025C00000080040000C0040004001400044014071
:1025D0000048014090F83D10012901D001207047CA
:1025E000022180F83D100168CA6842F00102CA6009
:1025F00000680E4988420ED0B0F1804F0BD00C49D4
:10260000884208D00B49884205D00B49884202D045
:102610000A49884204D1816801F00701062903D0E4
:10262000016841F001010160002070470000014095
:102630000004004000080040000C00400040014041
:102640000168CA6822F00102CA6001680A6A41F2A0
:1026500011131A4207D10A6A9B101A4203D10A6861
:1026600022F001020A60012180F83D10002070472D
:1026700070B5044690F83C000025012817D00126CB
:1026800084F83C60022084F83D002068826822F0D3
:10269000770222F47F4282600868502838D00DDC2F
:1026A00020284FD005DC90B3102811D14AE0022039
:1026B00070BD302846D040280AD13BE060282FD09A
:1026C00070280DD0B0F5805F03D0B0F5005F12D058
:1026D000012584F83D60002084F83C00284670BD48
:1026E000CB68D1E90121206801F02AFA20688168CD
:1026F00041F0770109E0CB68D1E90121206801F0C0
:102700001FFA2068816841F480418160E1E719E0A7
:10271000CA684968206801F025FA5021206806E05F
:10272000CA684968206801F02EFA6021206801F02B
:1027300011FACEE7CA684968206801F013FA40210F
:102740002068F4E7226801461046F0E7704770B54C
:102750000446006801694FF00005C943890715D494
:10276000C168C943890711D4E91E0161012020779E
:10277000206880698007204602D0FFF7E7FF04E069
:1027800000F098F8204600F096F825772068016957
:10279000C943490717D4C168C943490713D46FF027
:1027A00004010161022020772068806910F4407FD5
:1027B000204602D0FFF7CAFF04E000F07BF8204675
:1027C00000F079F8257720680169C943090716D414
:1027D000C168C943090712D46FF0080101610420E0
:1027E00020772068C0698007204602D0FFF7AEFF3F
:1027F00004E000F05FF8204600F05DF825772068DF
:102800000169C943C90617D4C168C943C90613D4AD
:102810006FF010010161082020772068C06910F472
:10282000407F204602D0FFF791FF04E000F042F81D
:10283000204600F040F8257720680169C943C907A0
:1028400008D1C168C943C90704D1891E0161204666
:1028500000F032F820680169C943090609D4C1684B
:10286000C943090605D46FF0800101612046FFF7D6
:10287000BFFD20680169C943490609D4C168C9433D
:10288000490605D46FF040010161204600F044F88C
:1028900020680169C94389060BD4C168C943890608
:1028A00007D46FF0200101612046BDE87040FFF7BA
:1028B000A0BD70BD7047704710B5044610488442F3
:1028C00001D102F07DF90F48844201D102F0AAF94A
:1028D0000D4884420BD102F001F904E010220B49AB
:1028E0000B4800F04FFA00F0B5FC0028F6D109487B
:1028F000844203D1BDE8104002F032B910BD00009F
:10290000FC010020D40200201C030020480000200D
:10291000AC030020640300207047704710B504002A
:1029200014D0242084F83D002068C16821F40051AF
:10293000C160204600F078F90020206484F83D0052
:1029400084F83E0044F8300F207310BD012010BD04
:10295000704710F83D1F407808437047F8B501688C
:1029600004460868CA684B6910F00F0F4FF0000565
:1029700059D003F0010602F49077374365D0C107C0
:1029800005D0D10503D5216C41F001012164410737
:1029900005D5D90703D0216C41F0020121648107DC
:1029A00005D5D90703D0216C41F00401216401074A
:1029B00007D502F02001314303D0216C41F008011A
:1029C0002164216C00293AD0800604D5900602D5F6
:1029D000204601F072F920684069216CC0F3801034
:1029E000090700D460B3204601F032F9206840693D
:1029F000400621D52068143050E8001F21F0400126
:102A000040E80012002AF5D1A06BA8B16C4901651D
:102A1000A06BFEF72EFB002811D0A06B016D01B05A
:102A2000BDE8F040084783060FD593060DD5204634
:102A3000BDE8F84001F041B92046FFF789FFF8BD35
:102A40002046FFF785FF2564F8BD266B2023012E65
:102A500079D1C60677D5D60675D50868486800903E
:102A60004869400640D5A16B086840680004000C26
:102A7000EAD0A28D8242E7D9E085C869B0F5807FAF
:102A80002DD020680C3050E8001F21F4807140E800
:102A90000012002AF5D12068143050E8001F21F000
:102AA000010140E80012002AF5D12068143050E8F6
:102AB000001F21F0400140E80012002AF5D184F8FF
:102AC0003E30256320680C3050E8001F21F01001D3
:102AD00040E80012002AF5D1A06BFEF781FAA08D24
:102AE000E18D401A81B229E0A08DE18D401A81B2BA
:102AF000E08D0028A8D00029A6D020680C3050E82E
:102B0000002F22F4907240E80026002EF5D12068B4
:102B1000143050E8002F22F0010240E80026002E79
:102B2000F5D184F83E30256320680C3050E8002F42
:102B300022F0100240E80023002BF5D12046FFF7D9
:102B4000ECFEF8BDFFE705062BD5150629D594F850
:102B50003D002128F5D1A068B0F5805F01D1206942
:102B6000B0B1206A411C2162216800784860E08C85
:102B7000401E0004000CE084E3D12068C16821F00D
:102B80008001C1602068C16841F04001C160D8E7A0
:102B9000206A0088C0F308004860206A801C206218
:102BA000E5E74006CDD55006CBD5CA68204622F0D1
:102BB0004002CA6084F83D3000F02AF9C1E7000005
:102BC000AB3B000870B5040004D094F83D0000252C
:102BD00010B106E0012070BD84F83C50204600F0A2
:102BE00043F8242084F83D002068C16821F4005196
:102BF000C160204601F0C2F82068016921F49041CB
:102C000001612068416921F02A0141612068C168A1
:102C100041F40051C1602564202084F83D0084F80F
:102C20003E00002070BD000010B5044600680B494E
:102C3000884211D10A48016821F0100101604FF467
:102C4000F0510848FEF7DCFB606BFEF724FABDE8A4
:102C500010402520FFF7C6B810BD0000001001404D
:102C6000443802400000024070B586B00646142188
:102C70006846FDF7E5FA24493068884242D1234886
:102C80000025016841F010010160006800F01000AB
:102C900005901E481438016841F001010160006888
:102CA000694600F0010005904FF4F05000900220BA
:102CB000CDE9010503200390072004901448FEF796
:102CC00099FC154C134820604FF000606060402074
:102CD000C4E902050001C4E904058001A561C4E955
:102CE000075020466562FEF7D7FA08B1FDF78CFF62
:102CF0007463002211462520A663FFF791F8252072
:102D0000FFF781F806B070BD001001404438024062
:102D100000000240B8640240F003002090F83E300A
:102D2000202B0ED159B152B190F83C30012B08D074
:102D3000012380F83C300023036301F0A5B8012093
:102D400070470220704700000C49884214D10C489B
:102D50000178CC290BD14178DD2908D18178FF2970
:102D600005D0EE2903D10649C078891E4870042297
:102D700003490248FFF7D2BF70470000AC030020B0
:102D80000200002070B5044690F83D00202836D19E
:102D900091B38AB394F83C00012830D0012084F824
:102DA0003C002162A284E28400252564212084F86D
:102DB0003D00636B1348D863636B13481864636BFF
:102DC0001248D864606B134605652668606B321D37
:102DD000FEF7CCFA21686FF04000086084F83C50A0
:102DE0002068143050E8001F41F0800140E80012D4
:102DF000002AF5D1002070BDFFE70120FBE702208B
:102E0000F9E70000053C0008473C0008BB3B000810
:102E100070477047FEE701684A69D24352050FD4F4
:102E20006FF480624A61002140F8301F2022427313
:102E30008173026942F0040202610173012070474C
:102E4000002070472DE9F84F0446006889460B9D25
:102E500001689846174641F4806101602068016866
:102E600041F48071016000954FF0011B002259462A
:102E700020460A9B00F0DEF84FF4007A40B120684B
:102E80000068C00501D5C4F840A00320BDE8F88F54
:102E9000216809F0FE0008612B46284920460A9A5D
:102EA00000F0FCF8F0BB20684169806900902A4678
:102EB00020460A9900F070F940B1206C04283AD1FC
:102EC0002068016841F40071016034E0FEB2B8F19D
:102ED000010F09D02168380A08612A4620460A995C
:102EE00000F05AF90028E8D1206806612A462046F9
:102EF0000A9900F051F90028DFD12068016841F4F7
:102F00008071016000950022594620460A9B00F01E
:102F100091F80028B3D1216809F0FF0040F00100CA
:102F2000086100E007E02B46044920460A9A00F0B9
:102F3000B5F80028AAD00120A8E70000020001008F
:102F40002DE9F843044600680D46DDE9089701685D
:102F50009846164641F4807101604B4600224FF0BE
:102F600001112046009700F065F848B1206800681C
:102F7000C00502D54FF4007020640320BDE8F8833B
:102F8000216805F0FE0008613B464A461549204687
:102F900000F084F888B920684169806900903A4659
:102FA0004946204600F0F8F848B1206C042804D1C6
:102FB0002068016841F4007101600120DEE7F5B28C
:102FC000B8F1010F09D02168300A08613A46494634
:102FD000204600F0E1F80028E7D1206805610020D4
:102FE000CCE700000200010070B516460D4604460D
:102FF0000DE02046FFF70FFF08B1012070BD681CEF
:1030000005D0FEF7F5FB801BA84207D835B1206834
:103010004069C0434007ECD4002070BD002044F854
:10302000300F20216173A073216941F020012161DB
:103030002073E2E72DE9F0471E4690460D46044610
:10304000C1F30747DDF8209008E0701C06D0FEF7BA
:10305000CFFBA0EB0900B0420FD876B12068012F5A
:1030600018D0806925EA00000004000C14D000216B
:103070004145EAD00020BDE8F087002044F8300F39
:1030800020216173A073216941F020012161207327
:103090000120F0E74069E5E70121E9E72DE9F04784
:1030A0009A4691460E46044600254FF02008C1F38B
:1030B000074725E020684069C043400514D42068D4
:1030C000016841F40071016021686FF4806048611B
:1030D000256384F83D8084F83E50206C40F0040065
:1030E000206484F83C501FE0B9F1FF3F08D0FEF7A0
:1030F0007FFBA0EB0A0149450CD8B9F1000F09D0BC
:103100002068012F13D0806926EA00000004000C1B
:103110000BD0CFE744F8305F84F80D80A5732069A9
:1031200040F02000206125730120BDE8F087406950
:10313000EAE72DE9F041002590460E460446202797
:1031400017E04069C043C0060CD454F8301B6FF040
:103150001000486144F810596777A577206A20620B
:10316000257717E0FEF744FBA0EB0800B04208D833
:103170003EB120684169C9434906E2D40020BDE858
:10318000F08144F8305F6773A573206940F0200038
:10319000206125730120F2E770B516460D460446FE
:1031A0000DE02046FFF737FE08B1012070BD681C16
:1031B00005D0FEF71DFB801BA84207D835B120685B
:1031C0004069C0430006ECD4002070BD002044F8E4
:1031D000300F20216173A073216941F0200121612A
:1031E0002073E2E71648DFED170A90ED000A20EEA3
:1031F000200ABDEEC00A10EE100A011212488170BA
:1032000010EE101AC170114991ED000A20EE200A4B
:10321000BDEEC00A10EE101A0912017110EE101A5C
:1032200041710B4991ED000A20EE200ABDEEC00A63
:1032300010EE101A0912817110EE101AC171704748
:10324000180000200000C842980000201C00002048
:103250002000002010B50748FFF77BFB212807D08E
:10326000044800680068C043400601D4012010BD36
:10327000002010BDAC03002070B500240A4E254686
:103280001420FEF7ABF8D6F80002012805D06D1C1B
:10329000EDB2052DF4D9002070BD641CE4B2002508
:1032A000322CEDD3012070BD000040427FB50021DB
:1032B0003D480091019102913A4A03910260012434
:1032C0004FF440320461C0E90121047680F82010F7
:1032D000364AC0E90A210925C561C16080F830403D
:1032E0004461FDF762FD08B1FDF78EFC0094019486
:1032F000062469462C480294FDF7A2FC08B1FDF7AC
:1033000083FC02200090019069462748FDF798FC55
:1033100008B1FDF779FC032000900190694622482E
:10332000FDF78EFC08B1FDF76FFC042000900190C2
:1033300069461D48FDF784FC08B1FDF765FC0520D2
:103340000090019069461848FDF77AFC08B1FDF736
:103350005BFC0094694614480194FDF771FC08B1C8
:10336000FDF752FC07200090019069460E48FDF7DA
:1033700067FC08B1FDF748FC082000900190694601
:103380000948FDF75DFC08B1FDF73EFC0095694674
:1033900005480195FDF754FC002801D0FDF734FCE9
:1033A0007FBD000000200140000100200100000F4F
:1033B0000D4808B5016841F48001016000680022F1
:1033C00000F48000009011463820FEF729FD3820D7
:1033D000FEF719FD002211464620FEF721FDBDE84B
:1033E00008404620FEF70FBD303802402DE9F04F6F
:1033F00087B014216846FCF723FF45480024016884
:1034000041F004010160016801F0040105910168C7
:1034100041F001010160016801F0010105910168BD
:1034200041F0020101600068DFF8E89000F002005E
:10343000059000224FF400514846FEF7D3F90122CF
:1034400091034846FEF7CEF9DFF8CCA042F2E01730
:10345000012239465046FEF7C5F9DFF8C0B04FF4F7
:103460000048002241465846FEF7BCF94FF4C040E0
:103470000125022603948DE8610069464846FEF75F
:10348000B9F84FF488100095CDE901046946584613
:10349000FEF7B0F8142000904FF40410CDE90104B9
:1034A00069465046FEF7A6F84FF4A0408DE851005B
:1034B00069465046FEF79EF8CDE90264CDE90075F5
:1034C00069465046FEF796F8CDF80080CDE90154E4
:1034D000694658460394FEF78DF800220121062024
:1034E000FEF79EFC0620FEF78EFC0022022108203B
:1034F000FEF796FC0820FEF786FC002201210A2038
:10350000FEF78EFC0A20FEF77EFC07B0BDE8F08FC8
:10351000303802400008024000040240000002402F
:103520000D4810B50B4901600C49416000214FF472
:1035300080428160C0E9031241618161C161016221
:10354000FEF75CF9002803D0BDE81040FDF75CBB36
:1035500010BD000000580040A8010020A086010016
:103560000B4810B50949016063214160002140F218
:10357000CF72C0E9021201618161FEF779FF002874
:1035800003D0BDE81040FDF73FBB10BD0044014033
:103590001C0300200B4810B50949016063214160FC
:1035A00000214CF24F32C0E9021201618161FEF745
:1035B0005FFF002803D0BDE81040FDF725BB10BD1C
:1035C000004801406403002010B586B0002417486D
:1035D00000940194029403940494134905940160A7
:1035E00040F2E731C0E901144CF25031C0E9031454
:1035F0008461FEF73DFF08B1FDF706FB4FF48050F4
:10360000009069460948FFF733F808B1FDF7FCFA66
:10361000049404A905480594FEF7ECFE002801D0A7
:10362000FDF7F2FA06B010BD00040040FC010020D6
:1036300010B586B0002417480094019402940394B6
:1036400004941349059401606321C0E901144CF20C
:103650004F31C0E903148461FEF70AFF08B1FDF79A
:10366000D3FA4FF48050009069460A48FFF700F8FB
:1036700008B1FDF7C9FA049404A906480594FEF7B9
:10368000B9FE002801D0FDF7BFFA06B010BD00005A
:10369000000800404402002010B586B000241748FE
:1036A00000940194029403940494134905940160D6
:1036B0006321C0E901144FF47A71C0E903148461F5
:1036C000FEF7D6FE08B1FDF79FFA4FF48050009048
:1036D00069460A48FEF7CCFF08B1FDF795FA049455
:1036E00004A906480594FEF785FE002801D0FDF7E1
:1036F0008BFA06B010BD0000000C00408C020020C8
:103700001FB5002110480091019102910D4A0391CB
:10371000026040F2E732C0E90121521CC0E90321F6
:103720008161FEF7A5FE08B1FDF76EFA4FF48050F7
:10373000009069460448FEF79BFF002801D0FDF782
:1037400063FA1FBD00400140D40200200D4810B5AF
:103750000B4901604FF4E1214160002181600C229E
:10376000C160C0E904129201C0E90621FFF72AFAFC
:10377000002803D0BDE81040FDF746BA10BD000098
:1037800000100140AC030020FEE7000002490020C9
:10379000C1F8B40270470000000041420249012014
:1037A000C1F8B4027047000000004142FEE700008B
:1037B00000220D4906280AD2DFE800F0030A0D07AF
:1037C0001013C1F89822C1F89C22C1F8A0227047BA
:1037D000C1F898227047C1F89C227047C1F8A02216
:1037E000F6E7C1F8A022F6E70080404270470000EB
:1037F000F0B5624C62492DED0A8B89B007A806AB83
:1038000002AACDE900405F4801F0B8F82088C00561
:103810007ED59DED020AF8EEC00A9FED5B0A5B4D76
:103820005B4C60EE800A5B4EB8EE009AC5ED000A74
:103830009DED031A584FB0EE008AB8EEC11A60EE43
:10384000880A61EE001AC4ED001A9DED041A61EEBB
:10385000891AB8EEC11A21EE001A86ED001A9DED04
:10386000052AB8EEC22A22EE000A87ED000A21EEF0
:10387000800A00EE810A10EE100AFCF774FE41EC9B
:10388000100B00F061FB9FED45AB51EC100B53ECBE
:103890001A2BFCF787FDFCF779FE42490860D4ED4E
:1038A000008A28EE890A60EE280A96ED000A20EECA
:1038B00008BA4BEE400AB7EE000A30EE800A10EE6E
:1038C000100AFCF750FE97ED000AD5ED000A41EC16
:1038D000190B2BEE000A60EE880A00EEA80A10EE23
:1038E000100AFCF740FE41EC100BB0EE491AF0EE66
:1038F000691A00F045FE53EC1A2B51EC100BFCF743
:1039000051FDFCF743FE2849086095ED00CA00E030
:103910002FE02CEE0C0AD4ED009A96ED009AD7ED2C
:10392000008A09EEA90A09EE490A08EEE80A10EE33
:10393000100AFCF718FE29EE890A41EC1B0B0CEE6D
:10394000280A20EE080A10EE100AFCF70CFE41ECE3
:10395000100BB0EE4B1AF0EE6B1A00F011FE53ECA8
:103960001A2B51EC100BFCF71DFDFCF70FFE0F4955
:10397000086009B0BDEC0A8BF0BD00001600002005
:10398000100000200A0000200000803024000020E9
:10399000280000202C0000203000002066666666AB
:1039A00066A64C40180000201C00002020000020CB
:1039B0007047000002490020C1F8940270470000DF
:1039C00000804042FEF7B4B930B593B0302168466C
:1039D000FCF736FC14210CA8FCF732FC1A48002432
:1039E000016841F080510160006800F08050119042
:1039F0001648016841F4404101600068022500F466
:103A000040401190012003901020009506950490ED
:103A1000CDE90740C820CDE9090504200B90684690
:103A2000FEF71CFB60B90F20CDE90C05E802CDE9DB
:103A30000E4003210CA81094FEF724FA002801D0B0
:103A4000FDF7E2F813B030BD40380240007000408E
:103A50000248016841F470010160704788ED00E0A0
:103A60000148FEF774BE0000D40200200148FEF7B2
:103A70006EBE0000640300200148FEF768BE00002F
:103A80001C0300200148FEF762BE0000FC0100207C
:103A90000148FEF75CBE0000440200200148FEF72A
:103AA00056BE00008C020020F0B502681D4B1E4C73
:103AB0009F031E4D1E4E984207D0B84205D0A0422B
:103AC00003D0A84201D0B04204D122F0700C4A6861
:103AD00042EA0C02984210D0B8420ED0A0420CD05C
:103AE000A8420AD0B04208D0124CA04205D0124CD5
:103AF000A04202D0114CA04203D122F44074CA6803
:103B000022434C6922F08002224302608A68C2622A
:103B10000A688262984201D1096901630121416109
:103B2000F0BD00000000014000040040000800401B
:103B3000000C0040004001400044014000480140AA
:103B400010B5846842EA032224F47F440A432243E6
:103B5000826010BD826822F070020A4342F00701C1
:103B60008160704710B5036A046A24F0010404629E
:103B7000846924F0F00444EA021423F00A020A43A0
:103B80008461026210BD10B5036A23F01003036262
:103B90008369046A23F4704343EA023224F0A003E9
:103BA00043EA01118261016210BD10B5806B0021F2
:103BB000C185C184FEF7CCFE10BD70B5846B206852
:103BC000406994F83D10C0F3C0100025212904D1AC
:103BD00018B1E584204600F062F82068406994F846
:103BE0003E10C0F38010222904D118B1E58520468B
:103BF00000F02EF8206C40F0100020642046FEF704
:103C0000A7FE70BD10B50146806B09680968C9053B
:103C100016D40021C1840168143151E8002F22F02C
:103C2000800241E80023002BF5D101680C3151E8F6
:103C3000002F42F0400241E80023002BF5D110BDD7
:103C4000FFF7E6F810BD10B5806BFFF7E2F810BD86
:103C500001680C3151E8002F22F4907241E80023F2
:103C6000002BF5D10168143151E8002F22F0010238
:103C700041E80023002BF5D1016B012909D101682E
:103C80000C3151E8002F22F0100241E80023002BF4
:103C9000F5D1202180F83E100021016370470168B2
:103CA0000C3151E8002F22F0C00241E80023002B24
:103CB000F5D1202180F83D10704708B590F83E10EE
:103CC000222901D0022008BD82684FF480539A4215
:103CD00001D1016921B1816A9A421BD04AB10AE03F
:103CE0000268816A5268C2F308020A80816A891CEC
:103CF00008E0026972B10268526802F07F020A703D
:103D0000816A491C8162C18D491E0904090CC18563
:103D100003D019E002685268F1E70168CA6822F02E
:103D20002002CA600168CA6822F48072CA60016811
:103D30004A6922F001024A61202180F83E10016B9D
:103D4000012903D0FFF700F8002008BD002101631E
:103D500001680C3151E8002F22F0100241E80023E5
:103D6000002BF5D101680A68D20602D50A684968B5
:103D70000091818DFEF7D1FDE6E7000070B50446A5
:103D800000680169E26821F4405111430161216931
:103D9000A068E26908436169114308432168CA6861
:103DA00049F20C639A430243CA6020684169A269E0
:103DB00021F440711143416131492068884202D0A9
:103DC0003049884202D1FEF707F901E0FEF7F4F826
:103DD000E2690023192164253226B2F5004F62689A
:103DE00028D0A0FB0101930F9200FCF7F1F90146E6
:103DF000B0FBF5F06FF01802504301EB800006EBCA
:103E00000010B0FBF5F000F0F002B1FBF5F002EBB2
:103E10000012B1FBF5F06FF01803584301EB80007E
:103E200006EB0010B0FBF5F000F00F002168104425
:103E3000886070BDA0FB010192185B41FCF7C8F9D6
:103E40000146B0FBF5F00201B1FBF5F06FF018038D
:103E5000584301EB800006EBC000B0FBF5F000F02A
:103E6000F80002EB4002B1FBF5F0584301EB800093
:103E700006EBC000B0FBF5F000F00700D6E700004D
:103E8000001001400014014081628285C28500213A
:103E90000164222280F83E2080F83C100168CA6844
:103EA00042F48072CA6001684A6942F001024A61C4
:103EB0000068C16841F02001C16000207047000027
:103EC0000148FEF74BBD0000AC030020FEE70000F8
:103ED00010B5FCF77BFDFFF7CFF9064C28B9FCF7CE
:103EE000EDFD10B90020C4F894020120C4F894023A
:103EF00010BD00000080404203B4019841000098CA
:103F000050EAC12018BF04204A0D18BF40F001003C
:103F100040F2FF72B2EB515F08BF40F0020001288F
:103F200008BF052002B070470907090E002804DB0E
:103F300000F1E02080F80014704700F00F0000F15D
:103F4000E02080F8141D704770B5C1482DED020BBC
:103F50002DED0E8B82B0119D25F000449FEDBEDB50
:103F60009FEDBFEB84423EDBA4F140511098A1F1DC
:103F70007F6108430FD0BC48844202DC28D11098EE
:103F800030B39DED100B02B0BDEC0E8B02B0BDE85E
:103F9000704000F069BC9DED100B53EC1D2B51ECF3
:103FA000100BFCF7FFF99DED100B41EC180B53ECD7
:103FB0001E2B51EC100BFCF7F5F953EC182BFCF70A
:103FC0004AF941EC100B02B0BDEC0E8B02B070BD93
:103FD000012000F08DFC02B0BDEC0E8B02B0BDE8FC
:103FE000704000F055BCA1489FEDA18B844256DA89
:103FF0009DED100BB4F1795F0ADA51EC100BFFF76D
:104000007BFF042808BF00F053FC9DED100BDAE79E
:1040100053EC102B51EC100BFCF7C4F941EC190BCD
:1040200095480621B0EE490AF0EE690A784400F09E
:104030009FFB53EC192B51EC100BFCF7B3F941EC3F
:104040001A0B8E48B0EE490AF0EE690A0421784452
:1040500000F08EFB53EC192B51EC100BFCF7A2F97E
:1040600053EC182BFCF7F7F841EC100B51EC1A0B42
:1040700053EC102BFCF708FACDE900019DED000B85
:1040800053EC102B9DED100B51EC100BFCF78AF943
:104090009DED101B53EC112BFCF7DDF8D2E09DEDEC
:1040A000100B51EC100B00F00DFD53EC182BFCF72E
:1040B00076F99FED730BCDE9000153EC102B9DEDCC
:1040C000000B51EC100BFCF76DF941EC190B6E482D
:1040D0000621B0EE490AF0EE690A784400F048FB88
:1040E00053EC192B51EC100BFCF75CF941EC1B0B5A
:1040F0006648B0EE490AF0EE690A0421784400F0FF
:1041000037FB53EC192B51EC100BFCF74BF953EC2C
:10411000182BFCF7A0F841EC1C0B51EC190B00F02C
:1041200048FF41EC180B5A489FED5BABA04222DCE4
:1041300053EC1C2B51EC1B0BFCF7A6F9CDE900014D
:104140009DED000B51EC180B53EC102BFCF72AF9EA
:1041500053EC182BFCF77FF853EC1A2BFCF722F9E1
:1041600053EC1D2BFCF718F953EC1E2BFCF717F939
:1041700041EC100B5FE08DED008B002000909DED79
:10418000000B51EC180B53EC102BFCF764F89DED71
:10419000000B41EC1E0B53EC102B51EC100BFCF7F9
:1041A00001F953EC192BFCF7FAF853EC1E2BFCF732
:1041B0006BF941EC190B53EC1C2B51EC1B0BFCF76E
:1041C00063F941EC1B0B53EC1A2B51EC190BFCF768
:1041D000E9F853EC1D2BFCF7E2F841EC190B53EC1A
:1041E0001A2B51EC180BFCF7DDF853EC1B2BFCF7EA
:1041F000D9F853EC192BFCF7CFF89DED000B41ECEF
:10420000180B53EC1A2B51EC100BFCF7CBF89FED6D
:10421000249B53EC192BFCF7C2F841EC100B51EC2A
:10422000180B53EC102BFCF7B7F853EC192BFCF7D9
:10423000B6F841EC100B002D3FF7C5AE51EC100B5A
:1042400081F0004141EC100BBDE6000000000000D1
:104250000000F03F00000000075C143326A6913CEC
:10426000182D4454FB21F93F0000F07F0000E03F8F
:10427000000000000000F03F601000006E10000021
:10428000000000000000E03FB20F0000C00F00007F
:104290003333EF3F0000000000000000000000404A
:1042A000182D4454FB21E93F70B59B482DED020BBE
:1042B0002DED068B079D25F00044A04218DC9748A1
:1042C000844202DC0AD1069840B19DED060BBDEC9C
:1042D000068B02B0BDE8704000F0C6BA002DCCBF1E
:1042E0009FED8F0B9FED900BBDEC068B02B070BD68
:1042F0008F48A04215DD8F48A042D8BF4FF0FF3451
:1043000058DD9DED060B51EC100BFFF7F5FD042871
:1043100008BF00F0CDFA9DED060BBDEC068B02B098
:1043200070BD9DED060B51EC100B00F0CBFBCDE901
:10433000060181489FED828BA0423CDD8248A0426D
:104340001FDD00249FED82AB9DED060B53EC1A2B75
:1043500051EC100BFBF77FFF9DED060B41EC190BA9
:1043600053EC1A2B51EC100BFCF71CF853EC182BE8
:10437000FCF712F853EC192BFCF786F8CDE906018F
:1043800049E09DED060B012453EC182B51EC100B6A
:10439000FBF761FF9DED060B41EC190B53EC182B5D
:1043A00051EC100BFBF7F8FF53EC192BFCF76CF8F2
:1043B000CDE906012FE06848A0421FDD02249FEDF1
:1043C000689B9DED060B53EC192B51EC100BFBF782
:1043D000E9FF53EC182BFBF73EFF9DED060B41EC7C
:1043E000180B53EC192B51EC100BFBF7D5FF53ECCA
:1043F000182BFCF749F8CDE906010CE09DED060B02
:10440000032453EC102B9FED580B51EC100BFCF7D1
:104410003BF8CDE906019DED060B53EC102B51EC5A
:10442000100BFBF7BFFF41EC180B53EC182BFBF7FD
:10443000B9FF41EC190B4E480621B0EE490AF0EEE7
:10444000690A784400F094F953EC182B51EC100BE6
:10445000FBF7A8FF41EC180B4648B0EE490AF0EE16
:10446000690A0521784400F083F953EC192B51ECCB
:10447000100BFBF797FF41EC100B51EC180B53ECB2
:10448000102B002C0EDAFBF7E6FE9DED061B53EC1D
:10449000112BFBF787FF9DED061B53EC112BFBF750
:1044A0007EFF35E0FBF7D7FE9DED061B53EC112B8D
:1044B000FBF778FF41EC100B2F48784400EBC40069
:1044C00090ED001B51EC100B53EC112BFBF764FF2C
:1044D0009DED061B53EC112BFBF75EFF41EC100B1F
:1044E0002648784400EBC40090ED001B51EC100B03
:1044F00053EC112BFBF753FF41EC100B002DA2BF27
:10450000BDEC068B02B070BD51EC100B81F0004188
:1045100041EC100B01E70000000010440000F07FA8
:10452000182D4454FB21F93F182D4454FB21F9BFA9
:104530000000DC3F0000203E0000F33F00000000D0
:10454000000000000000F03F0000E63F0000000017
:104550000000000000000040008003400000000058
:10456000000000000000F83F000000000000F0BF65
:10457000020D0000B80C0000420C0000FA0B000015
:1045800070B56B4E2DED040B2DED028B82B0DDF876
:104590001CC0DDE905235C422CF000411C4341EACC
:1045A000D474049D22F00040B44205D86C422C43E0
:1045B00040EAD474B4420BD99DED061B9DED040B6B
:1045C00002B0BDEC028B04B0BDE8704000F056B9FB
:1045D000ACF14054A4F17F641C430BD0022404EAE4
:1045E000AC7444EAD27405439FED538B9FED542B7A
:1045F00007D015E09DED040B51EC100B00F07EF997
:1046000042E0002C11BF012C9DED040B02B0BDEC6B
:10461000028B04BF04B070BD022C38D0032C3BD0F9
:104620000B439FED491B9FED4A0B0AD0B14218D1B5
:10463000B04209D121F0804120F0804007910590DF
:104640000FE0002A15DA10E0434B7B44002C08BF32
:1046500093ED000B0DD0012C10D0022C17D0032CA1
:104660001AD0B0421DD1002A03DAB0EE410AF0EEB2
:10467000610A02B0BDEC028B04B070BD93ED000B7B
:1046800051EC100B81F0004141EC100BF1E7B0EE62
:10469000480AF0EE680AECE7B0EE420AF0EE620A71
:1046A000E7E7401A00153C28C8BF8DED000B19DC68
:1046B000BCF1000FBEBF10F13C0F9FED290B8DED3B
:1046C000000B0FDB9DED060B53EC102B9DED040B47
:1046D00051EC100BFBF7D8FE00F0F4F900F00EF9E6
:1046E000CDE90001002C08BF9DED000BC1D0012CCD
:1046F00010D0022C9FED1C0B53EC102B9DED000BEA
:1047000051EC100B0DD0FBF747FE53EC182BFBF7C9
:1047100043FEB9E7019880F0004001909DED000B49
:10472000A7E7FBF739FE53EC182BFBF738FEABE796
:104730000000F07F00000000182D4454FB210940C8
:10474000182D4454FB2109C0182D4454FB21F9BFF6
:10475000182D4454FB21F93F2A0B000000000000F3
:104760000000000000000000075C143326A6A13CF6
:1047700070B504462DED028B4D1E00EBC500B0EE6A
:10478000408AF0EE608A90ED000B35F0060017D0FD
:1047900053EC182B51EC100BFBF704FE41EC100B03
:1047A0006D1E04EBC50090ED001B51EC100B53EC9B
:1047B000112BFBF750FD41EC100B35F00600E7D153
:1047C000022D36D0042D1CD0062D1CBFBDEC028B53
:1047D00070BD53EC182B51EC100BFBF7E3FD94ED7F
:1047E0000A1B53EC112BFBF736FD53EC182BFBF790
:1047F000D9FD94ED081B53EC112BFBF72CFD41EC7C
:10480000100B53EC182B51EC100BFBF7CBFD94ED78
:10481000061B53EC112BFBF71EFD53EC182BFBF77B
:10482000C1FD94ED040B53EC102BFBF714FD41EC90
:10483000100B53EC182B51EC100BFBF7B3FD94ED60
:10484000021B53EC112BFBF706FD53EC182BFBF767
:10485000A9FD94ED001B53EC112BFBF7FCFCBDEC08
:10486000028B41EC100B70BD10B553EC102B51ECCA
:10487000100BFBF7F0FC41EC100B10BD10B553EC26
:10488000112B51EC100BFBF7E6FC41EC100B10BDAB
:104890009FED050B10B553EC102B51EC100BFBF7F3
:1048A000F3FD41EC100B10BD000000000000000003
:1048B0009FED050B10B553EC102B51EC100BFBF7D3
:1048C00071FD41EC100B10BD000000000000001055
:1048D00002E008C8121F08C1002AFAD170477047C9
:1048E000002001E001C1121F002AFBD17047000027
:1048F0000149086070470000AC00002010B541EC91
:10490000100BFFF7D1FC51EC100B10BD0748084904
:10491000012243780BB10A707047064BD3F8383246
:104920000BB1427070470220087070475C00002095
:10493000060000200080404230B50D480D4A01239A
:10494000417809B1137030BD0B4940F62825022487
:104950000968A94209D9C189B1F57A7F03D21470D7
:10496000491CC18130BD437030BD14700021F8E78F
:104970005C00002006000020440000202DE9FF4FCD
:1049800089B01746DDE9165200244D4E884681460F
:104990002C80A246B07B694600F01AFA4FF0FF3B2C
:1049A00018B158460DB0BDE8F08F708910F0140FA3
:1049B0003ED0009909BA21F0FF029DF803100A4386
:1049C0003A6001999DF8073009BA21F0FF011943B7
:1049D0007960029B9DF80B401BBA23F0FF03234331
:1049E000BB60039C121424BA24F0FF0C9DF80F4006
:1049F00009144CEA040C1024C7F80CC01B144FEA2D
:104A00002C4712FB02F211FB012113FB03F217FBEF
:104A100007221144A1F17061B1F1007F04D900F0C7
:104A20001FFAA5F800A0BCE7298841F4807129800D
:104A30004206694611D50A19A41D13885BBAA8F865
:104A4000003053885BBAA8F80230928852BAA8F8AE
:104A500004202A8842F008022A8010F4C07F11D076
:104A60000A19A41D13885BBAA9F8003053885BBAF1
:104A7000A9F80230928852BAA9F804202A8842F094
:104A800070022A80800716D00C44E07800F0C00540
:104A900000F03F016078C00706D0C80801F00701A8
:104AA0003268491C02B190476078000703D57168ED
:104AB00009B1A80988470C9800F07AFA002071E73C
:104AC0009C04002082B0CDE9000121F0004001905B
:104AD0009DED000B02B051EC100B7047F0B51D4975
:104AE0001D4C002051F8202044F82020401C0828AC
:104AF000F8DB086A1949184A086018485521001D52
:104B00000170AA214170002112F1240234F83130E1
:104B100001EB41051E091B0103F0F00704EBC10383
:104B200056559E881544C6F303231F436F70491CD6
:104B3000AE700429EADB002383730221541814F8B1
:104B4000024C4454857B491C2C4484730E29F5DBAC
:104B5000C373F0BDB00000205004002044000020CA
:104B600010B5FBF763FF144801781448062922D2D8
:104B7000DFE801F02103050F1419012100E00021F5
:104B800001700220FBF7B4FFBDE810400320FBF7E3
:104B9000AFBF0020FBF7ACFF022008E00020FBF7CE
:104BA000A7FF042003E00020FBF7A2FF0320BDE8DD
:104BB0001040FEF7FDBD10BD0600002008000020DB
:104BC00070B5144CD4F81002134E002501280CD0F7
:104BD0001248007830B101280AD141033046FCF771
:104BE000F9FD05E0C4F8B45202E00120C4F8B402B3
:104BF000D4F81002012806D10948007820B1012814
:104C000001D1C4F8985270BD3046BDE870404021D3
:104C1000FCF7E0BD00804042000402400700002095
:104C20000800002070B51A481A490088022803D0ED
:104C3000012803D058B103E0032000E004200870ED
:104C4000154DD5F810020024012802D012E00520ED
:104C5000F5E712480078012808D11148C0F8B84299
:104C60001048FDF75BFE1048FDF7EAFCFFF764FE15
:104C7000FFF74CFED5F830020C4910F0FF0003D0CE
:104C8000012800D10C7070BD0120087070BD0000BB
:104C90006800002006000020008040420000002044
:104CA00000004142AC0300201C030020070000204C
:104CB0003EB54000CDE900320A46FF240146029489
:104CC00001230248FCF75EFE3EBD0000A801002063
:104CD0003EB54000CDE900320A46FF240146029469
:104CE00001230248FCF74AFF3EBD0000A801002056
:104CF000FDF726F8FEF768FEFFF7EAF8FEF776FB09
:104D0000FEF756FBFEF7D2FAFEF70AFCFEF75CFC54
:104D1000FEF7F6FCFEF724FCFEF73CFCFEF716FD62
:104D2000FEF786FCFEF7B8FC092220492048FCF774
:104D3000C5F8FEF733FD0020FEF73AFD4FF49670FC
:104D4000FCF74CFBFEF722FD18481A49006A086080
:104D50003220FCF743FB1848FDF73CFC1748FDF7F1
:104D600039FC1748FDF736FC1648FDF733FC0A20DE
:104D7000FCF734FB0A20FCF731FB134C0120042222
:104D80002070A11C1148FDF7C9FF0025607800289C
:104D9000FCD0FEF703FD6078642110FB01F0FCF706
:104DA0001DFBFEF7F3FC6570F0E70000B00000208B
:104DB0000001002044000020FC010020D40200205B
:104DC0001C0300206403002000000020AC0300202E
:104DD0002DE9F843214C0646174694F824008946ED
:104DE0004FF0FF3890B3A07A80B320686B46022260
:104DF000817A60680078FFF75BFF38BBBDF8000080
:104E000045BAB54202D2002038701FE06068418880
:104E1000B5EB510F11D9216800786B46497C01220E
:104E2000FFF746FF90B99DF80000C00605D500F0D9
:104E300017F86FF00100BDE8F8832068F2B24B4626
:104E4000C17A60680078FFF733FF08B14046F2E7A7
:104E5000B5FBF6F0401E38700020ECE76C00002037
:104E6000F8B5524C4FF0FF36A07A00287CD00025D0
:104E70008DF8005020686B460122C17B6068007885
:104E8000FFF726FF00286FD120686B460122417989
:104E900060680078FFF71CFF002865D120686B462A
:104EA0000122017960680078FFF712FF00287AD1AB
:104EB00094F82400C8B30C208DF8000020686B46DD
:104EC0000122017960680078FFF702FF00286AD1AB
:104ED000C0208DF80000A07AC00702D0E0208DF835
:104EE000000020686B460122017960680078FFF7B6
:104EF000EFFE002857D1607C18B102208DF8000029
:104F000001E08DF8005020686B460122C17B60688B
:104F10000078FFF7DDFE38BB8DF8005020686B4647
:104F2000012241796068007839E0FFE704208DF8BC
:104F3000000020686B460122017960680078FFF765
:104F4000C7FE88B9A07C80B9A07AC0070DD06020C8
:104F50008DF8000020686B460122017960680078B6
:104F6000FFF7B6FE00B902E01DE04020F0E7607CEC
:104F700018B101208DF8000001E08DF80050206884
:104F80006B460122C17B60680078FFF7A1FE50B933
:104F90002068064B01224179606810330078FFF7E2
:104FA00097FE002800D03046F8BD00006C000020BD
:104FB000704700B52DED048B83B041EC190BFBF766
:104FC000D9FB41EC180B18EE100A18EE901A8DED73
:104FD000008B002818BF0120084320F00040C0F1DA
:104FE0007F6000F1E040C00F14D019EE101A19EEE6
:104FF000900A8DED009B002918BF0121084320F085
:105000000040C0F17F6000F1E040C00F04BF01200C
:10501000FFF76EFC51EC180B03B0BDEC048B00BD28
:105020000006101600061016000000000000000028
:10503000010203040607080900000000010203043E
:105040006800000476005401F7FD000175191A0C80
:105050006A231B1C1F207274433B4138393A6B6C26
:10506000376F06246D6E700083000000000800009A
:105070000001001832000500000020410000D2426B
:10508000295C0F3E9A99993E3333733F295C0F3E5A
:10509000555555555555C53F7D6FEB0312D6D4BFB9
:1050A0005544880E55C1C93F3B8F68B52882A4BFBF
:1050B00088B20175E0EF493F09F7FD0DE13D023F80
:1050C0004B2D8A1C273A03C0C88A599CE52A004008
:1050D00059018D1B6C06E6BF82922EB1C5B8B33F55
:1050E0004FBB610567ACDD3F182D4454FB21E93F00
:1050F0009BF681D20B73EF3F182D4454FB21F93FEF
:10510000E2652F227F2B7A3C075C143326A6813C74
:10511000BDCBF07A8807703C075C143326A6913C1F
:10512000C4EB98999999C9BF711623FEC671BCBF8B
:105130006D9A74AFF2B0B3BF9AFDDE522DDEADBFF3
:105140002F6C6A2C44B4A2BF0D5555555555D53F0B
:10515000FF8300922449C23F6E204CC5CD45B73F26
:10516000513DD0A0660DB13FEB0D76244B7BA93F9E
:1051700011DA22E33AAD903F000000000000000089
:10518000A051000800000020B0000000D048000836
:1051900050520008B000002000080000E04800085D
:1051A00000000000000000000000000000000000FF
:1051B00000000000000000000000000000000000EF
:1051C00000000000000000000000000000000000DF
:1051D00000000000010000001000000000000000BE
:1051E0000024F4000000000055AA000000000000A8
:1051F00000000000000000000000000000000000AF
:105200003D091F09CF08B108020000004C500008FA
:1052100040500008000000000000000000000000F6
:10522000000000000000000000000000000000007E
:10523000000000006850000866BB0000000000008D
:10524000000001000000010000000100000000005B
:040000050800019955
:00000001FF
