:020000040800F2
:100000000009002039020008A71E0008A11A0008F4
:10001000A51E000859050008D122000800000000B4
:10002000000000000000000000000000AB1E0008FF
:100030005B05000800000000A91E0008AD1E0008B6
:10004000530200085302000853020008530200083C
:1000500053020008530200085D050008530200081F
:1000600063050008530200086905000853020008F0
:10007000530200085302000853020008530200080C
:100080005302000853020008530200080000000059
:100090000000000000000000000000005302000803
:1000A000511F0008691F00085D1F00085302000867
:1000B00053020008751F0008811F00085302000842
:1000C00053020008530200085302000853020008BC
:1000D00053020008C5220008530200080000000077
:1000E00053020008530200085302000800000000F9
:1000F00000000000000000000000000053020008A3
:1001000000000000530200088D1F00085302000881
:1001100000000000000000000000000000000000DF
:10012000530200085302000853020008530200085B
:100130005302000800000000000000000000000062
:100140000000000000000000000000005302000852
:10015000530200085302000853020008530200082B
:1001600053020008530200080000000000000000D5
:10017000000000000000000000000000000000007F
:100180000000000053020008000000000000000012
:10019000530200085302000800F002F800F03CF897
:1001A0000AA090E8000C82448344AAF10107DA45D2
:1001B00001D100F031F8AFF2090EBAE80F0013F0E8
:1001C000010F18BFFB1A43F0010318477C21000000
:1001D0009C210000103A24BF78C878C1FAD8520791
:1001E00024BF30C830C144BF04680C6070470000B1
:1001F0000023002400250026103A28BF78C1FBD830
:10020000520728BF30C148BF0B6070471FB502F0CE
:1002100089F81FBD10B510BD00F0CFF81146FFF7EB
:10022000F5FF02F066F800F0EDF803B4FFF7F2FF17
:1002300003BC00F0F5F80000094880470948004772
:10024000FEE7FEE7FEE7FEE7FEE7FEE7FEE7FEE786
:10025000FEE7FEE704480549054A064B70470000E3
:10026000411F000899010008000300200009002038
:10027000000500200005002053EA020C00F0698010
:100280002DE9F04B4FF00006002B1FBFB3FA83F5AA
:1002900003FA05F424FA05F65E4012BF1643B2FADB
:1002A00082F502FA05F4C5F120051EBF22FA05FC0D
:1002B00044EA0C04203556EA044C4FEA144418BFB3
:1002C000641C4FF000084FF00009904271EB030CE2
:1002D00039D3002919BFB1FA81F701FA07F6B0FA4C
:1002E00080F700FA07F6C7F120071EBF20FA07FCC7
:1002F00046EA0C062037B6FBF4FCA7EB0507103FD7
:1003000007F01F0BCBF120060CFA0BFB2CFA06F6BC
:1003100044BFB3460026202FA4BF5E464FF0000B1B
:100320005BEA060C08BF4FF0010B19EB0B09ABFBA6
:10033000027C48EB0608C01B06FB02CC0BFB03CC7F
:1003400071EB0C01C1E70B46024641464846BDE849
:10035000F08B13B54FF000004FF00001AFF30080B9
:10036000BDE81C4070474FF0000200B513469446AC
:100370009646203922BFA0E80C50A0E80C50B1F1FD
:100380002001BFF4F7AF090728BFA0E80C5048BF11
:100390000CC05DF804EB890028BF40F8042B08BFAF
:1003A000704748BF20F8022B11F0804F18BF00F8AB
:1003B000012B7047704770477047754600F02CF866
:1003C000AE4605006946534620F00700854618B042
:1003D00020B5FFF73FFFBDE820404FF000064FF08B
:1003E00000074FF000084FF0000B21F00701AC466A
:1003F000ACE8C009ACE8C009ACE8C009ACE8C00989
:100400008D46704710B50446AFF300802046BDE826
:100410001040FFF70ABF000000487047A00200200C
:1004200001491820ABBEFEE726000200704700001D
:10043000464910B54A6822F440324A604A68436827
:100440001A434A6001684A6822F480724A6001686F
:100450004A68036942EA03224A6001684A6822F056
:1004600040724A6001684A6883681A434A600168BA
:100470008A6822F400628A6001688A68C3681A4345
:100480008A60816A6FF07062D14201688A6822F0E6
:1004900070628A6001688A680CD0836A1A438A6035
:1004A00001688A6822F040528A6001688A68C36ADB
:1004B0001A4301E022F040528A6001688A6822F003
:1004C00002028A6001688A68037E42EA43028A6007
:1004D00090F82010002901684A680FD042F40062A9
:1004E0004A6001684A6822F460424A6001684A68CA
:1004F000174C436A04EB43331A4301E022F40062D1
:100500004A600168CA6A22F47002CA620168CA6A53
:10051000838B104C04EB03531A43CA6201688A6848
:1005200022F400728A6001688A6890F8303042EAEA
:1005300043228A6001688A6822F480628A600168C6
:100540008A68406942EA8020886010BD002301402B
:1005500000E0FFFF0000F0FFFEE77047012000F021
:1005600081B9042000F07EB9102000F07BB972B68A
:10057000FEE7000078B50024009490F83C20012AA2
:1005800019D0012280F83C200A6807230568092A4F
:1005900013D9EE680A3A02EB420293409E43EE60A2
:1005A0000B788A680A3B03EB43039A400368DD68D3
:1005B0002A43DA6010E0022078BD2E6902EB420285
:1005C00093409E432E610B788A6803EB43039A4065
:1005D00003681D692A431A614A681F23072A13D238
:1005E00005686E6B521E02EB820293409E436E635F
:1005F0000A8893B20A79521E02EB82029340026883
:10060000556B2B43536327E005680D2A12D22E6BDE
:10061000D21F02EB820293409E432E630B790A881D
:10062000DB1F92B203EB83039A4003681D6B2A43DE
:100630001A6311E0EE6A0D3A02EB820293409E4388
:10064000EE620B790A880D3B92B203EB83039A406A
:100650000368DD6A2A43DA621B4B0568194A9D422A
:100660000AD10D68122D07D1556825F40005556093
:10067000556845F48005556005689D421DD1134DB0
:100680000B68AB4201D0112B17D1536823F48003C0
:100690005360536843F4000353600968A9420CD1C6
:1006A0000B490C4A0968B1FBF2F101EB81014900E9
:1006B00000E0491E00910029FBD180F83C40002059
:1006C00078BD00000023014000200140120000100E
:1006D0000C00002040420F0070B504004FF00005F0
:1006E00003D0206C002610B107E0012070BD204629
:1006F00000F01CF8666484F83C60206CC00610D4DE
:10070000206C20F4885040F0020020642046FFF75F
:100710008FFE6664206C20F0020040F0010020642F
:1007200000E0012584F83C60284670BD30B587B0F4
:10073000044614216846FFF716FE184920688842CF
:100740002AD117480025016841F4807101600068D2
:1007500000F48070059012481438016841F00101DE
:100760000160016801F001010591016841F0020199
:1007700001600068032400F002000590FE208DE86F
:1007800031006946074800F079F800946946064848
:10079000CDE9014500F072F807B030BD00200140FE
:1007A0004438024000000240000402402DE9F041BC
:1007B0000446876D00F058F9064694F83500002588
:1007C000022806D08020606584F834500120BDE8FE
:1007D000F0812068016821F01601016020684169FC
:1007E00021F080014161206C08B9A06C20B1206823
:1007F000016821F0080101602068016821F0010111
:1008000001600CE000F030F9801B052807D920209A
:100810006065032084F8350084F83450D7E72068F9
:100820000068C007EED194F85C103F208840B860A3
:10083000012084F8350084F834500020C7E790F890
:100840003510022903D08021416501207047052120
:1008500080F835100068016821F001010160002076
:1008600070477047044910B50A68024202D0086018
:10087000FFF7F7FF10BD0000143C01402DE9F84FD1
:10088000DFF8B8A1002201240AF1040B03254FF080
:100890000F090BF1040E00BF0B6804FA02F6334097
:1008A000B34273D10F7907F00307012F01D0022F54
:1008B00016D187684FEA420805FA08FC27EA0C07B8
:1008C000D1F80CC00CFA08FC4CEA070CC0F808C0C0
:1008D0004768B7430E79C6F3001696403E4346601C
:1008E0000E79F643B6070DD0C768560005FA06FC28
:1008F00027EA0C07D1F808C00CFA06FC4CEA070CF2
:10090000C0F80CC00E7906F00306022E10D1D608EE
:1009100000EB8608D8F8206057074FEAD76C09FA31
:100920000CF7BE430F6907FA0CF73743C8F820707D
:1009300006684FEA420C05FA0CF7BE430F7907F040
:10094000030707FA0CF7374307604E6816F4403F79
:100950006DD03B4E376847F480473760366822F0E9
:10096000030706F480460096364E07EB060CDCF8CB
:10097000086897073F0F09FA07F826EA0806DFF824
:10098000C880404503D14FF000081EE04FE0DFF87B
:10099000BC80404502D14FF0010816E0DFF8B0807E
:1009A000404502D14FF002080FE0DFF8A880404533
:1009B00002D14FF0030808E0DFF89C80404502D1E7
:1009C0004FF0040801E04FF0070808FA07F848EA7A
:1009D0000608CCF80888DAF800605746D1F804C059
:1009E0009E435FEACC3C00D51E433E60DBF80060CE
:1009F0005F46D1F804C09E435FEA8C3C00D51E439D
:100A00003E60DEF800607746D1F804C09E435FEA9E
:100A1000CC2C00D51E433E60084F0C373E68D1F801
:100A200004C09E435FEA8C2C00D51E433E60521CDE
:100A3000102AFFF431AFBDE8F88F0000003C014000
:100A400044380240003001400000024000040240EF
:100A500000080240000C0240001002400AB181610F
:100A600070470904FBE700000148806870470000F8
:100A70000000002070B5040025D094F83D0000254A
:100A800020B984F83C50204600F0B8F8242084F8BF
:100A90003D002068016821F00101016020680168C3
:100AA00041F4004101602068016821F400410160C7
:100AB00000F01AFA4D4A6168914201D84C4900E0B1
:100AC0004C49884201D2012070BD4B492368B0FBDC
:100AD000F1F15E6826F03F060E435E606368934264
:100AE00006D94FF4967359434FF47A73B1FBF3F17F
:100AF0002368491C1E6A26F03F063143196261686B
:100B0000914210D84900401EB0FBF1F2521CC2F3D2
:100B10000B02042A01D2042022E0B0FBF1F0401CB9
:100B2000C0F30B001CE0A268F2B301EBC10303EBBE
:100B30000116431EB3FBF6F35B1C43F480431B0515
:100B400049D092B301EBC10202EB0111401EB0FB90
:100B5000F1F0401CC0F30B0040F4804040F4004032
:100B60002168CA694CF6FF739A431043C861D4E9FF
:100B7000071001432068026822F0C002114301609F
:100B8000D4E9030101432068826848F2FF339A43A5
:100B900011438160D4E9050108432168CA6822F045
:100BA000FF021043C86001E00EE016E02068016813
:100BB00041F0010101602564202084F83D00256397
:100BC00084F83E50002070BD01EB4106431EB3FB8C
:100BD000F6F35B1CB3E70120C2E701EB4101401EC5
:100BE000B0FBF1F0401CC0F30B00B7E7A08601009A
:100BF00080841E0000093D0040420F00F0B587B020
:100C0000044614216846FFF7AEFB1A492068884263
:100C10002DD119480024016841F0020101600068EB
:100C2000122500F0020005904FF48060CDE9000528
:100C3000032602940420CDE90360104F694638462C
:100C4000FFF71CFE0820CDE9000502940920CDE93C
:100C5000036069463846FFF711FE07481030016807
:100C600041F480010160006800F48000059007B045
:100C7000F0BD00000058004030380240000402403F
:100C800002488168027811448160704700000020AA
:100C90000B4810B5016841F400710160016841F42E
:100CA00080610160016841F480710160032000F0FF
:100CB0006FF80F2000F006F800F024F8002010BDB7
:100CC000003C024070B50D4D04464FF47A7128780F
:100CD000B1FBF0F00A490968B1FBF0F000F00CFB41
:100CE00048B9102C07D200222146501E00F030F8DF
:100CF00000206C6070BD012070BD0000000000206D
:100D00000C0000200A4808B5016841F480410160E8
:100D1000006800F4804000900548001F016841F021
:100D200080510160006800F08050009008BD000014
:100D300044380240002809DB00F01F0201219140E5
:100D40004009800000F1E020C0F800117047000069
:100D5000F0B40E4B1B680C46C3F30223C3F1070526
:100D6000042D00D90425191D072901D2002300E014
:100D7000DB1E012606FA05F1491E214099409E40DE
:100D8000761E16403143F0BC01F0A3BA0CED00E032
:100D9000064900F0070208684FF6FF03184040EAD2
:100DA0000220034A10430860704700000CED00E089
:100DB0000000FA052DE9F0470E46050065D0DFF882
:100DC0001481D8F80000F7B200F00700B04207D253
:100DD00088F80070D8F8000000F00700B04254D145
:100DE00028683D4C810712D5400703D5206840F4A0
:100DF000E05020602878000703D5206840F4604068
:100E000020602068A96820F0F0000843206028785E
:100E1000C0072DD0304968680839012812D002284F
:100E200013D0032811D00968890700292DDA216819
:100E300021F0030101432160FFF716FE814641F2D4
:100E4000883A0EE009688903EFE709688901ECE751
:100E5000FFF70AFEA0EB0901514502D90320BDE8C6
:100E6000F0872068696800F00C00B0EB810FEFD1CB
:100E7000D8F80010404601F00701B14207D90770C9
:100E8000006800F00700B04201D00120E7E72878B1
:100E9000400705D52068E96820F4E0500843206049
:100EA0002878000706D52068296920F4604040EAC8
:100EB000C100206000F038F82168084AC1F303112E
:100EC000515CC8400649086006480068FFF7FAFE12
:100ED0000020C4E7003C0240083802402E230008EE
:100EE0000C0000200400002004480549006809683F
:100EF000044AC1F38221515CC84070470C000020B5
:100F0000083802403E230008044805490068096883
:100F1000044AC1F34231515CC84070470C000020C4
:100F2000083802403E230008154810B5006810F04C
:100F30000C02144813D01449042A0FD0082A0ED1E9
:100F40000F4C241F2268236802F03F025B0207D582
:100F50002068C0F38810A0FB010106E0084610BD20
:100F60002168C1F38811A1FB00010023FFF784F978
:100F70002168C1F30141491C4900B0FBF1F010BDEB
:100F8000083802400024F40040787D012DE9F84F34
:100F900004006ED02078DFF84C93C007A9F1040557
:100FA0004AD009F104000168C1F38101012908D088
:100FB0000068C0F3810002280AD1D9F8000040027D
:100FC00006D52868800337D560680028E1D033E073
:100FD0006068B0F5803F10D0B0F5A02F286810D021
:100FE00020F480302860286820F480202860606821
:100FF000A8B1FFF739FD06460DE0286840F48030BF
:10100000F4E740F480202860F7E700BFFFF72CFDED
:10101000801B642873D828688003F7D50CE0FFF79D
:1010200023FD064605E000BFFFF71EFD801B642878
:10103000F0D828688003F7D42078DFF8AC828007E6
:101040004FF0000A3ED5A748001D016811F00C0FB3
:1010500008D00068C0F3810002280BD1D9F8000045
:10106000400207D42868800716D5E068012800D11F
:1010700012E033E1E068B8B10120C8F80000FFF7E2
:10108000F3FC064605E000BFFFF7EEFC801B0228DC
:10109000C0D828688007F7D52868216920F0F800B3
:1010A00040EAC10028600DE0C8F800A0FFF7DCFCB2
:1010B000064604E0FFF7D8FC801B02281FD82868EA
:1010C0008007F7D42078000722D5864F87486169CA
:1010D000703771B101210160FFF7C6FC064604E0DC
:1010E000FFF7C2FC801B022809D838688007F7D5B3
:1010F0000EE0C0F800A0FFF7B7FC064605E082E06E
:10110000FFF7B2FC801B02287DD838688007F7D42F
:101110002078400768D5DFF8CCB100270BF13C0BF5
:10112000DBF80000C0000BD4DBF8001041F0805168
:10113000CBF80010DBF80000012700F08050009091
:101140006B4E3068C00510D4306840F48070306059
:10115000FFF78AFC009005E0FFF786FC0099401A33
:10116000022850D83068C005F6D55E4EA0686C36AF
:1011700001280FD00528306810D020F00100306021
:10118000306820F004003060A068B8B1FFF76CFC54
:1011900000900FE0306840F00100F4E740F00400F8
:1011A0003060F7E7FFF760FC0099411A41F28830A0
:1011B000814266D830688007F4D50EE0FFF754FC12
:1011C000009007E0FFF750FC0099411A41F2883087
:1011D000814256D830688007F4D42FB1DBF8001074
:1011E00021F08051CBF80010A069C8B33D49091D1A
:1011F0000968C1F3810102294AD00228504607D06C
:10120000C8F8600000E03CE0FFF72EFC04463BE03D
:101210004746C8F86000FFF727FC064605E000BF18
:10122000FFF722FC801B02282BD828688001F7D406
:10123000D4E907010843A16A2E4A490802EB01419B
:10124000626A41EA8211084394F82C1040EA016175
:10125000C9F8001001203866FFF706FC044606E0D6
:101260003EE000BFFFF700FC001B022809D82868F9
:101270008001F7D534E000BFFFF7F6FB001B022822
:1012800002D90320BDE8F88F28688001F4D427E054
:101290000128F7D0D9F80000E26900F480019142FA
:1012A0001CD1226A00F03F01914217D147F6C0716C
:1012B000626A0140B1EB821F10D1A26A4FF0FF3386
:1012C00000F4403103EB5202B1EB024F06D194F827
:1012D0002C1000F07060B0EB016F01D00120D1E75D
:1012E0000020CFE70438024000004742800E47420A
:1012F000007000400000FFFF10B5401EB0F1807F7D
:1013000001D3012010BD4FF0E02460610F21601770
:1013100000F0DFFF0020A06107202061002010BD49
:101320007047704770B590F83C20012A2CD00124FA
:1013300080F83C40022280F83D2003685A689D688E
:1013400022F070060A6832435A60104B02689A42D3
:101350000ED0B2F1804F0BD00D4B9A4208D00D4BFE
:101360009A4205D00C4B9A4202D00C4B9A4204D1BF
:10137000496825F080031943916080F83D400021C1
:1013800080F83C10084670BD022070BD000001408E
:101390000004004000080040000C004000400140F4
:1013A00010B5040003D094F83D0010B107E001200F
:1013B00010BD002084F83C00204600F01FF80220F9
:1013C00084F83D00211D206800F0E6FD012084F82E
:1013D000460084F83E0084F83F0084F8400084F81A
:1013E000410084F8420084F8430084F8440084F803
:1013F000450084F83D00002010BD000008B53A4AC1
:1014000001683A4891420ED1016841F00201016041
:101410000068002200F00200009005211D20FFF767
:1014200097FC1D205AE0324A91420ED1016841F0EA
:10143000040101600068002200F004000090052112
:101440001E20FFF785FC1E2048E02A4A91420ED15B
:10145000016841F0080101600068002200F0080006
:10146000009011463220FFF773FC322036E01F480F
:10147000214A001D91420ED1016841F48031016082
:101480000068002200F48030009005211820FFF74A
:101490005FFC182022E0194A91420ED1016841F404
:1014A000003101600068002200F40030009001214A
:1014B0001920FFF74DFC192010E0114A914211D17B
:1014C000016841F4802101600068002200F480205E
:1014D000009005211A20FFF73BFC1A20BDE80840C8
:1014E000FFF728BC08BD000000040040403802405F
:1014F00000080040000C0040004001400044014052
:101500000048014070B5044690F83C0000250128D1
:1015100017D0012684F83C60022084F83D00206842
:10152000826822F0770222F47F42826008685028A5
:1015300038D00DDC20284FD005DC90B3102811D115
:101540004AE0022070BD302846D040280AD13BE056
:1015500060282FD070280DD0B0F5805F03D0B0F593
:10156000005F12D0012584F83D60002084F83C0023
:10157000284670BDCB68D1E90121206800F058FDF4
:101580002068816841F0770109E0CB68D1E9012149
:10159000206800F04DFD2068816841F48041816041
:1015A000E1E719E0CA684968206800F053FD50215E
:1015B000206806E0CA684968206800F05CFD602188
:1015C000206800F03FFDCEE7CA684968206800F057
:1015D00041FD40212068F4E7226801461046F0E70B
:1015E000704770B50446006801694FF00005C943B3
:1015F000890715D4C168C943890711D4E91E01615F
:1016000001202077206880698007204602D0FFF7FC
:10161000E7FF04E000F098F8204600F096F8257700
:1016200020680169C943490717D4C168C9434907FC
:1016300013D46FF0040101610220207720688069D3
:1016400010F4407F204602D0FFF7CAFF04E000F00C
:101650007BF8204600F079F8257720680169C943B6
:10166000090716D4C168C943090712D46FF00801ED
:101670000161042020772068C0698007204602D0DD
:10168000FFF7AEFF04E000F05FF8204600F05DF8E1
:10169000257720680169C943C90617D4C168C943C1
:1016A000C90613D46FF0100101610820207720686B
:1016B000C06910F4407F204602D0FFF791FF04E09C
:1016C00000F042F8204600F040F8257720680169D4
:1016D000C943C90708D1C168C943C90704D1891ED4
:1016E0000161204600F032F820680169C94309060B
:1016F00009D4C168C943090605D46FF080010161AE
:101700002046FFF70DFE20680169C943490609D448
:10171000C168C943490605D46FF040010161204604
:1017200000F015F820680169C94389060BD4C16827
:10173000C943890607D46FF0200101612046BDE846
:101740007040FFF7EEBD70BD70477047704770473F
:1017500070477047F8B5016804460868CA684B6965
:1017600010F00F0F4FF0000559D003F0010602F4FE
:101770009077374365D0C10705D0D10503D5216CDB
:1017800041F001012164410705D5D90703D0216C3F
:1017900041F002012164810705D5D90703D0216CEE
:1017A00041F004012164010707D502F02001314313
:1017B00003D0216C41F008012164216C00293AD04A
:1017C000800604D5900602D5204600F095FC2068DE
:1017D0004069216CC0F38010090700D460B3204633
:1017E00000F063FC20684069400621D52068143071
:1017F00050E8001F21F0400140E80012002AF5D116
:10180000A06BA8B16C490165A06BFFF718F8002820
:1018100011D0A06B016D01B0BDE8F0400847830610
:101820000FD593060DD52046BDE8F84000F064BC06
:101830002046FFF78EFFF8BD2046FFF78AFF25649C
:10184000F8BD266B2023012E79D1C60677D5D606A2
:1018500075D50868486800904869400640D5A16B76
:10186000086840680004000CEAD0A28D8242E7D9E3
:10187000E085C869B0F5807F2DD020680C3050E835
:10188000001F21F4807140E80012002AF5D1206881
:10189000143050E8001F21F0010140E80012002A36
:1018A000F5D12068143050E8001F21F0400140E8D5
:1018B0000012002AF5D184F83E30256320680C30F0
:1018C00050E8001F21F0100140E80012002AF5D175
:1018D000A06BFEF76BFFA08DE18D401A81B229E06D
:1018E000A08DE18D401A81B2E08D0028A8D000299A
:1018F000A6D020680C3050E8002F22F4907240E807
:101900000026002EF5D12068143050E8002F22F078
:10191000010240E80026002EF5D184F83E30256310
:1019200020680C3050E8002F22F0100240E800231D
:10193000002BF5D12046FFF70BFFF8BDFFE70506AA
:101940002BD5150629D594F83D002128F5D1A0689E
:10195000B0F5805F01D12069B0B1206A411C2162DD
:10196000216800784860E08C401E0004000CE08490
:10197000E3D12068C16821F08001C1602068C1689E
:1019800041F04001C160D8E7206A0088C0F3080038
:101990004860206A801C2062E5E74006CDD55006ED
:1019A000CBD5CA68204622F04002CA6084F83D3098
:1019B00000F075F8C1E700009B20000870B5040036
:1019C00004D094F83D00002510B106E0012070BD60
:1019D00084F83C50204600F023F8242084F83D0091
:1019E0002068C16821F40051C160204600F0E4FB8A
:1019F0002068016921F4904101612068416921F06A
:101A00002A0141612068C16841F40051C160256428
:101A1000202084F83D0084F83E00002070BD0000C6
:101A200010B586B0044614216846FEF79CFC1849A0
:101A30002068884229D117480021026842F010022C
:101A40000260006800F01000059012481438026827
:101A500042F001020260006800F0010005904FF4BE
:101A6000F05000900220CDE90101032003900720EF
:101A7000049069460848FEF701FF00220321252053
:101A8000FFF766F92520FFF755F906B010BD0000F5
:101A90000010014044380240000002407047704787
:101AA000FEE700007FB500241548009401940294DD
:101AB0001249039401604FF48031C0E901140461BC
:101AC000047680F820400F49C0E90A140125C56159
:101AD000C46080F830404561FEF7FEFD08B1FEF7B6
:101AE00046FD0095CDE9015469460548FEF742FDE3
:101AF000002801D0FEF73BFD7FBD00000020014023
:101B0000100000200100000F2DE9F04786B01421DD
:101B10006846FEF728FC45480024016841F00401AE
:101B20000160016801F004010591016841F00101C3
:101B30000160016801F001010591016841F00201B5
:101B400001600068DFF8E88000F002004FF4C04553
:101B50000590002229464046FEF780FFDFF8D4902A
:101B600001224FF405514846FEF778FFDFF8C8A080
:101B70004FF40047002239465046FEF76FFF00221F
:101B8000A0214846FEF76AFF02260095CDE90264CF
:101B90000125694640460195FEF770FE4FF4881016
:101BA0000095CDE9010469465046FEF767FE142012
:101BB00000904FF40410CDE9010469464846FEF751
:101BC0005DFE4FF4A0408DE8510069464846FEF79F
:101BD00055FE42F2E01003948DE8610069464846E4
:101BE000FEF74CFE0097CDE9015469465046039438
:101BF000FEF744FE002201210620FFF7A9F8062087
:101C0000FFF798F8002202210820FFF7A1F808202A
:101C1000FFF790F8002201210A20FFF799F80A2027
:101C2000FFF788F806B0BDE8F087000030380240C2
:101C30000008024000040240000002400D4810B5B8
:101C40000B4901600C49416000214FF480428160E2
:101C5000C0E9031241618161C1610162FEF70AFFBF
:101C6000002803D0BDE81040FEF781BC10BD000085
:101C70000058004058000020A08601000B4810B515
:101C80000949016063214160002140F2CF72C0E93F
:101C9000021201618161FFF783FB002803D0BDE8D8
:101CA0001040FEF764BC10BD00440140CC01002090
:101CB0000B4810B5094901606321416000214CF2D5
:101CC0004F32C0E9021201618161FFF769FB002810
:101CD00003D0BDE81040FEF74ABC10BD00480140EB
:101CE0001402002010B586B0002417480094019417
:101CF00002940394049413490594016040F2E7317F
:101D0000C0E901144CF25031C0E903148461FFF7BB
:101D100047FB08B1FEF72BFC4FF48050009069465A
:101D20000948FFF7EFFB08B1FEF721FC049404A972
:101D300005480594FFF7F6FA002801D0FEF717FCD6
:101D400006B010BD00040040AC00002010B586B005
:101D500000241748009401940294039404941349B6
:101D6000059401606321C0E901144CF24F31C0E9D0
:101D700003148461FFF714FB08B1FEF7F8FB4FF47E
:101D80008050009069460A48FFF7BCFB08B1FEF797
:101D9000EEFB049404A906480594FFF7C3FA002853
:101DA00001D0FEF7E4FB06B010BD000000080040C3
:101DB000F400002010B586B0002416480094019469
:101DC0000294039404941249059401606321C0E9CC
:101DD00001141149C0E903148461FFF7E1FA08B165
:101DE000FEF7C5FB4FF48050009069460948FFF7A5
:101DF00089FB08B1FEF7BBFB049404A905480594D0
:101E0000FFF790FA002801D0FEF7B1FB06B010BD35
:101E1000000C00403C01002020A107001FB500215C
:101E200010480091019102910D4A0391026040F225
:101E3000E732C0E90121521CC0E903218161FFF7AB
:101E4000AFFA08B1FEF793FB4FF48050009069465B
:101E50000448FFF757FB002801D0FEF788FB1FBDA1
:101E600000400140840100200D4810B50B4901607D
:101E70004FF4E1314160002181600C22C160C0E972
:101E800004129201C0E90621FFF798FD002803D053
:101E9000BDE81040FEF76BBB10BD00000010014014
:101EA0005C020020FEE7FEE770477047FEF7E8BEE1
:101EB00030B593B030216846FEF755FA14210CA8CE
:101EC000FEF751FA1C480024016841F0805101607E
:101ED000006800F0805011901848016841F44041BA
:101EE00001600068022500F4404011900120039039
:101EF0001020009506950490CDE90740C820CDE953
:101F0000090504200B906846FFF740F808B172B647
:101F1000FEE70F20CDE90C054FF48050CDE90E40CF
:101F200003210CA81094FEF745FF002801D072B6DB
:101F3000FEE713B030BD00004038024000700040A2
:101F40000248016841F470010160704788ED00E0CB
:101F50000148FFF746BB0000840100200148FFF75D
:101F600040BB0000140200200148FFF73ABB00000C
:101F7000CC0100200148FFF734BB0000AC0000207A
:101F80000148FFF72EBB0000F40000200148FFF7D6
:101F900028BB00003C010020F0B502681D4B1E4C20
:101FA0009F031E4D1E4E984207D0B84205D0A04256
:101FB00003D0A84201D0B04204D122F0700C4A688C
:101FC00042EA0C02984210D0B8420ED0A0420CD087
:101FD000A8420AD0B04208D0124CA04205D0124C00
:101FE000A04202D0114CA04203D122F44074CA682E
:101FF00022434C6922F08002224302608A68C26256
:102000000A688262984201D1096901630121416134
:10201000F0BD000000000140000400400008004046
:10202000000C0040004001400044014000480140D5
:1020300010B5846842EA032224F47F440A43224311
:10204000826010BD826822F070020A4342F00701EC
:102050008160704710B5036A046A24F001040462C9
:10206000846924F0F00444EA021423F00A020A43CB
:102070008461026210BD10B5036A23F0100303628D
:102080008369046A23F4704343EA023224F0A00314
:1020900043EA01118261016210BD10B5806B00211D
:1020A000C185C184FFF755FB10BD01680C3151E8B3
:1020B000002F22F4907241E80023002BF5D1016833
:1020C000143151E8002F22F0010241E80023002BD7
:1020D000F5D1016B012909D101680C3151E8002FBC
:1020E00022F0100241E80023002BF5D1202180F8D6
:1020F0003E1000210163704708B590F83E10222978
:1021000001D0022008BD82684FF480539A4201D169
:10211000016921B1816A9A421BD04AB10AE0026882
:10212000816A5268C2F308020A80816A891C08E049
:10213000026972B10268526802F07F020A70816A15
:10214000491C8162C18D491E0904090CC18503D057
:1021500019E002685268F1E70168CA6822F02002BB
:10216000CA600168CA6822F48072CA6001684A695C
:1021700022F001024A61202180F83E10016B012902
:1021800003D0FFF78BFC002008BD0021016301682C
:102190000C3151E8002F22F0100241E80023002BFF
:1021A000F5D101680A68D20602D50A68496800912B
:1021B000818DFFF7CDFAE6E770B504460068016946
:1021C000E26821F44051114301612169A068E2698C
:1021D00008436169114308432168CA6849F20C63E6
:1021E0009A430243CA6020684169A26921F44071A0
:1021F0001143416131492068884202D03049884208
:1022000002D1FEF781FE01E0FEF76EFEE2690023D7
:10221000192164253226B2F5004F626828D0A0FB50
:102220000101930F9200FEF727F80146B0FBF5F08D
:102230006FF01802504301EB800006EB0010B0FB7A
:10224000F5F000F0F002B1FBF5F002EB0012B1FB8B
:10225000F5F06FF01803584301EB800006EB001017
:10226000B0FBF5F000F00F0021681044886070BDED
:10227000A0FB010192185B41FDF7FEFF0146B0FB98
:10228000F5F00201B1FBF5F06FF01803584301EBD4
:10229000800006EBC000B0FBF5F000F0F80002EBA8
:1022A0004002B1FBF5F0584301EB800006EBC000A3
:1022B000B0FBF5F000F00700D6E700000010014089
:1022C000001401400148FFF745BA00005C020020FD
:1022D000FEE70907090E002804DB00F1E02080F882
:1022E0000014704700F00F0000F1E02080F8141D8A
:1022F0007047FEF7CDFCFFF7DBFDFFF705FCFFF7AE
:10230000D1FBFFF79BFCFFF7EDFCFFF71FFDFFF78D
:1023100051FDFFF783FDFFF7B1FCFFF7C9FCFFF7A5
:10232000A3FDFEE74FF04070E1EE100A7047000099
:102330000000000000000102030406070809000075
:1023400000000102030400006823000800000020D0
:1023500010000000D40100087823000810000020BD
:10236000F0080000F001000801000000100000006B
:08237000000000000024F4004D
:040000050800019955
:00000001FF
