:020000040800F2
:10000000000900203902000889280008F7240008A8
:100010008528000805070008152F000800000000CB
:100020000000000000000000000000008D28000813
:1000300033080008000000008B280008ED280008A5
:10004000530200085302000853020008530200083C
:10005000530200085302000853020008530200082C
:10006000530200085302000853020008530200081C
:10007000530200085302000853020008530200080C
:100080005302000853020008530200080000000059
:100090000000000000000000000000005302000803
:1000A00053020008E5290008D5290008530200087A
:1000B00053020008530200085302000853020008CC
:1000C00053020008530200085302000853020008BC
:1000D00053020008052F000853020008000000002A
:1000E0003508000853020008530200080000000011
:1000F00000000000000000000000000053020008A3
:1001000000000000530200085302000853020008D8
:1001100000000000000000000000000000000000DF
:1001200009070008530200085302000853020008A0
:100130005302000800000000000000000000000062
:100140000000000000000000000000005302000852
:100150005302000853020008190700085302000860
:1001600053020008530200080000000000000000D5
:10017000000000000000000000000000000000007F
:100180000000000053020008000000000000000012
:10019000530200085302000800F002F800F03CF897
:1001A0000AA090E8000C82448344AAF10107DA45D2
:1001B00001D100F031F8AFF2090EBAE80F0013F0E8
:1001C000010F18BFFB1A43F001031847DC2E000093
:1001D000FC2E0000103A24BF78C878C1FAD8520724
:1001E00024BF30C830C144BF04680C6070470000B1
:1001F0000023002400250026103A28BF78C1FBD830
:10020000520728BF30C148BF0B6070471FB502F0CE
:1002100035FF1FBD10B510BD00F0D4F81146FFF733
:10022000F5FF02F00FFF00F0F2F803B4FFF7F2FF62
:1002300003BC00F0F7F80000094880470948004770
:10024000FEE7FEE7FEE7FEE7FEE7FEE7FEE7FEE786
:10025000FEE7FEE704480549054A064B70470000E3
:10026000B9290008990100080003002000090020B6
:10027000000500200005002053EA020C00F0698010
:100280002DE9F04B4FF00006002B1FBFB3FA83F5AA
:1002900003FA05F424FA05F65E4012BF1643B2FADB
:1002A00082F502FA05F4C5F120051EBF22FA05FC0D
:1002B00044EA0C04203556EA044C4FEA144418BFB3
:1002C000641C4FF000084FF00009904271EB030CE2
:1002D00039D3002919BFB1FA81F701FA07F6B0FA4C
:1002E00080F700FA07F6C7F120071EBF20FA07FCC7
:1002F00046EA0C062037B6FBF4FCA7EB0507103FD7
:1003000007F01F0BCBF120060CFA0BFB2CFA06F6BC
:1003100044BFB3460026202FA4BF5E464FF0000B1B
:100320005BEA060C08BF4FF0010B19EB0B09ABFBA6
:10033000027C48EB0608C01B06FB02CC0BFB03CC7F
:1003400071EB0C01C1E70B46024641464846BDE849
:10035000F08B13B54FF000004FF00001AFF30080B9
:10036000BDE81C4070474FF0000200B513469446AC
:100370009646203922BFA0E80C50A0E80C50B1F1FD
:100380002001BFF4F7AF090728BFA0E80C5048BF11
:100390000CC05DF804EB890028BF40F8042B08BFAF
:1003A000704748BF20F8022B11F0804F18BF00F8AB
:1003B000012B704770477047704700000048704736
:1003C0009C0200207546FFF7F9FFAE46050069461E
:1003D000534620F00700854618B020B5FFF73AFFD6
:1003E000BDE820404FF000064FF000074FF0000836
:1003F0004FF0000B21F00701AC46ACE8C009ACE8B7
:10040000C009ACE8C009ACE8C0098D46704710B51A
:100410000446AFF300802046BDE81040FFF705BF5B
:100420007047000001491820ABBEFEE7260002001D
:1004300070B50546AC6B206C00F0500050BB206CD2
:1004400040F4007020642068806800F04050E8B9F3
:10045000207ED8B92068C06A00F4700020B12068FE
:10046000806800F4806088B92068406820F020002F
:1004700021684860206C20F480702064206C00F4B7
:10048000805018B9206C40F001002064204600F034
:10049000ABFA0BE0206C00F0100018B1204600F021
:1004A000A5FA03E0A06BC16C2846884770BD70B503
:1004B0000546AC6B40202064606C40F00400606432
:1004C000204600F093FA70BD70B50446A56B28462F
:1004D00000F08BFA70BD000055494A6822F44032A2
:1004E0004A604A6843681A434A600268526822F4C4
:1004F000807203685A6002685368026943EA022204
:1005000003685A600268526822F0407203685A60B9
:100510000268526883681A4303685A6002689268E6
:1005200022F4006203689A6002689268C3681A4302
:1005300003689A603F4B826A9A4218D002689268B8
:1005400022F0706203689A6002689268836A1A43B4
:1005500003689A600268926822F0405203689A60C9
:1005600002689268C36A1A4303689A600BE00268E3
:10057000926822F0706203689A600268926822F0C2
:10058000405203689A600268926822F0020203688F
:100590009A6002689368027E43EA420203689A60A6
:1005A0002022125CA2B10268526842F40062036821
:1005B0005A600268526822F4604203685A60026816
:1005C0005368426A521E43EA423203685A6005E0A9
:1005D0000268526822F4006203685A600268D26AB4
:1005E00022F470020368DA620268D36A828B521EB8
:1005F00043EA02520368DA620268926822F40072E7
:1006000003689A600268936890F8302043EA4222B7
:1006100003689A600268926822F4806203689A60B4
:1006200002689368426943EA822203689A607047CD
:10063000002301400100000F10B50020164908807A
:100640001648008881B2164802780078401C144B86
:100650001870144820F81210184600780A2819D18A
:1006600000201946087000BF09E00E4931F810104B
:10067000094A12881144084A1180411CC8B20A284C
:10068000F3DB054800880A2190FBF1F0024908805D
:1006900000F00AF810BD0000120000203000002019
:1006A000100000205002002010B5124804881248A3
:1006B0000088844207DA11480088844208DD104827
:1006C0000088012804D101200D49088001F016FF9F
:1006D0000A480088844206DD07480088844207DA19
:1006E0000748008820B900200549088001F032FF42
:1006F00010BD000012000020140000201600002091
:100700001800002000BFFEE710B5024800F048FBCB
:1007100010BD0000BC00002010B5024800F040FBF6
:1007200010BD0000F00100200146087810381823A1
:10073000B0FBF3F20848805CC865032A05D9086855
:100740006FF30900001D886503E008686FF3090076
:100750008865886D704700008630000801460020DB
:100760008A6A8B69CBB932B1012A0DD0022A03D033
:10077000032A10D10EE000BFCB6A03F08073B3F1FF
:10078000807F00D1012007E0CB6AB3F1C07F00D1A8
:10079000012001E000E000BF34E08B69B3F5005FA9
:1007A0001AD132B1012A07D0022A03D0032A11D16B
:1007B0000AE000BF01200EE0CB6A03F08073B3F1C2
:1007C000807F00D1012006E0CB6AB3F1C07F00D169
:1007D000012000E000BF15E032B1012A05D0022A55
:1007E00004D0032A0CD103E000BF00BF012008E0C1
:1007F000CB6A03F08073B3F1807F00D1012000E069
:1008000000BF00BF704730B50468246824F480241A
:1008100005682C60046863608468402C04D1046817
:10082000A2600468E16003E00468A1600468E2601B
:1008300030BD704710B54FF4004000F0BBFC10BD58
:100840007047000038B502460020009000BF92F8C3
:100850003C00012801D1022038BD012082F83C0073
:1008600000BF0868092816D91068C0680C780A3CCF
:1008700004EB44050724AC40A0431468E0600C7806
:100880000A3C04EB44048868A0401468E4682043F0
:100890001468E06013E0106800690C7804EB44050C
:1008A0000724AC40A043146820610C7804EB440496
:1008B0008868A0401468246920431468206148684F
:1008C000072817D21068406B0C79641E04EB84056E
:1008D0001F24AC40A04314686063088880B20C7980
:1008E000641E04EB8404A0401468646B2043146805
:1008F000606331E048680D2817D21068006B0C79EE
:10090000E41F04EB84051F24AC40A043146820635B
:10091000088880B20C79E41F04EB8404A0401468BA
:10092000246B20431468206316E01068C06A0C79B9
:100930000D3C04EB84051F24AC40A0431468E06226
:10094000088880B20C790D3C04EB8404A040146844
:10095000E46A20431468E0621E4B1F4C1068A042FA
:100960000AD10868122807D1586820F4000058609E
:10097000586840F480005860174C1068A04222D19B
:10098000164C0868A04202D0086811281BD158688C
:1009900020F480005860586840F4000058600F4C04
:1009A0000868A0420FD10E4800680E4CB0FBF4F06E
:1009B00000EB80004000009002E00098401E009094
:1009C00000980028F9D100BF002082F83C0000BF49
:1009D00000BF41E700230140002001401200001049
:1009E0000C00002040420F00704770477047000025
:1009F00070B5044600250CB9012070BD1549A06AE8
:100A0000884200D000BF206C30B9204600F024F8A6
:100A10000020606484F83C00206C00F0100088B96D
:100A2000206C20F4885040F0020020642046FFF73C
:100A300053FD00206064206C20F0020040F00100B3
:100A4000206400E0012500BF002084F83C0000BFC6
:100A50002846D2E70100000F10B586B004461421E5
:100A600001A8FFF780FC35492068884263D100BFA8
:100A7000002000903248006840F4807030490860DF
:100A80000846006800F48070009000BF00BF00BFFF
:100A9000002000902A481438006840F001002849DE
:100AA000143908600846006800F00100009000BF9B
:100AB00000BF00BF002000900846006840F0020020
:100AC00008600846006800F00200009000BF00BF08
:100AD000FE200190032002900020039001A91948F4
:100AE00000F076FB0320019002900020039001A902
:100AF000154800F06DFB1548154908600020486056
:100B0000002113488160C1604FF480610161890058
:100B10004161890081618911C1614902016200213D
:100B2000416200F05DFA08B1FFF78AFE00BF084895
:100B3000A063846300BF06B010BD00000020014028
:100B400044380240000002400004024010640240A9
:100B5000BC000020F8B504460D4616460020009063
:100B600000BF94F83C00012801D10220F8BD01200B
:100B700084F83C0000BF2068806800F00100A0B944
:100B80002068806840F0010021688860484800685B
:100B90004849B0FBF1F000EB4000009002E0009803
:100BA000401E009000980028F9D12068806800F469
:100BB0008070B0F5807F05D12068806820F4807057
:100BC000216888602068806800F00100002865D0F6
:100BD000206C40F20161884340F4807020642068FA
:100BE000406800F4806028B1206C20F4005040F48C
:100BF00080502064206C00F48050B0F5805F04D1F8
:100C0000606C20F00600606401E00020606400BFBA
:100C1000002084F83C0000BF274F2848A16BC86320
:100C20002748A16B08642748A16BC8646FF02200B5
:100C3000216808602068406840F080602168486052
:100C40002068806840F4807021688860226802F122
:100C50004C0133462A46A06B00F038FA786800F061
:100C60001F0058B92068806800F04050F0B9206833
:100C7000806840F080402168886017E01249206851
:100C8000884213D12068806800F0405070B9206815
:100C9000806840F080402168886007E0206C40F068
:100CA00010002064606C40F00100606400205DE78B
:100CB0000C00002040420F000023014031040008D6
:100CC000C9040008AF0400080020014070B50446C4
:100CD000A56D00F06FFB064694F83500022808D099
:100CE0008020606500BF002084F8340000BF012030
:100CF00070BD2068006820F0160021680860206838
:100D0000406920F0800021684861206C08B9A06C1F
:100D100028B12068006820F0080021680860206879
:100D2000006820F001002168086010E000F042FB3C
:100D3000801B05280BD920206065032084F835002E
:100D400000BF002084F8340000BF0320D0E72068F3
:100D5000006800F001000028E8D194F85C103F2002
:100D60008840A860012084F8350000BF002084F886
:100D7000340000BF00BFBBE7014691F835000228F0
:100D800003D08020486501207047052081F8350098
:100D90000868006820F001000A6810600020F3E78E
:100DA000F8B50446002000908C4800684FF41651B6
:100DB000B0FBF1F7A56D2E6894F85C100820884010
:100DC000304098B12068006800F0040070B12068DD
:100DD000006820F004002168086094F85C10082086
:100DE0008840A860606D40F00100606594F85C1078
:100DF00001208840304068B12068406900F08000E0
:100E000040B194F85C1001208840A860606D40F00B
:100E10000200606594F85C1004208840304068B19E
:100E20002068006800F0020040B194F85C100420D3
:100E30008840A860606D40F00400606594F85C1024
:100E400010208840304078B32068006800F0080027
:100E500050B394F85C1010208840A86020680068A7
:100E600000F4802080B12068006800F4002028B9D8
:100E7000206CC8B12046216C884715E0A06C98B161
:100E80002046A16C88470FE02068006800F480705D
:100E900028B92068006820F0080021680860206CEC
:100EA00010B12046216C884794F85C1020208840BF
:100EB0003040002865D02068006800F0100000284D
:100EC0005FD094F85C1020208840A86094F835002A
:100ED000052828D12068006820F0160021680860E5
:100EE0002068406920F0800021684861206C08B9C2
:100EF000A06C28B12068006820F008002168086014
:100F000094F85C103F208840A860012084F83500E8
:100F100000BF002084F8340000BF206D10B12046CF
:100F2000216D8847F8BD2068006800F4802080B1FA
:100F30002068006800F4002028B9606C10B12046D9
:100F4000616C88471DE0E06BD8B12046E16B8847B3
:100F500017E02068006800F4807068B920680068B5
:100F600020F0100021680860012084F8350000BFDF
:100F7000002084F8340000BFE06B10B12046E16B24
:100F80008847606D38B3606D00F00100F0B1052056
:100F900084F835002068006820F0010021680860AE
:100FA00000BF0098401C0090B84200D905E02068BE
:100FB000006800F001000028F3D100BF012084F890
:100FC000350000BF002084F8340000BFE06C10B191
:100FD0002046E16C884700BFA4E700000C00002019
:100FE0002DE9F0410446002500F0E4F9074614B964
:100FF0000120BDE8F081606A00B100BF022084F8E2
:10100000350000BF002084F8340000BF206800686D
:1010100020F00100216808600AE000F0CBF9C01B55
:10102000052805D920206065032084F83500E0E715
:101030002068006800F001000028EED120680568F3
:1010400021480540D4E901010843E16808432169CA
:10105000084361690843A1690843E1690843216ABB
:1010600008430543606A042803D1D4E90B0108430F
:101070000543206805602068456925F00705606A1A
:101080000543606A04280DD1A06A0543E06A48B1AF
:101090002046FFF763FB28B140206065012084F8FB
:1010A0003500A6E7206845612046FFF73DFB064670
:1010B00094F85C103F208840B060002060650120FB
:1010C00084F83500002094E73F8010F02DE9F047C8
:1010D00004460D4616461F464FF00008D4F85890B7
:1010E00000BF94F83400012802D10220BDE8F08747
:1010F000012084F8340000BF94F83500012825D180
:10110000022084F83500002060653B4632462946BF
:101110002046FFF778FB94F85C103F208840C9F820
:1011200008002068006840F0160021680860206C04
:1011300028B12068006840F0080021680860206835
:10114000006840F001002168086006E000BF002050
:1011500084F8340000BF4FF002084046C6E70000A4
:1011600070B5044600F026F906462546681C10B105
:1011700004480078054400BF00F01CF9801BA84219
:10118000FAD370BD0800002010B50446B4F5004F36
:101190000CD11420FFF7E4FF4FF40041044800F0A5
:1011A000FBF818B101F0C0F901F0A4FB10BD00007C
:1011B0000004024010B5044604480068204020B1F5
:1011C000024804602046FFF7DFFF10BD143C0140D9
:1011D000F8B502460B460025002400200021C6E099
:1011E000012606FA01F51E6806EA0504AC4274D130
:1011F0001E7906F00306012E04D01E7906F00306C0
:10120000022E13D190684F000326BE40B0434F001A
:10121000DE68BE4030439060506801268E40B04387
:101220001E79C6F300168E40304350601E7906F0DA
:101230000306032E09D0D0684F000326BE40B043FA
:101240004F009E68BE403043D0601E7906F0030612
:10125000022E13D1CF0802F1200656F827004E07C0
:10126000F70E0F26BE40B0434F07FF0E1E69BE406B
:101270003043CF0802F1200646F8270010684F00DF
:101280000326BE40B0431E7906F003064F00BE4061
:10129000304310605E6806F44036002E66D000BF12
:1012A00000260096344E366846F48046324F3E6043
:1012B0003E46366806F48046009600BF00BF2F4EBB
:1012C0008F0856F827008E07370F0F26BE40B04311
:1012D0002B4EB24202D1002615E047E0294EB24221
:1012E00001D101260FE0284EB24201D102260AE0C8
:1012F000264EB24201D1032605E0254EB24201D16D
:10130000042600E007268F073F0FBE4030431B4EE8
:101310008F0846F827001F4E3068A0435E6806F429
:10132000803606B120431B4E3060361D3068A04326
:101330005E6806F4003606B12043164E361D306056
:10134000361D3068A0435E6806F4801606B120435F
:10135000104E08363060361D3068A0435E6806F4D3
:10136000001606B120430B4E0C363060491C102984
:10137000FFF436AFF8BD00004438024008380140A1
:10138000000002400004024000080240000C02403D
:1013900000100240003C0140024613690B400BB1B3
:1013A000012000E0002070470AB1816101E00B04D8
:1013B000836170470148006870470000000000200A
:1013C00003480068034909780844014908607047E8
:1013D000000000200800002010B50D48006840F40F
:1013E00000700B4908600846006840F4806008609F
:1013F0000846006840F480700860032000F0A2F8FE
:10140000002000F007F800F02BF8002010BD0000CD
:10141000003C024070B504460E4800784FF47A71E3
:10142000B1FBF0F00C490968B1FBF0F5284600F07B
:101430005BFC08B1012070BD102C07D200222146B0
:10144000501E00F041F80548046001E00120F2E779
:101450000020F0E7080000200C000020040000201D
:1014600008B500BF002000900E48006840F480409E
:101470000C4908600846006800F48040009000BFF6
:1014800000BF00BF00200090081F006840F080509F
:10149000091F08600846006800F08050009000BFF7
:1014A00000BF08BD4438024001460846002809DB59
:1014B00000F01F0301229A4043099B0003F1E0233F
:1014C000C3F8002100BF70472DE9F05F80460D464C
:1014D0001646002701F020FD074639462A463346C6
:1014E00001F00700C0F1070ABAF1040F02D94FF06A
:1014F000040A01E0C0F1070AD14600F1040ABAF17A
:10150000070F02D24FF0000A01E0A0F1030AD4460F
:101510004FF0010A0AFA09FAAAF1010A0AEA020AD4
:101520000AFA0CFA4FF0010B0BFA0CFBABF1010BB2
:101530000BEA030B4AEA0B042146404601F0F4FC97
:10154000BDE8F09F00BF00F00702064B19684FF698
:10155000FF031940044B0B4343EA0221014B19607E
:1015600000BF70470CED00E00000FA050249496831
:101570008143014A516070470070004008B5012066
:101580000349086203480068009000BF08BD0000DE
:1015900000000E4200700040024949680143014AC0
:1015A00051607047007000400748006840F002003A
:1015B000054908600548006840F0040003490860D8
:1015C00000BF00BF30BF70470070004010ED00E06A
:1015D00070B504460D460CB9012070BD584800682E
:1015E00000F00700A84209D255490D70084600686E
:1015F00000F00700A84201D00120EEE7207800F0BB
:10160000020002281DD1207800F00400042805D132
:101610004C48006840F4E0504A490860207800F0E7
:101620000800082805D14748006840F46040454953
:1016300008604448006820F0F000A1680843414970
:101640000860207800F00100A8B36068012807D185
:101650003C4808380068C0F34040B8B90120BCE7F6
:101660006068022802D06068032807D1354808382E
:101670000068C0F3406048B90120AEE7314808383F
:101680000068C0F3400008B90120A6E72D480068B3
:1016900020F00300616808432A490860FFF78AFECA
:1016A000064609E0FFF786FE801B41F2883188423A
:1016B00002D9032091E707E02248006800F00C00FF
:1016C0006168B0EB810FEDD11D48006800F00700A4
:1016D000A84209D91A490D700846006800F00700B1
:1016E000A84201D0012078E7207800F00400042807
:1016F00007D11448006820F4E050E168084311491C
:101700000860207800F00800082808D10D4800681B
:1017100020F46040216940EAC1000A49086000F0F5
:101720003FF808490968C1F30311074A515CC840F2
:101730000649086006480068FFF76CFE00204CE789
:10174000003C0240083802408E3000080C000020A7
:101750000400002001480068704700000C000020D1
:1017600000B5FFF7F7FF04490968C1F38221034A76
:10177000515CC84000BD0000083802409E3000089F
:1017800000B5FFF7E7FF04490968C1F34231034A96
:10179000515CC84000BD0000083802409E3000087F
:1017A0002DE9F047002400250026A14625480068C1
:1017B00000F00C0020B1042805D008283AD105E03B
:1017C000DFF8849039E0DFF8809036E01D48001F94
:1017D000006800F03F041B48001F006800F4800010
:1017E00078B119481749091F0968C1F38811A0FB8E
:1017F00001700146224600233846FEF73DFD0546AE
:101800000EE011480F49091F0968C1F38811A0FBB8
:1018100001700146224600233846FEF72DFD05469D
:101820000848001F0068C0F30140401C4600B5FB9B
:10183000F6F902E0DFF8109000BF00BF4846BDE8AF
:10184000F0870000083802400024F400F8B5044690
:101850000CB90120F8BD207800F00100002874D0F8
:10186000F948006800F00C0004280DD0F648006824
:1018700000F00C00082813D1F348001F006800F4A2
:101880008000B0F5800F0BD1EF4808380068C0F336
:101890004040002859D06068002856D10120D9E77F
:1018A00000BF6068B0F5803F08D1E748083800689D
:1018B00040F48030E449083908601EE06068B0F503
:1018C000A02F0DD1E0480838006840F48020DE49A0
:1018D000083908600846006840F4803008600CE071
:1018E000D9480838006820F48030D74908390860A2
:1018F0000846006820F48020086000BF606890B14E
:10190000FFF758FD054606E0FFF754FD401B64282D
:1019100001D903209EE7CC4808380068C0F3404056
:101920000028F1D011E0FFF745FD054606E0FFF77E
:1019300041FD401B642801D903208BE7C2480838C9
:101940000068C0F340400028F1D1207800F0020088
:1019500002285FD1BC48006800F00C0058B1BA48BA
:10196000006800F00C0008281CD1B748001F006870
:1019700000F48000B0B9B44808380068C0F34000F3
:1019800020B1E068012801D0012063E7AE480838A3
:10199000006820F0F800216940EAC100AA4908392E
:1019A000086037E0E06800B30120A8490860FFF74D
:1019B00001FD054606E0FFF7FDFC401B022801D9AA
:1019C000032047E7A04808380068C0F3400000281B
:1019D000F1D09D480838006820F0F800216940EAFD
:1019E000C10099490839086014E00020974908604F
:1019F000FFF7E0FC054606E0FFF7DCFC401B022891
:101A000001D9032026E7904808380068C0F3400059
:101A10000028F1D1207800F0080008282CD1606956
:101A2000A8B101208A490860FFF7C4FC054606E01A
:101A3000FFF7C0FC401B022801D903200AE78248B7
:101A40006C300068C0F340000028F1D014E00020A2
:101A50007F490860FFF7AEFC054606E0FFF7AAFCE9
:101A6000401B022801D90320F4E677486C30006857
:101A7000C0F340000028F1D1207800F004000428D1
:101A800070D1002770483830006800F0805090B95D
:101A900000BF002000906C483830006840F0805053
:101AA0006949383108600846006800F080500090AD
:101AB00000BF00BF01276748006800F48070B0B91C
:101AC0006448006840F4807062490860FFF772FC67
:101AD000054606E0FFF76EFC401B022801D90320F3
:101AE000B8E65C48006800F480700028F2D000BFBF
:101AF000A068012808D154486830006840F001000F
:101B00005149683108601DE0A06805280DD14E4894
:101B10006830006840F004004B49683108600846AE
:101B2000006840F0010008600CE047486830006839
:101B300020F001004449683108600846006820F040
:101B40000400086000BFA068A8B1FFF733FC054699
:101B500009E0FFF72FFC401B41F28831884202D98F
:101B6000032077E626E0384868300068C0F340007C
:101B70000028EED013E0FFF71DFC054608E0FFF754
:101B800019FC401B41F28831884201D9032061E6EB
:101B90002D4868300068C0F340000028EFD1012FC5
:101BA00007D129483830006820F080502649383164
:101BB000086000BFA069002845D02348006800F0F5
:101BC0000C0008285DD0A069022845D100201F49DB
:101BD0000866FFF7EFFB054606E0FFF7EBFB401B4F
:101BE000022801D9032035E6174808380068C0F3F9
:101BF00040600028F1D1D4E907010843616A40EA56
:101C000081110122A06AC2EB500041EA00412C2060
:101C1000005D41EA00600C49091F086001200B4982
:101C20000866FFF7C7FB054606E0FFF7C3FB401B4E
:101C3000022801D903200DE6034808380068C0F3E4
:101C400040600028F1D049E00838024000004742D7
:101C5000800E474200700040002021490866FFF7CF
:101C6000A9FB054606E0FFF7A5FB401B022801D9AA
:101C70000320EFE51B480068C0F340600028F2D164
:101C80002CE0A069012800D1E4E51648001D066893
:101C9000A069012820D006F48001E06981421BD1AF
:101CA00006F03F01206A814216D147F6C0703040ED
:101CB000616AB0EB811F0FD106F440310122A06AA6
:101CC000C2EB5000B1EB004F06D106F070612C2042
:101CD000005DB1EB006F01D00120BBE50020B9E54C
:101CE000000047420038024070B504462546681E91
:101CF000B0F1807F01D301200FE0681E4FF0E0219A
:101D000048610F214FF0FF3001F00EF900204FF035
:101D1000E021886107200861002070BD704770478E
:101D200010B504460CB9012010BD94F83D0028B947
:101D3000002084F83C00204600F026F8022084F8B9
:101D40003D00211D206800F055FE012084F846006A
:101D500000BF84F83E0001213F200155402001557D
:101D60004120015500BF00BF012084F842004320FC
:101D70000155442001554520015500BF012084F83C
:101D80003D000020D0E7000038B504461C4920681B
:101D9000884218D100BF002000901A48006840F423
:101DA0000030184908600846006800F400300090D0
:101DB00000BF00BF002203211920FFF785FB192077
:101DC000FFF772FB1BE010492068884217D100BF63
:101DD000002000900B48006840F48020094908600A
:101DE0000846006800F48020009000BF00BF002279
:101DF00006211A20FFF768FB1A20FFF755FB38BDB4
:101E0000004401404438024000480140704710B58A
:101E1000044620680069C0F34000D8B12068C0685B
:101E2000C0F34000B0B16FF00200216808610120EA
:101E300020772068806900F0030018B12046FFF782
:101E4000E5FF05E0204600F0ADF8204600F0ABF8D5
:101E50000020207720680069C0F38000D8B1206896
:101E6000C068C0F38000B0B16FF004002168086161
:101E7000022020772068806900F4407018B1204665
:101E8000FFF7C4FF05E0204600F08CF8204600F084
:101E90008AF80020207720680069C0F3C000D8B11C
:101EA0002068C068C0F3C000B0B16FF008002168BE
:101EB0000861042020772068C06900F0030018B191
:101EC0002046FFF7A3FF05E0204600F06BF8204610
:101ED00000F069F80020207720680069C0F3001046
:101EE000D8B12068C068C0F30010B0B16FF0100026
:101EF00021680861082020772068C06900F44070DC
:101F000018B12046FFF782FF05E0204600F04AF8AE
:101F1000204600F048F8002020772068006900F093
:101F2000010058B12068C06800F0010030B16FF0C6
:101F3000010021680861204600F036F82068006939
:101F4000C0F3C01058B12068C068C0F3C01030B1F1
:101F50006FF08000216808612046FFF7DFFE2068EF
:101F60000069C0F3801058B12068C068C0F38010C9
:101F700030B16FF0400021680861204600F034F86D
:101F800020680069C0F3401058B12068C068C0F3F1
:101F9000401030B16FF02000216808612046FFF743
:101FA000BEFE10BD7047704710B504460A49206850
:101FB0000968884204D101200849087000F0C8FF70
:101FC000074920680968884204D101200549087042
:101FD000FEF732FB10BD00001C0100203400002081
:101FE00064010020350000207047704770470000F2
:101FF0002DE9F84F0446206805682068C668206807
:1020000047694FF00009CA4605F00F09B9F1000F02
:102010000AD105F0200038B106F0200020B120469A
:1020200000F08AFDBDE8F88FB9F1000F7CD007F011
:10203000010018B906F49070002875D005F0010071
:1020400030B106F4807018B1206C40F001002064BB
:1020500005F0040030B107F0010018B1206C40F029
:102060000200206405F0020030B107F0010018B151
:10207000206C40F00400206405F0080048B106F030
:10208000200010B907F0010018B1206C40F00800E2
:102090002064206C002846D005F0200028B106F00E
:1020A000200010B1204600F047FD20684069C0F3D1
:1020B000801A206C00F0080010B9BAF1000F2DD082
:1020C000204600F0F3FC2068406900F04000402802
:1020D00020D100BF00BF2168143151E8001F21F05A
:1020E00040002168143141E80002002AF3D100BF0A
:1020F000A06B50B17548A16B0865A06BFEF73CFE64
:1021000088B1A06B016D88470DE02046FFF76EFF98
:1021100009E009E02046FFF769FF04E02046FFF7E9
:1021200065FF002020647DE7206B012876D105F053
:102130001000002872D006F010000028FAD000BF6E
:10214000002000902068006800902068406800909F
:1021500000BF00BF2068406900F0400040285ED109
:10216000A06B006840681FFA80F8B8F1000F54D0E7
:10217000A08D404551DDA4F82E80A06BC069B0F55C
:10218000807F43D000BF00BF21680C3151E8001FA1
:1021900021F4807021680C3141E80002002AF3D15B
:1021A00000BF00BF00BF2168143151E8001F21F0BB
:1021B00001002168143141E80002002AF3D100BF78
:1021C00000BF00BF2168143151E8001F21F040001A
:1021D0002168143141E80002002AF3D100BF202019
:1021E00084F83E000020206300BF00BF21680C314E
:1021F00051E8001F21F0100021680C3141E8000275
:10220000002AF3D100BFA06BFEF760FDA08DE28D28
:10221000801A81B22046FFF7E8FE03E740E0A08D78
:10222000E18D401A1FFA80F8E08DC0B3B8F1000FBD
:1022300035D000BF00BF21680C3151E8001F21F4E8
:10224000907021680C3141E80002002AF3D100BFF0
:1022500000BF00BF2168143151E8001F21F00100C8
:102260002168143141E80002002AF3D100BF202088
:1022700084F83E000020206300BF00BF21680C31BD
:1022800051E8001F21F0100021680C3141E80002E4
:10229000002AF3D100BF41462046FFF7A6FEC1E663
:1022A00005F0800030B106F0800018B1204600F043
:1022B000F8FDB7E605F0400030B106F0400018B177
:1022C000204600F029FCADE600BFABE6992A0008E5
:1022D00010B504460CB9012010BDA06900B100E0A2
:1022E00000BF94F83D0028B9002084F83C00204647
:1022F00000F028F8242084F83D002068C06820F40D
:1023000000502168C860204600F092FC20680069F7
:1023100020F49040216808612068406920F02A007C
:10232000216848612068C06840F400502168C86096
:1023300000202064202084F83D0084F83E00002026
:10234000CAE7000010B586B00446142101A8FEF7C4
:102350000AF830492068884259D100BF0020009017
:102360002D48006840F010002B49086008460068BE
:1023700000F01000009000BF00BF00BF00200090E0
:1023800025481438006840F00100234914390860DA
:102390000846006800F00100009000BF00BF4FF445
:1023A000C06001900220029000200390032004905E
:1023B0000720059001A91948FEF70AFF1848194996
:1023C00008604FF00060486040211648816000219D
:1023D000C1604FF480610161002141618161C1618F
:1023E0004FF48031016200214162FEF7F9FD08B12E
:1023F000FEF726FA00BF0B486063846300BF00222B
:1024000002212520FFF760F82520FFF74DF806B0E0
:1024100010BD00000010014044380240000002409E
:10242000B8640240F001002070B504460D4616461F
:1024300094F83E00202816D105B10EB9012070BDD8
:1024400000BF94F83C00012801D10220F7E70120E9
:1024500084F83C0000BF0020206332462946204615
:1024600000F0FCFCEBE70220E9E7000010B50446B1
:102470001949206888422ED1184800781849194A0D
:102480001278885417480078401E085C0D2805D142
:10249000084614490978405C0A2803D0114800789E
:1024A00007280EDB0120104908700E480078401CF8
:1024B000C0B20C4908700D49087000200949087025
:1024C00004E008480078401C0649087001220349CE
:1024D0000748FFF7A9FF10BD001001403800002099
:1024E0003900002036000020410000203700002085
:1024F000AC010020704700BFFEE7000010B50122CC
:1025000008210748FEF750FF0122D1030548FEF7D6
:102510004BFF002210210248FEF746FF10BD0000CD
:10252000000402400000024010B50122D103074818
:10253000FEF73AFF012210210548FEF735FF012280
:1025400008210348FEF730FF10BD000000000240E4
:102550000004024010B50122D1030748FEF724FF12
:10256000012210210548FEF71FFF00220821034821
:10257000FEF71AFF10BD00000000024000040240F8
:102580001FB5002000900190029003903D483E4905
:1025900008604FF44030486000213B4881600121D1
:1025A00001610176002180F82010C1623749816203
:1025B0000021C1600921C161012180F83010416111
:1025C000FEF716FA08B1FEF73BF9012000900190E2
:1025D0000620029069462C48FEF734F908B1FEF750
:1025E0002FF902200090019069462748FEF72AF94A
:1025F00008B1FEF725F903200090019069462248B2
:10260000FEF720F908B1FEF71BF9042000900190B5
:1026100069461D48FEF716F908B1FEF711F90520C5
:102620000090019069461848FEF70CF908B1FEF7D2
:1026300007F906200090019069461348FEF702F959
:1026400008B1FEF7FDF807200090019069460E489A
:10265000FEF7F8F808B1FEF7F3F8082000900190B3
:1026600069460948FEF7EEF808B1FEF7E9F80920D7
:102670000090019069460448FEF7E4F808B1FEF7BF
:10268000DFF81FBD00200140740000200100000F92
:1026900008B500BF002000900E48006840F480009C
:1026A0000C4908600846006800F48000009000BFF4
:1026B00000BF002205213820FEF706FF3820FEF774
:1026C000F3FE002204214620FEF7FEFE4620FEF720
:1026D000EBFE08BD3038024000B587B0142102A8D7
:1026E000FDF741FE00BF002001903B48006840F02C
:1026F0008000394908600846006800F080000190B9
:1027000000BF00BF00BF002001900846006840F0F5
:10271000010008600846006800F00100019000BF59
:1027200000BF00BF002001900846006840F0020092
:1027300008600846006800F00200019000BF00BF7A
:10274000002209152548FEF72FFE012244F2983198
:102750002248FEF729FE0122D1032148FEF724FE7C
:1027600044F29840029001200390002004900590CC
:1027700002A91A48FEF72CFD4FF4004002904FF4D6
:10278000881003900220049002A91448FEF720FD4F
:102790004FF4004002900120039000200490059027
:1027A00002A90F48FEF714FD4FF44070029011206B
:1027B0000390002004900220059002A90748FEF72C
:1027C00007FD002201212820FEF77EFE2820FEF7CB
:1027D0006BFE07B000BD000030380240000402402C
:1027E0000000024010B50A480A49086063204860AA
:1027F00000210848816040F2CF71C1600021016171
:102800008161FFF78DFA08B1FEF71AF810BD0000DC
:10281000004401401C01002010B50A480A49086024
:10282000632048600021084881604CF24F31C1604C
:10283000002101618161FFF773FA08B1FEF700F82A
:1028400010BD0000004801406401002010B50A4896
:102850000A4908600A484860002108488160C16050
:1028600001610C21416100218161C161FFF730FDEF
:1028700008B1FDF7E5FF10BD00100140AC010020DC
:1028800090D0030000BFFEE770477047704700001C
:1028900008B500BF002000901148006840F080504B
:1028A0000F4908600846006800F08050009000BFA3
:1028B00000BFFEF763FE01200A490860002008609F
:1028C0004FF48070FEF752FE0748006840F00400A5
:1028D000054908608815FEF75FFEFEF765FE08BD36
:1028E00040380240400E47420070004010B5FEF7ED
:1028F00067FD10BD10B54FF0FF3002490860FFF7CB
:10290000C7FF10BD2438024000B593B0302107A89E
:10291000FDF729FD142102A8FDF725FD00BF0020C9
:1029200001902348006840F0805021490860084623
:10293000006800F08050019000BF00BF00BF002081
:1029400001901C48006840F440401A49086008465D
:10295000006800F44040019000BF00BF01200790D4
:102960000004089002200D9041050E9108210F915E
:1029700064211091022111910421129107A8FEF700
:1029800065FF08B1FDF75CFF0F2002900220039065
:10299000002004904FF48050059000200690032101
:1029A00002A8FEF715FE08B1FDF74AFF13B000BDFF
:1029B00040380240007000400548006840F4700054
:1029C000034908604FF00060014980390860704792
:1029D00088ED00E010B50248FFF719FA10BD0000BD
:1029E0006401002010B50248FFF711FA10BD000085
:1029F0001C01002010B50268204B98420BD0B0F1AA
:102A0000804F08D01E4B984205D01E4B984202D0F2
:102A10001D4B984203D122F070024B681A43174BAA
:102A2000984214D0B0F1804F11D0154B98420ED07F
:102A3000144B98420BD0144B984208D0134B984239
:102A400005D0134B984202D0124B984203D122F486
:102A50004072CB681A4322F080034C6943EA0402B7
:102A600002608B68C3620B688362044B984201D199
:102A70000B6903630123436110BD000000000140A6
:102A80000004004000080040000C004000400140ED
:102A9000004401400048014070B50546AC6B002081
:102AA000E085E0842046FFF7A1FA70BD00BF00BFBB
:102AB00002680C3252E8002F22F4907102680C3246
:102AC00042E80013002BF3D100BF00BF00BF026833
:102AD000143252E8002F22F001010268143242E859
:102AE0000013002BF3D100BF016B01290ED100BFF1
:102AF00000BF02680C3252E8002F22F01001026879
:102B00000C3242E80013002BF3D100BF202180F8E3
:102B10003E1000210163704710B504462068C0686C
:102B200020F040002168C860202084F83D00204645
:102B3000FFF7E0FC002010BDF8B5044694F83E0015
:102B4000222873D1A068B0F5805F0CD1206950B9FC
:102B50000025A66A20684068C0F308003080A06A9B
:102B6000801CA06215E0A56A0026A068B0F5805F11
:102B700003D0A06828B9206918B920684068287077
:102B800004E02068406800F07F002870A06A401CC4
:102B9000A062E08D401E80B2E085002844D120680C
:102BA000C06820F020002168C8602068C06820F458
:102BB00080702168C8602068406920F001002168A9
:102BC0004861202084F83E00206B012826D1002097
:102BD000206300BF00BF21680C3151E8001F21F0C5
:102BE000100021680C3141E80002002AF3D100BF37
:102BF0002068006800F0100010280AD100BF0020F3
:102C0000009020680068009020684068009000BF35
:102C100000BFA18D2046FFF7E8F902E02046FFF74C
:102C200025FC0020F8BD01E00020FBE70220F9E7C9
:102C30002DE9F84F04462068006920F44050E1680F
:102C40000843216808612169A06808436169084355
:102C5000E169084300902068C06849F20C6188432C
:102C6000009908432168C8602068406920F44070DA
:102C7000A16908432168486176492068884203D0E9
:102C800075492068884203D1FEF77AFD814602E04B
:102C9000FEF766FD8146E069B0F5004F6CD1022079
:102CA0006168A0FB015003461920A9FB0070014692
:102CB0002A463846FDF7E0FA6421B0FBF1F04FEA0E
:102CC000001A02206168A0FB01510B461920A9FBE4
:102CD00000712A463846FDF7CFFA83460220616824
:102CE000A0FB015003461920A9FB00712A46384673
:102CF000FDF7C2FA6421B0FBF1F000EBC00101EB7B
:102D00000010ABEB8000322101EBC0006421B0FB6E
:102D1000F1F000F0F8000AEB400A02206168A0FB25
:102D2000015003461920A9FB007001462A46384687
:102D3000FDF7A2FA834602206168A0FB015003461A
:102D40001920A9FB00712A463846FDF795FA64213F
:102D5000B0FBF1F000EBC00101EB0010ABEB800029
:102D6000322101EBC0006421B0FBF1F000F007005C
:102D70005044216888606AE004206168A0FB01502B
:102D800003461920A9FB007001462A463846FDF784
:102D900073FA824604206168A0FB015003461920A3
:102DA000A9FB007001462A463846FDF765FA642102
:102DB000B0FBF1F000EBC00101EB0010AAEB8000CA
:102DC000322101EB00106421B0FBF1F000F0F00AB9
:102DD00004206168A0FB017003461920A9FB005183
:102DE0003A462846FDF748FA6421B0FBF1F00AEBB9
:102DF000001A04206168A0FB01510B461920A9FBB1
:102E000000712A463846FDF737FA83460420616888
:102E1000A0FB015003461920A9FB007001462A4679
:102E20003846FDF729FA6421B0FBF1F000EBC00150
:102E300001EB0010ABEB8000322101EB00106421AC
:102E4000B0FBF1F000F00F00504421688860BDE84D
:102E5000F88F0000001001400014014010B5034637
:102E600099629A85DA8500201864222083F83E0052
:102E700000BF002083F83C0000BF1868C06840F421
:102E800080701C68E0601868406940F001001C68B0
:102E900060611868C06840F020001C68E060002095
:102EA00010BD014691F83D00212828D18868B0F571
:102EB000805F0BD1086948B90A6A1088C0F308001E
:102EC0000B685860086A801C086205E00B6A581C91
:102ED000086218780B685860C88C401E80B2C8849D
:102EE00058B90868C06820F080000B68D86008688E
:102EF000C06840F040000B68D86000207047022096
:102F0000FCE7000010B50248FFF772F810BD0000A2
:102F1000AC01002000BFFEE702480068C0F30220B9
:102F2000704700000CED00E010B5002804DB0A0734
:102F3000130E054A135406E00A07140E034A00F064
:102F40000F031B1FD45410BD00E400E018ED00E097
:102F500010B5002006E0364A52F82020354B43F8E1
:102F60002020401C0828F6DB3148006A324A1060F5
:102F7000002045E042002F4B33F82220C2F3071215
:102F800000EB40032D4CE25442002A4B13F8222060
:102F900002F00F0300EB4002521CA35400EB40026E
:102FA000521C23469A5C1207130E00EB4002521C7F
:102FB000A35400EB4002521C23469A5C02F0F0033B
:102FC00000EB4002521CA3544200521C194B33F830
:102FD0002220C2F3032100BF00EB4002521C234613
:102FE0009A5C0A4300EB40035B1CE2544200521C13
:102FF000104B13F8223000EB4002921CA354401CEB
:103000000428B7DB00200E4A9073D07302200BE037
:10301000821E0A4B9A5C0A4B1A541A46927B1B5C1E
:103020001A44074B9A73401C0E28F1DB10BD0000B8
:1030300050000020640200203000002088020020A0
:103040001C000020FEF7C8F9FFF75EFCFFF744FB09
:10305000FFF71EFBFFF794FAFFF7C4FBFFF7F6FB41
:10306000FFF7DAFB092203490348FDF773FD00BFB0
:10307000FEE7000050000020740000204FF0407078
:10308000E1EE100A70470006101600061016000048
:103090000000000000000102030406070809000008
:1030A0000000010203040000C830000800000020F6
:1030B00050000000D4010008183100085000002022
:1030C000B0080000F001000800000000100000003F
:1030D000010000000024F40000000000E808CA0815
:1030E0000000000055AA00000000000000000000E1
:1030F00000000000000000000000000000000000D0
:1031000000000000000000000000000000000000BF
:083110000000000000000000B7
:040000050800019955
:00000001FF
