:020000040800F2
:1000000068080020AD0100086D350008012C0008CB
:1000100049350008E50A0008553C000800000000CA
:100020000000000000000000000000007137000820
:10003000090C000800000000AD35000885370008F5
:10004000C7010008C7010008C7010008C701000870
:10005000C7010008C70100080B0C0008C701000811
:10006000110C0008C7010008170C0008C7010008A0
:10007000C7010008C7010008C7010008C701000840
:10008000C7010008C7010008C70100080000000000
:10009000000000000000000000000000C701000890
:1000A000253800083D38000831380008C70100082D
:1000B000C70100084938000855380008C701000882
:1000C000C7010008C7010008C7010008C7010008F0
:1000D000C7010008493C0008C701000800000000F3
:1000E000C7010008C7010008C701000800000000A0
:1000F000000000000000000000000000C701000830
:1001000000000000C701000861380008C7010008AE
:1001100000000000000000000000000000000000DF
:10012000590B0008C7010008C7010008C7010008F3
:10013000C7010008000000000000000000000000EF
:10014000000000000000000000000000C7010008DF
:10015000C7010008C7010008C7010008C70100085F
:10016000C7010008C70100080000000000000000EF
:10017000000000000000000000000000000000007F
:1001800000000000C701000800000000000000009F
:10019000C7010008C7010008DFF80CD000F0D8FA4A
:1001A00000480047014A00086808002006488047C8
:1001B00006480047FEE7FEE7FEE7FEE7FEE7FEE74C
:1001C000FEE7FEE7FEE7FEE71538000899010008A4
:1001D0002DE9F05F0546002092469B46884606467C
:1001E000814640241BE0284641464746224600F00F
:1001F000F8F953465A46C01A914110D31146184691
:10020000224600F0DFF92D1A67EB01084F4622461F
:100210000120002100F0D6F917EB00094E41201E05
:10022000A4F10104DFDC484631462A464346BDE8D6
:10023000F09FD2B201E000F8012B491EFBD27047BB
:100240000022F6E710B513460A4604461946FFF7A2
:10025000F0FF204610BD2DE9FE4F804681EA0300E5
:10026000C00F0C46009021F0004123F00045B8EB90
:100270000200A94105D24046214690461C460B4645
:10028000024623F00040104347D0270DC7F30A0071
:10029000C3F30A510290401A019040286BDAC3F36D
:1002A000130040F4801B0098924620B10023D2EB4B
:1002B000030A63EB0B0B01985946C0F1400250460C
:1002C00000F080F906460D4650465946019A00F066
:1002D00098F910EB08006141002487EA115284EA82
:1002E000E7731A4340D0009A62B3019A012A4FEA99
:1002F000075215DC001B61EB02014FF0004202EADD
:100300000752CDE90042001C41F5801132462B46D0
:1003100000F0CFF903B0BDE8F08F40462146F9E781
:10032000001B61EB0201001C41F5801300185B41CA
:100330002018A2F5001747EB030140EAD570B61963
:100340006D4111E06D084FEA360645EAC0754FEA87
:100350000752001B61EB0201001C41F580114908A6
:100360004FEA30000019514132462B4603B0BDE838
:10037000F04F00F08FB90098012240000023D0EB2D
:10038000020263EBE073009821464FEAE074B8EB99
:10039000000061EB0401E9E783F000435BE781F0D3
:1003A000004158E72DE9FE4F81EA030404F00044C0
:1003B00021F0004100944FF0000B23F0004350EA7D
:1003C00001045ED052EA03045BD0C3F30A54C1F3C4
:1003D0000A552C44A4F2F3340194A0FB0254C1F357
:1003E000130141F48011C3F3130343F4801301FBA1
:1003F000024400FB034E840A970A44EA815447EA08
:100400008357A4FB076802958D0A05FB07854FEA11
:10041000932C04FB0C542705029D4FEA065847EA2B
:100420001637B5EB08056EEB070C870E920E47EA00
:10043000811742EA8312A7FB0201B6EB0B0164EBC2
:1004400000042B0D43EA0C335E1844EB1C50DA46D3
:100450005146E7FB0201C5F313044FEA0B3343EAAD
:1004600014534FEA0432019C43EA0603A4F10C043E
:100470000294009CCDE900B400F01BF903B0BDE884
:10048000F08F00200146F9E72DE9F04D81EA0304E1
:1004900004F0004B21F0004514464FF0000A23F011
:1004A000004150EA050220D054EA01021DD0C5F3F4
:1004B0000A570246C5F31303C1F31300C1F30A56EA
:1004C00040F4801543F48013A7EB0608101BD646B2
:1004D00008F2FD3873EB050002D308F1010801E0D2
:1004E00092185B41B8F1000F03DA00200146BDE825
:1004F000F08D00204FF48011064684460EE0171B55
:1005000073EB050705D3121B63EB050306434CEAA7
:10051000010C49084FEA300092185B4150EA01078C
:10052000EDD152EA030012D082EA040083EA050109
:10053000084305D0101BAB4106D20122002306E080
:1005400000224FF0004302E06FF0010253101AEB5B
:1005500006004CEB085110EB0A0041EB0B01BDE823
:10056000F04D00F097B800F0004230F000400AD0A3
:10057000C10D01F56071C0F3160042EA0151C208D5
:1005800040071143704700200146704701F00043C7
:1005900030B421F0004150EA010206D00A0DA2F564
:1005A0006072C1F31301002A02DC30BC00207047E6
:1005B000440F44EAC104C100E01830BC00EBC25053
:1005C00000F031B8202A04DB203A00FA02F10020C2
:1005D00070479140C2F1200320FA03F31943904081
:1005E0007047202A04DB203A21FA02F000217047EC
:1005F00021FA02F3D040C2F120029140084319468B
:100600007047202A06DBCB17203A41FA02F043EA72
:10061000E07306E041FA02F3D040C2F120029140BB
:100620000843194670470029A8BF7047401C49007D
:1006300008BF20F00100704710B4B0FA80FC00FA47
:100640000CF050EA010404BF10BC704749B1CCF172
:10065000200421FA04F411FA0CF118BF01212143FE
:100660000843A3EB0C01CB1D4FEA00614FEA1020B9
:1006700042BF002010BC704700EBC350104400295B
:10068000A4BF10BC7047401C490008BF20F0010007
:1006900010BC704710B5141E73F1000408DA401C3A
:1006A00041F1000192185B411A4301D120F0010091
:1006B00010BD2DE9F04D92469B4611B1B1FA81F281
:1006C00002E0B0FA80F220329046FFF77BFF04464A
:1006D0000F4640EA0A0041EA0B0153465A460843D6
:1006E00013D0114653EA010019D0C8F14002504618
:1006F000FFF777FF05460E46504659464246FFF73C
:1007000061FF084305D0012004E020463946BDE8DA
:10071000F08D0020054346EAE0762C4337430A98E3
:100720006305E40AA0EB08000022FD0A44EA4754EE
:100730000A3002D500200146E9E701051019694198
:10074000DDE9084500196941BDE8F04DA2E7000068
:10075000064C074D06E0E06840F0010394E807000E
:1007600098471034AC42F6D3FFF71AFD684E0008E4
:10077000884E00082DE9F04D00231A461B1A8A41C5
:1007800003DB00200146BDE8F08DC1F30A52C1F33E
:10079000130141F480154FF0000BD10702D100186E
:1007A0006D41521E0027044640F2FF11384601EB0E
:1007B000620A3E468046024600204FF48011FFF751
:1007C00010FFC2197141BB1846EB0100B4EB030CDA
:1007D00075EB000C04D3E41A65EB000517460E46D2
:1007E000241908F101006D4180463428E3DDF91930
:1007F00046EB0600091BA84103D24FF0FF32134617
:1008000001E0002213461BEB070046EB0A51BDE84E
:10081000F04DFFF73FBF10B50146806B026C12F040
:10082000500F05D0026CD20626D500F0C5FA10BDD7
:10083000016C41F40071016401688A6812F0405F44
:1008400017D1027EAAB9CA6A12F4700F02D08A6860
:1008500052050ED44A6822F020024A60016C21F44D
:1008600080710164016CC90403D4016C41F0010181
:10087000016400F09FFA10BD806BC26CBDE81040AF
:100880000846104710B5806B40210164416C41F06F
:100890000401416400F090FA10BD10B5806B00F0C7
:1008A0008AFA10BD464910B54A6822F440324A60BF
:1008B0004A6843681A434A6001684A6822F48072B1
:1008C0004A6001684A68036942EA03224A60016893
:1008D0004A6822F040724A6001684A6883681A4395
:1008E0004A6001688A6822F400628A6001688A6846
:1008F000C3681A438A60816A6FF07062D1420168EE
:100900008A6822F070628A6001688A680CD0836A03
:100910001A438A6001688A6822F040528A6001683E
:100920008A68C36A1A4301E022F040528A60016873
:100930008A6822F002028A6001688A68037E42EABD
:1009400043028A6090F82010002901684A680FD09D
:1009500042F400624A6001684A6822F460424A60D8
:1009600001684A68174C436A04EB43331A4301E0B9
:1009700022F400624A600168CA6A22F47002CA6204
:100980000168CA6A838B104C04EB03531A43CA6292
:1009900001688A6822F400728A6001688A6890F8A7
:1009A000303042EA43228A6001688A6822F4806219
:1009B0008A6001688A68406942EA8020886010BDC8
:1009C0000023014000E0FFFF0000F0FF144810B5D5
:1009D000016886B041F001010160016801F0010188
:1009E0000591016841F0020101600068022400F0F5
:1009F00002000590012000904FF48810CDE9010419
:100A00006946084800F036FD102000904FF40410AD
:100A1000CDE901046946044800F02CFD06B010BD84
:100A2000303802400000024000040240124810B476
:100A30001249002343800C88114A017822F81140A2
:100A4000491CC9B201700A2913D103705FF000017B
:100A5000448832F81130491C2344C9B243800A2922
:100A6000F6D399B20A22B1FBF2F1418010BC00F03A
:100A700009B810BC70470000640000204C00002042
:100A80004404002030B51648034641888488DA883B
:100A90009B89A14203D3022B01D002238381104BF7
:100AA00005895B89A94201D391420CD9994203D9A6
:100AB000A94201D2858935B9914209D9A14207D20B
:100AC0008289022A04D08289012A01D001228281EE
:100AD000994204D88189002901D00021818130BD4B
:100AE00064000020FEE7000070B500240A4E254691
:100AF000142000F04BFCD6F81002012805D06D1C24
:100B0000EDB2052DF4D9002070BD641CE4B20025BF
:100B1000322CEDD3012070BD0080404201220D49EE
:100B200006280AD2DFE800F0030A0D071013C1F807
:100B30009822C1F89C22C1F8A0227047C1F89822DF
:100B40007047C1F89C227047C1F8A022F6E7C1F8AF
:100B5000A022F6E700804042014800F0A5BA00005C
:100B60006401002001681823CAB2103AB2FBF3F204
:100B7000054B6FF30901032A9B5CC36500D9091D6E
:100B80008165084670470000044D000810B5014615
:100B900000208B698A6A4FF0C07453B1B3F5005FCF
:100BA00015D072B1012A0CD0022A0AD0032A09D129
:100BB00004E01AB1012A06D0022A03D1C96AC90188
:100BC00000D5012010BDC96AA142FAD010BD002A8B
:100BD000F7D0012AF2D0022AF3D0032AF3D010BDB5
:100BE00030B50468256825F48025256004686360B5
:100BF0008368402B036803D099600068C26030BDF1
:100C00009A600068C16030BD7047012000F026BCCA
:100C1000042000F023BC102000F020BC72B6002598
:100C20000A4E0024032002F0A3FCC82000F0AEFB13
:100C30000320FFF773FFC82000F0A8FB641CE4B298
:100C4000142CEFD3C6F89452EBE70000008040422A
:100C500078B50024009490F83C20012A19D0012294
:100C600080F83C200A6807230568092A13D9EE6832
:100C70000A3A02EB420293409E43EE600B788A6888
:100C80000A3B03EB43039A400368DD682A43DA60BA
:100C900010E0022078BD2E6902EB420293409E4391
:100CA0002E610B788A6803EB43039A4003681D6941
:100CB0002A431A614A681F23072A13D205686E6BFC
:100CC000521E02EB820293409E436E630A8893B2E7
:100CD0000A79521E02EB820293400268556B2B4345
:100CE000536327E005680D2A12D22E6BD21F02EB48
:100CF000820293409E432E630B790A88DB1F92B2D7
:100D000003EB83039A4003681D6B2A431A6311E0C7
:100D1000EE6A0D3A02EB820293409E43EE620B793B
:100D20000A880D3B92B203EB83039A400368DD6AA5
:100D30002A43DA621B4B0568194A9D420AD10D68A5
:100D4000122D07D1556825F400055560556845F406
:100D50008005556005689D421DD1134D0B68AB425F
:100D600001D0112B17D1536823F4800353605368CB
:100D700043F4000353600968A9420CD10B490C4AA3
:100D80000968B1FBF2F101EB8101490000E0491E65
:100D900000910029FBD180F83C40002078BD000084
:100DA00000230140002001401200001048000020F4
:100DB00040420F0070477047704770B504004FF015
:100DC000000503D0206C002610B107E0012070BDA3
:100DD000204600F01DF8666484F83C60206CC00674
:100DE00010D4206C20F4885040F00200206420468B
:100DF000FFF758FD6664206C20F0020040F001000F
:100E0000206400E0012584F83C60284670BD0000A5
:100E100070B586B0064614216846FFF711FA2549D9
:100E20003068884243D124480025016841F480712C
:100E300001600068204900F480701439059008684A
:100E400040F001000860086800F0010005900868A3
:100E500040F0020008600868032400F002000590DA
:100E6000FE208DE831006946144800F003FB009431
:100E700069461348CDE9014500F0FCFA124C1148CF
:100E8000C4E900050015A560C4E903508000606155
:100E90008000A0618011E0610002C4E908052046DD
:100EA00000F0D2F908B1FFF7B9FEB463A66306B04B
:100EB00070BD0000002001404438024000000240A4
:100EC000000402401064024064010020F8B50446AA
:100ED00000200E46009094F83C10012907D0012113
:100EE00084F83C1021688B68DB0702D011E00220F7
:100EF000F8BD8B6843F001038B603649364B0968B7
:100F0000B1FBF3F101EB410100E0491E0091002922
:100F1000FBD121688B68DB0503D58B6823F48073D4
:100F20008B6021688B68DB0749D0236C40F2016538
:100F3000AB4343F4807323644968490505D5216CAC
:100F400021F4005141F480512164216CC90404D57D
:100F5000616C21F00601616400E0606484F83C008B
:100F6000A16B1F481D4DC863A16B1E480864A16B8F
:100F70001D48C86421686FF022000860206841683D
:100F800041F0806141602068816841F48071816036
:100F90002168134632464C31A06B00F0BFF96868F7
:100FA000C006206802D01149884210D1816811F032
:100FB000405F0CD1816841F08041816007E0206C86
:100FC00040F010002064606C40F00100606400207C
:100FD000F8BD00004800002040420F0000230140FF
:100FE000170800089B080008850800080020014039
:100FF0002DE9F0410446876D00F03AFB064694F86F
:1010000035000025022806D08020606584F8345021
:101010000120BDE8F0812068016821F0160101601F
:101020002068416921F080014161206C08B9A06C01
:1010300020B12068016821F0080101602068016882
:1010400021F0010101600CE000F012FB801B05287B
:1010500007D920206065032084F8350084F83450D7
:10106000D7E720680068C007EED194F85C103F20F5
:101070008840B860012084F8350084F8345000209E
:10108000C7E790F83510022903D08021416501207F
:101090007047052180F835100068016821F00101D2
:1010A00001600020704700002DE9F84304464FF02E
:1010B0000009CDF8009063484FF41651A56D006803
:1010C000B0FBF1F72E6894F85C10082000FA01F1EB
:1010D00031420FD021680A6852070BD50A6822F006
:1010E00004020A6094F85C108840A860606D40F0CB
:1010F0000100606594F85C104FF0010808FA01F0F7
:10110000304208D021684969090604D5A860606D9D
:1011100040F00200606594F85C1004208840304282
:1011200008D021680968890704D5A860606D40F07F
:101130000400606594F85C1010208840304218D09C
:1011400021680968090714D5A86020680168490367
:1011500004D50068000308D5A16C07E00168C90543
:1011600003D4016821F008010160216C09B1204617
:10117000884794F85C1020208840304231D02168A4
:101180000968C9062DD5A86094F83500052820689F
:10119000016806D0490347D5006800031DD4616C7F
:1011A0001CE021F0160101602068416921F08001F6
:1011B0004161206C08B9A06C20B12068016821F061
:1011C0000801016094F85C103F208840A86084F812
:1011D000358084F83490216D1FE0E16B09B1204621
:1011E0008847606D00282BD0606DC00714D00520A3
:1011F00084F835002068016821F001010160009841
:10120000401C0090B84203D820680068C007F6D19F
:1012100084F8358084F83490E16C002910D001B056
:101220002046BDE8F04308470168C905D5D40168E8
:1012300021F01001016084F8358084F83490CCE707
:10124000BDE8F883480000202DE9F041044600F095
:101250000FFA06465CB1022084F83500002584F8B8
:1012600034502068016821F0010101600DE0012087
:10127000BDE8F08100F0FCF9801B052805D920208D
:101280006065032084F83500F2E720680068C00735
:10129000F0D12268116820480140D4E901031843C5
:1012A000D4E903363343184363691843A3691843E9
:1012B000E3691843236A18430843616A042903D188
:1012C000D4E90B1319430843106020684069666A2B
:1012D00020F0070130460E43012704280CD1A06AF4
:1012E0000643E06A40B12046FFF750FC20B14020A1
:1012F000606584F83570BAE7206846612046FFF7DC
:1013000031FC94F85C203F2191408160656584F850
:1013100035700020ACE700003F8010F02DE9F0416F
:101320000446866D90F83400002501280DD0012078
:1013300084F8340094F835700020012F07D084F829
:10134000340002252846BDE8F0810220FBE7022791
:1013500084F8357060652046FFF742FC94F85C1015
:101360003F208840B0602068016841F016010160AC
:10137000206C20B12068016841F0080101602068FC
:10138000016841F001010160DCE7000070B504462E
:1013900000F06EF90546601C02D004480078044451
:1013A00000F066F9401BA042FAD370BD3C0000205B
:1013B00070B5254E012401280BD010282ED004280A
:1013C0002BD12248047002F0F3F8BDE8704001F020
:1013D000FFBD1F4DD5F81002F0B901F031FE012814
:1013E0001AD11C4801F05CF81B4801F059F802F0D2
:1013F000B5F8052002F0BCF80020C5F8B4024FF49F
:101400009670FFF7C3FF02F0A1F80520FFF786FBF7
:10141000C5F8B44202F0AEF9346070BDFFF764FB6A
:1014200070B902F09BF8052002F0A2F8C820FFF77F
:10143000ADFF02F08BF80520FFF770FB02F09AF980
:101440001020306070BD0000143C014011000020ED
:10145000008040421802002080030020044910B59B
:101460000A68024202D00860FFF7A2FF10BD000028
:10147000143C01402DE9F84FDFF8B8A10022012407
:101480000AF1040B03254FF00F090BF1040E00BF06
:101490000B6804FA02F63340B34273D10F7907F0B8
:1014A0000307012F01D0022F16D187684FEA4208A7
:1014B00005FA08FC27EA0C07D1F80CC00CFA08FC66
:1014C0004CEA070CC0F808C04768B7430E79C6F36A
:1014D000001696403E4346600E79F643B6070DD09F
:1014E000C768560005FA06FC27EA0C07D1F808C0C1
:1014F0000CFA06FC4CEA070CC0F80CC00E7906F09A
:101500000306022E10D1D60800EB8608D8F820601A
:1015100057074FEAD76C09FA0CF7BE430F6907FA71
:101520000CF73743C8F8207006684FEA420C05FAFA
:101530000CF7BE430F7907F0030707FA0CF73743A0
:1015400007604E6816F4403F6DD03B4E376847F455
:1015500080473760366822F0030706F4804600961D
:10156000364E07EB060CDCF8086897073F0F09FAC0
:1015700007F826EA0806DFF8C880404503D14FF097
:1015800000081EE04FE0DFF8BC80404502D14FF07C
:10159000010816E0DFF8B080404502D14FF00208A4
:1015A0000FE0DFF8A880404502D14FF0030808E0C3
:1015B000DFF89C80404502D14FF0040801E04FF075
:1015C000070808FA07F848EA0608CCF80888DAF8A5
:1015D00000605746D1F804C09E435FEACC3C00D57A
:1015E0001E433E60DBF800605F46D1F804C09E43B6
:1015F0005FEA8C3C00D51E433E60DEF80060774613
:10160000D1F804C09E435FEACC2C00D51E433E6057
:10161000084F0C373E68D1F804C09E435FEA8C2C1B
:1016200000D51E433E60521C102AFFF431AFBDE8C6
:10163000F88F0000003C0140443802400030014077
:10164000000002400004024000080240000C02407A
:1016500000100240426921EA02030A4043EA0241C3
:10166000816170470AB1816170470904FBE700009E
:1016700001488068704700003C00002070B50400FD
:1016800025D094F83D00002520B984F83C50204630
:1016900000F04CFA242084F83D002068016821F015
:1016A000010101602068016841F400410160206887
:1016B000016821F40041016000F0AEFB4D4A616811
:1016C000914201D84C4900E04C49884201D20120A6
:1016D00070BD4B492368B0FBF1F15E6826F03F0610
:1016E0000E435E606368934206D94FF49673594384
:1016F0004FF47A73B1FBF3F12368491C1E6A26F09C
:101700003F06314319626168914210D84900401E7A
:10171000B0FBF1F2521CC2F30B02042A01D20420E6
:1017200022E0B0FBF1F0401CC0F30B001CE0A2680B
:10173000F2B301EBC10303EB0116431EB3FBF6F357
:101740005B1C43F480431B0549D092B301EBC102FB
:1017500002EB0111401EB0FBF1F0401CC0F30B0086
:1017600040F4804040F400402168CA694CF6FF73A1
:101770009A431043C861D4E9071001432068026806
:1017800022F0C00211430160D4E903010143206843
:10179000826848F2FF339A4311438160D4E905011E
:1017A00008432168CA6822F0FF021043C86001E0C4
:1017B0000EE016E02068016841F001010160256437
:1017C000202084F83D00256384F83E50002070BD41
:1017D00001EB4106431EB3FBF6F35B1CB3E70120AC
:1017E000C2E701EB4101401EB0FBF1F0401CC0F329
:1017F0000B00B7E7A086010080841E0000093D00B1
:1018000040420F002DE9FF4F83B09A46DDE9119762
:1018100093460446DDF84080FFF72AFF054694F81A
:101820003D00202870D119230122714920460095DE
:1018300001F0F6FA0028F5D194F83C00012863D0B5
:10184000012084F83C0020680168C90703D10168C1
:1018500041F0010101602068016821F4006101602C
:10186000222084F83D00402084F83E0000262664B3
:10187000C4F82480A4F82A90608D20855D48E06239
:10188000CDE9007553465A462046049901F0D0F937
:1018900000287CD1208DD0B1012821D002282068D9
:1018A00024D0416980690090208D032869D80128DF
:1018B0002BD0514902283B464FF00002009559D0E9
:1018C0008846204601F0ACFA002860D13CE0206850
:1018D000416981690091016841F40071016077E01C
:1018E0002068016821F480610160F0E7016821F45B
:1018F000806101602068016841F400610160206836
:1019000041698069009063E06FE02A4639462046CD
:1019100001F005FB98BB20680069616A08704EE021
:101920002068016841F40071016020680069616A03
:101930000870606A401C6062218D491E2185618D9E
:10194000491E6185216838E02068016821F48061C2
:10195000016020680069616A0870606A401C60620A
:10196000208D401E2085608D401E60853B460022F4
:1019700041460095204601F053FA00B9D0E706E051
:10198000FFE72A463946204601F0C9FA18B101207E
:1019900007B0BDE8F08F20680069616A0870606A6E
:1019A000401C6062218D491E2185618D491E618523
:1019B00021684A69D24352070AD409690170606AF2
:1019C000401C6062208D401E2085608D401E608519
:1019D000208D00287FF468AF202084F83D0084F833
:1019E0003E6084F83C600020D2E70220D0E700008F
:1019F000020010000000FFFF040001002DE9FF4F6E
:101A000083B09A46DDE9119793460446DDF840809D
:101A1000FFF72EFE054694F83D0020287FD11923BC
:101A2000012240492046009501F0FAF9002876D1BC
:101A300094F83C00012872D0012084F83C00206812
:101A40000168C90703D1016841F001010160206804
:101A5000016821F400610160212084F83D004020EC
:101A600084F83E0000262664C4F82480A4F82A9056
:101A7000608D20852C48E062CDE9007553465A46BA
:101A80002046049901F052F970B930E02A463946EF
:101A9000204601F077FA58B1206C042804D1206860
:101AA000016841F400710160012007B0BDE8F08FCA
:101AB000606A216800780861606A401C6062218D5C
:101AC000491E89B22185628D521E62852268536942
:101AD000DB435B070BD469B100781061606A401C7E
:101AE0006062208D401E2085608D401E6085208DA7
:101AF0000028CBD12A463946204601F06BF9002850
:101B0000CAD154F83D0B016841F4007101602020F6
:101B100004F81E09E67766770020C6E7FFE7022093
:101B2000C3E70000020010000000FFFFF0B587B01F
:101B3000044614216846FEF783FB1A492068884250
:101B40002DD119480024016841F0020101600068AC
:101B5000122500F0020005904FF48060CDE90005E9
:101B6000032602940420CDE90360104F69463846ED
:101B7000FFF780FC0820CDE9000502940920CDE99B
:101B8000036069463846FFF775FC07481030016866
:101B900041F480010160006800F48000059007B006
:101BA000F0BD000000580040303802400004024000
:101BB0000248816802781144816070473C0000202F
:101BC0000B4810B5016841F400710160016841F4EF
:101BD00080610160016841F480710160032000F0C0
:101BE0006FF8002000F006F800F024F8002010BD87
:101BF000003C024070B50D4D04464FF47A712878D0
:101C0000B1FBF0F00A490968B1FBF0F000F00CFB01
:101C100048B9102C07D200222146501E00F030F89F
:101C200000206C6070BD012070BD00003C000020F1
:101C3000480000200A4808B5016841F4804101606D
:101C4000006800F4804000900548001F016841F0E2
:101C500080510160006800F08050009008BD0000D5
:101C600044380240002809DB00F01F0201219140A6
:101C70004009800000F1E020C0F80011704700002A
:101C8000F0B40E4B1B680C46C3F30223C3F10705E7
:101C9000042D00D90425191D072901D2002300E0D5
:101CA000DB1E012606FA05F1491E214099409E409F
:101CB000761E16403143F0BC01F0FABF0CED00E097
:101CC000064900F0070208684FF6FF03184040EA93
:101CD0000220034A10430860704700000CED00E04A
:101CE0000000FA052DE9F0470E46050065D0DFF843
:101CF0001481D8F80000F7B200F00700B04207D214
:101D000088F80070D8F8000000F00700B04254D105
:101D100028683D4C810712D5400703D5206840F460
:101D2000E05020602878000703D5206840F4604028
:101D300020602068A96820F0F0000843206028781F
:101D4000C0072DD0304968680839012812D0022810
:101D500013D0032811D00968890700292DDA2168DA
:101D600021F0030101432160FFF782FC814641F22B
:101D7000883A0EE009688903EFE709688901ECE712
:101D8000FFF776FCA0EB0901514502D90320BDE81D
:101D9000F0872068696800F00C00B0EB810FEFD18C
:101DA000D8F80010404601F00701B14207D907708A
:101DB000006800F00700B04201D00120E7E7287872
:101DC000400705D52068E96820F4E050084320600A
:101DD0002878000706D52068296920F4604040EA89
:101DE000C100206000F038F82168084AC1F30311EF
:101DF000515CC8400649086006480068FFF7FAFED3
:101E00000020C4E7003C0240083802400C4D0008A6
:101E10004800002040000020044805490068096887
:101E2000044AC1F38221515CC84070474800002039
:101E3000083802401C4D000804480549006809683C
:101E4000044AC1F34231515CC84070474800002049
:101E5000083802401C4D0008154810B5006810F005
:101E60000C02144813D01449042A0FD0082A0ED1AA
:101E70000F4C241F2268236802F03F025B0207D543
:101E80002068C0F38810A0FB010106E0084610BDE1
:101E90002168C1F38811A1FB00010023FEF798F926
:101EA0002168C1F30141491C4900B0FBF1F010BDAC
:101EB000083802400024F40040787D012DE9F84FF5
:101EC00004006ED02078DFF84C93C007A9F1040518
:101ED0004AD009F104000168C1F38101012908D049
:101EE0000068C0F3810002280AD1D9F8000040023E
:101EF00006D52868800337D560680028E1D033E034
:101F00006068B0F5803F10D0B0F5A02F286810D0E1
:101F100020F480302860286820F4802028606068E1
:101F2000A8B1FFF7A5FB06460DE0286840F4803015
:101F3000F4E740F480202860F7E700BFFFF798FB44
:101F4000801B642873D828688003F7D50CE0FFF75E
:101F50008FFB064605E000BFFFF78AFB801B642865
:101F6000F0D828688003F7D42078DFF8AC828007A7
:101F70004FF0000A3ED5A748001D016811F00C0F74
:101F800008D00068C0F3810002280BD1D9F8000006
:101F9000400207D42868800716D5E068012800D1E0
:101FA00012E033E1E068B8B10120C8F80000FFF7A3
:101FB0005FFB064605E000BFFFF75AFB801B0228C7
:101FC000C0D828688007F7D52868216920F0F80074
:101FD00040EAC10028600DE0C8F800A0FFF748FB08
:101FE000064604E0FFF744FB801B02281FD8286840
:101FF0008007F7D42078000722D5864F874861698B
:10200000703771B101210160FFF732FB064604E031
:10201000FFF72EFB801B022809D838688007F7D508
:102020000EE0C0F800A0FFF723FB064605E082E0C3
:10203000FFF71EFB801B02287DD838688007F7D485
:102040002078400768D5DFF8CCB100270BF13C0BB6
:10205000DBF80000C0000BD4DBF8001041F0805129
:10206000CBF80010DBF80000012700F08050009052
:102070006B4E3068C00510D4306840F4807030601A
:10208000FFF7F6FA009005E0FFF7F2FA0099401A20
:10209000022850D83068C005F6D55E4EA0686C3670
:1020A00001280FD00528306810D020F001003060E2
:1020B000306820F004003060A068B8B1FFF7D8FAAB
:1020C00000900FE0306840F00100F4E740F00400B9
:1020D0003060F7E7FFF7CCFA0099411A41F28830F7
:1020E000814266D830688007F4D50EE0FFF7C0FA69
:1020F000009007E0FFF7BCFA0099411A41F28830DE
:10210000814256D830688007F4D42FB1DBF8001034
:1021100021F08051CBF80010A069C8B33D49091DDA
:102120000968C1F3810102294AD00228504607D02C
:10213000C8F8600000E03CE0FFF79AFA04463BE094
:102140004746C8F86000FFF793FA064605E000BF6F
:10215000FFF78EFA801B02282BD828688001F7D45D
:10216000D4E907010843A16A2E4A490802EB01415C
:10217000626A41EA8211084394F82C1040EA016136
:10218000C9F8001001203866FFF772FA044606E02D
:102190003EE000BFFFF76CFA001B022809D8286850
:1021A0008001F7D534E000BFFFF762FA001B022878
:1021B00002D90320BDE8F88F28688001F4D427E015
:1021C0000128F7D0D9F80000E26900F480019142BB
:1021D0001CD1226A00F03F01914217D147F6C0712D
:1021E000626A0140B1EB821F10D1A26A4FF0FF3347
:1021F00000F4403103EB5202B1EB024F06D194F8E8
:102200002C1000F07060B0EB016F01D00120D1E71D
:102210000020CFE70438024000004742800E4742CA
:10222000007000400000FFFF10B5401EB0F1807F3D
:1022300001D3012010BD4FF0E02460610F21601731
:1022400001F036FD0020A06107202061002010BDB4
:102250007047704770B590F83C20012A2CD00124BB
:1022600080F83C40022280F83D2003685A689D684F
:1022700022F070060A6832435A60104B02689A4294
:102280000ED0B2F1804F0BD00D4B9A4208D00D4BBF
:102290009A4205D00C4B9A4202D00C4B9A4204D180
:1022A000496825F080031943916080F83D40002182
:1022B00080F83C10084670BD022070BD000001404F
:1022C0000004004000080040000C004000400140B5
:1022D00010B5040003D094F83D0010B107E00120D0
:1022E00010BD002084F83C00204600F01FF80220BA
:1022F00084F83D00211D206801F0B8FA012084F81F
:10230000460084F83E0084F83F0084F8400084F8DA
:10231000410084F8420084F8430084F8440084F8C3
:10232000450084F83D00002010BD000008B53A4A81
:1023300001683A4891420ED1016841F00201016002
:102340000068002200F00200009005211D20FFF728
:1023500097FC1D205AE0324A91420ED1016841F0AB
:10236000040101600068002200F0040000900521D3
:102370001E20FFF785FC1E2048E02A4A91420ED11C
:10238000016841F0080101600068002200F00800C7
:10239000009002213220FFF773FC322036E01F4804
:1023A000214A001D91420ED1016841F48031016043
:1023B0000068002200F48030009005211820FFF70B
:1023C0005FFC182022E0194A91420ED1016841F4C5
:1023D000003101600068002200F40030009001210B
:1023E0001920FFF74DFC192010E0114A914211D13C
:1023F000016841F4802101600068002200F480201F
:10240000009005211A20FFF73BFC1A20BDE8084088
:10241000FFF728BC08BD000000040040403802401F
:1024200000080040000C0040004001400044014012
:102430000048014090F83D10012901D0012070476B
:10244000022180F83D100168CA6842F00102CA60AA
:1024500000680E4988420ED0B0F1804F0BD00C4975
:10246000884208D00B49884205D00B49884202D0E7
:102470000A49884204D1816801F00701062903D086
:10248000016841F001010160002070470000014037
:102490000004004000080040000C004000400140E3
:1024A0000168CA6822F00102CA6001680A6A41F242
:1024B00011131A4207D10A6A9B101A4203D10A6803
:1024C00022F001020A60012180F83D1000207047CF
:1024D00070B5044690F83C000025012817D001266D
:1024E00084F83C60022084F83D002068826822F075
:1024F000770222F47F4282600868502838D00DDCD1
:1025000020284FD005DC90B3102811D14AE00220DA
:1025100070BD302846D040280AD13BE060282FD03B
:1025200070280DD0B0F5805F03D0B0F5005F12D0F9
:10253000012584F83D60002084F83C00284670BDE9
:10254000CB68D1E90121206801F0DCF920688168BD
:1025500041F0770109E0CB68D1E90121206801F061
:10256000D1F92068816841F480418160E1E719E098
:10257000CA684968206801F0D7F95021206806E050
:10258000CA684968206801F0E0F96021206801F01C
:10259000C3F9CEE7CA684968206801F0C5F940214F
:1025A0002068F4E7226801461046F0E7704770B5EE
:1025B0000446006801694FF00005C943890715D436
:1025C000C168C943890711D4E91E01610120207740
:1025D000206880698007204602D0FFF7E7FF04E00B
:1025E00000F098F8204600F096F8257720680169F9
:1025F000C943490717D4C168C943490713D46FF0C9
:1026000004010161022020772068806910F4407F76
:10261000204602D0FFF7CAFF04E000F07BF8204616
:1026200000F079F8257720680169C943090716D4B5
:10263000C168C943090712D46FF008010161042081
:1026400020772068C0698007204602D0FFF7AEFFE0
:1026500004E000F05FF8204600F05DF82577206880
:102660000169C943C90617D4C168C943C90613D44F
:102670006FF010010161082020772068C06910F414
:10268000407F204602D0FFF791FF04E000F042F8BF
:10269000204600F040F8257720680169C943C90742
:1026A00008D1C168C943C90704D1891E0161204608
:1026B00000F032F820680169C943090609D4C168ED
:1026C000C943090605D46FF0800101612046FFF778
:1026D000BFFD20680169C943490609D4C168C943DF
:1026E000490605D46FF040010161204600F048F82A
:1026F00020680169C94389060BD4C168C9438906AA
:1027000007D46FF0200101612046BDE87040FFF75B
:10271000A0BD70BD7047704710B504461148844293
:1027200001D102F0D9F81048844201D102F006F933
:102730000E4884420DD102F05DF8FF2310220C49AF
:102740000C4800F003FA08B1FEF768FA0A490020C5
:1027500008710A48844203D1BDE8104002F08CB8E9
:1027600010BD000018020020F002002038030020F5
:1027700050000020C803002000000020800300203B
:102780007047704770470000F8B501680446086854
:10279000CA684B6910F00F0F4FF0000559D003F0D5
:1027A000010602F49077374365D0C10705D0D10503
:1027B00003D5216C41F001012164410705D5D907FA
:1027C00003D0216C41F002012164810705D5D907AE
:1027D00003D0216C41F004012164010707D502F008
:1027E0002001314303D0216C41F008012164216CA8
:1027F00000293AD0800604D5900602D5204601F083
:10280000E5F820684069216CC0F38010090700D406
:1028100060B3204601F0B3F820684069400621D536
:102820002068143050E8001F21F0400140E80012F9
:10283000002AF5D1A06BA8B16C490165A06BFEF729
:1028400020FC002811D0A06B016D01B0BDE8F04064
:10285000084783060FD593060DD52046BDE8F840FE
:1028600001F0B4B82046FFF78DFFF8BD2046FFF712
:1028700089FF2564F8BD266B2023012E79D1C60679
:1028800077D5D60675D5086848680090486940062F
:1028900040D5A16B086840680004000CEAD0A28D06
:1028A0008242E7D9E085C869B0F5807F2DD02068E5
:1028B0000C3050E8001F21F4807140E80012002A1B
:1028C000F5D12068143050E8001F21F0010140E8E4
:1028D0000012002AF5D12068143050E8001F21F0C2
:1028E000400140E80012002AF5D184F83E3025630B
:1028F00020680C3050E8001F21F0100140E8001261
:10290000002AF5D1A06BFEF773FBA08DE18D401A74
:1029100081B229E0A08DE18D401A81B2E08D0028BE
:10292000A8D00029A6D020680C3050E8002F22F44F
:10293000907240E80026002EF5D12068143050E84F
:10294000002F22F0010240E80026002EF5D184F885
:102950003E30256320680C3050E8002F22F0100232
:1029600040E80023002BF5D12046FFF70AFFF8BD11
:10297000FFE705062BD5150629D594F83D0021283B
:10298000F5D1A068B0F5805F01D12069B0B1206AAF
:10299000411C2162216800784860E08C401E0004E0
:1029A000000CE084E3D12068C16821F08001C1609F
:1029B0002068C16841F04001C160D8E7206A008802
:1029C000C0F308004860206A801C2062E5E74006EA
:1029D000CDD55006CBD5CA68204622F04002CA6049
:1029E00084F83D3000F00BF9C1E700006F390008B2
:1029F00070B5040004D094F83D00002510B106E045
:102A0000012070BD84F83C50204600F023F82420BB
:102A100084F83D002068C16821F40051C16020465F
:102A200001F034F82068016921F4904101612068C7
:102A3000416921F02A0141612068C16841F40051D7
:102A4000C1602564202084F83D0084F83E00002009
:102A500070BD000010B586B0044614216846FDF72D
:102A6000EFFB18492068884229D1174800210268E5
:102A700042F010020260006800F010000590124859
:102A80001438026842F001020260006800F00100A0
:102A900005904FF4C06000900220CDE901010320B1
:102AA00003900720049069460848FEF7E3FC0022E3
:102AB00003212520FFF7E4F82520FFF7D3F806B01F
:102AC00010BD0000001001404438024000000240E8
:102AD00090F83E30202B0ED159B152B190F83C30D5
:102AE000012B08D0012380F83C300023036301F060
:102AF00053B8012070470220704700000068104959
:102B000088421BD10F48411F0378421C4878135458
:102B1000024412F8012C0D2A01D10A2B01D00728FA
:102B200005D30122CA70401C8870002000E0401CC0
:102B30004870012203490448FFF7CABF70470000EC
:102B40000010014005000020C80300202DE9F843D3
:102B5000044690F83D001F4616460D4620284CD1ED
:102B6000C5B1BEB194F83C00012846D0012084F8DC
:102B70003C004FF00008C4F84080212084F83D005C
:102B8000FEF776FDA6848146E684A068B0F5805FF6
:102B900003D004E00120BDE8F883206928B12E4667
:102BA0005FF0000584F83C800EE00026FAE7802103
:102BB000204601F00CF8A0B9AEB116F8010B21685F
:102BC0004860E08C401EE084E08C4B464FF00002F1
:102BD00000970028EBD14FF04001204600F0F7FFAE
:102BE00030B10320D7E735F8020BC0F30800E6E761
:102BF000202084F83D000020CDE70220CBE770477D
:102C0000FEE701684A69D24352050FD46FF480622F
:102C10004A61002140F8301F20224273817302690B
:102C200042F00402026101730120704700207047E6
:102C30002DE9F84F0446006889460B9D01689846C7
:102C4000174641F4806101602068016841F4807199
:102C5000016000954FF0011B0022594620460A9B57
:102C600000F0DEF84FF4007A40B120680068C0053B
:102C700001D5C4F840A00320BDE8F88F216809F011
:102C8000FE0008612B46284920460A9A00F0FCF80D
:102C9000F0BB20684169806900902A4620460A9965
:102CA00000F070F940B1206C04283AD12068016826
:102CB00041F40071016034E0FEB2B8F1010F09D0B7
:102CC0002168380A08612A4620460A9900F05AF914
:102CD0000028E8D1206806612A4620460A9900F0BB
:102CE00051F90028DFD12068016841F4807101604A
:102CF00000950022594620460A9B00F091F80028D2
:102D0000B3D1216809F0FF0040F00100086100E044
:102D100007E02B46044920460A9A00F0B5F800283F
:102D2000AAD00120A8E70000020001002DE9F84325
:102D3000044600680D46DDE9089701689846164686
:102D400041F4807101604B4600224FF00111204692
:102D5000009700F065F848B120680068C00502D50A
:102D60004FF4007020640320BDE8F883216805F06B
:102D7000FE0008613B464A461549204600F084F8AB
:102D800088B920684169806900903A4649462046E2
:102D900000F0F8F848B1206C042804D120680168DC
:102DA00041F4007101600120DEE7F5B2B8F1010FD6
:102DB00009D02168300A08613A464946204600F0A9
:102DC000E1F80028E7D1206805610020CCE7000089
:102DD0000200010070B516460D4604460DE020467F
:102DE000FFF70FFF08B1012070BD681C05D0FEF78A
:102DF0003FFC801BA84207D835B120684069C0431A
:102E00004007ECD4002070BD002044F8300F202192
:102E10006173A073216941F0200121612073E2E711
:102E20002DE9F0471E4690460D460446C1F307477C
:102E3000DDF8209008E0701C06D0FEF719FCA0EB2E
:102E40000900B0420FD876B12068012F18D08069F0
:102E500025EA00000004000C14D000214145EAD00E
:102E60000020BDE8F087002044F8300F2021617376
:102E7000A073216941F02001216120730120F0E756
:102E80004069E5E70121E9E72DE9F0479A469146D7
:102E90000E46044600254FF02008C1F3074725E001
:102EA00020684069C043400514D42068016841F49B
:102EB0000071016021686FF480604861256384F8C7
:102EC0003D8084F83E50206C40F00400206484F87B
:102ED0003C501FE0B9F1FF3F08D0FEF7C9FBA0EB63
:102EE0000A0149450CD8B9F1000F09D02068012F1B
:102EF00013D0806926EA00000004000C0BD0CFE755
:102F000044F8305F84F80D80A573206940F02000FC
:102F1000206125730120BDE8F0874069EAE72DE9CB
:102F2000F041002590460E460446202717E04069F0
:102F3000C043C0060CD454F8301B6FF01000486139
:102F400044F810596777A577206A2062257717E043
:102F5000FEF78EFBA0EB0800B04208D83EB1206817
:102F60004169C9434906E2D40020BDE8F08144F834
:102F7000305F6773A573206940F0200020612573DE
:102F80000120F2E770B516460D4604460DE02046D6
:102F9000FFF737FE08B1012070BD681C05D0FEF7B1
:102FA00067FB801BA84207D835B120684069C04341
:102FB0000006ECD4002070BD002044F8300F202122
:102FC0006173A073216941F0200121612073E2E760
:102FD0001648DFED170A90ED000A20EE200ABDEE3C
:102FE000C00A10EE100A01121248017110EE101AF8
:102FF0004171114991ED000A20EE200ABDEEC00A90
:1030000010EE101A0912817110EE101AC1710B49DD
:1030100091ED000A20EE200ABDEEC00A10EE101A53
:103020000912017210EE101A417270472000002040
:103030000000C842A000002024000020280000203A
:1030400070B500240A4E25461420FEF79FF9D6F8E5
:103050000002012805D06D1CEDB2052DF4D9002029
:1030600070BD641CE4B20025322CEDD3012070BD8C
:10307000000040427FB500213D480091019102913E
:103080003A4A0391026001244FF440320461C0E9DE
:103090000121047680F82010364AC0E90A2109256A
:1030A000C561C16080F830404461FDF786FE08B11B
:1030B000FDF7B4FD00940194062469462C4802945F
:1030C000FDF7C6FD08B1FDF7A9FD022000900190B3
:1030D00069462748FDF7BCFD08B1FDF79FFD0320B9
:1030E0000090019069462248FDF7B2FD08B1FDF756
:1030F00095FD04200090019069461D48FDF7A8FD4C
:1031000008B1FDF78BFD0520009001906946184835
:10311000FDF79EFD08B1FDF781FD00946946144856
:103120000194FDF795FD08B1FDF778FD07200090AB
:10313000019069460E48FDF78BFD08B1FDF76EFD65
:1031400008200090019069460948FDF781FD08B10B
:10315000FDF764FD0095694605480195FDF778FD8A
:10316000002801D0FDF75AFD7FBD0000002001407E
:103170001C0100200100000F094808B5016841F456
:10318000800101600068002200F480000090114678
:103190003820FEF775FDBDE808403820FEF762BD17
:1031A000303802402DE9F04F87B014216846FDF712
:1031B00047F848480024016841F0040101600168B3
:1031C00001F004010591016841F00101016001680D
:1031D00001F001010591016841F002010160006800
:1031E0003D4F00F00200059000224FF40051384698
:1031F000FEF738FA012291033846FEF733FADFF87A
:10320000DCA042F2E018012241465046FEF72AFABD
:10321000DFF8CCB04FF40049002249465846FEF78B
:1032200021FA4FF4C0400125022603948DE8610085
:1032300069463846FEF71EF94FF488100095CDE92F
:10324000010469465846FEF715F9142000904FF422
:103250000410CDE9010469465046FEF70BF92F032F
:103260000097CDE9014669465046FEF703F9CDE9DE
:103270000264CDE9008569465046FEF7FBF80097E9
:10328000CDE9014669465846FEF7F4F8CDF80090BE
:10329000CDE90154694658460394FEF7EBF8002245
:1032A00001210620FEF7ECFC0620FEF7DBFC0022E5
:1032B00002210820FEF7E4FC0820FEF7D3FC0022E0
:1032C00001210A20FEF7DCFC0A20FEF7CBFC07B048
:1032D000BDE8F08F30380240000802400004024090
:1032E000000002400D4810B50B4901600C494160D7
:1032F00000214FF480428160C0E903124161816185
:10330000C1610162FEF7BAF9002803D0BDE81040A0
:10331000FDF784BC10BD000000580040C40100202F
:10332000A08601000B4810B5094901606321416086
:10333000002140F2CF72C0E9021201618161FEF703
:10334000C7FF002803D0BDE81040FDF767BC10BDE3
:1033500000440140380300200B4810B509490160C2
:103360006321416000214CF24F32C0E90212016139
:103370008161FEF7ADFF002803D0BDE81040FDF7E6
:103380004DBC10BD004801408003002010B586B040
:103390000024174800940194029403940494134960
:1033A0000594016040F2E731C0E901144CF250315C
:1033B000C0E903148461FEF78BFF08B1FDF72EFC12
:1033C0004FF48050009069460948FFF781F808B132
:1033D000FDF724FC049404A905480594FEF73AFF80
:1033E000002801D0FDF71AFC06B010BD0004004013
:1033F0001802002010B586B00024174800940194EC
:103400000294039404941349059401606321C0E974
:1034100001144CF24F31C0E903148461FEF758FFE8
:1034200008B1FDF7FBFB4FF48050009069460A4855
:10343000FFF74EF808B1FDF7F1FB049404A9064824
:103440000594FEF707FF002801D0FDF7E7FB06B063
:1034500010BD0000000800406002002010B586B0DA
:103460000024164800940194029403940494124991
:10347000059401606321C0E901141149C0E90314F6
:103480008461FEF725FF08B1FDF7C8FB4FF48050BB
:10349000009069460948FFF71BF808B1FDF7BEFB2D
:1034A000049404A905480594FEF7D4FE002801D031
:1034B000FDF7B4FB06B010BD000C0040A8020020D0
:1034C00020A107001FB50021104800910191029131
:1034D0000D4A0391026040F2E732C0E90121521C1B
:1034E000C0E903218161FEF7F3FE08B1FDF796FB09
:1034F0004FF48050009069460448FEF7E9FF002829
:1035000001D0FDF78BFB1FBD00400140F002002001
:103510000C4810B50A4901604FF4E12141600021D7
:1035200081600C22C160C0E904128161C161FFF7B2
:103530005FFA002803D0BDE81040FDF76FBB10BD57
:1035400000100140C8030020FEE7000002490020EF
:10355000C1F8B40270470000000041420249012056
:10356000C1F8B4027047000000004142FEE70000CD
:1035700000220D4906280AD2DFE800F0030A0D07F1
:103580001013C1F89822C1F89C22C1F8A0227047FC
:10359000C1F898227047C1F89C227047C1F8A02258
:1035A000F6E7C1F8A022F6E700804042704700002D
:1035B000F0B5624C62492DED0A8B89B007A806ABC5
:1035C00002AACDE900405F4801F064F82088C005F8
:1035D0007ED59DED020AF8EEC00A9FED5B0A5B4DB9
:1035E0005B4C60EE800A5B4EB8EE009AC5ED000AB7
:1035F0009DED031A584FB0EE008AB8EEC11A60EE86
:10360000880A61EE001AC4ED001A9DED041A61EEFD
:10361000891AB8EEC11A21EE001A86ED001A9DED46
:10362000052AB8EEC22A22EE000A87ED000A21EE32
:10363000800A00EE810A10EE100AFCF794FF41ECBC
:10364000100B00F045FB9FED45AB51EC100B53EC1C
:103650001A2BFCF7A7FEFCF799FF42490860D4ED4E
:10366000008A28EE890A60EE280A96ED000A20EE0C
:1036700008BA4BEE400AB7EE000A30EE800A10EEB0
:10368000100AFCF770FF97ED000AD5ED000A41EC37
:10369000190B2BEE000A60EE880A00EEA80A10EE65
:1036A000100AFCF760FF41EC100BB0EE491AF0EE87
:1036B000691A00F029FE53EC1A2B51EC100BFCF7A1
:1036C00071FEFCF763FF2849086095ED00CA00E031
:1036D0002FE02CEE0C0AD4ED009A96ED009AD7ED6F
:1036E000008A09EEA90A09EE490A08EEE80A10EE76
:1036F000100AFCF738FF29EE890A41EC1B0B0CEE8F
:10370000280A20EE080A10EE100AFCF72CFF41EC04
:10371000100BB0EE4B1AF0EE6B1A00F0F5FD53EC07
:103720001A2B51EC100BFCF73DFEFCF72FFF0F4955
:10373000086009B0BDEC0A8BF0BD00001E0000203F
:103740001800002012000020000080302C00002013
:1037500030000020340000203800002066666666D5
:1037600066A64C40200000202400002028000020F5
:103770007047000002490020C1F894027047000021
:1037800000804042FEF714BA30B593B0302168464D
:10379000FCF756FD14210CA8FCF752FD1B48002431
:1037A000016841F080510160006800F08050119084
:1037B0001748016841F4404101600068012100F4AC
:1037C000404011900A2000901020CDE90310CDE96F
:1037D00007400225CDE90515C820CDE909050420DB
:1037E0000B906846FEF76AFB60B90F20CDE90C0527
:1037F000E802CDE90E4003210CA81094FEF772FAFE
:10380000002801D0FDF70AFA13B030BD403802405D
:10381000007000400248016841F470010160704787
:1038200088ED00E00148FEF7C2BE0000F002002073
:103830000148FEF7BCBE0000800300200148FEF7EF
:10384000B6BE0000380300200148FEF7B0BE0000FD
:10385000180200200148FEF7AABE00006002002006
:103860000148FEF7A4BE0000A8020020F0B50268DF
:103870001D4B1E4C9F031E4D1E4E984207D0B84252
:1038800005D0A04203D0A84201D0B04204D122F01A
:10389000700C4A6842EA0C02984210D0B8420ED02E
:1038A000A0420CD0A8420AD0B04208D0124CA0428C
:1038B00005D0124CA04202D0114CA04203D122F4F8
:1038C0004074CA6822434C6922F08002224302609D
:1038D0008A68C2620A688262984201D109690163FA
:1038E00001214161F0BD00000000014000040040E2
:1038F00000080040000C004000400140004401402E
:103900000048014010B5846842EA032224F47F4451
:103910000A432243826010BD826822F070020A438B
:1039200042F007018160704710B5036A046A24F011
:1039300001040462846924F0F00444EA021423F0D0
:103940000A020A438461026210BD10B5036A23F0C3
:10395000100303628369046A23F4704343EA02326A
:1039600024F0A00343EA01118261016210BD10B589
:10397000806B0021C185C184FEF704FF10BD016882
:103980000C3151E8002F22F4907241E80023002B03
:10399000F5D10168143151E8002F22F0010241E80D
:1039A0000023002BF5D1016B012909D101680C31ED
:1039B00051E8002F22F0100241E80023002BF5D13E
:1039C000202180F83E1000210163704708B590F86F
:1039D0003E10222901D0022008BD82684FF4805396
:1039E0009A4201D1016921B1816A9A421BD04AB140
:1039F0000AE00268816A5268C2F308020A80816A9A
:103A0000891C08E0026972B10268526802F07F0204
:103A10000A70816A491C8162C18D491E0904090C22
:103A2000C18503D019E002685268F1E70168CA68ED
:103A300022F02002CA600168CA6822F48072CA605B
:103A400001684A6922F001024A61202180F83E1093
:103A5000016B012903D0FFF751F8002008BD0021B8
:103A6000016301680C3151E8002F22F0100241E897
:103A70000023002BF5D101680A68D20602D50A6836
:103A800049680091818DFEF77CFEE6E770B504463B
:103A900000680169E26821F4405111430161216924
:103AA000A068E26908436169114308432168CA6854
:103AB00049F20C639A430243CA6020684169A269D3
:103AC00021F440711143416131492068884202D09C
:103AD0003049884202D1FEF7AFF901E0FEF79CF9C8
:103AE000E2690023192164253226B2F5004F62688D
:103AF00028D0A0FB0101930F9200FCF769FB01465F
:103B0000B0FBF5F06FF01802504301EB800006EBBC
:103B10000010B0FBF5F000F0F002B1FBF5F002EBA5
:103B20000012B1FBF5F06FF01803584301EB800071
:103B300006EB0010B0FBF5F000F00F002168104418
:103B4000886070BDA0FB010192185B41FCF740FB4F
:103B50000146B0FBF5F00201B1FBF5F06FF0180380
:103B6000584301EB800006EBC000B0FBF5F000F01D
:103B7000F80002EB4002B1FBF5F0584301EB800086
:103B800006EBC000B0FBF5F000F00700D6E7000040
:103B9000001001400014014081628285C28500212D
:103BA0000164222280F83E2080F83C100168CA6837
:103BB00042F48072CA6001684A6942F001024A61B7
:103BC0000068C16841F02001C160002070472DE904
:103BD000F041984617460E460446069D27E0681CAD
:103BE00025D02DB1FDF744FDA0EB0800A8421ED959
:103BF00020680C3050E8001F21F4D07140E800121A
:103C0000002AF5D12068143050E8001F21F001018E
:103C100040E80012002AF5D1202084F83D0084F805
:103C20003E00002084F83C000320BDE8F0812068BD
:103C3000006836EA000004D00020B842CFD000204F
:103C4000F3E70120F9E700000148FEF79DBD000001
:103C5000C8030020FEE7000010B5FCF7B7FEFFF731
:103C6000EFF9064C28B9FCF73FFF10B90020C4F863
:103C700094020120C4F8940210BD0000008040426C
:103C800003B401984100009850EAC12018BF0420F5
:103C90004A0D18BF40F0010040F2FF72B2EB515FD5
:103CA00008BF40F00200012808BF052002B070479D
:103CB0000907090E002804DB00F1E02080F8001459
:103CC000704700F00F0000F1E02080F8141D7047ED
:103CD00070B5C1482DED020B2DED0E8B82B0119DFC
:103CE00025F000449FEDBEDB9FEDBFEB84423EDB41
:103CF000A4F140511098A1F17F6108430FD0BC4856
:103D0000844202DC28D1109830B39DED100B02B034
:103D1000BDEC0E8B02B0BDE8704000F069BC9DEDBB
:103D2000100B53EC1D2B51EC100BFCF73BFB9DEDE6
:103D3000100B41EC180B53EC1E2B51EC100BFCF745
:103D400031FB53EC182BFCF786FA41EC100B02B058
:103D5000BDEC0E8B02B070BD012000F08DFC02B0F6
:103D6000BDEC0E8B02B0BDE8704000F055BCA14820
:103D70009FEDA18B844256DA9DED100BB4F1795F73
:103D80000ADA51EC100BFFF77BFF042808BF00F0A4
:103D900053FC9DED100BDAE753EC102B51EC100B9C
:103DA000FCF700FB41EC190B95480621B0EE490ADF
:103DB000F0EE690A784400F09FFB53EC192B51ECAC
:103DC000100BFCF7EFFA41EC1A0B8E48B0EE490AE3
:103DD000F0EE690A0421784400F08EFB53EC192BB5
:103DE00051EC100BFCF7DEFA53EC182BFCF733FA0E
:103DF00041EC100B51EC1A0B53EC102BFCF744FB6D
:103E0000CDE900019DED000B53EC102B9DED100B47
:103E100051EC100BFCF7C6FA9DED101B53EC112B67
:103E2000FCF719FAD2E09DED100B51EC100B00F0ED
:103E3000D5FC53EC182BFCF7B2FA9FED730BCDE9D0
:103E4000000153EC102B9DED000B51EC100BFCF717
:103E5000A9FA41EC190B6E480621B0EE490AF0EEC2
:103E6000690A784400F048FB53EC192B51EC100B15
:103E7000FCF798FA41EC1B0B6648B0EE490AF0EEED
:103E8000690A0421784400F037FB53EC192B51ECFC
:103E9000100BFCF787FA53EC182BFCF7DCF941EC1C
:103EA0001C0B51EC190B00F0F6FE41EC180B5A48B4
:103EB0009FED5BABA04222DC53EC1C2B51EC1B0BA7
:103EC000FCF7E2FACDE900019DED000B51EC180B77
:103ED00053EC102BFCF766FA53EC182BFCF7BBF9EC
:103EE00053EC1A2BFCF75EFA53EC1D2BFCF754FA3B
:103EF00053EC1E2BFCF753FA41EC100B5FE08DEDF9
:103F0000008B002000909DED000B51EC180B53EC42
:103F1000102BFCF7A0F99DED000B41EC1E0B53ECB0
:103F2000102B51EC100BFCF73DFA53EC192BFCF75E
:103F300036FA53EC1E2BFCF7A7FA41EC190B53ECA5
:103F40001C2B51EC1B0BFCF79FFA41EC1B0B53ECA9
:103F50001A2B51EC190BFCF725FA53EC1D2BFCF72F
:103F60001EFA41EC190B53EC1A2B51EC180BFCF711
:103F700019FA53EC1B2BFCF715FA53EC192BFCF731
:103F80000BFA9DED000B41EC180B53EC1A2B51EC86
:103F9000100BFCF707FA9FED249B53EC192BFCF751
:103FA000FEF941EC100B51EC180B53EC102BFCF705
:103FB000F3F953EC192BFCF7F2F941EC100B002D3F
:103FC0003FF7C5AE51EC100B81F0004141EC100BF6
:103FD000BDE60000000000000000F03F000000000F
:103FE000075C143326A6913C182D4454FB21F93F5D
:103FF0000000F07F0000E03F000000000000F03F04
:10400000C00F0000CE0F0000000000000000E03FE5
:10401000120F0000200F00003333EF3F00000000BC
:104020000000000000000040182D4454FB21E93F2F
:1040300070B59B482DED020B2DED068B079D25F0ED
:104040000044A04218DC9748844202DC0AD106985A
:1040500040B19DED060BBDEC068B02B0BDE8704093
:1040600000F0C6BA002DCCBF9FED8F0B9FED900BDB
:10407000BDEC068B02B070BD8F48A04215DD8F48A5
:10408000A042D8BF4FF0FF3458DD9DED060B51EC38
:10409000100BFFF7F5FD042808BF00F0CDFA9DEDE9
:1040A000060BBDEC068B02B070BD9DED060B51EC0E
:1040B000100B00F093FBCDE9060181489FED828B48
:1040C000A0423CDD8248A0421FDD00249FED82AB70
:1040D0009DED060B53EC1A2B51EC100BFCF7BBF8C3
:1040E0009DED060B41EC190B53EC1A2B51EC100B08
:1040F000FCF758F953EC182BFCF74EF953EC192B3D
:10410000FCF7C2F9CDE9060149E09DED060B01245B
:1041100053EC182B51EC100BFCF79DF89DED060BA2
:1041200041EC190B53EC182B51EC100BFCF734F944
:1041300053EC192BFCF7A8F9CDE906012FE06848EC
:10414000A0421FDD02249FED689B9DED060B53EC02
:10415000192B51EC100BFCF725F953EC182BFCF73D
:104160007AF89DED060B41EC180B53EC192B51EC32
:10417000100BFCF711F953EC182BFCF785F9CDE97E
:1041800006010CE09DED060B032453EC102B9FED74
:10419000580B51EC100BFCF777F9CDE906019DEDBA
:1041A000060B53EC102B51EC100BFCF7FBF841EC19
:1041B000180B53EC182BFCF7F5F841EC190B4E4893
:1041C0000621B0EE490AF0EE690A784400F094F94D
:1041D00053EC182B51EC100BFCF7E4F841EC180BE6
:1041E0004648B0EE490AF0EE690A0521784400F02D
:1041F00083F953EC192B51EC100BFCF7D3F841EC7D
:10420000100B51EC180B53EC102B002C0EDAFCF7B2
:1042100022F89DED061B53EC112BFCF7C3F89DED26
:10422000061B53EC112BFCF7BAF835E0FCF713F83A
:104230009DED061B53EC112BFCF7B4F841EC100B71
:104240002F48784400EBC40090ED001B51EC100B9C
:1042500053EC112BFCF7A0F89DED061B53EC112B32
:10426000FCF79AF841EC100B2648784400EBC400A8
:1042700090ED001B51EC100B53EC112BFCF78FF859
:1042800041EC100B002DA2BFBDEC068B02B070BD3F
:1042900051EC100B81F0004141EC100B01E70000E4
:1042A000000010440000F07F182D4454FB21F93F1A
:1042B000182D4454FB21F9BF0000DC3F0000203ED4
:1042C0000000F33F00000000000000000000F03F8D
:1042D0000000E63F00000000000000000000004079
:1042E0000080034000000000000000000000F83FD4
:1042F000000000000000F0BF620C0000180C00007D
:10430000A20B00005A0B000070B56B4E2DED040B94
:104310002DED028B82B0DDF81CC0DDE905235C4287
:104320002CF000411C4341EAD474049D22F000406B
:10433000B44205D86C422C4340EAD474B4420BD941
:104340009DED061B9DED040B02B0BDEC028B04B08D
:10435000BDE8704000F056B9ACF14054A4F17F6460
:104360001C430BD0022404EAAC7444EAD274054323
:104370009FED538B9FED542B07D015E09DED040B63
:1043800051EC100B00F07EF942E0002C11BF012C23
:104390009DED040B02B0BDEC028B04BF04B070BDF8
:1043A000022C38D0032C3BD00B439FED491B9FEDD3
:1043B0004A0B0AD0B14218D1B04209D121F0804154
:1043C00020F08040079105900FE0002A15DA10E0F8
:1043D000434B7B44002C08BF93ED000B0DD0012C08
:1043E00010D0022C17D0032C1AD0B0421DD1002AB5
:1043F00003DAB0EE410AF0EE610A02B0BDEC028BC6
:1044000004B070BD93ED000B51EC100B81F0004136
:1044100041EC100BF1E7B0EE480AF0EE680AECE769
:10442000B0EE420AF0EE620AE7E7401A00153C28B7
:10443000C8BF8DED000B19DCBCF1000FBEBF10F141
:104440003C0F9FED290B8DED000B0FDB9DED060B57
:1044500053EC102B9DED040B51EC100BFCF714F8F2
:1044600000F0BCF900F00EF9CDE90001002C08BF06
:104470009DED000BC1D0012C10D0022C9FED1C0B28
:1044800053EC102B9DED000B51EC100B0DD0FBF7F6
:1044900083FF53EC182BFBF77FFFB9E7019880F0FF
:1044A000004001909DED000BA7E7FBF775FF53EC73
:1044B000182BFBF774FFABE70000F07F0000000053
:1044C000182D4454FB210940182D4454FB2109C0E8
:1044D000182D4454FB21F9BF182D4454FB21F93FFA
:1044E0008A0A000000000000000000000000000038
:1044F000075C143326A6A13C70B504462DED028B53
:104500004D1E00EBC500B0EE408AF0EE608A90EDE3
:10451000000B35F0060017D053EC182B51EC100BA4
:10452000FBF740FF41EC100B6D1E04EBC50090ED56
:10453000001B51EC100B53EC112BFBF78CFE41ECE4
:10454000100B35F00600E7D1022D36D0042D1CD01B
:10455000062D1CBFBDEC028B70BD53EC182B51EC2B
:10456000100BFBF71FFF94ED0A1B53EC112BFBF70D
:1045700072FE53EC182BFBF715FF94ED081B53EC60
:10458000112BFBF768FE41EC100B53EC182B51EC90
:10459000100BFBF707FF94ED061B53EC112BFBF7F9
:1045A0005AFE53EC182BFBF7FDFE94ED040B53EC75
:1045B000102BFBF750FE41EC100B53EC182B51EC79
:1045C000100BFBF7EFFE94ED021B53EC112BFBF7E6
:1045D00042FE53EC182BFBF7E5FE94ED001B53EC69
:1045E000112BFBF738FEBDEC028B41EC100B70BDBC
:1045F00010B553EC102B51EC100BFBF72CFE41ECDB
:10460000100B10BD10B553EC112B51EC100BFBF738
:1046100022FE41EC100B10BD9FED050B10B553ECC5
:10462000102B51EC100BFBF72FFF41EC100B10BDC2
:1046300000000000000000009FED050B10B553ECDA
:10464000102B51EC100BFBF7ADFE41EC100B10BD25
:10465000000000000000001002E008C8121F08C19E
:10466000002AFAD170477047002001E001C1121FF3
:10467000002AFBD170470000014908607047000024
:10468000C800002010B541EC100BFFF7D1FC51EC35
:10469000100B10BD2DE9FF4F89B01746DDE916520A
:1046A00000244D4E884681462C80A246B07B694648
:1046B00000F000FA4FF0FF3B18B158460DB0BDE8CE
:1046C000F08F708910F0140F3ED0009909BA21F0D4
:1046D000FF029DF803100A433A6001999DF80730E4
:1046E00009BA21F0FF0119437960029B9DF80B4044
:1046F0001BBA23F0FF032343BB60039C121424BAAC
:1047000024F0FF0C9DF80F4009144CEA040C10240F
:10471000C7F80CC01B144FEA2C4712FB02F211FB26
:10472000012113FB03F217FB07221144A1F1706171
:10473000B1F1007F04D900F005FAA5F800A0BCE7AC
:10474000298841F4807129804206694611D50A19E9
:10475000A41D13885BBAA8F8003053885BBAA8F888
:104760000230928852BAA8F804202A8842F008023F
:104770002A8010F4C07F11D00A19A41D13885BBAD7
:10478000A9F8003053885BBAA9F80230928852BA6F
:10479000A9F804202A8842F070022A80800716D0E7
:1047A0000C44E07800F0C00500F03F016078C007DD
:1047B00006D0C80801F007013268491C02B19047D1
:1047C0006078000703D5716809B1A80988470C987B
:1047D00000F060FA002071E75804002082B0CDE9B3
:1047E000000121F0004001909DED000B02B051EC62
:1047F000100B704770B51D491D4A002051F820303C
:1048000042F82030401C0828F8DB086A1949086083
:104810001749002011F1240132F8303000EB400438
:104820001D091B0103F0F00602EBC0030D559D8826
:104830000C44C5F303231E436670401CA570042876
:10484000EADB0C4A5520121D00231070AA2050707C
:10485000937302200C1814F8024C1454957B401CDE
:104860002C4494730E28F5DBD37370BDCC0000206C
:104870000C0400204C00002010B5FCF7D7F81448B9
:1048800001781448062922D2DFE801F02103050F40
:104890001419012100E0002101700220FCF73EF90B
:1048A000BDE810400320FCF739B90020FCF736F9C9
:1048B000022008E00020FCF731F9042003E000208A
:1048C000FCF72CF90320BDE81040FEF751BE10BDE7
:1048D0000E0000201000002070B5144CD4F8100217
:1048E000134E002501280CD01248007830B1012861
:1048F0000AD141033046FCF7ADFE05E0C4F8B452DE
:1049000002E00120C4F8B402D4F81002012806D154
:104910000948007820B1012801D1C4F8985270BD2F
:104920003046BDE870404021FCF794BE0080404214
:10493000000402400F00002010000020194810B5AC
:1049400001881948022903D0012903D061B103E08D
:10495000032100E004210170144BD3F81042002120
:104960000122012C02D013E00521F4E7104C247839
:10497000012C02D10F4CC4F8B8120F4CD4F83042BD
:1049800014B1012C04D102E00224047000E0027092
:10499000D3F830320948012B01D0017010BD0270EC
:1049A00010BD0000700000200E000020008040427A
:1049B0000000002000004142000040420F000020A3
:1049C0003EB54000CDE900320A46FF24014602947C
:1049D00001230248FCF716FF3EBD0000C401002081
:1049E0003EB54000CDE900320A46FF24014602945C
:1049F00001230248FDF702F83EBD0000C40100207B
:104A0000FDF7DEF8FEF7C0FEFFF726F9FEF7CAFB5A
:104A1000FEF7B2FBFEF72EFBFEF764FCFEF7B6FCDA
:104A2000FEF750FDFEF77EFCFEF796FCFEF770FDEC
:104A3000FEF7E0FCFEF712FD092216491648FCF7C6
:104A400045FAFEF78BFD0020FEF792FD4FF49670BD
:104A5000FCF79CFCFEF77AFD0E481049006A0860DE
:104A60003220FCF793FC0E48FDF7E4FC0D48FDF7FF
:104A7000E1FC0D48FDF7DEFC0C48FDF7DBFC0A20ED
:104A8000FCF784FC0A20FCF781FC0949012008702E
:104A9000FEE70000CC0000201C0100204C0000209C
:104AA00018020020F00200203803002080030020BC
:104AB000000000202DE9F843214C0646174694F8E3
:104AC000240089464FF0FF3890B3A07A80B3206865
:104AD0006B460222817A60680078FFF771FF38BB6D
:104AE000BDF8000045BAB54202D2002038701FE080
:104AF00060684188B5EB510F11D9216800786B4689
:104B0000497C0122FFF75CFF90B99DF80000C006C8
:104B100005D500F017F86FF00100BDE8F8832068B4
:104B2000F2B24B46C17A60680078FFF749FF08B1DE
:104B30004046F2E7B5FBF6F0401E38700020ECE787
:104B400074000020F8B5524C4FF0FF36A07A0028D0
:104B50007CD000258DF8005020686B460122C17B77
:104B600060680078FFF73CFF00286FD120686B4633
:104B70000122417960680078FFF732FF002865D193
:104B800020686B460122017960680078FFF728FFF2
:104B900000287AD194F82400C8B30C208DF80000C6
:104BA00020686B460122017960680078FFF718FFE2
:104BB00000286AD1C0208DF80000A07AC00702D07A
:104BC000E0208DF8000020686B46012201796068C2
:104BD0000078FFF705FF002857D1607C18B102204C
:104BE0008DF8000001E08DF8005020686B4601222E
:104BF000C17B60680078FFF7F3FE38BB8DF800508A
:104C000020686B46012241796068007839E0FFE74F
:104C100004208DF8000020686B460122017960684D
:104C20000078FFF7DDFE88B9A07C80B9A07AC007C4
:104C30000DD060208DF8000020686B4601220179BC
:104C400060680078FFF7CCFE00B902E01DE040206C
:104C5000F0E7607C18B101208DF8000001E08DF8CC
:104C6000005020686B460122C17B60680078FFF726
:104C7000B7FE50B92068064B0122417960681033B5
:104C80000078FFF7ADFE002800D03046F8BD0000E8
:104C900074000020704700B52DED048B83B041EC0B
:104CA000190BFBF767FD41EC180B18EE100A18EE14
:104CB000901A8DED008B002818BF0120084320F0CA
:104CC0000040C0F17F6000F1E040C00F14D019EE49
:104CD000101A19EE900A8DED009B002918BF0121D2
:104CE000084320F00040C0F17F6000F1E040C00FB9
:104CF00004BF0120FFF7C0FC51EC180B03B0BDEC62
:104D0000048B00BD000610160006101600000000FF
:104D1000000000000102030406070809000000006B
:104D2000010203046800000476005401F7FD00014D
:104D300075191A0C6A231B1C1F207274433B4138DF
:104D4000393A6B6C376F06246D6E7000830000007B
:104D5000000800000001001832000500000020419A
:104D60000000D242295C0F3E9A99993E3333733F3B
:104D7000295C0F3E00000000555555555555C53F5F
:104D80007D6FEB0312D6D4BF5544880E55C1C93F81
:104D90003B8F68B52882A4BF88B20175E0EF493F18
:104DA00009F7FD0DE13D023F4B2D8A1C273A03C058
:104DB000C88A599CE52A004059018D1B6C06E6BF44
:104DC00082922EB1C5B8B33F4FBB610567ACDD3FE2
:104DD000182D4454FB21E93F9BF681D20B73EF3F22
:104DE000182D4454FB21F93FE2652F227F2B7A3C9A
:104DF000075C143326A6813CBDCBF07A8807703C53
:104E0000075C143326A6913CC4EB98999999C9BFC5
:104E1000711623FEC671BCBF6D9A74AFF2B0B3BFFA
:104E20009AFDDE522DDEADBF2F6C6A2C44B4A2BFBA
:104E30000D5555555555D53FFF8300922449C23F26
:104E40006E204CC5CD45B73F513DD0A0660DB13F5A
:104E5000EB0D76244B7BA93F11DA22E33AAD903F6C
:104E60000000000000000000884E00080000002044
:104E7000CC00000058460008544F0008CC00002029
:104E80009C070000684600080000000000000000C9
:104E90000000000000000000000000000000000012
:104EA0000000000000000000000000000000000002
:104EB00000000000000000000000000000000000F2
:104EC00000000000010000001000000000000000D1
:104ED0000024F4000000000055AA000000000000BB
:104EE00000000000000000000000000000000000C2
:104EF0003D091F09CF08B10802000000304D00082D
:104F0000244D000800000000000000000000000028
:104F10000000000000000000000000000000000091
:104F2000000000004C4D000866BBCCDD0000000016
:104F30000000000000000000000000000000000071
:104F4000000000000000010000000100000001005E
:044F5000000000005D
:040000050800019955
:00000001FF
