:020000040800F2
:1000000060070020AD01000841250008FD20000820
:100010001D250008CB040008A129000800000000ED
:100020000000000000000000000000008325000820
:10003000ED05000800000000812500089525000856
:10004000C7010008C7010008C7010008C701000870
:10005000C7010008C7010008EF050008C701000834
:10006000F5050008C7010008FB050008C7010008E6
:10007000C7010008C7010008C7010008C701000840
:10008000C7010008C7010008C70100080000000000
:10009000000000000000000000000000C701000890
:1000A000392600085126000845260008C701000827
:1000B000C70100085D260008C7010008C701000845
:1000C000C7010008C7010008C7010008C7010008F0
:1000D000C701000895290008C701000800000000BA
:1000E000C7010008C7010008C701000800000000A0
:1000F000000000000000000000000000C701000830
:1001000000000000C7010008C7010008C70100087F
:1001100000000000000000000000000000000000DF
:100120003D050008C7010008C7010008C701000815
:10013000C7010008000000000000000000000000EF
:10014000000000000000000000000000C7010008DF
:10015000C7010008C7010008C7010008C70100085F
:10016000C7010008C70100080000000000000000EF
:10017000000000000000000000000000000000007F
:1001800000000000C701000800000000000000009F
:10019000C7010008C7010008DFF80CD000F07AF8AA
:1001A000004800475D2A0008600700200648804795
:1001B00006480047FEE7FEE7FEE7FEE7FEE7FEE74C
:1001C000FEE7FEE7FEE7FEE72926000899010008A2
:1001D0002DE9F05F0546002092469B46884606467C
:1001E000814640241BE0284641464746224600F00F
:1001F00041F853465A46C01A914110D31146184649
:10020000224600F028F82D1A67EB01084F462246D7
:100210000120002100F01FF817EB00094E41201EBD
:10022000A4F10104DFDC484631462A464346BDE8D6
:10023000F09FD2B201E000F8012B491EFBD27047BB
:100240000022F6E710B513460A4604461946FFF7A2
:10025000F0FF204610BD202A04DB203A00FA02F10C
:10026000002070479140C2F1200320FA03F31943A4
:1002700090407047202A04DB203A21FA02F0002146
:10028000704721FA02F3D040C2F1200291400843A6
:1002900019467047064C074D06E0E06840F0010340
:1002A00094E8070098471034AC42F6D3FFF778FF84
:1002B000BC2A0008DC2A000810B50146806B026CDD
:1002C00012F0500F05D0026CD20626D500F04EFA7F
:1002D00010BD016C41F40071016401688A6812F07C
:1002E000405F17D1027EAAB9CA6A12F4700F02D019
:1002F0008A6852050ED44A6822F020024A60016CD6
:1003000021F480710164016CC90403D4016C41F0D3
:100310000101016400F028FA10BD806BC26CBDE8D9
:1003200010400846104710B5806B40210164416CB5
:1003300041F00401416400F019FA10BD10B5806B62
:1003400000F013FA10BD0000464910B54A6822F4C7
:1003500040324A604A6843681A434A6001684A6802
:1003600022F480724A6001684A68036942EA032203
:100370004A6001684A6822F040724A6001684A682F
:1003800083681A434A6001688A6822F400628A60BE
:1003900001688A68C3681A438A60816A6FF0706274
:1003A000D14201688A6822F070628A6001688A68B6
:1003B0000CD0836A1A438A6001688A6822F040522E
:1003C0008A6001688A68C36A1A4301E022F04052D9
:1003D0008A6001688A6822F002028A6001688A687D
:1003E000037E42EA43028A6090F8201000290168E7
:1003F0004A680FD042F400624A6001684A6822F4F9
:1004000060424A6001684A68174C436A04EB433310
:100410001A4301E022F400624A600168CA6A22F4C9
:100420007002CA620168CA6A838B104C04EB0353E2
:100430001A43CA6201688A6822F400728A600168FD
:100440008A6890F8303042EA43228A6001688A68FC
:1004500022F480628A6001688A68406942EA8020EA
:10046000886010BD0023014000E0FFFF0000F0FFA6
:10047000124810B41249002343800C88114A0178B5
:1004800022F81140491CC9B201700A2913D1037026
:100490005FF00001448832F81130491C2344C9B28E
:1004A00043800A29F6D399B20A22B1FBF2F14180C6
:1004B00010BC00F009B810BC704700002C000020F0
:1004C00014000020480300207047FEE770B50024A8
:1004D0000A4E2546142000F033FCD6F810020128FD
:1004E00005D06D1CEDB2052DF4D9002070BD641C43
:1004F000E4B20025322CEDD3012070BD00804042D3
:1005000001220D4906280AD2DFE800F0030A0D0790
:100510001013C1F89822C1F89C22C1F8A02270479C
:10052000C1F898227047C1F89C227047C1F8A022F8
:10053000F6E7C1F8A022F6E700804042014800F04B
:100540008DBA0000F800002001681823CAB2103AE2
:10055000B2FBF3F2054B6FF30901032A9B5CC36501
:1005600000D9091D81650846704700009C2A0008D3
:1005700010B5014600208B698A6A4FF0C07453B1F0
:10058000B3F5005F15D072B1012A0CD0022A0AD04F
:10059000032A09D104E01AB1012A06D0022A03D1A4
:1005A000C96AC90100D5012010BDC96AA142FAD0AB
:1005B00010BD002AF7D0012AF2D0022AF3D0032A74
:1005C000F3D010BD30B50468256825F4802525607A
:1005D000046863608368402B036803D099600068F7
:1005E000C26030BD9A600068C16030BD70470120B4
:1005F00000F0F2BB042000F0EFBB102000F0ECBBD9
:1006000072B6FEE778B50024009490F83C20012AE9
:1006100019D0012280F83C200A6807230568092ABE
:1006200013D9EE680A3A02EB420293409E43EE6011
:100630000B788A680A3B03EB43039A400368DD6842
:100640002A43DA6010E0022078BD2E6902EB4202F4
:1006500093409E432E610B788A6803EB43039A40D4
:1006600003681D692A431A614A681F23072A13D2A7
:1006700005686E6B521E02EB820293409E436E63CE
:100680000A8893B20A79521E02EB820293400268F2
:10069000556B2B43536327E005680D2A12D22E6B4E
:1006A000D21F02EB820293409E432E630B790A888D
:1006B000DB1F92B203EB83039A4003681D6B2A434E
:1006C0001A6311E0EE6A0D3A02EB820293409E43F8
:1006D000EE620B790A880D3B92B203EB83039A40DA
:1006E0000368DD6A2A43DA621B4B0568194A9D429A
:1006F0000AD10D68122D07D1556825F40005556003
:10070000556845F48005556005689D421DD1134D1F
:100710000B68AB4201D0112B17D1536823F480032F
:100720005360536843F4000353600968A9420CD135
:100730000B490C4A0968B1FBF2F101EB8101490058
:1007400000E0491E00910029FBD180F83C400020C8
:1007500078BD00000023014000200140120000107D
:100760001000002040420F0070477047704770B57E
:1007700004004FF0000503D0206C002610B107E004
:10078000012070BD204600F01DF8666484F83C60CE
:10079000206CC00610D4206C20F4885040F0020079
:1007A00020642046FFF7D0FD6664206C20F0020034
:1007B00040F00100206400E0012584F83C602846F8
:1007C00070BD000070B586B0064614216846FFF77C
:1007D00037FD25493068884243D124480025016807
:1007E00041F4807101600068204900F48070143980
:1007F0000590086840F001000860086800F00100FA
:100800000590086840F0020008600868032400F0C2
:1008100002000590FE208DE831006946144800F082
:10082000E7FA009469461348CDE9014500F0E0FA83
:10083000124C1148C4E900050015A560C4E9035035
:10084000800060618000A0618011E0614002C4E925
:100850000805204600F0D2F908B1FFF7D1FEB463D5
:10086000A66306B070BD000000200140443802407D
:10087000000002400004024010640240F800002022
:10088000F8B5044600200E46009094F83C1001296B
:1008900007D0012184F83C1021688B68DB0702D067
:1008A00011E00220F8BD8B6843F001038B603649EC
:1008B000364B0968B1FBF3F101EB410100E0491E41
:1008C00000910029FBD121688B68DB0503D58B687B
:1008D00023F480738B6021688B68DB0749D0236C1D
:1008E00040F20165AB4343F48073236449684905D2
:1008F00005D5216C21F4005141F480512164216C13
:10090000C90404D5616C21F00601616400E06064F3
:1009100084F83C00A16B1F481D4DC863A16B1E48A5
:100920000864A16B1D48C86421686FF0220008604C
:100930002068416841F0806141602068816841F42D
:10094000807181602168134632464C31A06B00F003
:10095000BFF96868C006206802D01149884210D1EA
:10096000816811F0405F0CD1816841F08041816065
:1009700007E0206C40F010002064606C40F0010043
:1009800060640020F8BD00001000002040420F000D
:1009900000230140B90200083D03000827030008B6
:1009A000002001402DE9F0410446876D00F01EFB58
:1009B000064694F835000025022806D080206065A0
:1009C00084F834500120BDE8F0812068016821F0EE
:1009D000160101602068416921F080014161206CAD
:1009E00008B9A06C20B12068016821F008010160FD
:1009F0002068016821F0010101600CE000F0F6FAC6
:100A0000801B052807D920206065032084F8350065
:100A100084F83450D7E720680068C007EED194F816
:100A20005C103F208840B860012084F8350084F8CD
:100A300034500020C7E790F83510022903D08021F8
:100A4000416501207047052180F835100068016874
:100A500021F0010101600020704700002DE9F843FA
:100A600004464FF00009CDF8009063484FF416514A
:100A7000A56D0068B0FBF1F72E6894F85C100820B3
:100A800000FA01F131420FD021680A6852070BD5F4
:100A90000A6822F004020A6094F85C108840A8609A
:100AA000606D40F00100606594F85C104FF0010843
:100AB00008FA01F0304208D021684969090604D5D6
:100AC000A860606D40F00200606594F85C1004203E
:100AD0008840304208D021680968890704D5A86099
:100AE000606D40F00400606594F85C101020884050
:100AF000304218D021680968090714D5A860206819
:100B00000168490304D50068000308D5A16C07E01B
:100B10000168C90503D4016821F008010160216C56
:100B200009B12046884794F85C1020208840304264
:100B300031D021680968C9062DD5A86094F8350020
:100B400005282068016806D0490347D500680003DE
:100B50001DD4616C1CE021F0160101602068416920
:100B600021F080014161206C08B9A06C20B120689F
:100B7000016821F00801016094F85C103F20884072
:100B8000A86084F8358084F83490216D1FE0E16B13
:100B900009B120468847606D00282BD0606DC007E2
:100BA00014D0052084F835002068016821F0010187
:100BB00001600098401C0090B84203D8206800688B
:100BC000C007F6D184F8358084F83490E16C0029B0
:100BD00010D001B02046BDE8F04308470168C905C0
:100BE000D5D4016821F01001016084F8358084F8C3
:100BF0003490CCE7BDE8F883100000202DE9F041E7
:100C0000044600F0F3F906465CB1022084F8350092
:100C1000002584F834502068016821F0010101604A
:100C20000DE00120BDE8F08100F0E0F9801B05280F
:100C300005D920206065032084F83500F2E720689C
:100C40000068C007F0D12268116820480140D4E94B
:100C500001031843D4E90336334318436369184347
:100C6000A3691843E3691843236A18430843616A78
:100C7000042903D1D4E90B131943084310602068F9
:100C80004069666A20F0070130460E4301270428B8
:100C90000CD1A06A0643E06A40B12046FFF768FC29
:100CA00020B14020606584F83570BAE7206846615D
:100CB0002046FFF749FC94F85C203F219140816079
:100CC000656584F835700020ACE700003F8010F0C7
:100CD0002DE9F0410446866D90F834000025012886
:100CE0000DD0012084F8340094F835700020012FD5
:100CF00007D084F8340002252846BDE8F0810220A0
:100D0000FBE7022784F8357060652046FFF75AFC40
:100D100094F85C103F208840B0602068016841F082
:100D200016010160206C20B12068016841F00801C3
:100D300001602068016841F001010160DCE700000A
:100D400070B5044600F052F90546601C02D0044814
:100D50000078044400F04AF9401BA042FAD370BD69
:100D60000400002010B51A4C012805D010282DD100
:100D7000FFF7ACFBC8B127E01648D0F8100290B9D5
:100D800001F0BEF901280ED101F0FCFB01F0D0FB0F
:100D9000052001F0D7FBC820FFF7D2FF01F0C0FB10
:100DA0000520FFF7ADFB01200FE001F0C1FB05209E
:100DB00001F0C8FBC820FFF7C3FF01F0B1FB05201D
:100DC000FFF79EFB01F0DEFB1020206010BD00004D
:100DD000143C014000804042044910B50A680242B8
:100DE00002D00860FFF7BEFF10BD0000143C0140B8
:100DF0002DE9F84FDFF8B8A1002201240AF1040B15
:100E000003254FF00F090BF1040E00BF0B6804FA25
:100E100002F63340B34273D10F7907F00307012F75
:100E200001D0022F16D187684FEA420805FA08FC64
:100E300027EA0C07D1F80CC00CFA08FC4CEA070CA6
:100E4000C0F808C04768B7430E79C6F3001696404D
:100E50003E4346600E79F643B6070DD0C76856008C
:100E600005FA06FC27EA0C07D1F808C00CFA06FCC4
:100E70004CEA070CC0F80CC00E7906F00306022EEF
:100E800010D1D60800EB8608D8F8206057074FEA43
:100E9000D76C09FA0CF7BE430F6907FA0CF7374312
:100EA000C8F8207006684FEA420C05FA0CF7BE43FA
:100EB0000F7907F0030707FA0CF7374307604E680E
:100EC00016F4403F6DD03B4E376847F4804737609B
:100ED000366822F0030706F480460096364E07EB8C
:100EE000060CDCF8086897073F0F09FA07F826EAAE
:100EF0000806DFF8C880404503D14FF000081EE027
:100F00004FE0DFF8BC80404502D14FF0010816E009
:100F1000DFF8B080404502D14FF002080FE0DFF863
:100F2000A880404502D14FF0030808E0DFF89C801C
:100F3000404502D14FF0040801E04FF0070808FADD
:100F400007F848EA0608CCF80888DAF8006057463F
:100F5000D1F804C09E435FEACC3C00D51E433E60FE
:100F6000DBF800605F46D1F804C09E435FEA8C3C2A
:100F700000D51E433E60DEF800607746D1F804C01D
:100F80009E435FEACC2C00D51E433E60084F0C37D1
:100F90003E68D1F804C09E435FEA8C2C00D51E4306
:100FA0003E60521C102AFFF431AFBDE8F88F0000FC
:100FB000003C014044380240003001400000024043
:100FC0000004024000080240000C024000100240F1
:100FD000426921EA02030A4043EA02418161704703
:100FE0000AB1816170470904FBE70000014880688D
:100FF000704700000400002070B5040025D094F86C
:101000003D00002520B984F83C50204600F0B8F897
:10101000242084F83D002068016821F0010101606E
:101020002068016841F4004101602068016821F4F2
:101030000041016000F01AFA4D4A6168914201D8FE
:101040004C4900E04C49884201D2012070BD4B4917
:101050002368B0FBF1F15E6826F03F060E435E6048
:101060006368934206D94FF4967359434FF47A73E9
:10107000B1FBF3F12368491C1E6A26F03F06314399
:1010800019626168914210D84900401EB0FBF1F22C
:10109000521CC2F30B02042A01D2042022E0B0FB4E
:1010A000F1F0401CC0F30B001CE0A268F2B301EBAE
:1010B000C10303EB0116431EB3FBF6F35B1C43F4C1
:1010C00080431B0549D092B301EBC10202EB011131
:1010D000401EB0FBF1F0401CC0F30B0040F4804018
:1010E00040F400402168CA694CF6FF739A431043EC
:1010F000C861D4E9071001432068026822F0C002E9
:1011000011430160D4E9030101432068826848F279
:10111000FF339A4311438160D4E9050108432168F4
:10112000CA6822F0FF021043C86001E00EE016E03A
:101130002068016841F0010101602564202084F8E5
:101140003D00256384F83E50002070BD01EB410650
:10115000431EB3FBF6F35B1CB3E70120C2E701EBD0
:101160004101401EB0FBF1F0401CC0F30B00B7E79B
:10117000A086010080841E0000093D0040420F004F
:10118000F0B587B0044614216846FFF759F81A49AC
:10119000206888422DD119480024016841F00201DD
:1011A00001600068122500F0020005904FF4806095
:1011B000CDE90005032602940420CDE90360104F19
:1011C00069463846FFF714FE0820CDE90005029471
:1011D0000920CDE9036069463846FFF709FE074854
:1011E0001030016841F480010160006800F4800063
:1011F000059007B0F0BD00000058004030380240B4
:1012000000040240024881680278114481607047FE
:10121000040000200B4810B5016841F40071016022
:10122000016841F480610160016841F480710160EE
:10123000032000F06FF8002000F006F800F024F81A
:10124000002010BD003C024070B50D4D04464FF427
:101250007A712878B1FBF0F00A490968B1FBF0F027
:1012600000F00CFB48B9102C07D200222146501E7A
:1012700000F030F800206C6070BD012070BD0000EF
:1012800004000020100000200A4808B5016841F45D
:1012900080410160006800F4804000900548001F14
:1012A000016841F080510160006800F080500090BA
:1012B00008BD000044380240002809DB00F01F028E
:1012C000012191404009800000F1E020C0F80011A8
:1012D00070470000F0B40E4B1B680C46C3F30223AA
:1012E000C3F10705042D00D90425191D072901D2D2
:1012F000002300E0DB1E012606FA05F1491E21400D
:1013000099409E40761E16403143F0BC01F049BB27
:101310000CED00E0064900F0070208684FF6FF03F5
:10132000184040EA0220034A10430860704700005A
:101330000CED00E00000FA052DE9F0470E4605002F
:1013400065D0DFF81481D8F80000F7B200F007008C
:10135000B04207D288F80070D8F8000000F007000B
:10136000B04254D128683D4C810712D5400703D5BF
:10137000206840F4E05020602878000703D52068FA
:1013800040F4604020602068A96820F0F000084325
:1013900020602878C0072DD03049686808390128B6
:1013A00012D0022813D0032811D009688907002918
:1013B0002DDA216821F0030101432160FFF716FEB9
:1013C000814641F2883A0EE009688903EFE709682F
:1013D0008901ECE7FFF70AFEA0EB0901514502D9AC
:1013E0000320BDE8F0872068696800F00C00B0EBCE
:1013F000810FEFD1D8F80010404601F00701B1424B
:1014000007D90770006800F00700B04201D0012042
:10141000E7E72878400705D52068E96820F4E05020
:10142000084320602878000706D52068296920F441
:10143000604040EAC100206000F038F82168084AA6
:10144000C1F30311515CC8400649086006480068B2
:10145000FFF7FAFE0020C4E7003C024008380240D3
:10146000A42A0008100000200800002004480549B4
:1014700000680968044AC1F38221515CC840704782
:101480001000002008380240B42A0008044805492A
:1014900000680968044AC1F34231515CC840704792
:1014A0001000002008380240B42A0008154810B582
:1014B000006810F00C02144813D01449042A0FD00D
:1014C000082A0ED10F4C241F2268236802F03F0225
:1014D0005B0207D52068C0F38810A0FB010106E07D
:1014E000084610BD2168C1F38811A1FB000100234B
:1014F000FEF76EFE2168C1F30141491C4900B0FBB3
:10150000F1F010BD083802400024F40040787D015D
:101510002DE9F84F04006ED02078DFF84C93C00717
:10152000A9F104054AD009F104000168C1F3810161
:10153000012908D00068C0F3810002280AD1D9F837
:101540000000400206D52868800337D5606800286F
:10155000E1D033E06068B0F5803F10D0B0F5A02F47
:10156000286810D020F480302860286820F480207B
:1015700028606068A8B1FFF739FD06460DE02868CD
:1015800040F48030F4E740F480202860F7E700BFA3
:10159000FFF72CFD801B642873D828688003F7D5DB
:1015A0000CE0FFF723FD064605E000BFFFF71EFD38
:1015B000801B6428F0D828688003F7D42078DFF8EF
:1015C000AC8280074FF0000A3ED5A748001D016895
:1015D00011F00C0F08D00068C0F3810002280BD175
:1015E000D9F80000400207D42868800716D5E068C3
:1015F000012800D112E033E1E068B8B10120C8F859
:101600000000FFF7F3FC064605E000BFFFF7EEFC25
:10161000801B0228C0D828688007F7D52868216970
:1016200020F0F80040EAC10028600DE0C8F800A0F2
:10163000FFF7DCFC064604E0FFF7D8FC801B02281D
:101640001FD828688007F7D42078000722D5864F56
:1016500087486169703771B101210160FFF7C6FCED
:10166000064604E0FFF7C2FC801B022809D8386850
:101670008007F7D50EE0C0F800A0FFF7B7FC0646DC
:1016800005E082E0FFF7B2FC801B02287DD83868B5
:101690008007F7D42078400768D5DFF8CCB1002761
:1016A0000BF13C0BDBF80000C0000BD4DBF80010A2
:1016B00041F08051CBF80010DBF80000012700F06A
:1016C000805000906B4E3068C00510D4306840F4F4
:1016D00080703060FFF78AFC009005E0FFF786FC21
:1016E0000099401A022850D83068C005F6D55E4EE1
:1016F000A0686C3601280FD00528306810D020F083
:1017000001003060306820F004003060A068B8B19B
:10171000FFF76CFC00900FE0306840F00100F4E748
:1017200040F004003060F7E7FFF760FC0099411AD1
:1017300041F28830814266D830688007F4D50EE0E7
:10174000FFF754FC009007E0FFF750FC0099411AA6
:1017500041F28830814256D830688007F4D42FB1E6
:10176000DBF8001021F08051CBF80010A069C8B35D
:101770003D49091D0968C1F3810102294AD00228A7
:10178000504607D0C8F8600000E03CE0FFF72EFCB0
:1017900004463BE04746C8F86000FFF727FC0646D2
:1017A00005E000BFFFF722FC801B02282BD8286829
:1017B0008001F7D4D4E907010843A16A2E4A4908F9
:1017C00002EB0141626A41EA8211084394F82C104D
:1017D00040EA0161C9F8001001203866FFF706FCF5
:1017E000044606E03EE000BFFFF700FC001B0228B5
:1017F00009D828688001F7D534E000BFFFF7F6FB71
:10180000001B022802D90320BDE8F88F2868800158
:10181000F4D427E00128F7D0D9F80000E26900F4F9
:10182000800191421CD1226A00F03F01914217D100
:1018300047F6C071626A0140B1EB821F10D1A26A03
:101840004FF0FF3300F4403103EB5202B1EB024F93
:1018500006D194F82C1000F07060B0EB016F01D04D
:101860000120D1E70020CFE70438024000004742C2
:10187000800E4742007000400000FFFF10B5401E80
:10188000B0F1807F01D3012010BD4FF0E0246061F2
:101890000F21601701F085F80020A061072020616A
:1018A000002010BD7047704770B590F83C20012AA9
:1018B0002CD0012480F83C40022280F83D200368AF
:1018C0005A689D6822F070060A6832435A60104BCD
:1018D00002689A420ED0B2F1804F0BD00D4B9A4263
:1018E00008D00D4B9A4205D00C4B9A4202D00C4BBB
:1018F0009A4204D1496825F080031943916080F829
:101900003D40002180F83C10084670BD022070BDAB
:10191000000001400004004000080040000C0040AE
:101920000040014010B5040003D094F83D0010B110
:1019300007E0012010BD002084F83C00204600F0A4
:101940001FF8022084F83D00211D206800F08CFE65
:10195000012084F8460084F83E0084F83F0084F8B3
:10196000400084F8410084F8420084F8430084F881
:10197000440084F8450084F83D00002010BD0000BC
:1019800008B50168274881420FD12748016841F016
:10199000020101600068002200F0020000900421B2
:1019A0001D20FFF797FC1D2036E01F481F4A001D31
:1019B00091420ED1016841F480310160006800223B
:1019C00000F48030009004211820FFF783FC1820D9
:1019D00022E0174A91420ED1016841F400310160C2
:1019E0000068002200F40030009003211920FFF766
:1019F00071FC192010E00F4A914211D1016841F4A5
:101A0000802101600068002200F4802000900621FF
:101A10001A20FFF75FFC1A20BDE80840FFF74CBC16
:101A200008BD000000040040403802400040014072
:101A3000004401400048014070B5044690F83C0065
:101A40000025012817D0012684F83C60022084F884
:101A50003D002068826822F0770222F47F42826093
:101A60000868502838D00DDC20284FD005DC90B312
:101A7000102811D14AE0022070BD302846D04028FD
:101A80000AD13BE060282FD070280DD0B0F5805FE0
:101A900003D0B0F5005F12D0012584F83D6000202E
:101AA00084F83C00284670BDCB68D1E9012120684C
:101AB00000F026FE2068816841F0770109E0CB68DC
:101AC000D1E90121206800F01BFE2068816841F403
:101AD00080418160E1E719E0CA684968206800F048
:101AE00021FE5021206806E0CA684968206800F09D
:101AF0002AFE6021206800F00DFECEE7CA68496822
:101B0000206800F00FFE40212068F4E722680146BB
:101B10001046F0E7704770B50446006801694FF061
:101B20000005C943890715D4C168C943890711D481
:101B3000E91E016101202077206880698007204626
:101B400002D0FFF7E7FF04E000F098F8204600F02D
:101B500096F8257720680169C943490717D4C168F9
:101B6000C943490713D46FF00401016102202077B3
:101B70002068806910F4407F204602D0FFF7CAFF3A
:101B800004E000F07BF8204600F079F82577206823
:101B90000169C943090716D4C168C943090712D4AA
:101BA0006FF008010161042020772068C069800778
:101BB000204602D0FFF7AEFF04E000F05FF82046B9
:101BC00000F05DF8257720680169C943C90617D47C
:101BD000C168C943C90613D46FF010010161082020
:101BE00020772068C06910F4407F204602D0FFF7BC
:101BF00091FF04E000F042F8204600F040F825771D
:101C000020680169C943C90708D1C168C943C90728
:101C100004D1891E0161204600F032F82068016974
:101C2000C943090609D4C168C943090605D46FF040
:101C3000800101612046FFF735FE20680169C94334
:101C4000490609D4C168C943490605D46FF040016B
:101C50000161204600F0A8F820680169C94389069F
:101C60000BD4C168C943890607D46FF02001016114
:101C70002046BDE87040FFF716BE70BD7047704744
:101C80002DE9F04105463F48DFF8FC8000263F4C37
:101C900085421ED160783E4F10B1012808D105E081
:101CA0004FF400513846FFF793F901E0C8F8B462E9
:101CB000D8F81012404601290BD1A17811B10129A1
:101CC00007D104E040213846FFF782F901E0C0F86F
:101CD000986230480127854220D1032020702E4889
:101CE0000088012801D010B103E0042000E00520A5
:101CF0002070D8F81012404601290AD12749D1F89E
:101D0000301211B1012904D102E00221217000E05A
:101D10002770D0F83002012813D066702048854221
:101D200002D1E77000F05CFE1E48854228D1FEF724
:101D30009FFB2078062823D2DFE800F02205071059
:101D4000151A6770EAE7A77000E0A6700220FEF798
:101D5000D7FBBDE8F0410320FEF7D2BB0020FEF721
:101D6000CFFB022008E00020FEF7CAFB042003E0BE
:101D70000020FEF7C5FB0320BDE8F04100F0E2BB08
:101D8000BDE8F081AC01002000804042000000204E
:101D900000040240F401002038000020000040420E
:101DA0003C0200208402002070477047704700000A
:101DB000F8B5016804460868CA684B6910F00F0F4F
:101DC0004FF0000559D003F0010602F49077374335
:101DD00065D0C10705D0D10503D5216C41F00101C3
:101DE0002164410705D5D90703D0216C41F00201D8
:101DF0002164810705D5D90703D0216C41F0040186
:101E00002164010707D502F02001314303D0216C82
:101E100041F008012164216C00293AD0800604D5E4
:101E2000900602D5204600F0CFFC20684069216C66
:101E3000C0F38010090700D460B3204600F09DFC79
:101E400020684069400621D52068143050E8001F02
:101E500021F0400140E80012002AF5D1A06BA8B1A2
:101E60006C490165A06BFEF7E6FD002811D0A06B60
:101E7000016D01B0BDE8F040084783060FD5930619
:101E80000DD52046BDE8F84000F09EBC2046FFF787
:101E90008DFFF8BD2046FFF789FF2564F8BD266B4E
:101EA0002023012E79D1C60677D5D60675D50868C8
:101EB000486800904869400640D5A16B08684068B2
:101EC0000004000CEAD0A28D8242E7D9E085C869FF
:101ED000B0F5807F2DD020680C3050E8001F21F431
:101EE000807140E80012002AF5D12068143050E8D3
:101EF000001F21F0010140E80012002AF5D12068FE
:101F0000143050E8001F21F0400140E80012002A80
:101F1000F5D184F83E30256320680C3050E8001F6E
:101F200021F0100140E80012002AF5D1A06BFEF765
:101F300039FDA08DE18D401A81B229E0A08DE18D9F
:101F4000401A81B2E08D0028A8D00029A6D02068D0
:101F50000C3050E8002F22F4907240E80026002E4A
:101F6000F5D12068143050E8002F22F0010240E83B
:101F70000026002EF5D184F83E30256320680C3011
:101F800050E8002F22F0100240E80023002BF5D18A
:101F90002046FFF70AFFF8BDFFE705062BD515061B
:101FA00029D594F83D002128F5D1A068B0F5805FCF
:101FB00001D12069B0B1206A411C216221680078FA
:101FC0004860E08C401E0004000CE084E3D12068EF
:101FD000C16821F08001C1602068C16841F0400102
:101FE000C160D8E7206A0088C0F308004860206A12
:101FF000801C2062E5E74006CDD55006CBD5CA68E7
:10200000204622F04002CA6084F83D3000F075F8A6
:10201000C1E700006B27000870B5040004D094F8F5
:102020003D00002510B106E0012070BD84F83C5051
:10203000204600F023F8242084F83D002068C16881
:1020400021F40051C160204600F01EFC20680169A7
:1020500021F4904101612068416921F02A01416128
:102060002068C16841F40051C1602564202084F8D3
:102070003D0084F83E00002070BD000010B586B021
:10208000044614216846FEF7DBF8184920688842A8
:1020900029D117480021026842F01002026000684E
:1020A00000F01000059012481438026842F0010256
:1020B0000260006800F0010005904FF4C0600090DD
:1020C0000220CDE901010320039007200490694616
:1020D0000848FEF78DFE002202212520FFF7FAF8BE
:1020E0002520FFF7E9F806B010BD00000010014000
:1020F000443802400000024070477047FEE700008D
:1021000070B500240A4E25461420FEF719FED6F8B5
:102110000002012805D06D1CEDB2052DF4D9002078
:1021200070BD641CE4B20025642CEDD3012070BDA9
:10213000000040427FB500213D480091019102918D
:102140003A4A0391026001244FF440320461C0E92D
:102150000121047680F82010364AC0E90A210925B9
:10216000C561C16080F830404461FEF700FB08B1F2
:10217000FEF746FA00940194062469462C4802941E
:10218000FEF740FA08B1FEF73BFA022000900190FA
:1021900069462748FEF736FA08B1FEF731FA032000
:1021A0000090019069462248FEF72CFA08B1FEF72C
:1021B00027FA04200090019069461D48FEF722FA94
:1021C00008B1FEF71DFA05200090019069461848F5
:1021D000FEF718FA08B1FEF713FA0094694614489E
:1021E0000194FEF70FFA08B1FEF70AFA07200090F3
:1021F000019069460E48FEF705FA08B1FEF700FAAD
:1022000008200090019069460948FEF7FBF908B1E3
:10221000FEF7F6F90095694605480195FEF7F2F9D3
:10222000002801D0FEF7ECF97FBD0000002001403E
:10223000B00000200100000F094808B5016841F412
:10224000800101600068002200F4800000900521F8
:102250003820FFF73FF8BDE808403820FFF72CB8DA
:10226000303802402DE9F04786B014216846FDF76A
:10227000E7FF41480024016841F004010160016862
:1022800001F004010591016841F00101016001685C
:1022900001F001010591016841F00201016000684F
:1022A000364F00F00200059000224FF400513846EE
:1022B000FEF796FE012291033846FEF791FEDFF805
:1022C000C0A042F2E018012241465046FEF788FEC7
:1022D0004FF4C04001260225CDE90006CDE90254A5
:1022E00069463846FEF784FD4FF488100096CDE924
:1022F0000104DFF8909069464846FEF779FD142006
:1023000000904FF40410CDE9010469465046FEF7F1
:102310006FFDEF02009769465046CDE90145FEF793
:1023200067FDCDE90254CDE9008669465046FEF7C7
:102330005FFD009769464846CDE90145FEF758FD27
:10234000002201210620FEF7C5FF0620FEF7B4FF9C
:10235000002202210820FEF7BDFF0820FEF7ACFF97
:10236000002201210A20FEF7B5FF0A20FEF7A4FF94
:1023700006B0BDE8F0870000303802400008024097
:1023800000040240000002400D4810B50B490160F6
:102390000C49416000214FF480428160C0E9031282
:1023A00041618161C1610162FEF726FE002803D010
:1023B000BDE81040FEF724B910BD000000580040F1
:1023C00058010020A08601000B4810B509490160A2
:1023D00063214160002140F2CF72C0E90212016125
:1023E0008161FFF79FFA002803D0BDE81040FEF797
:1023F00007B910BD004401403C0200200B4810B555
:10240000094901606321416000214CF24F32C0E96B
:10241000021201618161FFF785FA002803D0BDE84F
:102420001040FEF7EDB810BD0048014084020020C6
:1024300010B586B0002417480094019402940394C8
:10244000049413490594016040F2E731C0E9011496
:102450004CF25031C0E903148461FFF763FA08B10C
:10246000FEF7CEF84FF48050009069460948FFF718
:10247000E3FA08B1FEF7C4F8049404A905480594EA
:10248000FFF712FA002801D0FEF7BAF806B010BD27
:1024900000040040AC0100201FB50021104800914D
:1024A000019102910D4A0391026040F2E732C0E9C6
:1024B0000121521CC0E903218161FFF733FA08B101
:1024C000FEF79EF84FF48050009069460448FFF7ED
:1024D000B3FA002801D0FEF793F81FBD0040014079
:1024E000F40100200C4810B50A4901604FF4E121C5
:1024F0004160002181600C22C160C0E90412816149
:10250000C161FFF789FD002803D0BDE81040FEF748
:1025100077B810BD00100140CC020020FEE700009B
:1025200002490020C1F8B402704700000000414297
:1025300002490120C1F8B402704700000000414286
:10254000FEE7000000220D4906280AD2DFE800F06D
:10255000030A0D071013C1F89822C1F89C22C1F894
:10256000A0227047C1F898227047C1F89C2270479A
:10257000C1F8A022F6E7C1F8A022F6E700804042A9
:102580007047704702490020C1F89402704700006C
:1025900000804042FEF736BE30B593B03021684629
:1025A000FDF74EFE14210CA8FDF74AFE1C4800243E
:1025B000016841F080510160006800F08050119086
:1025C0001848016841F4404101600068022500F4A8
:1025D0004040119001200390102000950695049032
:1025E000CDE90740C820CDE9090504200B906846D5
:1025F000FEF78EFF08B172B6FEE70F20CDE90C059D
:102600004FF48050CDE90E4003210CA81094FEF742
:1026100093FE002801D072B6FEE713B030BD000073
:1026200040380240007000400248016841F47001E7
:102630000160704788ED00E00148FFF76CBA0000C8
:10264000F40100200148FFF766BA00008402002070
:102650000148FFF760BA00003C0200200148FFF784
:102660005ABA0000AC010020F0B502681D4B1E4CA8
:102670009F031E4D1E4E984207D0B84205D0A0427F
:1026800003D0A84201D0B04204D122F0700C4A68B5
:1026900042EA0C02984210D0B8420ED0A0420CD0B0
:1026A000A8420AD0B04208D0124CA04205D0124C29
:1026B000A04202D0114CA04203D122F44074CA6857
:1026C00022434C6922F08002224302608A68C2627F
:1026D0000A688262984201D109690163012141615E
:1026E000F0BD000000000140000400400008004070
:1026F000000C0040004001400044014000480140FF
:1027000010B5846842EA032224F47F440A4322433A
:10271000826010BD826822F070020A4342F0070115
:102720008160704710B5036A046A24F001040462F2
:10273000846924F0F00444EA021423F00A020A43F4
:102740008461026210BD10B5036A23F010030362B6
:102750008369046A23F4704343EA023224F0A0033D
:1027600043EA01118261016210BD10B5806B002146
:10277000C185C184FFF71AFB10BD01680C3151E817
:10278000002F22F4907241E80023002BF5D101685C
:10279000143151E8002F22F0010241E80023002B00
:1027A000F5D1016B012909D101680C3151E8002FE5
:1027B00022F0100241E80023002BF5D1202180F8FF
:1027C0003E1000210163704708B590F83E102229A1
:1027D00001D0022008BD82684FF480539A4201D193
:1027E000016921B1816A9A421BD04AB10AE00268AC
:1027F000816A5268C2F308020A80816A891C08E073
:10280000026972B10268526802F07F020A70816A3E
:10281000491C8162C18D491E0904090CC18503D080
:1028200019E002685268F1E70168CA6822F02002E4
:10283000CA600168CA6822F48072CA6001684A6985
:1028400022F001024A61202180F83E10016B01292B
:1028500003D0FFF751FC002008BD0021016301688F
:102860000C3151E8002F22F0100241E80023002B28
:10287000F5D101680A68D20602D50A684968009154
:10288000818DFFF792FAE6E770B5044600680169AA
:10289000E26821F44051114301612169A068E269B5
:1028A00008436169114308432168CA6849F20C630F
:1028B0009A430243CA6020684169A26921F44071C9
:1028C0001143416131492068884202D03049884231
:1028D00002D1FEF7DBFD01E0FEF7C8FDE26900234F
:1028E000192164253226B2F5004F626828D0A0FB7A
:1028F0000101930F9200FDF76BFC0146B0FBF5F070
:102900006FF01802504301EB800006EB0010B0FBA3
:10291000F5F000F0F002B1FBF5F002EB0012B1FBB4
:10292000F5F06FF01803584301EB800006EB001040
:10293000B0FBF5F000F00F0021681044886070BD16
:10294000A0FB010192185B41FDF742FC0146B0FB80
:10295000F5F00201B1FBF5F06FF01803584301EBFD
:10296000800006EBC000B0FBF5F000F0F80002EBD1
:102970004002B1FBF5F0584301EB800006EBC000CC
:10298000B0FBF5F000F00700D6E7000000100140B2
:10299000001401400148FFF70BBA0000CC020020F0
:1029A000FEE70907090E002804DB00F1E02080F8AB
:1029B0000014704700F00F0000F1E02080F8141DB3
:1029C000704702E008C8121F08C1002AFAD17047F8
:1029D0007047002001E001C1121F002AFBD170479F
:1029E00070B51B491B4A002051F8203042F82030B6
:1029F000401C0828F8DB086A1749086015490020C0
:102A000011F1240132F8303000EB40041D091B01A4
:102A100003F0F00602EBC0030D559D880C44C5F38E
:102A200003231E436670401CA5700428EADB0A4895
:102A30000022001D8273C27302228B1813F8023C1D
:102A40008354847B521C234483730E2AF5DB70BDB0
:102A5000600000201003002014000020FEF7DAFBC5
:102A6000FFF79AFDFFF7FEFBFFF764FBFFF78CFC17
:102A7000FFF738FDFFF7A8FCFFF7C0FCFFF7D8FC15
:102A8000FFF7DAFBFFF708FD092202490248FDF7CC
:102A9000F7FEFEE73C000020B00000200006101604
:102AA00000061016000000000000000001020304F0
:102AB000060708090000000001020304DC2A0008E0
:102AC000000000203C000000C2290008182B00086C
:102AD0003C00002024070000D2290008000000006C
:102AE0000100000010000000000000000024F400BD
:102AF0000000000055AA00000000000000000000D7
:102B00000000000000000000000000006509470907
:082B10000609E80800000000BE
:040000050800019955
:00000001FF
