:020000040800F2
:10000000C0060020AD0100085D2C0008DD210008BD
:10001000352C0008A5050008713400080000000018
:10002000000000000000000000000000612C00083B
:10003000D3060008000000005F2C0008C12C000857
:10004000C7010008C7010008C7010008C701000870
:10005000C7010008C7010008C7010008C701000860
:10006000C7010008C7010008C7010008C701000850
:10007000C7010008C7010008C7010008C701000840
:10008000C7010008C7010008C70100080000000000
:10009000000000000000000000000000C701000890
:1000A000C7010008B92D0008A92D0008C7010008E4
:1000B000C7010008C7010008C7010008C701000800
:1000C000C7010008C7010008C7010008C7010008F0
:1000D000C701000861340008C701000800000000E3
:1000E000D5060008C7010008C7010008000000008D
:1000F000000000000000000000000000C701000830
:1001000000000000C7010008C7010008C70100087F
:1001100000000000000000000000000000000000DF
:10012000A9050008C7010008C7010008C7010008A9
:10013000C7010008000000000000000000000000EF
:10014000000000000000000000000000C7010008DF
:10015000C7010008C7010008B9050008C701000869
:10016000C7010008C70100080000000000000000EF
:10017000000000000000000000000000000000007F
:1001800000000000C701000800000000000000009F
:10019000C7010008C7010008DFF80CD000F07AF8AA
:1001A00000480047CF350008C006002006488047B9
:1001B00006480047FEE7FEE7FEE7FEE7FEE7FEE74C
:1001C000FEE7FEE7FEE7FEE78D2D00089901000837
:1001D0002DE9F05F0546002092469B46884606467C
:1001E000814640241BE0284641464746224600F00F
:1001F00041F853465A46C01A914110D31146184649
:10020000224600F028F82D1A67EB01084F462246D7
:100210000120002100F01FF817EB00094E41201EBD
:10022000A4F10104DFDC484631462A464346BDE8D6
:10023000F09FD2B201E000F8012B491EFBD27047BB
:100240000022F6E710B513460A4604461946FFF7A2
:10025000F0FF204610BD202A04DB203A00FA02F10C
:10026000002070479140C2F1200320FA03F31943A4
:1002700090407047202A04DB203A21FA02F0002146
:10028000704721FA02F3D040C2F1200291400843A6
:1002900019467047064C074D06E0E06840F0010340
:1002A00094E8070098471034AC42F6D3FFF778FF84
:1002B0006C4200088C42000810B50922024903482C
:1002C00000F098FB10BD00006402002088000020B0
:1002D00070B50546AC6B206C00F0500050BB206C34
:1002E00040F4007020642068806800F04050E8B955
:1002F000207ED8B92068C06A00F4700020B1206860
:10030000806800F4806088B92068406820F0200090
:1003100021684860206C20F480702064206C00F418
:10032000805018B9206C40F001002064204600F095
:10033000ABFA0BE0206C00F0100018B1204600F082
:10034000A5FA03E0A06BC16C2846884770BD70B564
:100350000546AC6B40202064606C40F00400606493
:10036000204600F093FA70BD70B50446A56B284690
:1003700000F08BFA70BD000055494A6822F4403203
:100380004A604A6843681A434A600268526822F425
:10039000807203685A6002685368026943EA022265
:1003A00003685A600268526822F0407203685A601B
:1003B0000268526883681A4303685A600268926848
:1003C00022F4006203689A6002689268C3681A4364
:1003D00003689A603F4B826A9A4218D0026892681A
:1003E00022F0706203689A6002689268836A1A4316
:1003F00003689A600268926822F0405203689A602B
:1004000002689268C36A1A4303689A600BE0026844
:10041000926822F0706203689A600268926822F023
:10042000405203689A600268926822F002020368F0
:100430009A6002689368027E43EA420203689A6007
:100440002022125CA2B10268526842F40062036882
:100450005A600268526822F4604203685A60026877
:100460005368426A521E43EA423203685A6005E00A
:100470000268526822F4006203685A600268D26A15
:1004800022F470020368DA620268D36A828B521E19
:1004900043EA02520368DA620268926822F4007248
:1004A00003689A600268936890F8302043EA422219
:1004B00003689A600268926822F4806203689A6016
:1004C00002689368426943EA822203689A6070472F
:1004D000002301400100000F10B5002016490880DC
:1004E0001648008881B2164802780078401C144BE8
:1004F0001870144820F81210184600780A2819D1EC
:1005000000201946087000BF09E00E4931F81010AC
:10051000094A12881144084A1180411CC8B20A28AD
:10052000F3DB054800880A2190FBF1F002490880BE
:1005300000F00AF810BD000012000020300000207A
:10054000100000205002002010B512480488124804
:100550000088844207DA11480088844208DD104888
:100560000088012804D101200D49088001F092FF84
:100570000A480088844206DD07480088844207DA7A
:100580000748008820B900200549088001F0AEFF27
:1005900010BD0000120000201400002016000020F2
:1005A0001800002000BFFEE710B5024800F0DCFA9A
:1005B00010BD0000D000002010B5024800F0D4FAB1
:1005C00010BD0000F0010020014608781038182303
:1005D000B0FBF3F20848805CC865032A05D90868B7
:1005E0006FF30900001D886503E008686FF30900D8
:1005F0008865886D70470000FC41000801460020B6
:100600008A6A8B69CBB932B1012A0DD0022A03D094
:10061000032A10D10EE000BFCB6A03F08073B3F160
:10062000807F00D1012007E0CB6AB3F1C07F00D109
:10063000012001E000E000BF34E08B69B3F5005F0A
:100640001AD132B1012A07D0022A03D0032A11D1CC
:100650000AE000BF01200EE0CB6A03F08073B3F123
:10066000807F00D1012006E0CB6AB3F1C07F00D1CA
:10067000012000E000BF15E032B1012A05D0022AB6
:1006800004D0032A0CD103E000BF00BF012008E022
:10069000CB6A03F08073B3F1807F00D1012000E0CA
:1006A00000BF00BF704730B50468246824F480247C
:1006B00005682C60046863608468402C04D1046879
:1006C000A2600468E16003E00468A1600468E2607D
:1006D00030BD704710B54FF4004000F051FC10BD24
:1006E0007047000038B502460020009000BF92F825
:1006F0003C00012801D1022038BD012082F83C00D5
:1007000000BF0868092816D91068C0680C780A3C30
:1007100004EB44050724AC40A0431468E0600C7867
:100720000A3C04EB44048868A0401468E468204351
:100730001468E06013E0106800690C7804EB44056D
:100740000724AC40A043146820610C7804EB4404F7
:100750008868A040146824692043146820614868B0
:10076000072817D21068406B0C79641E04EB8405CF
:100770001F24AC40A04314686063088880B20C79E1
:10078000641E04EB8404A0401468646B2043146866
:10079000606331E048680D2817D21068006B0C794F
:1007A000E41F04EB84051F24AC40A04314682063BD
:1007B000088880B20C79E41F04EB8404A04014681C
:1007C000246B20431468206316E01068C06A0C791B
:1007D0000D3C04EB84051F24AC40A0431468E06288
:1007E000088880B20C790D3C04EB8404A0401468A6
:1007F000E46A20431468E0621E4B1F4C1068A0425C
:100800000AD10868122807D1586820F400005860FF
:10081000586840F480005860174C1068A04222D1FC
:10082000164C0868A04202D0086811281BD15868ED
:1008300020F480005860586840F4000058600F4C65
:100840000868A0420FD10E4800680E4CB0FBF4F0CF
:1008500000EB80004000009002E00098401E0090F5
:1008600000980028F9D100BF002082F83C0000BFAA
:1008700000BF41E7002301400020014012000010AA
:100880000C00002040420F00704770477047000086
:1008900070B5044600250CB9012070BD1549A06A49
:1008A000884200D000BF206C30B9204600F024F808
:1008B0000020606484F83C00206C00F0100088B9CF
:1008C000206C20F4885040F0020020642046FFF79E
:1008D00053FD00206064206C20F0020040F0010015
:1008E000206400E0012500BF002084F83C0000BF28
:1008F0002846D2E70100000F10B586B00446142147
:1009000001A8FFF79DFC35492068884263D100BFEC
:10091000002000903248006840F480703049086040
:100920000846006800F48070009000BF00BF00BF60
:10093000002000902A481438006840F0010028493F
:10094000143908600846006800F00100009000BFFC
:1009500000BF00BF002000900846006840F0020081
:1009600008600846006800F00200009000BF00BF69
:10097000FE200190032002900020039001A9194855
:1009800000F00CFB0320019002900020039001A9CD
:10099000154800F003FB1548154908600020486021
:1009A000002113488160C1604FF4806101618900BA
:1009B0004161890081618911C1614902016200219F
:1009C000416200F0F1F908B1FFF78AFE00BF084864
:1009D000A063846300BF06B010BD0000002001408A
:1009E000443802400000024000040240106402400B
:1009F000D0000020F8B504460D46164600200090B1
:100A000000BF94F83C00012801D10220F8BD01206C
:100A100084F83C0000BF2068806800F00100A0B9A5
:100A20002068806840F00100216888603D480068C7
:100A30003D49B0FBF1F000EB4000009002E000986F
:100A4000401E009000980028F9D12068806800F0CE
:100A50000100002864D0206C40F20161884340F41A
:100A6000807020642068406800F4806028B1206CA9
:100A700020F4005040F480502064206C00F480503A
:100A8000B0F5805F04D1606C20F00600606401E086
:100A90000020606400BF002084F83C0000BF234FAA
:100AA0002348A16BC8632348A16B08642248A16B4B
:100AB000C8646FF02200216808602068406840F038
:100AC0008060216848602068806840F480702168F8
:100AD0008860226802F14C0133462A46A06B00F080
:100AE000D9F9786800F01F0058B92068806800F0D4
:100AF000405028B92068806840F0804021688860B4
:100B00000EE00E49206888420AD12068806800F013
:100B1000405028B92068806840F080402168886093
:100B2000002073E70C00002040420F00002301402A
:100B3000D1020008690300084F03000800200140AB
:100B4000014691F83500022803D080204865012035
:100B50007047052081F835000868006820F0010022
:100B60000A6810600020F3E7F8B504460020009002
:100B70008C4800684FF41651B0FBF1F7A56D2E6854
:100B800094F85C1008208840304098B120680068D4
:100B900000F0040070B12068006820F004002168B3
:100BA000086094F85C1008208840A860606D40F0F0
:100BB0000100606594F85C1001208840304068B105
:100BC0002068406900F0800040B194F85C1001207A
:100BD0008840A860606D40F00200606594F85C1089
:100BE00004208840304068B12068006800F00200AE
:100BF00040B194F85C1004208840A860606D40F01B
:100C00000400606594F85C1010208840304078B390
:100C10002068006800F0080050B394F85C101020C1
:100C20008840A8602068006800F4802080B12068B7
:100C3000006800F4002028B9206CC8B12046216C5F
:100C4000884715E0A06C98B12046A16C88470FE05A
:100C50002068006800F4807028B92068006820F0DF
:100C6000080021680860206C10B12046216C88477C
:100C700094F85C10202088403040002865D020681F
:100C8000006800F0100000285FD094F85C1020206D
:100C90008840A86094F83500052828D120680068AD
:100CA00020F01600216808602068406920F080006C
:100CB00021684861206C08B9A06C28B120680068E0
:100CC00020F008002168086094F85C103F208840FC
:100CD000A86000BF002084F8340000BF012084F821
:100CE0003500206D10B12046216D8847F8BD206881
:100CF000006800F4802080B12068006800F40020C3
:100D000028B9606C10B12046616C88471DE0E06B2B
:100D1000D8B12046E16B884717E02068006800F4EE
:100D2000807068B92068006820F0100021680860B1
:100D300000BF002084F8340000BF012084F8350093
:100D4000E06B10B12046E16B8847606D38B3606D91
:100D500000F00100F0B1052084F83500206800683B
:100D600020F001002168086000BF0098401C00903E
:100D7000B84200D905E02068006800F001000028B2
:100D8000F3D100BF00BF002084F8340000BF012071
:100D900084F83500E06C10B12046E16C884700BF54
:100DA000A4E700000C0000202DE9F04104460025D6
:100DB00000F0ECF9074614B90120BDE8F081606A43
:100DC00000B100BF00BF002084F8340000BF022043
:100DD00084F835002068006820F001002168086070
:100DE0000AE000F0D3F9C01B052805D92020606572
:100DF000032084F83500E0E72068006800F0010077
:100E00000028EED12068056821480540D4E9010199
:100E10000843E16808432169084361690843A169FF
:100E20000843E1690843216A08430543606A0428CE
:100E300003D1D4E90B01084305432068056020680D
:100E4000456925F00705606A0543606A04280DD1ED
:100E5000A06A0543E06A48B12046FFF7CFFB28B1FE
:100E600040206065012084F83500A6E720684561D0
:100E70002046FFF7A9FB064694F85C103F20884007
:100E8000B06000206065012084F83500002094E700
:100E90003F8010F02DE9F04704460D4616461F46E8
:100EA0004FF00008D4F8589000BF94F8340001289F
:100EB00002D10220BDE8F087012084F8340000BF91
:100EC00094F83500012825D1022084F8350000204F
:100ED00060653B46324629462046FFF7E4FB94F81E
:100EE0005C103F208840C9F808002068006840F086
:100EF000160021680860206C28B12068006840F066
:100F00000800216808602068006840F0010021683E
:100F1000086006E000BF002084F8340000BF4FF0F6
:100F200002084046C6E7000070B5044600F02EF9FE
:100F300006462546681C10B104480078054400BFE9
:100F400000F024F9801BA842FAD370BD08000020ED
:100F500010B50446B4F5004F0ED11420FFF7E4FF9E
:100F60004FF40041054800F003F928B101F0A8FA58
:100F700001F062FE01F0A8FE10BD00000004024076
:100F800010B5044604480068204020B102480460BF
:100F90002046FFF7DDFF10BD143C0140F8B50346C5
:100FA0000A460025002400200021CDE0012606FA93
:100FB00001F5166806EA0504AC4273D15668012EA5
:100FC00008D05668022E05D05668112E02D05668F9
:100FD000122E13D198684F000326BE40B0434F0035
:100FE000D668BE4030439860586801268E40B043B2
:100FF0001679C6F300168E4030435860D8684F000B
:101000000326BE40B0434F009668BE403043D860D0
:101010005668022E02D05668122E13D1CF0803F163
:10102000200656F827004E07F70E0F26BE40B043A5
:101030004F07FF0E1669BE403043CF0803F120066C
:1010400046F8270018684F000326BE40B0431679C3
:1010500006F003064F00BE4030431860566806F0A5
:101060008056B6F1805F6ED100BF00260096384EE4
:10107000366846F48046364F3E603E46366806F493
:101080008046009600BF00BF324E8F0856F82700FA
:101090008E07370F0F26BE40B0432F4EB34202D10A
:1010A000002615E04FE02D4EB34201D101260FE09E
:1010B0002B4EB34201D102260AE02A4EB34201D19F
:1010C000032605E0284EB34201D1042600E007269E
:1010D0008F073F0FBE4030431E4E8F0846F8270053
:1010E000224E3068A043566806F48036B6F5803F3D
:1010F00000D120431D4E3060361D3068A043566835
:1011000006F40036B6F5003F00D12043174E361DD9
:101110003060361D3068A043566806F48016B6F578
:10112000801F00D12043114E08363060361D3068D4
:10113000A043566806F40016B6F5001F00D1204300
:101140000A4E0C363060491C1029FFF42FAFF8BD51
:1011500044380240083801400000024000040240C8
:1011600000080240000C024000100240003C014018
:10117000024613690B400BB1012000E000207047CC
:101180000AB1816101E00B04836170470148006886
:1011900070470000000000200348006803490978F8
:1011A0000844014908607047000000200800002042
:1011B00010B50D48006840F400700B4908600846FF
:1011C000006840F4806008600846006840F4807061
:1011D0000860032000F0A2F8002000F007F800F0FB
:1011E0002BF8002010BD0000003C024070B5044602
:1011F0000E4800784FF47A71B1FBF0F00C490968A1
:10120000B1FBF0F5284600F049FC08B1012070BDA3
:10121000102C07D200222146501E00F041F805484C
:10122000046001E00120F2E70020F0E70800002060
:101230000C0000200400002008B500BF0020009032
:101240000E48006840F480400C4908600846006879
:1012500000F48040009000BF00BF00BF002000905D
:10126000081F006840F08050091F086008460068A9
:1012700000F08050009000BF00BF08BD443802401D
:1012800001460846002809DB00F01F0301229A40AE
:1012900043099B0003F1E023C3F8002100BF70471E
:1012A0002DE9F05F80460D461646002702F0E2F871
:1012B000074639462A46334601F00700C0F1070ABF
:1012C000BAF1040F02D94FF0040A01E0C0F1070A95
:1012D000D14600F1040ABAF1070F02D24FF0000A1A
:1012E00001E0A0F1030AD4464FF0010A0AFA09FA14
:1012F000AAF1010A0AEA020A0AFA0CFA4FF0010BF3
:101300000BFA0CFBABF1010B0BEA030B4AEA0B04E3
:101310002146404602F0B6F8BDE8F09F00BF00F05D
:101320000702064B19684FF6FF031940044B0B43A5
:1013300043EA0221014B196000BF70470CED00E049
:101340000000FA05024949688143014A516070472B
:1013500000700040012001490862704700000E4201
:10136000024949680143014A5160704700700040DA
:101370000748006840F00200054908600548006819
:1013800040F004000349086000BF00BF30BF704751
:101390000070004010ED00E070B504460D460CB939
:1013A000012070BD5848006800F00F00A84209D223
:1013B00055490D700846006800F00F00A84201D0A2
:1013C0000120EEE7207800F0020002281DD12078ED
:1013D00000F00400042805D14C48006840F4E050B7
:1013E0004A490860207800F00800082805D14748DD
:1013F000006840F46040454908604448006820F0B7
:10140000F000A168084341490860207800F001001D
:10141000A8B36068012807D13C4808380068C0F3C9
:101420004040B8B90120BCE76068022802D060687B
:10143000032807D1354808380068C0F3406048B930
:101440000120AEE7314808380068C0F3400008B911
:101450000120A6E72D48006820F0030061680843DA
:101460002A490860FFF792FE064609E0FFF78EFE64
:10147000801B41F28831884202D9032091E707E0BE
:101480002248006800F00C006168B0EB810FEDD1DC
:101490001D48006800F00F00A84209D91A490D70D4
:1014A0000846006800F00F00A84201D0012078E74C
:1014B000207800F00400042807D11448006820F4C4
:1014C000E050E168084311490860207800F0080006
:1014D000082808D10D48006820F46040216940EADE
:1014E000C1000A49086000F03FF808490968C1F3E3
:1014F0000311074A515CC840064908600648006865
:10150000FFF774FE00204CE7003C02400838024020
:10151000044200080C00002004000020014800687C
:10152000704700000C00002000B5FFF7F7FF0449EA
:101530000968C1F38221034A515CC84000BD000024
:10154000083802401442000800B5FFF7E7FF0449DD
:101550000968C1F34231034A515CC84000BD000034
:1015600008380240144200082DE9F0470024002505
:101570000026A1462548006800F00C0020B1042890
:1015800005D008283AD105E0DFF8849039E0DFF88B
:10159000809036E01D48001F006800F03F041B48A3
:1015A000001F006800F4800078B119481749091F2E
:1015B0000968C1F38811A0FB01700146224600238F
:1015C0003846FEF705FE05460EE011480F49091F93
:1015D0000968C1F38811A0FB01700146224600236F
:1015E0003846FEF7F5FD05460848001F0068C0F3C1
:1015F0000140401C4600B5FBF6F902E0DFF8109010
:1016000000BF00BF4846BDE8F08700000838024030
:101610000024F400F8B504460CB90120F8BD207888
:1016200000F00100002874D0F948006800F00C00B8
:1016300004280DD0F648006800F00C00082813D1EB
:10164000F348001F006800F48000B0F5800F0BD154
:10165000EF4808380068C0F34040002859D060685F
:10166000002856D10120D9E700BF6068B0F5803F5F
:1016700008D1E7480838006840F48030E449083968
:1016800008601EE06068B0F5A02F0DD1E048083872
:10169000006840F48020DE49083908600846006888
:1016A00040F4803008600CE0D9480838006820F425
:1016B0008030D749083908600846006820F4802047
:1016C000086000BF606890B1FFF760FD054606E066
:1016D000FFF75CFD401B642801D903209EE7CC483E
:1016E00008380068C0F340400028F1D011E0FFF74F
:1016F0004DFD054606E0FFF749FD401B642801D972
:1017000003208BE7C24808380068C0F34040002837
:10171000F1D1207800F0020002285FD1BC480068B7
:1017200000F00C0058B1BA48006800F00C0008281E
:101730001CD1B748001F006800F48000B0B9B4485D
:1017400008380068C0F3400020B1E068012801D0EB
:10175000012063E7AE480838006820F0F8002169EE
:1017600040EAC100AA490839086037E0E06800B3E0
:101770000120A8490860FFF709FD054606E0FFF7CC
:1017800005FD401B022801D9032047E7A04808387F
:101790000068C0F340000028F1D09D480838006878
:1017A00020F0F800216940EAC10099490839086031
:1017B00014E0002097490860FFF7E8FC054606E0C2
:1017C000FFF7E4FC401B022801D9032026E79048DC
:1017D00008380068C0F340000028F1D1207800F0FC
:1017E000080008282CD16069A8B101208A49086046
:1017F000FFF7CCFC054606E0FFF7C8FC401B0228BB
:1018000001D903200AE782486C300068C0F3400029
:101810000028F1D014E000207F490860FFF7B6FCF3
:10182000054606E0FFF7B2FC401B022801D9032061
:10183000F4E677486C300068C0F340000028F1D12E
:10184000207800F00400042870D100277048383058
:10185000006800F0805090B900BF002000906C48F4
:101860003830006840F080506949383108600846D7
:10187000006800F08050009000BF00BF012767485B
:10188000006800F48070B0B96448006840F480706B
:1018900062490860FFF77AFC054606E0FFF776FC30
:1018A000401B022801D90320B8E65C48006800F418
:1018B00080700028F2D000BFA068012808D15448E9
:1018C0006830006840F001005149683108601DE04F
:1018D000A06805280DD14E486830006840F004002B
:1018E0004B49683108600846006840F00100086014
:1018F0000CE047486830006820F001004449683136
:1019000008600846006820F00400086000BFA06876
:10191000A8B1FFF73BFC054609E0FFF737FC401B89
:1019200041F28831884202D9032077E626E0384820
:1019300068300068C0F340000028EED013E0FFF7E5
:1019400025FC054608E0FFF721FC401B41F28831E9
:10195000884201D9032061E62D4868300068C0F351
:1019600040000028EFD1012F07D129483830006806
:1019700020F0805026493831086000BFA069002857
:1019800045D02348006800F00C0008285DD0A0690D
:10199000022845D100201F490866FFF7F7FB0546DE
:1019A00006E0FFF7F3FB401B022801D9032035E6D0
:1019B000174808380068C0F340600028F1D1D4E926
:1019C00007010843616A40EA81110122A06AC2EB63
:1019D000500041EA00412C20005D41EA00600C49C2
:1019E000091F086001200B490866FFF7CFFB054679
:1019F00006E0FFF7CBFB401B022801D903200DE6D0
:101A0000034808380068C0F340600028F1D03FE088
:101A10000838024000004742800E474200700040F4
:101A200000201C490866FFF7B1FB054606E0FFF7FA
:101A3000ADFB401B022801D90320EFE516480068E2
:101A4000C0F340600028F2D122E0A069012800D153
:101A5000E4E511480830066806F48001E069814237
:101A600014D106F03F01206A81420FD147F6C070C1
:101A70003040616A884209D106F44031A06A81424F
:101A800004D106F07061E06A814201D00120C5E511
:101A90000020C3E5000047420038024070B504460C
:101AA0002546681EB0F1807F01D301200FE0681E3B
:101AB0004FF0E02148610F214FF0FF3001F0E2FCD0
:101AC00000204FF0E021886107200861002070BDF0
:101AD0007047704710B504460CB9012010BD94F84A
:101AE0003D0028B9002084F83C00204600F00CF8A6
:101AF000022084F83D00211D206801F065F90120D5
:101B000084F83D000020E9E738B504461C49206808
:101B1000884218D100BF002000901A48006840F4A5
:101B20000030184908600846006800F40030009052
:101B300000BF00BF002203211920FFF7B1FB1920CD
:101B4000FFF79EFB1BE010492068884217D100BFB9
:101B5000002000900B48006840F48020094908608C
:101B60000846006800F48020009000BF00BF0022FB
:101B700006211A20FFF794FB1A20FFF781FB38BDDE
:101B800000440140443802400048014001460868D2
:101B9000C06840F001000B68D8600868806800F0F9
:101BA0000702062A05D00868006840F001000B68AB
:101BB000186000207047704710B50446206800691F
:101BC000C0F34000D8B12068C068C0F34000B0B195
:101BD0006FF0020021680861012020772068806989
:101BE00000F0030018B12046FFF7E5FF05E02046AE
:101BF00000F0ADF8204600F0ABF800202077206818
:101C00000069C0F38000D8B12068C068C0F38000CC
:101C1000B0B16FF0040021680861022020772068CD
:101C2000806900F4407018B12046FFF7C4FF05E05A
:101C3000204600F08CF8204600F08AF8002020773B
:101C400020680069C0F3C000D8B12068C068C0F344
:101C5000C000B0B16FF0080021680861042020774F
:101C60002068C06900F0030018B12046FFF7A3FF09
:101C700005E0204600F06BF8204600F069F80020EF
:101C8000207720680069C0F30010D8B12068C068D0
:101C9000C0F30010B0B16FF0100021680861082097
:101CA00020772068C06900F4407018B12046FFF723
:101CB00082FF05E0204600F04AF8204600F048F890
:101CC000002020772068006900F0010058B12068EA
:101CD000C06800F0010030B16FF0010021680861B8
:101CE000204600F037F820680069C0F3C01058B1F2
:101CF0002068C068C0F3C01030B16FF08000216868
:101D000008612046FFF7E4FE20680069C0F38010F8
:101D100058B12068C068C0F3801030B16FF0400047
:101D200021680861204600F035F820680069C0F39A
:101D3000401058B12068C068C0F3401030B16FF057
:101D40002000216808612046FFF7C3FE10BD7047E0
:101D50007047000010B504460A49206809688842A7
:101D600004D101200849087001F0B0FB0749206840
:101D70000968884204D1012005490870FEF7ACFBD0
:101D800010BD0000300100206A000020700100201A
:101D90006B000020704770472DE9F047044620682B
:101DA00005682068C668206847694FF00008C1468A
:101DB00005F00F08B8F1000F0AD105F0200038B186
:101DC00006F0200020B1204601F0CEF8BDE8F087F3
:101DD000B8F1000F72D007F0010018B906F4907046
:101DE00000286BD005F0010030B106F4807018B106
:101DF000E06B40F00100E06305F0040030B107F053
:101E0000010018B1E06B40F00200E06305F0020051
:101E100030B107F0010018B1E06B40F00400E0635E
:101E200005F0080048B106F0200010B907F00100E5
:101E300018B1E06B40F00800E063E06B70B305F0B0
:101E4000200028B106F0200010B1204601F08CF8E7
:101E500020684069C0F38019E06B00F0080010B9F9
:101E6000B9F1000F23D0204601F054F820684069F2
:101E700000F04000402816D12068406920F0400062
:101E800021684861606B50B11748616B0865606BF1
:101E9000FEF756FE10B1606B016D88470CE02046DE
:101EA000FFF779FF08E02046FFF775FF04E02046C2
:101EB000FFF771FF0020E06388E7FFE705F080008F
:101EC00030B106F0800018B1204601F095FA7DE7A8
:101ED00005F0400030B106F0400018B1204601F096
:101EE00029F873E700BF71E76D2E000810B50446AE
:101EF0000CB9012010BDA06900B100E000BF94F84A
:101F0000390028B9002084F83800204600F028F86D
:101F1000242084F839002068C06820F4005021682B
:101F2000C860204601F074F82068006920F49040F1
:101F3000216808612068406920F02A002168486112
:101F40002068C06840F400502168C8600020E06349
:101F5000202084F8390084F83A000020CAE7000005
:101F600010B586B00446142101A8FEF769F930497E
:101F70002068884259D100BF002000902D48006899
:101F800040F010002B4908600846006800F010007F
:101F9000009000BF00BF00BF00200090254814380B
:101FA000006840F0010023491439086008460068C1
:101FB00000F00100009000BF00BF4FF4C06001902E
:101FC0000220029001200390032004900720059036
:101FD00001A91948FEF7E2FF1848194908604FF0B7
:101FE000006048604021164881600021C1604FF4C4
:101FF00080610161002141618161C1614FF48031E3
:10200000016200214162FEF7CFFE08B1FEF768FBD6
:1020100000BF0B482063846300BF002202212520FB
:10202000FFF73EF92520FFF72BF906B010BD0000A1
:10203000001001404438024000000240B8640240F1
:10204000F001002010B5034693F83A0020282FD164
:1020500001B10AB9012010BD00BF93F83800012872
:1020600001D10220F7E7012083F8380000BF996210
:102070009A85DA850020D863222083F83A0000BFD1
:10208000002083F8380000BF1868C06840F48070F2
:102090001C68E0601868406940F001001C686061DD
:1020A0001868C06840F020001C68E0600020D2E79B
:1020B0000220D0E710B504461949206888422ED185
:1020C000184800781849194A127888541748007837
:1020D000401E085C0D2805D1084614490978405C6B
:1020E0000A2803D01148007807280EDB0120104988
:1020F00008700E480078401CC0B20C4908700D49A9
:10210000087000200949087004E008480078401C65
:1021100006490870012203490748FFF793FF10BDE5
:10212000001001406E0000206F0000206C000020B5
:10213000770000206D000020B0010020F7B50446B4
:10214000154694F8390020283DD1019800B10DB909
:102150000120FEBD00BF94F83800012801D1022003
:10216000F7E7012084F8380000BF01982062A584B9
:10217000E5840020E063212084F839001348216BB6
:10218000C8631348216B08641248216BC86400209F
:10219000216B086501AE23681A1D31682B46206B40
:1021A000FEF778FE6FF040002168086000BF002055
:1021B00084F8380000BF2068406940F08000216842
:1021C00048610020C5E70220C3E70000D12E0008C7
:1021D000072F0008812E00087047704700BFFEE7F8
:1021E00010B500224FF480711148FEF7C9FF104866
:1021F000006820F440200E4908600846006840F45A
:1022000080200860002249150948FEF7B9FF01F057
:10221000D7F9012211020648FEF7B2FF01F0D0F90A
:1022200000224FF480710248FEF7AAFF10BD0000A3
:102230000004024010B5012211020448FEF7A0FF7D
:10224000012251020148FEF79BFF10BD000402402D
:1022500010B500224FF480711148FEF791FF10482D
:10226000006820F440200E4908600846006840F4E9
:1022700080200860012249150948FEF781FF01F01E
:102280009FF9012211020648FEF77AFF01F098F942
:1022900000224FF480710248FEF772FF10BD00006B
:1022A0000004024070B5054600241848006820F478
:1022B00040201649086008460068086000261AE0B9
:1022C00000224FF480711148FEF75AFF01F078F9AF
:1022D000012211020D48FEF753FF6006040E4FF471
:1022E00000710A48FEF744FF08B1601CC4B201F057
:1022F00067F9701CC6B2082EE2DB15B9FFF7A8FF1C
:1023000001E0FFF76DFF204670BD000000040240B1
:1023100070B504461B48006820F440201949086045
:102320000846006840F4802008600022891515489E
:10233000FEF726FF002522E0E00928B10122510224
:102340001048FEF71DFF05E000224FF400710D4814
:10235000FEF716FF6006040E01F032F901221102A9
:102360000848FEF70DFF01F02BF900224FF48071B1
:102370000448FEF705FF01F023F9681CC5B2082DDB
:10238000DADB70BD0004024010B51348006820F489
:102390004020114908600846006840F48020086029
:1023A000012249150C48FEF7EBFE012211020A48F2
:1023B000FEF7E6FE01F004F900224FF40071064832
:1023C000FEF7DEFE01F0FCF800224FF480710248B7
:1023D000FEF7D6FE10BD00000004024010B5124802
:1023E000006820F44020104908600846006840F466
:1023F00080200860002289150B48FEF7C1FE0022EC
:102400004FF400710848FEF7BBFE01F0D9F8012235
:1024100011020548FEF7B4FE012251020248FEF700
:10242000AFFE01F0CDF810BD0004024010B500244D
:102430001748006820F440201549086008460068E5
:102440000860012249151248FEF79AFE01F0B8F81B
:10245000012211020E48FEF793FE01F0B1F807E0E9
:10246000601CC4B2FA2C03DDFFF7B8FF012010BDD9
:102470004FF400710648FEF77BFE0028F0D10022E1
:102480004FF480710248FEF77BFE0020EFE700006A
:102490000004024010B5012208210748FEF770FE33
:1024A0000122D1030548FEF76BFE002210210248ED
:1024B000FEF766FE10BD000000040240000002406E
:1024C00010B50122D1030748FEF75AFE0122102160
:1024D0000548FEF755FE012208210348FEF750FE8D
:1024E00010BD0000000002400004024010B50122AF
:1024F000D1030748FEF744FE012210210548FEF7EC
:102500003FFE002208210348FEF73AFE10BD0000FE
:1025100000000240000402402DE9FC4104460D4643
:1025200016466B4606223B21682000F077F80746E6
:10253000BFB99DF801009DF8001040EA012000B2EB
:1025400020809DF803009DF8021040EA012000B2AF
:1025500028809DF805009DF8041040EA012000B293
:1025600030803846BDE8FC8110B5FFF763FE80215E
:102570006B2000F0D7F86420FEF7D6FC00216B201A
:1025800000F0D0F8032000F08BF8002000F080F875
:10259000322000F0AAF80021382000F0C3F8002112
:1025A0006A2000F0BFF80021232000F0BBF80021D2
:1025B000372000F0B7F8752000F013F80446682CB7
:1025C0000BD101216B2000F0ADF800216C2000F050
:1025D000A9F8322000F089F801E0012010BD0020A8
:1025E000FCE770B50446FFF7CFFED020FFF790FE62
:1025F000FFF71CFF2046FFF78BFEFFF717FFFFF7E3
:10260000C3FED120FFF784FEFFF710FF0020FFF785
:1026100049FE0546FFF7E2FE284670BD2DE9F04170
:1026200006460F4614461D46FFF7AEFE002141EA5E
:102630004601C8B2FFF76CFEFFF7F8FE20B1FFF7C6
:10264000CDFE0120BDE8F0813846FFF761FEFFF7BF
:10265000EDFEFFF799FE012101EB4601C8B2FFF73D
:1026600057FEFFF7E3FE0DE0012C04D10020FFF739
:1026700019FE287003E00120FFF714FE2870601E89
:10268000C4B26D1C002CEFD1FFF7A8FE0020D9E7E3
:1026900010B50446E006010E1C2000F043F810BD02
:1026A00010B50446E006010E1B2000F03BF810BDFB
:1026B00070B504460025BC2C01DB012510E0622C1E
:1026C00001DB02250CE02A2C01DB032508E0142C99
:1026D00001DB042504E00A2C01DB052500E00625CA
:1026E00029461A2000F01EF870BD70B50446B4F5F6
:1026F0007A7F01DD4FF47A74042C00DA04244FF45D
:102700007A7090FBF4F0401EC5B22946192000F003
:1027100009F80546264604EBD671C1F34F00FFF7D2
:10272000C7FF70BD70B505460C46FFF72DFED020E3
:10273000FFF7EEFDFFF77AFE18B1FFF74FFE01201D
:1027400070BD2846FFF7E4FDFFF770FE2046FFF757
:10275000DFFDFFF76BFE18B1FFF740FE0120EFE74A
:10276000FFF73CFE0020EBE72DE9F04105460E4661
:1027700017469846FFF708FE002141EA4501C8B216
:10278000FFF7C6FDFFF752FE20B1FFF727FE01203D
:10279000BDE8F0813046FFF7BBFDFFF747FE0024A0
:1027A0000CE018F80400FFF7B3FDFFF73FFE18B187
:1027B000FFF714FE0120EBE7601CC4B2BC42F0DB63
:1027C000FFF70CFE0020E3E71FB50020009001900A
:1027D000029003903D483E4908604FF44030486005
:1027E00000213B488160012101610176002180F8D0
:1027F0002010C162374981620021C1600921C16195
:10280000012180F830104161FEF742F808B1FDF770
:1028100067FF0120009001900620029069462C4835
:10282000FDF760FF08B1FDF75BFF0220009001900B
:1028300069462748FDF756FF08B1FDF751FF032011
:102840000090019069462248FDF74CFF08B1FDF762
:1028500047FF04200090019069461D48FDF742FFA4
:1028600008B1FDF73DFF052000900190694618482A
:10287000FDF738FF08B1FDF733FF06200090019007
:1028800069461348FDF72EFF08B1FDF729FF072021
:102890000090019069460E48FDF724FF08B1FDF74E
:1028A0001FFF08200090019069460948FDF71AFFB4
:1028B00008B1FDF715FF0920009001906946044812
:1028C000FDF710FF08B1FDF70BFF1FBD0020014011
:1028D000880000200100000F08B500BF0020009014
:1028E0000E48006840F480000C4908600846006803
:1028F00000F48000009000BF00BF002205213820B6
:10290000FEF7CEFC3820FEF7BBFC00220421462057
:10291000FEF7C6FC4620FEF7B3FC08BD3038024087
:1029200000B587B0142102A8FDF78AFC00BF002083
:1029300001903A48006840F0800038490860084635
:10294000006800F08000019000BF00BF00BF0020C1
:1029500001900846006840F00100086008460068E1
:1029600000F00100019000BF00BF00BF00200190F7
:102970000846006840F0020008600846006800F061
:102980000200019000BF00BF002209152448FEF795
:10299000F7FB012244F298312148FEF7F1FB0122B6
:1029A000D1032048FEF7ECFB44F29840029001204E
:1029B000039000200490059002A91948FEF7EEFA52
:1029C0004FF400400290184803900220049002A99E
:1029D0001348FEF7E3FA4FF4004002900120039001
:1029E00000200490059002A90E48FEF7D7FA4FF494
:1029F0004070029011200390002004900220059066
:102A000002A90748FEF7CAFA002201212820FEF792
:102A100047FC2820FEF734FC07B000BD30380240E8
:102A200000040240000002400000111010B50A48E6
:102A30000A4908606320486000210848816040F22C
:102A4000CF71C160002101618161FFF743F808B1D6
:102A5000FDF746FE10BD000000440140300100209B
:102A600010B50A480A4908606320486000210848F8
:102A700081604CF24F31C160002101618161FFF73B
:102A800029F808B1FDF72CFE10BD000000480140F8
:102A90007001002010B50A480A4908600A484860D9
:102AA000002108488160C16001610C214161002161
:102AB0008161C161FFF71AFA08B1FDF711FE10BD7F
:102AC00000100140B001002090D0030010B5FFF7C6
:102AD0004BFD0A2214214FF4167000F0BFFE4FF494
:102AE00000410B48FEF744FB08B100F0EDF8FDF79C
:102AF000E3FB0848FFF74AF8012207490748FFF7B8
:102B0000A1FA0A20FEF710FA0548FFF73FF810BDBA
:102B100000040240300100206E000020B0010020BF
:102B20007001002010B537480078F0B10020354919
:102B3000087035480078542812D133484078472827
:102B40000ED1314880780D280AD12F48C0780A2844
:102B500006D12D48002101604160FF202B49C87338
:102B600010222A492A48FFF7E9FA2A480078012862
:102B700046D1002027490870274A28492848FFF7EE
:102B8000CBFC2848B0F900002549B1F90010401AE3
:102B9000002807DD2348B0F900002149B1F90010F1
:102BA000401A06E01E48B0F900001E49B1F90010B5
:102BB000401A00B21C4908800846B0F90000B0F580
:102BC000FA7F05DA19480088401C1849088004E09B
:102BD000002016490880164908701148B0F9000015
:102BE000104908801148008842F6E061884202DD01
:102BF00001200F4908700E48007808B100F064F811
:102C000010BD00006A0000206F0000201C000020A2
:102C1000B00100206B0000207C0000207A00002022
:102C200078000020800000207E000020820000202C
:102C30008400002000BFFEE710B500228021064876
:102C4000FEF79EFA4FF4FA70FEF76EF9012280212A
:102C50000148FEF795FA10BD000402407047704726
:102C60007047000008B500BF0020009011480068C0
:102C700040F080500F4908600846006800F080501E
:102C8000009000BF00BFFEF765FB01200A49086005
:102C9000002008604FF48070FEF754FB074800687E
:102CA00040F00400054908608815FEF759FBFEF75F
:102CB0005FFB08BD40380240400E474200700040B4
:102CC00010B5FEF769FA10BD10B54FF0FF3002499C
:102CD0000860FFF7C7FF10BD2438024000B593B06D
:102CE000302107A8FDF7ACFA142102A8FDF7A8FAD5
:102CF00000BF002001902348006840F08050214927
:102D000008600846006800F08050019000BF00BFD6
:102D100000BF002001901C48006840F440401A4960
:102D200008600846006800F44040019000BF00BF02
:102D3000012007900004089002200D9041050E919B
:102D400008210F9164211091022111910421129107
:102D500007A8FEF75FFC08B1FDF7C2FC0F20029048
:102D600002200390002004904FF480500590002032
:102D70000690032102A8FEF70FFB08B1FDF7B0FC97
:102D800013B000BD403802400070004005480068A4
:102D900040F47000034908604FF000600149803939
:102DA0000860704788ED00E010B50248FEF704FFA8
:102DB00010BD00007001002010B50248FEF7FCFEB7
:102DC00010BD00003001002010B50268204B984271
:102DD0000BD0B0F1804F08D01E4B984205D01E4B4F
:102DE000984202D01D4B984203D122F070024B68EA
:102DF0001A43174B984214D0B0F1804F11D0154BA5
:102E000098420ED0144B98420BD0144B984208D0E5
:102E1000134B984205D0134B984202D0124B984264
:102E200003D122F44072CB681A4322F080034C692C
:102E300043EA040202608B68C3620B688362044B3E
:102E4000984201D10B6903630123436110BD000067
:102E5000000001400004004000080040000C004059
:102E600000400140004401400048014070B5054663
:102E7000AC6B0020E085E0842046FEF78CFF70BD3F
:102E800070B506460025B46B20684069C0F3C015D4
:102E900094F83900212805D125B10020E08420468E
:102EA00000F058F820684069C0F3801594F83A00A3
:102EB000222805D125B10020E085204600F02AF81F
:102EC000E06B40F01000E0632046FEF764FF70BD49
:102ED00070B50546AC6B2868006800F4807070B966
:102EE0000020E0842068406920F08000216848616B
:102EF0002068C06840F040002168C86002E02046B9
:102F0000FFF76AF970BD70B50446A56B2846FFF758
:102F100064F970BD0168C96821F490710268D160DC
:102F20000168496921F0010102685161202180F89E
:102F30003A10704710B504462068C06820F0400081
:102F40002168C860202084F839002046FFF744F942
:102F5000002010BD0168C96821F0C0010268D1607D
:102F6000202180F83910704770B5044694F83A0073
:102F700022284AD1A068B0F5805F13D1A56A2069E4
:102F800040B920684068C0F308002880A06A801C0F
:102F9000A06219E020684068C0B22880A06A401C86
:102FA000A06211E0206938B920684068C1B2A26A05
:102FB000501CA062117007E02068406800F07F019B
:102FC000A26A501CA0621170E08D401E80B2E085A4
:102FD000C8B92068C06820F020002168C860206857
:102FE000C06820F480702168C8602068406920F0C3
:102FF000010021684861202084F83A002046FFF74C
:1030000059F8002070BD0020FCE70220FAE700001C
:103010002DE9F84F04462068006920F44050E1682B
:103020000843216808612169A06808436169084371
:10303000E169084300902068C06849F20C61884348
:10304000009908432168C8602068406920F44070F6
:10305000A169084321684861E069B0F5004F75D166
:10306000E3492068884203D0E249206888426FD152
:10307000FEF76AFA814602206168A0FB01510B4607
:103080001920A9FB00712A463846FDF7A1F86421F2
:10309000B0FBF1F04FEA001A02206168A0FB015179
:1030A0000B461920A9FB00712A463846FDF790F817
:1030B000074602206168A0FB01510B461920A9FBBD
:1030C00000B12A465846FDF783F86421B0FBF1F0C1
:1030D00000EBC00101EB0010A7EB8000322101EBF7
:1030E000C0006421B0FBF1F000F0F8000AEB400AE8
:1030F00002206168A0FB01510B461920A9FB007159
:103100002A463846FDF764F8074602206168A0FBAE
:1031100001510B461920A9FB00B12A465846FDF77C
:1031200057F86421B0FBF1F000EBC00101EB001097
:10313000A7EB8000322101EBC0006421B0FBF1F06D
:1031400000F007005044216888604FE16EE0FFE71F
:10315000FEF7EAF9814602206168A0FB01510B46A7
:103160001920A9FB00712A463846FDF731F8642181
:10317000B0FBF1F04FEA001A02206168A0FB015198
:103180000B461920A9FB00712A463846FDF720F8A6
:10319000074602206168A0FB01510B461920A9FBDC
:1031A00000B12A465846FDF713F86421B0FBF1F050
:1031B00000EBC00101EB0010A7EB8000322101EB16
:1031C000C0006421B0FBF1F000F0F8000AEB400A07
:1031D00002206168A0FB01510B461920A9FB007178
:1031E0002A463846FCF7F4FF074602206168A0FB38
:1031F000015003461920A9FB00B12A465846FCF7A6
:10320000E7FF6421B0FBF1F000EBC00101EB00101F
:10321000A7EB8000322101EBC0006421B0FBF1F08C
:1032200000F00700504421688860DFE070492068A2
:10323000884203D06F49206888426BD1FEF784F939
:10324000814604206168A0FB01510B461920A9FBAF
:1032500000712A463846FCF7BBFF824604206168AD
:10326000A0FB01510B461920A9FB00712A463846E4
:10327000FCF7AEFF6421B0FBF1F000EBC00101EB05
:103280000010AAEB8000322101EB00106421B0FB9A
:10329000F1F000F0F00A04206168A0FB0150034641
:1032A0001920A9FB00712A463846FCF791FF6421DA
:1032B000B0FBF1F00AEB001A04206168A0FB015199
:1032C0000B461920A9FB00712A463846FCF780FFFF
:1032D000074604206168A0FB015003461920A9FBA2
:1032E00000B12A465846FCF773FF6421B0FBF1F0A9
:1032F00000EBC00101EB0010A7EB8000322101EBD5
:1033000000106421B0FBF1F000F00F005044216880
:1033100088606BE0FEF708F9814604206168A0FB35
:10332000015003461920A9FB00712A463846FCF7D4
:103330004FFF824604206168A0FB0150034619201C
:10334000A9FB00712A463846FCF742FF6421B0FB16
:10335000F1F000EBC00101EB0010AAEB800032217C
:1033600001EB00106421B0FBF1F000F0F00A042042
:103370006168A0FB015003461920A9FB00712A4691
:103380003846FCF725FF6421B0FBF1F00AEB001A88
:1033900004206168A0FB017003461920A9FB0050BE
:1033A00001463A462846FCF713FF074604206168A9
:1033B000A0FB015003461920A9FB00B12A4658463C
:1033C000FCF706FF6421B0FBF1F000EBC00101EB5C
:1033D0000010A7EB8000322101EB00106421B0FB4C
:1033E000F1F000F00F00504421688860BDE8F88FCC
:1033F0000010014000140140014691F839002128D5
:103400002CD18868B0F5805F0FD10A6A1088C0F3AC
:1034100008000B685860086918B9086A801C0862BF
:1034200009E0086A401C086205E00B6A581C086243
:1034300018780B685860C88C401E80B2C88458B990
:103440000868C06820F080000B68D8600868C06811
:1034500040F040000B68D860002070470220FCE775
:1034600010B50248FEF798FC10BD0000B001002026
:1034700000BFFEE702480068C0F30220704700006A
:103480000CED00E010B5002804DB0A07130E054A16
:10349000135406E00A07140E034A00F00F031B1F23
:1034A000D45410BD00E400E018ED00E002E008C8CC
:1034B000121F08C1002AFAD170477047002001E0AE
:1034C00001C1121F002AFBD17047000010B5002077
:1034D00006E0364A52F82020354B43F82020401CA5
:1034E0000828F6DB3148006A324A1060002045E0C7
:1034F00042002F4B33F82220C2F3071200EB4003A7
:103500002D4CE25442002A4B13F8222002F00F0304
:1035100000EB4002521CA35400EB4002521C234615
:103520009A5C1207130E00EB4002521CA35400EBEE
:103530004002521C23469A5C02F0F00300EB40026A
:10354000521CA3544200521C194B33F82220C2F3E0
:10355000032100BF00EB4002521C23469A5C0A4341
:1035600000EB40035B1CE2544200521C104B13F86A
:10357000223000EB4002921CA354401C0428B7DB0D
:1035800000200E4A9073D07302200BE0821E0A4B7B
:103590009A5C0A4B1A541A46927B1B5C1A44074BDE
:1035A0009A73401C0E28F1DB10BD0000640200205D
:1035B0008802002030000020AC0200201C00002007
:1035C000002001E0411CC8B21428FBDB7047FDF766
:1035D000EFFDFFF783FBFFF7A3F9FFF77DF9FFF797
:1035E000F3F8FFF723FAFFF755FAFFF739FAFFF779
:1035F0006DFA01E0FFF796FAFCE7000070B50446AB
:10360000002624F00104184890F8240008B1002096
:1036100070BD1548807A10B94FF0FF30F8E71248B6
:10362000057C807A2040104908740846007CA0423E
:1036300002D04FF0FF3600E0002614B90A48007DA2
:1036400018B1012000F092FD02E0002000F08EFD94
:103650003CB100F005FA20B1034805744FF0FF308B
:10366000D6E73046D4E70000340000200146114878
:10367000407A30B1012807D0022808D003280CD1A5
:1036800008E0022008700BE00420087008E0082021
:10369000087005E01020087002E04FF0FF3070471E
:1036A00000BF0448C07C18B108784006000E0870BE
:1036B0000020F4E73400002001460248007C087036
:1036C000002070473400002001460F48007A30B1D6
:1036D000012807D0022809D003280FD10AE0FA20D8
:1036E00008800EE04FF4FA7008800AE04FF47A7018
:1036F000088006E04FF4FA60088002E000200880AD
:1037000000BF00BF0020704734000020014612486F
:10371000C07A082817D2DFE800F01704070A0D1056
:103720001318BC20088013E06220088010E02A20D3
:1037300008800DE0142008800AE00A20088007E0D5
:103740000520088004E000BF00BF0020088000BF03
:1037500000BF0020704700003400002001460648EA
:1037600090F8240010B14FF0FF3070470248C08934
:1037700008800020F9E700003400002038B5044636
:10378000282C02DD4FF0FF3038BDDCB9002000F0FE
:10379000BFFB00208DF8000007208DF801002E4AA5
:1037A0001268917C2C4A526810786B460222FEF710
:1037B000DBFF10B14FF0FF30E6E70021264801752E
:1037C0000020E1E7012000F0A3FB20208DF800009D
:1037D000012C06D100208DF80100052000F0CEFB61
:1037E00017E0052C06DC01208DF80100052000F013
:1037F000C5FB0EE0142C06DC02208DF801000A2027
:1038000000F0BCFB05E003208DF80100142000F05F
:10381000B5FB9DF80100072101EB8010C0B28DF8C7
:1038200001000D4A1268917C0B4A526810786B4671
:103830000222FEF799FF10B14FF0FF30A4E70821F4
:103840000548817200210173012101750020FFF7F5
:10385000D5FE002098E7000034000020F8B50546AA
:103860000F461446002C70D0B5F5FF5F01DDFF2632
:1038700005E0202D01DA012601E0C5F3471607B95E
:103880000127282C02DD4FF0FF30F8BD7348407D42
:1038900028BB724890F8240038B1002000F0ACFA40
:1038A00001216E4880F8201003E000216B4880F869
:1038B00020106A481630FFF707FF68481830FFF7F6
:1038C000D5FE66481A30FFF721FF64481C30FFF729
:1038D00045FF6248817A81771F30FFF7EDFE0020B7
:1038E00000F044FC0020FFF749FF00208DF80000A5
:1038F0005A4A12689178594A526810786B460122E8
:10390000FEF732FF10B14FF0FF30BEE740208DF8D8
:103910000000524A1268D17B504A526810786B46B8
:103920000122FEF721FF00B165E08DF800608DF8FF
:1039300001704A4A1268117A484A526810786B46F8
:103940000222FEF711FF08B155E047E00520FDF720
:10395000EBFA4248407A072101EBC000C0B28DF873
:1039600000003E4A1268D1793C4A526810786B4692
:103970000122FEF7F9FE00B13DE020208DF80000A5
:10398000012C03D100208DF801000EE0052C03DC92
:1039900001208DF8010008E0142C03DC02208DF8D2
:1039A000010002E003208DF801009DF801000721CD
:1039B00001EB8010C0B28DF80100284A1268917C9A
:1039C000264A526810786B460222FEF7CDFE00B1FF
:1039D00011E0012121484175002056E71F4A1632A7
:1039E000002103E0505C00B105E0491C0C29F9D32B
:1039F0004FF0FF3049E7FF2018490872FF211748B0
:103A00004172C1724FF6FF71C181FF218172017451
:103A1000012101730146887F00F040FB0F49C88AED
:103A200000F032FA0D49087E00F0FEF80B49488B91
:103A300000F0A4FA0949888B00F0E2FA0749C87F30
:103A4000FFF7DCFD054890F8200010B1012000F0E0
:103A5000D3F9002101484175002016E73400002009
:103A600008B57048807A10B94FF0FF3008BD0020CB
:103A700000906C4A1268D17B6A4A526810786B4693
:103A80000122FEF771FE10B14FF0FF30EEE7654AFC
:103A900012685179634A526810786B460122FEF72A
:103AA00063FE10B14FF0FF30E0E75E4A1268117913
:103AB0005C4A526810786B460122FEF755FE10B141
:103AC0004FF0FF30D2E7574890F82400002853D039
:103AD0000C200090534A12681179524A52681078AB
:103AE0006B460122FEF740FE10B14FF0FF30BDE7FC
:103AF0003220FDF719FAC02000904A48807A00F081
:103B0000010020B19DF8000040F020000090454ADF
:103B100012681179434A526810786B460122FEF709
:103B200023FE10B14FF0FF30A0E73E48407C10B1BB
:103B30000220009001E0002000903A4A1268D17BF8
:103B4000384A526810786B460122FEF70DFE10B11C
:103B50004FF0FF308AE700200090324A1268517916
:103B6000304A526810786B460122FEF7FDFD0028AE
:103B700055D04FF0FF3079E704200090294A1268B1
:103B80001179284A526810786B460122FEF7ECFD45
:103B900010B14FF0FF3069E72248807C20B92148FE
:103BA000807A00F0010010B94020009001E0602010
:103BB00000901C4A126811791A4A526810786B46B4
:103BC0000122FEF7D1FD10B14FF0FF304EE7322059
:103BD000FDF7AAF91348407C10B10120009001E0E4
:103BE000002000900F4A1268D17B0E4A526810786C
:103BF0006B460122FEF7B8FD10B14FF0FF3035E7FC
:103C0000084A12685179074A52681078054B1033F8
:103C10000122FEF7A9FD10B14FF0FF3026E700208A
:103C200024E700003400002038B504461E48807A9E
:103C300010B94FF0FF3038BD022C06D0042C07D04D
:103C4000082C08D0102C0CD108E0002000900BE0CC
:103C50000820009008E01020009005E01820009057
:103C600002E04FF0FF30E6E700BF0F48407A9DF8D2
:103C70000010B0EBE10F01D10020DCE70A4A126826
:103C8000D179094A526810786B460122FEF76CFD23
:103C900010B14FF0FF30CEE79DF80000C110024890
:103CA00041720020C7E700003400002038B5044608
:103CB0005048807CA04201D1002038BD002C46D065
:103CC0004C4A126811794B4A526810786B460122AF
:103CD000FEF7A4FC10B14FF0FF30EEE79DF80000B6
:103CE00020F020000090434A12681179414A52683E
:103CF00010786B460122FEF737FD10B14FF0FF3010
:103D0000DBE70320FDF710F902200090394890F816
:103D1000220020B19DF8000040F08000009035485E
:103D200090F8230020B19DF8000040F03000009092
:103D3000304A1268117D2F4A526810786B46012272
:103D4000FEF712FD002851D04FF0FF30B5E7294AA9
:103D500012681179274A526810786B460122FEF7E3
:103D60005DFC10B14FF0FF30A7E72248807A00F0E9
:103D7000010028B19DF8000040F02000009004E010
:103D80009DF8000020F0200000901A4A1268117976
:103D9000184A526810786B460122FEF7E5FC10B114
:103DA0004FF0FF3089E70320FDF7BEF8114890F887
:103DB000220010B18020009001E0002000900D480A
:103DC00090F8230020B19DF8000040F030000090F2
:103DD000084A1268117D074A526810786B46012222
:103DE000FEF7C2FC10B14FF0FF3066E70148847463
:103DF000002062E73400002038B50446214890F8DE
:103E00002400A04201D1002038BD24B31D4890F801
:103E1000250010B94FF0FF30F6E7002000F0A6F9BA
:103E20000020FFF743FF1749C88C00F0E9F8002095
:103E300000901449496808786B4601222321FEF757
:103E400093FC01210F4880F82410012000F08EF926
:103E5000FFF706FE13E0002000F088F90948007C17
:103E600000900849496808786B4601222321FEF733
:103E70007BFC0021034880F82410FFF7F1FD0020AF
:103E8000C2E700003400002038B504461F48807A9D
:103E900010B94FF0FF3038BDFA2C09D0B4F5FA7FD5
:103EA00009D0B4F57A7F09D0B4F5FA6F0CD108E0E7
:103EB000002000900BE00820009008E01020009007
:103EC00005E01820009002E04FF0FF30E3E700BF6C
:103ED0000E48007A9DF80010B0EBE10F01D10020F0
:103EE000D9E70A4A12689179084A526810786B46F5
:103EF0000122FEF739FC10B14FF0FF30CBE79DF8FF
:103F00000000C010014908720020C4E734000020FE
:103F100038B50446184890F82300A04201D100208B
:103F200038BD14B13020009001E00020009012480C
:103F3000807C20B19DF8000040F0020000900E4807
:103F400090F8220020B19DF8000040F08000009021
:103F5000094A1268117D084A526810786B4601229E
:103F6000FEF702FC10B14FF0FF30D9E7024880F8AD
:103F700023400020D4E700003400002038B5044678
:103F80001E48807A10B94FF0FF3038BDBC2C02DBE0
:103F90000120009015E0622C02DB0220009010E06E
:103FA0002A2C02DB032000900BE0142C02DB0420FF
:103FB000009006E00A2C02DB0520009001E00620BC
:103FC00000900E48C07A9DF80010884201D1002070
:103FD000DBE70A4A12689178084A526810786B4603
:103FE0000122FEF7C1FB10B14FF0FF30CDE79DF885
:103FF00000100248C1720020C7E700003400002012
:1040000038B504462448807A10B94FF0FF3038BDE7
:10401000214890F8240010B14FF0FF30F7E71E4818
:10402000007D50B134B1282C04DCE0B2FFF7A6FBD0
:104030000020ECE70020FFF7A1FB042C01DA0424A8
:1040400004E0B4F57A7F01DD4FF47A744FF47A70AE
:1040500090FBF4F0401EC0B200900F4A12685178F5
:104060000D4A526810786B460122FEF77DFB10B1B5
:104070004FF0FF30CBE79DF80000401C4FF47A7101
:1040800091FBF0F081B20448C1810146C989481012
:10409000FFF774FF0020BAE73400002038B504466B
:1040A00004F0700010B10120009005E014B1002070
:1040B000009001E0402000902B4A1268917C2A4A2F
:1040C000526810786B460122FEF74EFB20B10021AA
:1040D00025488172481E38BD9DF8000020F040013F
:1040E000214801730020009004F0400020B99DF8A1
:1040F000000040F00400009004F0200020B99DF87A
:10410000000040F00200009004F0100020B99DF87B
:10411000000040F00100009004F0080020B99DF874
:10412000000040F0380000900F4A1268D17C0E4A1F
:10413000526810786B460122FEF716FB20B1002171
:1041400009488172481EC6E724B1082C02D000201D
:10415000FFF7DEFE04488472002101753220FCF76F
:10416000E3FE0020B7E700003400002038B5044625
:10417000214890F82400C0B114B10220009001E061
:10418000002000901C4A1268D17B1B4A52681078AC
:104190006B460122FEF7E8FA10B14FF0FF3038BD50
:1041A0009DF800101448417423E01348807A10B938
:1041B0004FF0FF30F3E724B10F48407C08B10020F6
:1041C000EDE714B10120009001E0002000900A4AC0
:1041D0001268D17B084A526810786B460122FEF7BC
:1041E000C3FA10B14FF0FF30D9E79DF80010024834
:1041F00041740020D3E700003400002000061016B0
:104200000006101600000000000000000102030478
:1042100006070809000000000102030475191A0CC2
:104220006A231B1C1F207274433B4138393A6B6C64
:10423000376F06246D6E700068000004760054012C
:10424000F7FD0001830000000008000000010018D5
:1042500032000500000020410000D242295C0F3EE0
:104260009A99993E3333733F295C0F3E8C42000884
:104270000000002088000000AC340008144300084F
:104280008800002038060000BC3400080000000050
:1042900010000000010000000024F40000000000F5
:1042A000E808CA080000000055AA0000000000004D
:1042B00000000000000000000000000000000000FE
:1042C0001C42000838420008000000000000000006
:1042D00000000000000000000000000000000000DE
:1042E000000000000000000044420008010000003F
:1042F00001000000010000000000000000000000BC
:1043000000000000000000000000000000000000AD
:0443100000000000A9
:040000050800019955
:00000001FF
