:020000040800F2
:1000000068080020AD010008B5360008492D000839
:10001000913600088D0B0008993D00080000000093
:10002000000000000000000000000000B9380008D7
:10003000410D000800000000F5360008CD3800082A
:10004000C7010008C7010008C7010008C701000870
:10005000C7010008C7010008430D0008C7010008D8
:10006000490D0008C70100084F0D0008C70100082E
:10007000C7010008C7010008C7010008C701000840
:10008000C7010008C7010008C70100080000000000
:10009000000000000000000000000000C701000890
:1000A000693900088139000875390008C70100085E
:1000B000C70100088D39000899390008C7010008F8
:1000C000C7010008C7010008C7010008C7010008F0
:1000D000C70100088D3D0008C701000800000000AE
:1000E000C7010008C7010008C701000800000000A0
:1000F000000000000000000000000000C701000830
:1001000000000000C7010008A5390008C701000869
:1001100000000000000000000000000000000000DF
:10012000010C0008C7010008C7010008C70100084A
:10013000C7010008000000000000000000000000EF
:10014000000000000000000000000000C7010008DF
:10015000C7010008C7010008C7010008C70100085F
:10016000C7010008C70100080000000000000000EF
:10017000000000000000000000000000000000007F
:1001800000000000C701000800000000000000009F
:10019000C7010008C7010008DFF80CD000F02CFBF5
:1001A00000480047955A0008680800200648804724
:1001B00006480047FEE7FEE7FEE7FEE7FEE7FEE74C
:1001C000FEE7FEE7FEE7FEE759390008990100085F
:1001D0002DE9F05F0546002092469B46884606467C
:1001E000814640241BE0284641464746224600F00F
:1001F0004CFA53465A46C01A914110D3114618463C
:10020000224600F033FA2D1A67EB01084F462246CA
:100210000120002100F02AFA17EB00094E41201EB0
:10022000A4F10104DFDC484631462A464346BDE8D6
:10023000F09F2DE9F0410024061B254671F10006D0
:1002400005DA01240027D0EB070067EB0101161E39
:1002500073F1000605DA0027D2EB0702012567EBF0
:100260000303FFF7B5FF86460E4617469C46AC4291
:1002700004D00025D0EB050E65EB010624B100206B
:10028000D2EB000760EB030C704631463A466346FA
:10029000BDE8F081D2B201E000F8012B491EFBD28B
:1002A00070470022F6E710B513460A460446194681
:1002B000FFF7F0FF204610BD30B50446002003468E
:1002C00000E05B1C934203D2E05CCD5C401BF8D0A5
:1002D00030BD2DE9FE4F804681EA0300C00F0C4679
:1002E000009021F0004123F00045B8EB0200A94145
:1002F00005D24046214690461C460B46024623F056
:100300000040104347D0270DC7F30A00C3F30A513A
:100310000290401A019040286BDAC3F3130040F4B6
:10032000801B0098924620B10023D2EB030A63EBB6
:100330000B0B01985946C0F14002504600F096F967
:1003400006460D4650465946019A00F0AEF910EBAC
:1003500008006141002487EA115284EAE7731A43D6
:1003600040D0009A62B3019A012A4FEA075215DC85
:10037000001B61EB02014FF0004202EA0752CDE997
:100380000042001C41F5801132462B4600F0E5F991
:1003900003B0BDE8F08F40462146F9E7001B61EB52
:1003A0000201001C41F5801300185B412018A2F5E2
:1003B000001747EB030140EAD570B6196D4111E013
:1003C0006D084FEA360645EAC0754FEA0752001B32
:1003D00061EB0201001C41F5801149084FEA300031
:1003E0000019514132462B4603B0BDE8F04F00F0F2
:1003F000A5B90098012240000023D0EB020263EB74
:10040000E073009821464FEAE074B8EB000061EB1E
:100410000401E9E783F000435BE781F0004158E71E
:100420002DE9FE4F81EA030404F0004421F000416D
:1004300000944FF0000B23F0004350EA01045ED01B
:1004400052EA03045BD0C3F30A54C1F30A552C44A7
:10045000A4F2F3340194A0FB0254C1F3130141F45C
:100460008011C3F3130343F4801301FB024400FB28
:10047000034E840A970A44EA815447EA8357A4FB4F
:10048000076802958D0A05FB07854FEA932C04FB4C
:100490000C542705029D4FEA065847EA1637B5EB7C
:1004A00008056EEB070C870E920E47EA811742EAA9
:1004B0008312A7FB0201B6EB0B0164EB00042B0DCA
:1004C00043EA0C335E1844EB1C50DA465146E7FB16
:1004D0000201C5F313044FEA0B3343EA14534FEA06
:1004E0000432019C43EA0603A4F10C040294009C2C
:1004F000CDE900B400F031F903B0BDE8F08F002081
:100500000146F9E72DE9F04D81EA030404F0004BC0
:1005100021F0004514464FF0000A23F0004150EA54
:10052000050220D054EA01021DD0C5F30A57024645
:10053000C5F31303C1F31300C1F30A5640F4801549
:1005400043F48013A7EB0608101BD64608F2FD38CB
:1005500073EB050002D308F1010801E092185B413A
:10056000B8F1000F03DA00200146BDE8F08D00204D
:100570004FF48011064684460EE0171B73EB050707
:1005800005D3121B63EB050306434CEA010C490833
:100590004FEA300092185B4150EA0107EDD152EA70
:1005A000030012D082EA040083EA0501084305D063
:1005B000101BAB4106D20122002306E000224FF0BF
:1005C000004302E06FF0010253101AEB06004CEBFF
:1005D000085110EB0A0041EB0B01BDE8F04D00F0B3
:1005E000ADB800F0004230F000400AD0C10D01F576
:1005F0006071C0F3160042EA0151C208400711437E
:10060000704700200146704701F0004330B421F0EC
:10061000004150EA010206D00A0DA2F56072C1F352
:100620001301002A02DC30BC00207047440F44EA6A
:10063000C104C100E01830BC00EBC25000F047B864
:1006400030B50B46014600202022012409E021FAA2
:1006500002F59D4205D303FA02F5491B04FA02F59F
:100660002844151EA2F10102F1DC30BD202A04DB72
:10067000203A00FA02F1002070479140C2F12003B5
:1006800020FA03F3194390407047202A04DB203AF4
:1006900021FA02F00021704721FA02F3D040C2F1A2
:1006A00020029140084319467047202A06DBCB17E9
:1006B000203A41FA02F043EAE07306E041FA02F31D
:1006C000D040C2F1200291400843194670470029EA
:1006D000A8BF7047401C490008BF20F001007047C8
:1006E00010B4B0FA80FC00FA0CF050EA010404BF28
:1006F00010BC704749B1CCF1200421FA04F411FA7E
:100700000CF118BF012121430843A3EB0C01CB1DC1
:100710004FEA00614FEA102042BF002010BC704732
:1007200000EBC35010440029A4BF10BC7047401C0C
:10073000490008BF20F0010010BC704710B5141E1E
:1007400073F1000408DA401C41F1000192185B418A
:100750001A4301D120F0010010BD2DE9F04D924661
:100760009B4611B1B1FA81F202E0B0FA80F2203278
:100770009046FFF77BFF04460F4640EA0A0041EA35
:100780000B0153465A46084313D0114653EA010061
:1007900019D0C8F140025046FFF777FF05460E46D4
:1007A000504659464246FFF761FF084305D00120F5
:1007B00004E020463946BDE8F08D0020054346EAB6
:1007C000E0762C4337430A986305E40AA0EB08005F
:1007D0000022FD0A44EA47540A3002D500200146AF
:1007E000E9E7010510196941DDE90845001969418A
:1007F000BDE8F04DA2E70000064C074D06E0E068BA
:1008000040F0010394E8070098471034AC42F6D357
:10081000FFF7C6FCA8760008C87600082DE9F04D61
:1008200000231A461B1A8A4103DB00200146BDE85B
:10083000F08DC1F30A52C1F3130141F480154FF05A
:10084000000BD10702D100186D41521E002704464B
:1008500040F2FF11384601EB620A3E4680460246EE
:1008600000204FF48011FFF710FFC2197141BB182F
:1008700046EB0100B4EB030C75EB000C04D3E41A57
:1008800065EB000517460E46241908F101006D417D
:1008900080463428E3DDF91946EB0600091BA84120
:1008A00003D24FF0FF32134601E0002213461BEB48
:1008B000070046EB0A51BDE8F04DFFF73FBF10B50A
:1008C0000146806B026C12F0500F05D0026CD2060C
:1008D00026D500F00DFB10BD016C41F400710164E0
:1008E00001688A6812F0405F17D1027EAAB9CA6A0D
:1008F00012F4700F02D08A6852050ED44A6822F0B2
:1009000020024A60016C21F480710164016CC90409
:1009100003D4016C41F00101016400F0E7FA10BD5D
:10092000806BC26CBDE810400846104710B5806B64
:1009300040210164416C41F00401416400F0D8FAA7
:1009400010BD10B5806B00F0D2FA10BD464910B54D
:100950004A6822F440324A604A6843681A434A604F
:1009600001684A6822F480724A6001684A68036933
:1009700042EA03224A6001684A6822F040724A60F3
:1009800001684A6883681A434A6001688A6822F4E9
:1009900000628A6001688A68C3681A438A60816A53
:1009A0006FF07062D14201688A6822F070628A60DA
:1009B00001688A680CD0836A1A438A6001688A6871
:1009C00022F040528A6001688A68C36A1A4301E0D3
:1009D00022F040528A6001688A6822F002028A602E
:1009E00001688A68037E42EA43028A6090F8201018
:1009F000002901684A680FD042F400624A60016829
:100A00004A6822F460424A6001684A68174C436AA7
:100A100004EB43331A4301E022F400624A600168A8
:100A2000CA6A22F47002CA620168CA6A838B104CD7
:100A300004EB03531A43CA6201688A6822F4007205
:100A40008A6001688A6890F8303042EA43228A60FE
:100A500001688A6822F480628A6001688A68406955
:100A600042EA8020886010BD0023014000E0FFFFC3
:100A70000000F0FF144810B5016886B041F0010194
:100A80000160016801F001010591016841F0020176
:100A900001600068022400F002000590012000902F
:100AA0004FF48810CDE901046946084800F07EFD46
:100AB000102000904FF40410CDE901046946044869
:100AC00000F074FD06B010BD303802400000024056
:100AD00000040240124810B41249002343800C88DD
:100AE000114A017822F81140491CC9B201700A2943
:100AF00013D103705FF00001448832F81130491CB3
:100B00002344C9B243800A29F6D399B20A22B1FB21
:100B1000F2F1418010BC00F009B810BC7047000031
:100B200060000020480000204404002030B5164832
:100B3000034641888488DA889B89A14203D3022B2B
:100B400001D002238381104B05895B89A94201D31F
:100B500091420CD9994203D9A94201D2858935B96C
:100B6000914209D9A14207D28289022A04D08289FE
:100B7000012A01D001228281994204D88189002969
:100B800001D00021818130BD60000020FEE700001F
:100B900070B500240A4E2546142000F093FCD6F8C8
:100BA0001002012805D06D1CEDB2052DF4D90020EE
:100BB00070BD641CE4B20025322CEDD3012070BD61
:100BC0000080404201220D4906280AD2DFE800F0E9
:100BD000030A0D071013C1F89822C1F89C22C1F82E
:100BE000A0227047C1F898227047C1F89C22704734
:100BF000C1F8A022F6E7C1F8A022F6E70080404243
:100C0000014800F0EDBA00006401002001681823DB
:100C1000CAB2103AB2FBF3F2054B6FF30901032A93
:100C20009B5CC36500D9091D8165084670470000BB
:100C3000FA68000810B5014600208B698A6A4FF0F7
:100C4000C07453B1B3F5005F15D072B1012A0CD056
:100C5000022A0AD0032A09D104E01AB1012A06D0D7
:100C6000022A03D1C96AC90100D5012010BDC96A91
:100C7000A142FAD010BD002AF7D0012AF2D0022AF0
:100C8000F3D0032AF3D010BD30B50468256825F4ED
:100C900080252560046863608368402B036803D067
:100CA00099600068C26030BD9A600068C16030BD64
:100CB00008B5002000906B4601227521682004F0E1
:100CC00093FE9DF8000068280CD0BFF34F8F1948A1
:100CD0000168194A01F4E06111430160BFF34F8FCD
:100CE00000BFFDE705F01CF8002822D1782005F0B0
:100CF000D5FCD8B9782004F03FFFB8B9642005F0DE
:100D00008DFC98B903F0B4FF80B90C4804F08CFE58
:100D100004F060F950B940F2731003F081FE28B975
:100D2000642004F0BFF808B905F03FFD012005F08C
:100D30009BFB08BD0CED00E00400FA05BA000020A2
:100D40007047012000F026BC042000F023BC1020D6
:100D500000F020BC72B600250A4E0024032002F0E9
:100D6000ABFCC82000F0AEFB0320FFF72BFFC82030
:100D700000F0A8FB641CE4B2142CEFD3C6F8945224
:100D8000EBE700000080404278B50024009490F822
:100D90003C20012A19D0012280F83C200A68072350
:100DA0000568092A13D9EE680A3A02EB4202934019
:100DB0009E43EE600B788A680A3B03EB43039A403C
:100DC0000368DD682A43DA6010E0022078BD2E69EE
:100DD00002EB420293409E432E610B788A6803EB3C
:100DE00043039A4003681D692A431A614A681F2316
:100DF000072A13D205686E6B521E02EB82029340E3
:100E00009E436E630A8893B20A79521E02EB8202F5
:100E100093400268556B2B43536327E005680D2A06
:100E200012D22E6BD21F02EB820293409E432E639E
:100E30000B790A88DB1F92B203EB83039A400368A5
:100E40001D6B2A431A6311E0EE6A0D3A02EB82022F
:100E500093409E43EE620B790A880D3B92B203EBFE
:100E600083039A400368DD6A2A43DA621B4B0568F4
:100E7000194A9D420AD10D68122D07D1556825F4F3
:100E800000055560556845F48005556005689D422C
:100E90001DD1134D0B68AB4201D0112B17D15368F4
:100EA00023F480035360536843F4000353600968DC
:100EB000A9420CD10B490C4A0968B1FBF2F101EBD4
:100EC0008101490000E0491E00910029FBD180F812
:100ED0003C40002078BD000000230140002001407C
:100EE000120000104400002040420F00704770477D
:100EF000704770B504004FF0000503D0206C002649
:100F000010B107E0012070BD204600F01DF86664B6
:100F100084F83C60206CC00610D4206C20F488500B
:100F200040F0020020642046FFF710FD6664206C4C
:100F300020F0020040F00100206400E0012584F868
:100F40003C60284670BD000070B586B0064614218E
:100F50006846FFF7A6F925493068884243D12448FE
:100F60000025016841F4807101600068204900F4A7
:100F7000807014390590086840F001000860086826
:100F800000F001000590086840F002000860086861
:100F9000032400F002000590FE208DE83100694630
:100FA000144800F003FB009469461348CDE901455D
:100FB00000F0FCFA124C1148C4E900050015A560C8
:100FC000C4E90350800060618000A0618011E0618D
:100FD0000002C4E90805204600F0D2F908B1FFF785
:100FE000B9FEB463A66306B070BD000000200140E6
:100FF00044380240000002400004024010640240F5
:1010000064010020F8B5044600200E46009094F8D4
:101010003C10012907D0012184F83C1021688B681D
:10102000DB0702D011E00220F8BD8B6843F001031A
:101030008B603649364B0968B1FBF3F101EB410196
:1010400000E0491E00910029FBD121688B68DB0577
:1010500003D58B6823F480738B6021688B68DB0772
:1010600049D0236C40F20165AB4343F480732364A1
:101070004968490505D5216C21F4005141F480519E
:101080002164216CC90404D5616C21F006016164FE
:1010900000E0606484F83C00A16B1F481D4DC863EC
:1010A000A16B1E480864A16B1D48C86421686FF0DD
:1010B000220008602068416841F08061416020683A
:1010C000816841F4807181602168134632464C3159
:1010D000A06B00F0BFF96868C006206802D0114913
:1010E000884210D1816811F0405F0CD1816841F0D5
:1010F0008041816007E0206C40F010002064606C4B
:1011000040F0010060640020F8BD000044000020B1
:1011100040420F0000230140BF08000843090008B7
:101120002D090008002001402DE9F0410446876D9B
:1011300000F03AFB064694F835000025022806D058
:101140008020606584F834500120BDE8F08120687B
:10115000016821F0160101602068416921F08001D9
:101160004161206C08B9A06C20B12068016821F0B1
:10117000080101602068016821F0010101600CE0B4
:1011800000F012FB801B052807D920206065032092
:1011900084F8350084F83450D7E720680068C00729
:1011A000EED194F85C103F208840B860012084F8AC
:1011B000350084F834500020C7E790F83510022934
:1011C00003D08021416501207047052180F835104A
:1011D0000068016821F001010160002070470000F3
:1011E0002DE9F84304464FF00009CDF8009063481C
:1011F0004FF41651A56D0068B0FBF1F72E6894F816
:101200005C10082000FA01F131420FD021680A6811
:1012100052070BD50A6822F004020A6094F85C10A9
:101220008840A860606D40F00100606594F85C1033
:101230004FF0010808FA01F0304208D021684969EE
:10124000090604D5A860606D40F00200606594F85E
:101250005C1004208840304208D021680968890762
:1012600004D5A860606D40F00400606594F85C10DF
:1012700010208840304218D021680968090714D529
:10128000A86020680168490304D50068000308D5F8
:10129000A16C07E00168C90503D4016821F00801C9
:1012A0000160216C09B12046884794F85C10202029
:1012B0008840304231D021680968C9062DD5A86020
:1012C00094F8350005282068016806D0490347D501
:1012D000006800031DD4616C1CE021F01601016060
:1012E0002068416921F080014161206C08B9A06C3F
:1012F00020B12068016821F00801016094F85C10B9
:101300003F208840A86084F8358084F83490216DAF
:101310001FE0E16B09B120468847606D00282BD0A3
:10132000606DC00714D0052084F83500206801687E
:1013300021F0010101600098401C0090B84203D8E0
:1013400020680068C007F6D184F8358084F83490AE
:10135000E16C002910D001B02046BDE8F0430847F9
:101360000168C905D5D4016821F01001016084F835
:10137000358084F83490CCE7BDE8F8834400002041
:101380002DE9F041044600F00FFA06465CB1022058
:1013900084F83500002584F834502068016821F075
:1013A000010101600DE00120BDE8F08100F0FCF9D1
:1013B000801B052805D920206065032084F83500AE
:1013C000F2E720680068C007F0D122681168204861
:1013D0000140D4E901031843D4E9033633431843E9
:1013E00063691843A3691843E3691843236A1843E0
:1013F0000843616A042903D1D4E90B131943084354
:10140000106020684069666A20F0070130460E438C
:10141000012704280CD1A06A0643E06A40B12046A7
:10142000FFF708FC20B14020606584F83570BAE70A
:10143000206846612046FFF7E9FB94F85C203F21D5
:1014400091408160656584F835700020ACE700004C
:101450003F8010F02DE9F0410446866D90F834008D
:10146000002501280DD0012084F8340094F835704F
:101470000020012F07D084F8340002252846BDE85B
:10148000F0810220FBE7022784F835706065204672
:10149000FFF7FAFB94F85C103F208840B0602068AA
:1014A000016841F016010160206C20B120680168DC
:1014B00041F0080101602068016841F0010101600C
:1014C000DCE7000070B5044600F06EF90546601CCC
:1014D00002D004480078044400F066F9401BA042A2
:1014E000FAD370BD3800002070B5254E01240128C4
:1014F0000BD010282ED004282BD12248047002F0E3
:10150000FBF8BDE8704001F007BE1F4DD5F8100292
:10151000F0B901F039FE01281AD11C4801F05CF83D
:101520001B4801F059F802F0BDF8052002F0C4F89C
:101530000020C5F8B4024FF49670FFF7C3FF02F025
:10154000A9F80520FFF73EFBC5F8B44202F0B6F952
:10155000346070BDFFF71CFB70B902F0A3F80520E2
:1015600002F0AAF8C820FFF7ADFF02F093F80520BB
:10157000FFF728FB02F0A2F91020306070BD0000D8
:10158000143C01400300002000804042180200206B
:1015900080030020044910B50A68024202D00860A6
:1015A000FFF7A2FF10BD0000143C01402DE9F84FE9
:1015B000DFF8B8A1002201240AF1040B03254FF043
:1015C0000F090BF1040E00BF0B6804FA02F633405A
:1015D000B34273D10F7907F00307012F01D0022F17
:1015E00016D187684FEA420805FA08FC27EA0C077B
:1015F000D1F80CC00CFA08FC4CEA070CC0F808C083
:101600004768B7430E79C6F3001696403E434660DE
:101610000E79F643B6070DD0C768560005FA06FCEA
:1016200027EA0C07D1F808C00CFA06FC4CEA070CB4
:10163000C0F80CC00E7906F00306022E10D1D608B1
:1016400000EB8608D8F8206057074FEAD76C09FAF4
:101650000CF7BE430F6907FA0CF73743C8F8207040
:1016600006684FEA420C05FA0CF7BE430F7907F003
:10167000030707FA0CF7374307604E6816F4403F3C
:101680006DD03B4E376847F480473760366822F0AC
:10169000030706F480460096364E07EB060CDCF88E
:1016A000086897073F0F09FA07F826EA0806DFF8E7
:1016B000C880404503D14FF000081EE04FE0DFF83E
:1016C000BC80404502D14FF0010816E0DFF8B08041
:1016D000404502D14FF002080FE0DFF8A8804045F6
:1016E00002D14FF0030808E0DFF89C80404502D1AA
:1016F0004FF0040801E04FF0070808FA07F848EA3D
:101700000608CCF80888DAF800605746D1F804C01B
:101710009E435FEACC3C00D51E433E60DBF8006090
:101720005F46D1F804C09E435FEA8C3C00D51E435F
:101730003E60DEF800607746D1F804C09E435FEA61
:10174000CC2C00D51E433E60084F0C373E68D1F8C4
:1017500004C09E435FEA8C2C00D51E433E60521CA1
:10176000102AFFF431AFBDE8F88F0000003C0140C3
:1017700044380240003001400000024000040240B2
:1017800000080240000C024000100240426921EAB9
:1017900002030A4043EA0241816170470AB1816154
:1017A00070470904FBE700000148806870470000AB
:1017B0003800002070B5040025D094F83D000025C5
:1017C00020B984F83C50204600F04CFA242084F8DC
:1017D0003D002068016821F0010101602068016876
:1017E00041F4004101602068016821F4004101607A
:1017F00000F0AEFB4D4A6168914201D84C4900E0CF
:101800004C49884201D2012070BD4B492368B0FB8E
:10181000F1F15E6826F03F060E435E606368934216
:1018200006D94FF4967359434FF47A73B1FBF3F131
:101830002368491C1E6A26F03F063143196261681D
:10184000914210D84900401EB0FBF1F2521CC2F385
:101850000B02042A01D2042022E0B0FBF1F0401C6C
:10186000C0F30B001CE0A268F2B301EBC10303EB71
:101870000116431EB3FBF6F35B1C43F480431B05C8
:1018800049D092B301EBC10202EB0111401EB0FB43
:10189000F1F0401CC0F30B0040F4804040F40040E5
:1018A0002168CA694CF6FF739A431043C861D4E9B2
:1018B000071001432068026822F0C0021143016052
:1018C000D4E9030101432068826848F2FF339A4358
:1018D00011438160D4E9050108432168CA6822F0F8
:1018E000FF021043C86001E00EE016E020680168C6
:1018F00041F0010101602564202084F83D0025634A
:1019000084F83E50002070BD01EB4106431EB3FB3E
:10191000F6F35B1CB3E70120C2E701EB4101401E77
:10192000B0FBF1F0401CC0F30B00B7E7A08601004C
:1019300080841E0000093D0040420F002DE9FF4F4A
:1019400083B09A46DDE9119793460446DDF840805E
:10195000FFF72AFF054694F83D00202870D119238F
:10196000012271492046009501F0FEFA0028F5D1C8
:1019700094F83C00012863D0012084F83C002068E2
:101980000168C90703D1016841F0010101602068C5
:10199000016821F400610160222084F83D004020AC
:1019A00084F83E0000262664C4F82480A4F82A9017
:1019B000608D20855D48E062CDE9007553465A464A
:1019C0002046049901F0D8F900287CD1208DD0B1AF
:1019D000012821D00228206824D041698069009024
:1019E000208D032869D801282BD0514902283B4675
:1019F0004FF00002009559D08846204601F0B4FA15
:101A0000002860D13CE0206841698169009101684B
:101A100041F40071016077E02068016821F4806181
:101A20000160F0E7016821F48061016020680168CD
:101A300041F400610160206841698069009063E0C1
:101A40006FE02A463946204601F00DFB98BB20681E
:101A50000069616A08704EE02068016841F4007115
:101A6000016020680069616A0870606A401C6062F9
:101A7000218D491E2185618D491E6185216838E0CF
:101A80002068016821F48061016020680069616A52
:101A90000870606A401C6062208D401E2085608D49
:101AA000401E60853B46002241460095204601F0DD
:101AB0005BFA00B9D0E706E0FFE72A463946204640
:101AC00001F0D1FA18B1012007B0BDE8F08F20680D
:101AD0000069616A0870606A401C6062218D491E5D
:101AE0002185618D491E618521684A69D24352076B
:101AF0000AD409690170606A401C6062208D401E32
:101B00002085608D401E6085208D00287FF468AFA1
:101B1000202084F83D0084F83E6084F83C6000207A
:101B2000D2E70220D0E70000020010000000FFFF13
:101B3000040001002DE9FF4F83B09A46DDE91197BB
:101B400093460446DDF84080FFF72EFE054694F8E4
:101B50003D0020287FD119230122404920460095CD
:101B600001F002FA002876D194F83C00012872D0E6
:101B7000012084F83C0020680168C90703D101688E
:101B800041F0010101602068016821F400610160F9
:101B9000212084F83D00402084F83E000026266481
:101BA000C4F82480A4F82A90608D20852C48E06237
:101BB000CDE9007553465A462046049901F05AF97A
:101BC00070B930E02A463946204601F07FFA58B114
:101BD000206C042804D12068016841F40071016080
:101BE000012007B0BDE8F08F606A216800780861C5
:101BF000606A401C6062218D491E89B22185628D18
:101C0000521E628522685369DB435B070BD469B1BE
:101C100000781061606A401C6062208D401E208543
:101C2000608D401E6085208D0028CBD12A46394624
:101C3000204601F073F90028CAD154F83D0B016821
:101C400041F400710160202004F81E09E6776677F0
:101C50000020C6E7FFE70220C3E7000002001000F3
:101C60000000FFFFF0B587B0044614216846FEF778
:101C700018FB1A49206888422DD1194800240168B0
:101C800041F0020101600068122500F00200059099
:101C90004FF48060CDE90005032602940420CDE9CD
:101CA0000360104F69463846FFF780FC0820CDE9F5
:101CB000000502940920CDE9036069463846FFF724
:101CC00075FC07481030016841F48001016000682C
:101CD00000F48000059007B0F0BD000000580040FF
:101CE0003038024000040240024881680278114402
:101CF00081607047380000200B4810B5016841F43E
:101D000000710160016841F480610160016841F483
:101D100080710160032000F06FF8002000F006F8E9
:101D200000F024F8002010BD003C024070B50D4DBD
:101D300004464FF47A712878B1FBF0F00A4909683B
:101D4000B1FBF0F000F00CFB48B9102C07D20022D8
:101D50002146501E00F030F800206C6070BD01205C
:101D600070BD000038000020440000200A4808B57B
:101D7000016841F480410160006800F480400090F7
:101D80000548001F016841F080510160006800F0C3
:101D90008050009008BD000044380240002809DB54
:101DA00000F01F02012191404009800000F1E02075
:101DB000C0F8001170470000F0B40E4B1B680C46D1
:101DC000C3F30223C3F10705042D00D90425191D0F
:101DD000072901D2002300E0DB1E012606FA05F1E7
:101DE000491E214099409E40761E16403143F0BC6A
:101DF00002F010B80CED00E0064900F00702086898
:101E00004FF6FF03184040EA0220034A10430860DF
:101E1000704700000CED00E00000FA052DE9F047E6
:101E20000E46050065D0DFF81481D8F80000F7B23F
:101E300000F00700B04207D288F80070D8F8000020
:101E400000F00700B04254D128683D4C810712D5FC
:101E5000400703D5206840F4E05020602878000750
:101E600003D5206840F4604020602068A96820F015
:101E7000F000084320602878C0072DD030496868FA
:101E80000839012812D0022813D0032811D009687C
:101E9000890700292DDA216821F00301014321601F
:101EA000FFF782FC814641F2883A0EE00968890317
:101EB000EFE709688901ECE7FFF776FCA0EB090181
:101EC000514502D90320BDE8F0872068696800F019
:101ED0000C00B0EB810FEFD1D8F80010404601F0B4
:101EE0000701B14207D90770006800F00700B0424F
:101EF00001D00120E7E72878400705D52068E96888
:101F000020F4E050084320602878000706D52068B8
:101F1000296920F4604040EAC100206000F038F8F0
:101F20002168084AC1F30311515CC84006490860A2
:101F300006480068FFF7FAFE0020C4E7003C0240B4
:101F40000838024002690008440000203C000020DC
:101F50000448054900680968044AC1F38221515CBC
:101F6000C840704744000020083802401269000849
:101F70000448054900680968044AC1F34231515CCC
:101F8000C840704744000020083802401269000829
:101F9000154810B5006810F00C02144813D014490D
:101FA000042A0FD0082A0ED10F4C241F2268236860
:101FB00002F03F025B0207D52068C0F38810A0FB47
:101FC000010106E0084610BD2168C1F38811A1FB9C
:101FD00000010023FEF7FCF82168C1F30141491C10
:101FE0004900B0FBF1F010BD083802400024F400B5
:101FF00040787D012DE9F84F04006ED02078DFF89D
:102000004C93C007A9F104054AD009F10400016806
:10201000C1F38101012908D00068C0F381000228C2
:102020000AD1D9F80000400206D52868800337D5C8
:1020300060680028E1D033E06068B0F5803F10D0E0
:10204000B0F5A02F286810D020F4803028602868D0
:1020500020F4802028606068A8B1FFF7A5FB064641
:102060000DE0286840F48030F4E740F480202860D8
:10207000F7E700BFFFF798FB801B642873D8286838
:102080008003F7D50CE0FFF78FFB064605E000BFA5
:10209000FFF78AFB801B6428F0D828688003F7D4F8
:1020A0002078DFF8AC8280074FF0000A3ED5A748C1
:1020B000001D016811F00C0F08D00068C0F381000A
:1020C00002280BD1D9F80000400207D42868800705
:1020D00016D5E068012800D112E033E1E068B8B11C
:1020E0000120C8F80000FFF75FFB064605E000BFCF
:1020F000FFF75AFB801B0228C0D828688007F7D555
:102100002868216920F0F80040EAC10028600DE04D
:10211000C8F800A0FFF748FB064604E0FFF744FBC1
:10212000801B02281FD828688007F7D42078000772
:1021300022D5864F87486169703771B101210160EE
:10214000FFF732FB064604E0FFF72EFB801B022858
:1021500009D838688007F7D50EE0C0F800A0FFF76F
:1021600023FB064605E082E0FFF71EFB801B0228EA
:102170007DD838688007F7D42078400768D5DFF825
:10218000CCB100270BF13C0BDBF80000C0000BD4F6
:10219000DBF8001041F08051CBF80010DBF80000B4
:1021A000012700F0805000906B4E3068C00510D4BD
:1021B000306840F480703060FFF7F6FA009005E078
:1021C000FFF7F2FA0099401A022850D83068C0058B
:1021D000F6D55E4EA0686C3601280FD00528306811
:1021E00010D020F001003060306820F00400306032
:1021F000A068B8B1FFF7D8FA00900FE0306840F05F
:102200000100F4E740F004003060F7E7FFF7CCFA94
:102210000099411A41F28830814266D830688007BF
:10222000F4D50EE0FFF7C0FA009007E0FFF7BCFA24
:102230000099411A41F28830814256D830688007AF
:10224000F4D42FB1DBF8001021F08051CBF800104E
:10225000A069C8B33D49091D0968C1F3810102297C
:102260004AD00228504607D0C8F8600000E03CE0A1
:10227000FFF79AFA04463BE04746C8F86000FFF7CC
:1022800093FA064605E000BFFFF78EFA801B02288E
:102290002BD828688001F7D4D4E907010843A16A44
:1022A0002E4A490802EB0141626A41EA8211084361
:1022B00094F82C1040EA0161C9F80010012038663A
:1022C000FFF772FA044606E03EE000BFFFF76CFA43
:1022D000001B022809D828688001F7D534E000BF28
:1022E000FFF762FA001B022802D90320BDE8F88F2D
:1022F00028688001F4D427E00128F7D0D9F800003D
:10230000E26900F4800191421CD1226A00F03F0191
:10231000914217D147F6C071626A0140B1EB821F4A
:1023200010D1A26A4FF0FF3300F4403103EB5202A8
:10233000B1EB024F06D194F82C1000F07060B0EBB6
:10234000016F01D00120D1E70020CFE7043802401F
:1023500000004742800E4742007000400000FFFF2F
:1023600010B5401EB0F1807F01D3012010BD4FF0A9
:10237000E02460610F21601701F04CFD0020A06196
:1023800007202061002010BD7047704770B590F89D
:102390003C20012A2CD0012480F83C40022280F805
:1023A0003D2003685A689D6822F070060A6832432F
:1023B0005A60104B02689A420ED0B2F1804F0BD097
:1023C0000D4B9A4208D00D4B9A4205D00C4B9A42C5
:1023D00002D00C4B9A4204D1496825F0800319437E
:1023E000916080F83D40002180F83C10084670BDA7
:1023F000022070BD000001400004004000080040C1
:10240000000C00400040014010B5040003D094F8D7
:102410003D0010B107E0012010BD002084F83C0011
:10242000204600F01FF8022084F83D00211D20689E
:1024300001F0BEFA012084F8460084F83E0084F8DA
:102440003F0084F8400084F8410084F8420084F89A
:10245000430084F8440084F8450084F83D000020DF
:1024600010BD000008B53A4A01683A4891420ED1C1
:10247000016841F0020101600068002200F00200E2
:10248000009005211D20FFF797FC1D205AE0324ADD
:1024900091420ED1016841F0040101600068002200
:1024A00000F00400009005211E20FFF785FC1E208F
:1024B00048E02A4A91420ED1016841F008010160CA
:1024C0000068002200F00800009002213220FFF78F
:1024D00073FC322036E01F48214A001D91420ED184
:1024E000016841F4803101600068002200F480300E
:1024F000009005211820FFF75FFC182022E0194A00
:1025000091420ED1016841F400310160006800225F
:1025100000F40030009001211920FFF74DFC192034
:1025200010E0114A914211D1016841F4802101600B
:102530000068002200F48020009005211A20FFF797
:102540003BFC1A20BDE80840FFF728BC08BD00008E
:10255000000400404038024000080040000C0040E9
:1025600000400140004401400048014090F83D1007
:10257000012901D001207047022180F83D10016837
:10258000CA6842F00102CA6000680E4988420ED053
:10259000B0F1804F0BD00C49884208D00B498842DB
:1025A00005D00B49884202D00A49884204D181688B
:1025B00001F00701062903D0016841F00101016023
:1025C0000020704700000140000400400008004067
:1025D000000C0040004001400168CA6822F001027E
:1025E000CA6001680A6A41F211131A4207D10A6AE5
:1025F0009B101A4203D10A6822F001020A600121ED
:1026000080F83D100020704770B5044690F83C00FB
:102610000025012817D0012684F83C60022084F8A8
:102620003D002068826822F0770222F47F428260B7
:102630000868502838D00DDC20284FD005DC90B336
:10264000102811D14AE0022070BD302846D0402821
:102650000AD13BE060282FD070280DD0B0F5805F04
:1026600003D0B0F5005F12D0012584F83D60002052
:1026700084F83C00284670BDCB68D1E90121206870
:1026800001F0E2F92068816841F0770109E0CB6848
:10269000D1E90121206801F0D7F92068816841F46F
:1026A00080418160E1E719E0CA684968206801F06B
:1026B000DDF95021206806E0CA684968206801F009
:1026C000E6F96021206801F0C9F9CEE7CA684968D7
:1026D000206801F0CBF940212068F4E72268014628
:1026E0001046F0E7704770B50446006801694FF086
:1026F0000005C943890715D4C168C943890711D4A6
:10270000E91E01610120207720688069800720464A
:1027100002D0FFF7E7FF04E000F098F8204600F051
:1027200096F8257720680169C943490717D4C1681D
:10273000C943490713D46FF00401016102202077D7
:102740002068806910F4407F204602D0FFF7CAFF5E
:1027500004E000F07BF8204600F079F82577206847
:102760000169C943090716D4C168C943090712D4CE
:102770006FF008010161042020772068C06980079C
:10278000204602D0FFF7AEFF04E000F05FF82046DD
:1027900000F05DF8257720680169C943C90617D4A0
:1027A000C168C943C90613D46FF010010161082044
:1027B00020772068C06910F4407F204602D0FFF7E0
:1027C00091FF04E000F042F8204600F040F8257741
:1027D00020680169C943C90708D1C168C943C9074D
:1027E00004D1891E0161204600F032F82068016999
:1027F000C943090609D4C168C943090605D46FF065
:10280000800101612046FFF7BFFD20680169C943CF
:10281000490609D4C168C943490605D46FF040018F
:102820000161204600F058F820680169C943890613
:102830000BD4C168C943890607D46FF02001016138
:102840002046BDE87040FFF7A0BD70BD70477047DF
:1028500070B505461848854201D103F051F8174874
:10286000854201D103F07EF8154885421CD102F063
:1028700087FDFF2310221349134800F00BFA80B99B
:10288000124C0026A670607801280DD1E07801284E
:102890000AD1E670FF2308220D490B4800F0FAF92F
:1028A00008B1FEF757FAE6700A48854203D1BDE841
:1028B000704002F0F5BF70BD18020020F002002049
:1028C000380300204C000020C80300200000002036
:1028D0009C00002080030020704770477047000074
:1028E000F8B5016804460868CA684B6910F00F0F14
:1028F0004FF0000559D003F0010602F490773743FA
:1029000065D0C10705D0D10503D5216C41F0010187
:102910002164410705D5D90703D0216C41F002019C
:102920002164810705D5D90703D0216C41F004014A
:102930002164010707D502F02001314303D0216C47
:1029400041F008012164216C00293AD0800604D5A9
:10295000900602D5204601F0DBF820684069216C22
:10296000C0F38010090700D460B3204601F0A9F835
:1029700020684069400621D52068143050E8001FC7
:1029800021F0400140E80012002AF5D1A06BA8B167
:102990006C490165A06BFEF710FC002811D0A06BFC
:1029A000016D01B0BDE8F040084783060FD59306DE
:1029B0000DD52046BDE8F84001F0AAB82046FFF743
:1029C0008DFFF8BD2046FFF789FF2564F8BD266B13
:1029D0002023012E79D1C60677D5D60675D508688D
:1029E000486800904869400640D5A16B0868406877
:1029F0000004000CEAD0A28D8242E7D9E085C869C4
:102A0000B0F5807F2DD020680C3050E8001F21F4F5
:102A1000807140E80012002AF5D12068143050E897
:102A2000001F21F0010140E80012002AF5D12068C2
:102A3000143050E8001F21F0400140E80012002A45
:102A4000F5D184F83E30256320680C3050E8001F33
:102A500021F0100140E80012002AF5D1A06BFEF72A
:102A600063FBA08DE18D401A81B229E0A08DE18D3C
:102A7000401A81B2E08D0028A8D00029A6D0206895
:102A80000C3050E8002F22F4907240E80026002E0F
:102A9000F5D12068143050E8002F22F0010240E800
:102AA0000026002EF5D184F83E30256320680C30D6
:102AB00050E8002F22F0100240E80023002BF5D14F
:102AC0002046FFF70AFFF8BDFFE705062BD51506E0
:102AD00029D594F83D002128F5D1A068B0F5805F94
:102AE00001D12069B0B1206A411C216221680078BF
:102AF0004860E08C401E0004000CE084E3D12068B4
:102B0000C16821F08001C1602068C16841F04001C6
:102B1000C160D8E7206A0088C0F308004860206AD6
:102B2000801C2062E5E74006CDD55006CBD5CA68AB
:102B3000204622F04002CA6084F83D3000F003F9DC
:102B4000C1E70000B33A000870B5040004D094F85F
:102B50003D00002510B106E0012070BD84F83C5016
:102B6000204600F023F8242084F83D002068C16846
:102B700021F40051C160204601F02AF82068016963
:102B800021F4904101612068416921F02A014161ED
:102B90002068C16841F40051C1602564202084F898
:102BA0003D0084F83E00002070BD000010B586B0E6
:102BB000044614216846FDF774FB184920688842D2
:102BC00029D117480021026842F010020260006813
:102BD00000F01000059012481438026842F001021B
:102BE0000260006800F0010005904FF4C0600090A2
:102BF0000220CDE9010103200390072004906946DB
:102C00000848FEF7D3FC002211462520FFF7D4F830
:102C10002520FFF7C3F806B010BD000000100140EA
:102C2000443802400000024090F83E30202B0ED184
:102C300059B152B190F83C30012B08D0012380F8F3
:102C40003C300023036301F049B8012070470220A3
:102C5000704700000D4988420ED10D480178CC29FB
:102C60000AD14178DD2907D18278411FC078FF2A37
:102C700003D0EE2A00D108717047662804D0772867
:102C8000FAD10020487070470120FBE7C8030020FC
:102C9000050000202DE9F843044690F83D001F464A
:102CA00016460D4620284CD1C5B1BEB194F83C0063
:102CB000012846D0012084F83C004FF00008C4F8F9
:102CC0004080212084F83D00FEF76EFDA6848146F9
:102CD000E684A068B0F5805F03D004E00120BDE881
:102CE000F883206928B12E465FF0000584F83C8007
:102CF0000EE00026FAE78021204601F00AF8A0B98C
:102D0000AEB116F8010B21684860E08C401EE084EB
:102D1000E08C4B464FF0000200970028EBD14FF0BB
:102D20004001204600F0F5FF30B10320D7E735F829
:102D3000020BC0F30800E6E7202084F83D000020E5
:102D4000CDE70220CBE77047FEE701684A69D2432E
:102D500052050FD46FF480624A61002140F8301FA1
:102D6000202242738173026942F0040202610173FE
:102D700001207047002070472DE9F84F0446006895
:102D800089460B9D01689846174641F480610160B1
:102D90002068016841F48071016000954FF0011BCB
:102DA0000022594620460A9B00F0DEF84FF4007AD4
:102DB00040B120680068C00501D5C4F840A00320D8
:102DC000BDE8F88F216809F0FE0008612B4628490C
:102DD00020460A9A00F0FCF8F0BB2068416980693F
:102DE00000902A4620460A9900F070F940B1206C04
:102DF00004283AD12068016841F40071016034E090
:102E0000FEB2B8F1010F09D02168380A08612A46DC
:102E100020460A9900F05AF90028E8D12068066196
:102E20002A4620460A9900F051F90028DFD120688F
:102E3000016841F4807101600095002259462046E6
:102E40000A9B00F091F80028B3D1216809F0FF0037
:102E500040F00100086100E007E02B4604492046ED
:102E60000A9A00F0B5F80028AAD00120A8E70000CF
:102E7000020001002DE9F843044600680D46DDE933
:102E8000089701689846164641F4807101604B46E8
:102E900000224FF001112046009700F065F848B17C
:102EA00020680068C00502D54FF40070206403203C
:102EB000BDE8F883216805F0FE0008613B464A46FC
:102EC0001549204600F084F888B920684169806976
:102ED00000903A464946204600F0F8F848B1206C88
:102EE000042804D12068016841F4007101600120C8
:102EF000DEE7F5B2B8F1010F09D02168300A0861A8
:102F00003A464946204600F0E1F80028E7D120681B
:102F100005610020CCE700000200010070B51646F4
:102F20000D4604460DE02046FFF70FFF08B10120D3
:102F300070BD681C05D0FEF737FC801BA84207D87F
:102F400035B120684069C0434007ECD4002070BD13
:102F5000002044F8300F20216173A073216941F0F3
:102F6000200121612073E2E72DE9F0471E469046DB
:102F70000D460446C1F30747DDF8209008E0701CB9
:102F800006D0FEF711FCA0EB0900B0420FD876B1D5
:102F90002068012F18D0806925EA00000004000C89
:102FA00014D000214145EAD00020BDE8F087002080
:102FB00044F8300F20216173A073216941F0200192
:102FC000216120730120F0E74069E5E70121E9E78D
:102FD0002DE9F0479A4691460E46044600254FF0EB
:102FE0002008C1F3074725E020684069C043400539
:102FF00014D42068016841F40071016021686FF405
:1030000080604861256384F83D8084F83E50206CE0
:1030100040F00400206484F83C501FE0B9F1FF3F09
:1030200008D0FEF7C1FBA0EB0A0149450CD8B9F165
:10303000000F09D02068012F13D0806926EA000014
:103040000004000C0BD0CFE744F8305F84F80D800B
:10305000A573206940F02000206125730120BDE8A0
:10306000F0874069EAE72DE9F041002590460E46D9
:103070000446202717E04069C043C0060CD454F82A
:10308000301B6FF01000486144F810596777A5773E
:10309000206A2062257717E0FEF786FBA0EB080088
:1030A000B04208D83EB120684169C9434906E2D41C
:1030B0000020BDE8F08144F8305F6773A573206994
:1030C00040F02000206125730120F2E770B516461C
:1030D0000D4604460DE02046FFF737FE08B10120FB
:1030E00070BD681C05D0FEF75FFB801BA84207D8A7
:1030F00035B120684069C0430006ECD4002070BDA3
:10310000002044F8300F20216173A073216941F041
:10311000200121612073E2E71648DFED170A90EDE8
:10312000000A20EE200ABDEEC00A10EE100A0112BD
:103130001248817010EE101AC170114991ED000A09
:1031400020EE200ABDEEC00A10EE101A091201711D
:1031500010EE101A41710B4991ED000A20EE200A81
:10316000BDEEC00A10EE101A0912817110EE101A8D
:10317000C17170471C0000200000C8429C00002064
:10318000200000202400002070B500240A4E2546AF
:103190001420FEF797F9D6F80002012805D06D1C1F
:1031A000EDB2052DF4D9002070BD641CE4B20025F9
:1031B000322CEDD3012070BD000040427FB50021CC
:1031C0003D480091019102913A4A03910260012425
:1031D0004FF440320461C0E90121047680F82010E8
:1031E000364AC0E90A210925C561C16080F830402E
:1031F0004461FDF77EFE08B1FDF7ACFD009401943B
:10320000062469462C480294FDF7BEFD08B1FDF77F
:10321000A1FD02200090019069462748FDF7B4FD0A
:1032200008B1FDF797FD0320009001906946224800
:10323000FDF7AAFD08B1FDF78DFD04200090019077
:1032400069461D48FDF7A0FD08B1FDF783FD052087
:103250000090019069461848FDF796FD08B1FDF70A
:1032600079FD0094694614480194FDF78DFD08B17D
:10327000FDF770FD07200090019069460E48FDF7AC
:1032800083FD08B1FDF766FD0820009001906946B6
:103290000948FDF779FD08B1FDF75CFD0095694629
:1032A00005480195FDF770FD002801D0FDF752FD9E
:1032B0007FBD0000002001401C0100200100000F24
:1032C000094808B5016841F48001016000680022E6
:1032D00000F48000009011463820FEF76DFDBDE837
:1032E00008403820FEF75ABD303802402DE9F04F33
:1032F00087B014216846FCF7D4FF484800240168D1
:1033000041F004010160016801F0040105910168C8
:1033100041F001010160016801F0010105910168BE
:1033200041F00201016000683D4F00F0020005908D
:1033300000224FF400513846FEF730FA0122910383
:103340003846FEF72BFADFF8DCA042F2E018012243
:1033500041465046FEF722FADFF8CCB04FF4004960
:10336000002249465846FEF719FA4FF4C04001259D
:10337000022603948DE8610069463846FEF716F987
:103380004FF488100095CDE9010469465846FEF7D0
:103390000DF9142000904FF40410CDE901046946A2
:1033A0005046FEF703F92F030097CDE90146694621
:1033B0005046FEF7FBF8CDE90264CDE90085694689
:1033C0005046FEF7F3F80097CDE9014669465846A6
:1033D000FEF7ECF8CDF80090CDE901546946584667
:1033E0000394FEF7E3F8002201210620FEF7E4FC37
:1033F0000620FEF7D3FC002202210820FEF7DCFCA9
:103400000820FEF7CBFC002201210A20FEF7D4FCA5
:103410000A20FEF7C3FC07B0BDE8F08F3038024049
:103420000008024000040240000002400D4810B5B0
:103430000B4901600C49416000214FF480428160DA
:10344000C0E9031241618161C1610162FEF7B2F915
:10345000002803D0BDE81040FDF77CBC10BD000083
:1034600000580040C4010020A08601000B4810B5A0
:103470000949016063214160002140F2CF72C0E937
:10348000021201618161FEF7BFFF002803D0BDE891
:103490001040FDF75FBC10BD004401403803002020
:1034A0000B4810B5094901606321416000214CF2CD
:1034B0004F32C0E9021201618161FEF7A5FF0028C9
:1034C00003D0BDE81040FDF745BC10BD00480140E9
:1034D0008003002010B586B00024174800940194A2
:1034E00002940394049413490594016040F2E73177
:1034F000C0E901144CF25031C0E903148461FEF7B5
:1035000083FF08B1FDF726FC4FF480500090694618
:103510000948FFF779F808B1FDF71CFC049404A9E9
:1035200005480594FEF732FF002801D0FDF712FC94
:1035300006B010BD000400401802002010B586B08F
:1035400000241748009401940294039404941349AE
:10355000059401606321C0E901144CF24F31C0E9C8
:1035600003148461FEF750FF08B1FDF7F3FB4FF43D
:103570008050009069460A48FFF746F808B1FDF709
:10358000E9FB049404A906480594FEF7FFFE002811
:1035900001D0FDF7DFFB06B010BD000000080040C1
:1035A0006002002010B586B00024174800940194F2
:1035B0000294039404941349059401606321C0E9C3
:1035C00001144FF47A71C0E903148461FEF71CFF03
:1035D00008B1FDF7BFFB4FF48050009069460A48E0
:1035E000FFF712F808B1FDF7B5FB049404A90648EB
:1035F0000594FEF7CBFE002801D0FDF7ABFB06B02B
:1036000010BD0000000C0040A80200201FB50021E2
:1036100010480091019102910D4A0391026040F21D
:10362000E732C0E90121521CC0E903218161FEF7A4
:10363000EBFE08B1FDF78EFB4FF480500090694619
:103640000448FEF7E1FF002801D0FDF783FB1FBD12
:1036500000400140F00200200C4810B50A4901600A
:103660004FF4E1214160002181600C22C160C0E97A
:1036700004128161C161FFF767FA002803D0BDE839
:103680001040FDF767BB10BD00100140C8030020CB
:10369000FEE7000002490020C1F8B40270470000B4
:1036A0000000414202490120C1F8B4027047000005
:1036B00000004142FEE7000000220D4906280AD220
:1036C000DFE800F0030A0D071013C1F89822C1F8D3
:1036D0009C22C1F8A0227047C1F898227047C1F817
:1036E0009C227047C1F8A022F6E7C1F8A022F6E7B5
:1036F0000080404270470000F0B5624C62492DEDF9
:103700000A8B89B007A806AB02AACDE900405F4842
:1037100001F0B8FA2088C0057ED59DED020AF8EECA
:10372000C00A9FED5B0A5B4D5B4C60EE800A5B4E0E
:10373000B8EE009AC5ED000A9DED031A584FB0EEA1
:10374000008AB8EEC11A60EE880A61EE001AC4ED74
:10375000001A9DED041A61EE891AB8EEC11A21EE25
:10376000001A86ED001A9DED052AB8EEC22A22EE57
:10377000000A87ED000A21EE800A00EE810A10EEB1
:10378000100AFCF72EFF41EC100B00F055FB9FEDEB
:1037900045AB51EC100B53EC1A2BFCF741FEFCF738
:1037A00033FF42490860D4ED008A28EE890A60EEB2
:1037B000280A96ED000A20EE08BA4BEE400AB7EE52
:1037C000000A30EE800A10EE100AFCF70AFF97EDAF
:1037D000000AD5ED000A41EC190B2BEE000A60EE51
:1037E000880A00EEA80A10EE100AFCF7FAFE41EC77
:1037F000100BB0EE491AF0EE691A00F039FE53ECE6
:103800001A2B51EC100BFCF70BFEFCF7FDFE2849C0
:10381000086095ED00CA00E02FE02CEE0C0AD4ED14
:10382000009A96ED009AD7ED008A09EEA90A09EEF2
:10383000490A08EEE80A10EE100AFCF7D2FE29EE5B
:10384000890A41EC1B0B0CEE280A20EE080A10EE48
:10385000100AFCF7C6FE41EC100BB0EE4B1AF0EE6E
:103860006B1A00F005FE53EC1A2B51EC100BFCF711
:10387000D7FDFCF7C9FE0F49086009B0BDEC0A8B03
:10388000F0BD000018000020120000200C000020F5
:1038900000008030280000202C0000203000002094
:1038A000340000206666666666A64C401C00002058
:1038B0002000002024000020704700000249002062
:1038C000C1F894027047000000804042FEF70CBA35
:1038D00030B593B030216846FCF7E3FC14210CA806
:1038E000FCF7DFFC1A480024016841F080510160B8
:1038F000006800F0805011901648016841F4404182
:1039000001600068022500F44040119001200390FE
:103910001020009506950490CDE90740C820CDE918
:10392000090504200B906846FEF764FB60B90F2080
:10393000CDE90C05E802CDE90E4003210CA8109456
:10394000FEF76CFA002801D0FDF704FA13B030BD81
:1039500040380240007000400248016841F47001A4
:103960000160704788ED00E00148FEF7BCBE000032
:10397000F00200200148FEF7B6BE000080030020E0
:103980000148FEF7B0BE0000380300200148FEF7F2
:10399000AABE0000180200200148FEF7A4BE0000E5
:1039A000600200200148FEF79EBE0000A802002031
:1039B000F0B502681D4B1E4C9F031E4D1E4E9842D3
:1039C00007D0B84205D0A04203D0A84201D0B042EF
:1039D00004D122F0700C4A6842EA0C02984210D0DE
:1039E000B8420ED0A0420CD0A8420AD0B04208D0B3
:1039F000124CA04205D0124CA04202D0114CA04261
:103A000003D122F44074CA6822434C6922F0800238
:103A1000224302608A68C2620A688262984201D1C7
:103A20000969016301214161F0BD0000000001400E
:103A30000004004000080040000C0040004001402D
:103A4000004401400048014010B5846842EA032266
:103A500024F47F440A432243826010BD826822F02E
:103A600070020A4342F007018160704710B5036A93
:103A7000046A24F001040462846924F0F00444EA36
:103A8000021423F00A020A438461026210BD10B5D9
:103A9000036A23F0100303628369046A23F470430A
:103AA00043EA023224F0A00343EA01118261016279
:103AB00010BD10B5806B0021C185C184FEF70EFFDB
:103AC00010BD01680C3151E8002F22F4907241E8DA
:103AD0000023002BF5D10168143151E8002F22F0AA
:103AE000010241E80023002BF5D1016B012909D126
:103AF00001680C3151E8002F22F0100241E8002348
:103B0000002BF5D1202180F83E1000210163704781
:103B100008B590F83E10222901D0022008BD826825
:103B20004FF480539A4201D1016921B1816A9A42CE
:103B30001BD04AB10AE00268816A5268C2F30802E7
:103B40000A80816A891C08E0026972B102685268C1
:103B500002F07F020A70816A491C8162C18D491E90
:103B60000904090CC18503D019E002685268F1E725
:103B70000168CA6822F02002CA600168CA6822F49B
:103B80008072CA6001684A6922F001024A612021FC
:103B900080F83E10016B012903D0FFF75BF800208D
:103BA00008BD0021016301680C3151E8002F22F0AB
:103BB000100241E80023002BF5D101680A68D20603
:103BC00002D50A6849680091818DFEF786FEE6E716
:103BD00070B5044600680169E26821F44051114360
:103BE00001612169A068E2690843616911430843E2
:103BF0002168CA6849F20C639A430243CA6020688C
:103C00004169A26921F44071114341613149206841
:103C1000884202D03049884202D1FEF7A9F901E07A
:103C2000FEF796F9E2690023192164253226B2F5E0
:103C3000004F626828D0A0FB0101930F9200FCF7AF
:103C4000C7FA0146B0FBF5F06FF01802504301EBE4
:103C5000800006EB0010B0FBF5F000F0F002B1FBC5
:103C6000F5F002EB0012B1FBF5F06FF018035843CA
:103C700001EB800006EB0010B0FBF5F000F00F0048
:103C800021681044886070BDA0FB010192185B415F
:103C9000FCF79EFA0146B0FBF5F00201B1FBF5F02E
:103CA0006FF01803584301EB800006EBC000B0FB37
:103CB000F5F000F0F80002EB4002B1FBF5F05843DC
:103CC00001EB800006EBC000B0FBF5F000F0070050
:103CD000D6E7000000100140001401408162828597
:103CE000C28500210164222280F83E2080F83C1029
:103CF0000168CA6842F48072CA6001684A6942F089
:103D000001024A610068C16841F02001C1600020E1
:103D100070472DE9F041984617460E460446069D29
:103D200027E0681C25D02DB1FDF73EFDA0EB080073
:103D3000A8421ED920680C3050E8001F21F4D07131
:103D400040E80012002AF5D12068143050E8001F26
:103D500021F0010140E80012002AF5D1202084F86A
:103D60003D0084F83E00002084F83C000320BDE8BC
:103D7000F0812068006836EA000004D00020B842D4
:103D8000CFD00020F3E70120F9E700000148FEF75B
:103D9000A7BD0000C8030020FEE7000010B5FCF737
:103DA00069FEFFF7F1F9064C28B9FCF7F1FE10B9EE
:103DB0000020C4F894020120C4F8940210BD000051
:103DC000008040420FB4054B10B503A9044A029885
:103DD00000F00CFD10BC5DF814FB00006D530008F2
:103DE000C400002003B401984100009850EAC120AB
:103DF00018BF04204A0D18BF40F0010040F2FF72C6
:103E0000B2EB515F08BF40F00200012808BF052057
:103E100002B070470907090E002804DB00F1E0201A
:103E200080F80014704700F00F0000F1E02080F8E7
:103E3000141D70470000000070B5C1482DED020B45
:103E40002DED0E8B82B0119D25F000449FEDBEDB61
:103E50009FEDBFEB84423EDBA4F140511098A1F1ED
:103E60007F6108430FD0BC48844202DC28D11098FF
:103E700030B39DED100B02B0BDEC0E8B02B0BDE86F
:103E8000704000F069BC9DED100B53EC1D2B51EC04
:103E9000100BFCF7C5FA9DED100B41EC180B53EC21
:103EA0001E2B51EC100BFCF7BBFA53EC182BFCF754
:103EB00010FA41EC100B02B0BDEC0E8B02B070BDDD
:103EC000012000F08DFC02B0BDEC0E8B02B0BDE80D
:103ED000704000F055BCA1489FEDA18B844256DA9A
:103EE0009DED100BB4F1795F0ADA51EC100BFFF77E
:103EF00079FF042808BF00F053FC9DED100BDAE7B2
:103F000053EC102B51EC100BFCF78AFA41EC190B17
:103F100095480621B0EE490AF0EE690A784400F0AF
:103F20009FFB53EC192B51EC100BFCF779FA41EC89
:103F30001A0B8E48B0EE490AF0EE690A0421784463
:103F400000F08EFB53EC192B51EC100BFCF768FAC8
:103F500053EC182BFCF7BDF941EC100B51EC1A0B8C
:103F600053EC102BFCF7CEFACDE900019DED000BD0
:103F700053EC102B9DED100B51EC100BFCF750FA8D
:103F80009DED101B53EC112BFCF7A3F9D2E09DED36
:103F9000100B51EC100B01F0DDF953EC182BFCF772
:103FA0003CFA9FED730BCDE9000153EC102B9DED16
:103FB000000B51EC100BFCF733FA41EC190B6E4877
:103FC0000621B0EE490AF0EE690A784400F048FB99
:103FD00053EC192B51EC100BFCF722FA41EC1B0BA4
:103FE0006648B0EE490AF0EE690A0421784400F010
:103FF00037FB53EC192B51EC100BFCF711FA53EC77
:10400000182BFCF766F941EC1C0B51EC190B02F074
:104010003DFC41EC180B5A489FED5BABA04222DC03
:1040200053EC1C2B51EC1B0BFCF76CFACDE9000197
:104030009DED000B51EC180B53EC102BFCF7F0F935
:1040400053EC182BFCF745F953EC1A2BFCF7E8F965
:1040500053EC1D2BFCF7DEF953EC1E2BFCF7DDF9BE
:1040600041EC100B5FE08DED008B002000909DED8A
:10407000000B51EC180B53EC102BFCF72AF99DEDBB
:10408000000B41EC1E0B53EC102B51EC100BFCF70A
:10409000C7F953EC192BFCF7C0F953EC1E2BFCF7B6
:1040A00031FA41EC190B53EC1C2B51EC1B0BFCF7B8
:1040B00029FA41EC1B0B53EC1A2B51EC190BFCF7B2
:1040C000AFF953EC1D2BFCF7A8F941EC190B53EC9D
:1040D0001A2B51EC180BFCF7A3F953EC1B2BFCF734
:1040E0009FF953EC192BFCF795F99DED000B41EC72
:1040F000180B53EC1A2B51EC100BFCF791F99FEDB8
:10410000249B53EC192BFCF788F941EC100B51EC74
:10411000180B53EC102BFCF77DF953EC192BFCF723
:104120007CF941EC100B002D3FF7C5AE51EC100BA4
:1041300081F0004141EC100BBDE6000000000000E2
:104140000000F03F00000000075C143326A6913CFD
:10415000182D4454FB21F93F0000F07F0000E03FA0
:10416000000000000000F03F483600005636000016
:10417000000000000000E03F9A350000A835000074
:104180003333EF3F0000000000000000000000405B
:10419000182D4454FB21E93F70B59B482DED020BCF
:1041A0002DED068B079D25F00044A04218DC9748B2
:1041B000844202DC0AD1069840B19DED060BBDECAD
:1041C000068B02B0BDE8704000F0C6BA002DCCBF2F
:1041D0009FED8F0B9FED900BBDEC068B02B070BD79
:1041E0008F48A04215DD8F48A042D8BF4FF0FF3462
:1041F00058DD9DED060B51EC100BFFF7F3FD042885
:1042000008BF00F0CDFA9DED060BBDEC068B02B0A9
:1042100070BD9DED060B51EC100B01F09BF8CDE944
:10422000060181489FED828BA0423CDD8248A0427E
:104230001FDD00249FED82AB9DED060B53EC1A2B86
:1042400051EC100BFCF745F89DED060B41EC190BFA
:1042500053EC1A2B51EC100BFCF7E2F853EC182B33
:10426000FCF7D8F853EC192BFCF74CF9CDE9060113
:1042700049E09DED060B012453EC182B51EC100B7B
:10428000FCF727F89DED060B41EC190B53EC182BAE
:1042900051EC100BFCF7BEF853EC192BFCF732F97C
:1042A000CDE906012FE06848A0421FDD02249FED02
:1042B000689B9DED060B53EC192B51EC100BFCF792
:1042C000AFF853EC182BFCF704F89DED060B41EC0E
:1042D000180B53EC192B51EC100BFCF79BF853EC1B
:1042E000182BFCF70FF9CDE906010CE09DED060B4C
:1042F000032453EC102B9FED580B51EC100BFCF7E3
:1043000001F9CDE906019DED060B53EC102B51ECA4
:10431000100BFCF785F841EC180B53EC182BFCF74D
:104320007FF841EC190B4E480621B0EE490AF0EE39
:10433000690A784400F094F953EC182B51EC100BF7
:10434000FCF76EF841EC180B4648B0EE490AF0EE67
:10435000690A0521784400F083F953EC192B51ECDC
:10436000100BFCF75DF841EC100B51EC180B53EC03
:10437000102B002C0EDAFBF7ACFF9DED061B53EC67
:10438000112BFCF74DF89DED061B53EC112BFCF7A0
:1043900044F835E0FBF79DFF9DED061B53EC112B18
:1043A000FCF73EF841EC100B2F48784400EBC400BA
:1043B00090ED001B51EC100B53EC112BFCF72AF87D
:1043C0009DED061B53EC112BFCF724F841EC100B70
:1043D0002648784400EBC40090ED001B51EC100B14
:1043E00053EC112BFCF719F841EC100B002DA2BF78
:1043F000BDEC068B02B070BD51EC100B81F000419A
:1044000041EC100B01E70000000010440000F07FB9
:10441000182D4454FB21F93F182D4454FB21F9BFBA
:104420000000DC3F0000203E0000F33F00000000E1
:10443000000000000000F03F0000E63F0000000028
:104440000000000000000040008003400000000069
:10445000000000000000F83F000000000000F0BF76
:10446000EA320000A03200002A320000E2310000EF
:1044700070B56B4E2DED040B2DED028B82B0DDF887
:104480001CC0DDE905235C422CF000411C4341EADD
:10449000D474049D22F00040B44205D86C422C43F1
:1044A00040EAD474B4420BD99DED061B9DED040B7C
:1044B00002B0BDEC028B04B0BDE8704000F056B90C
:1044C000ACF14054A4F17F641C430BD0022404EAF5
:1044D000AC7444EAD27405439FED538B9FED542B8B
:1044E00007D015E09DED040B51EC100B00F070FAB5
:1044F00042E0002C11BF012C9DED040B02B0BDEC7D
:10450000028B04BF04B070BD022C38D0032C3BD00A
:104510000B439FED491B9FED4A0B0AD0B14218D1C6
:10452000B04209D121F0804120F0804007910590F0
:104530000FE0002A15DA10E0434B7B44002C08BF43
:1045400093ED000B0DD0012C10D0022C17D0032CB2
:104550001AD0B0421DD1002A03DAB0EE410AF0EEC3
:10456000610A02B0BDEC028B04B070BD93ED000B8C
:1045700051EC100B81F0004141EC100BF1E7B0EE73
:10458000480AF0EE680AECE7B0EE420AF0EE620A82
:10459000E7E7401A00153C28C8BF8DED000B19DC79
:1045A000BCF1000FBEBF10F13C0F9FED290B8DED4C
:1045B000000B0FDB9DED060B53EC102B9DED040B58
:1045C00051EC100BFBF79EFF00F0C4FE00F000FA68
:1045D000CDE90001002C08BF9DED000BC1D0012CDE
:1045E00010D0022C9FED1C0B53EC102B9DED000BFB
:1045F00051EC100B0DD0FBF70DFF53EC182BFBF714
:1046000009FFB9E7019880F0004001909DED000B93
:10461000A7E7FBF7FFFE53EC182BFBF7FEFEABE71B
:104620000000F07F00000000182D4454FB210940D9
:10463000182D4454FB2109C0182D4454FB21F9BF07
:10464000182D4454FB21F93F1231000000000000F6
:104650000000000000000000075C143326A6A13C07
:1046600070B504462DED028B4D1E00EBC500B0EE7B
:10467000408AF0EE608A90ED000B35F0060017D00E
:1046800053EC182B51EC100BFBF7CAFE41EC100B4E
:104690006D1E04EBC50090ED001B51EC100B53ECAC
:1046A000112BFBF716FE41EC100B35F00600E7D19D
:1046B000022D36D0042D1CD0062D1CBFBDEC028B64
:1046C00070BD53EC182B51EC100BFBF7A9FE94EDC9
:1046D0000A1B53EC112BFBF7FCFD53EC182BFBF7DB
:1046E0009FFE94ED081B53EC112BFBF7F2FD41EC00
:1046F000100B53EC182B51EC100BFBF791FE94EDC3
:10470000061B53EC112BFBF7E4FD53EC182BFBF7C6
:1047100087FE94ED040B53EC102BFBF7DAFD41EC14
:10472000100B53EC182B51EC100BFBF779FE94EDAA
:10473000021B53EC112BFBF7CCFD53EC182BFBF7B2
:104740006FFE94ED001B53EC112BFBF7C2FDBDEC8B
:10475000028B41EC100B70BD10B553EC102B51ECDB
:10476000100BFBF7B6FD41EC100B10BD10B553EC70
:10477000112B51EC100BFBF7ACFD41EC100B10BDF5
:104780009FED050B10B553EC102B51EC100BFBF704
:10479000B9FE41EC100B10BD00000000000000004D
:1047A0009FED050B10B553EC102B51EC100BFBF7E4
:1047B00037FE41EC100B10BD00000000000000109F
:1047C00002E008C8121F08C1002AFAD170477047DA
:1047D000002001E001C1121F002AFBD17047000038
:1047E0000149086070470000C80000202DE9FF4F14
:1047F00089B09B460446002506E025280BD05A4682
:104800000B999047641C6D1C20780028F5D10DB0E1
:104810002846BDE8F08F0027B8460122474900E04E
:10482000074314F8013F203B02FA03F00842F7D196
:1048300020782E2819D114F8010F47F004072A28F0
:104840000ED06FF02F022078A0F1300109290CD88A
:1048500008EB880102EB410100EB0108641CF2E760
:104860000A98641C50F8048B0A9020780028CED057
:10487000642808D0692806D075281ED05A460B999E
:1048800090476D1C58E00A994FF00A0901C90A9136
:10489000002802DA40422D2102E0390504D52B21FF
:1048A0008DF82010012103E0F90704D02021F7E75B
:1048B0008A4608AE0DE00021FAE70A994FF00A098E
:1048C00001C90A91F7E74946FBF7BAFE303106F80D
:1048D000011D0028F7D1ADEB060000F12009780793
:1048E00001D44FF00108C84502DDA8EB090000E043
:1048F00000208046002706E008A85A46C05D0B99B4
:1049000090476D1C7F1C5745F6DB04E030205A466B
:104910000B9990476D1CB8F10001A8F10108F5DC76
:1049200005E016F8010B5A460B9990476D1CB9F13A
:104930000001A9F10109F4DC641C65E70928010004
:10494000FEB506460D460024684600F05BFD0022D9
:104950009FED1B1A6B46012156F8227055F8220074
:10496000381A00D5404200EE100A03EB8200B8EE80
:10497000C00AD0ED000A20EE010AF5EEC00AF1EE01
:1049800010FA0DD0C0EE201AB7EE000A0D4F31EE2E
:10499000C00AB0EEC00A10EE100AB84207DC09E007
:1049A00010EE100A084F3844084FB84202D301FAFB
:1049B00002F00443521C032ACEDB2046FEBD000059
:1049C00000008037295C0F3E666666C19A99D9005F
:1049D00010B541EC100BFFF7DFFB51EC100B10BDD5
:1049E000FCF770BD08B560B120208DF800002820CC
:1049F0008DF8010030208DF8020038208DF803007A
:104A000004E0A32204216846FBF744FC6A46042123
:104A100040F69E2001F09EFE01F064FB08BD000000
:104A20003EB5044602208DF80000CA208DF8010032
:104A3000E3208DF8020009208DF803006A46042166
:104A4000682001F087FEA3208DF80000610609D5DB
:104A5000C0218DF80110C8218DF80210C2218DF8F7
:104A6000031005E08DF801008DF802008DF80300B9
:104A700014F4C07F09D0C4218DF80410CC218DF826
:104A80000510C6218DF8061005E08DF804008DF89C
:104A900005008DF806008DF808008DF807008DF8E8
:104AA00009006A460A2140F6A72001F053FEA0073C
:104AB0004FF0D80503D020208DF8000001E08DF8DC
:104AC00000506A46012140F6B62001F043FEA006E0
:104AD00001D5012000E0002000F08EF814F4C07F22
:104AE0001ED0E0050AD5B2208DF800008B208DF88D
:104AF0000100B6208DF802009B2009E0B0208DF85F
:104B0000000080208DF80100B4208DF80200902074
:104B10008DF803006A46042140F6A22001F01AFE37
:104B2000E1074FF40B6022D0F8218DF800106A469F
:104B3000012101F00FFEFA21072000F03BFB0720C6
:104B400000F006FB012000F023FB642000F0E2FBF4
:104B50004FF4FA7000F0EEFBC821254800F0C0FACF
:104B6000282000F0D5FA0A2000F0E2FA05E08DF8DE
:104B700000506A46012101F0EDFDA00703D5D920C0
:104B80008DF8000001E08DF800506A46012140F2E6
:104B90003D7001F0DFFD600701D5012000E000203D
:104BA00000F048F8E00601D5012000E00020FFF702
:104BB00019FF104D44F00800688101F093FA0020BD
:104BC000A873600601D50620A87314F4C07F02D034
:104BD000A87B801DA87314F0140F02D0A87B10309E
:104BE000A873A00702D0A87B001DA87300203EBDBB
:104BF00009E3CA02580400200EB54FF4976310B1C0
:104C000006A107C901E008A207CA8DE807006A46A5
:104C10000921184601F09EFD0EBD0000B8AAB38D13
:104C2000B4980D355D000000B8AAAAAAB088C3C523
:104C3000C700000008B560B1C0208DF80000C22098
:104C40008DF80100C4208DF80200C6208DF8030005
:104C500004E08B2204216846FBF71CFB6A46042112
:104C600040F6982001F076FD01F03CFA08BD000006
:104C7000C8234FF48062024940F6F63001F014B9BF
:104C80006C6900082DE9FF4F89B01746DDE916521F
:104C900000244D4E884681462C80A246B07B694652
:104CA00001F0AEF94FF0FF3B18B158460DB0BDE82A
:104CB000F08F708910F0140F3ED0009909BA21F0DE
:104CC000FF029DF803100A433A6001999DF80730EE
:104CD00009BA21F0FF0119437960029B9DF80B404E
:104CE0001BBA23F0FF032343BB60039C121424BAB6
:104CF00024F0FF0C9DF80F4009144CEA040C10241A
:104D0000C7F80CC01B144FEA2C4712FB02F211FB30
:104D1000012113FB03F217FB07221144A1F170617B
:104D2000B1F1007F04D901F0DDF9A5F800A0BCE7DE
:104D3000298841F4807129804206694611D50A19F3
:104D4000A41D13885BBAA8F8003053885BBAA8F892
:104D50000230928852BAA8F804202A8842F0080249
:104D60002A8010F4C07F11D00A19A41D13885BBAE1
:104D7000A9F8003053885BBAA9F80230928852BA79
:104D8000A9F804202A8842F070022A80800716D0F1
:104D90000C44E07800F0C00500F03F016078C007E7
:104DA00006D0C80801F007013268491C02B19047DB
:104DB0006078000703D5716809B1A80988470C9885
:104DC00001F0F2FC002071E7580400202DE9FF41BA
:104DD000044603A800F018FFBDF80C00410CC30303
:104DE0002F48028902F00300550754F8200000D52F
:104DF0004042C2F3C105960654F8255000D56D42D5
:104E0000C2F38116D20554F8264000D56442A0FBB7
:104E10000367C21702FB037200FB0120820042EA13
:104E20009670A5FB0367EA1702FB037205FB0122DC
:104E3000950045EA9672A4FB0367E51705FB03732B
:104E400004FB01318B0043EA9671030E8DF80030AC
:104E5000030C8DF80130030A8DF802308DF8030041
:104E6000100E8DF80400100C8DF80500100A8DF856
:104E70000600080E8DF80800080C8DF80900080AD5
:104E80008DF80A008DF807208DF80B106A460C216A
:104E90004FF4257001F05EFC04B0BDE8F081000025
:104EA0005804002030B5044613A285B007CA8DE827
:104EB00007004FF0FF35C82C16D8C820B0FBF4F11E
:104EC000491E080A8DF80C008DF80D1003AA022166
:104ED00040F2162001F03EFC30B96A460C2140F643
:104EE000C12001F037FC10B1284605B030BD05489F
:104EF00084810020F9E70000FEF2ABC4AAF1DFDFF5
:104F0000BBAFDFDF58040020F8B53049098901F054
:104F1000030250F822404A0700D56442C1F3C1029F
:104F20008B0650F8222000D55242C1F3811350F86D
:104F30002330C80500D55B42254984FB014085002C
:104F400045EA947082FB0142A40F44EA820483FB89
:104F50000121950F45EA8105010E8DF80010010C25
:104F60008DF80110010A8DF802108DF803006A46D1
:104F700004214FF4747001F0EDFB4FF0FF3688B957
:104F8000200E8DF80000200C8DF80100200A8DF80D
:104F900002008DF803406A4604214FF4757001F059
:104FA000D9FB08B13046F8BD280E8DF80000280C5A
:104FB0008DF80100280A8DF802008DF803506A462A
:104FC00004214FF4767001F0C5FBF8BD58040020B1
:104FD00009E3CA022DE9FF4104463CA004F00303A3
:104FE000006802903AA0006803903AA006683AA0D0
:104FF000056802A8C15C8DF80010C4F3C101425CD1
:105000008DF80120C4F38112805C8DF8020003A8A2
:10501000C35C8DF80430415C8DF80510805C8DF820
:1050200006006A46032140F2264001F093FB4FF050
:10503000FF37E0BB01AA032140F22A4001F08AFBBE
:10504000A8BBCDE9006560070BD59DF8000040F0D6
:1050500001008DF800009DF8040040F001008DF87B
:105060000400A0060BD59DF8010040F001008DF86A
:1050700001009DF8050040F001008DF80500E005F5
:105080000BD59DF8020040F001008DF802009DF85C
:10509000060040F001008DF806006A4603214FF437
:1050A000886001F057FB10B901AA032100E004E079
:1050B00040F2314001F04EFB18B1384604B0BDE873
:1050C000F081064804810020F8E700004CCD6C0018
:1050D0000CC92C003656760026466600580400207F
:1050E0004FF47A7290FBF2F008B54843010E8DF848
:1050F0000010010C8DF80110010A8DF802108DF8D6
:1051000003006A4604214FF4AE7001F023FB08BD92
:105110000521B0FBF1F008B5010A8DF800108DF8FB
:1051200001006A4602214FF4AD7001F013FB08BD87
:105130000521B0FBF1F008B5010A8DF800108DF8DB
:1051400001006A4602214FF4AC7001F003FB08BD78
:1051500008B500218DF80010C10702D030218DF86C
:105160000010810705D59DF8001041F00C018DF865
:105170000010400705D59DF8000040F003008DF8B1
:1051800000006A4601214FF4A47001F0E3FA08BD63
:1051900008B560B1042800D90420401E8DF8000035
:1051A0006A46012140F24F1001F0D4FA08BD0120F7
:1051B000F3E7000070B504462DED028B82B0400786
:1051C0004FF0FF357ED0B1F5C86F7BD800EE101AD6
:1051D000B8EE400ADFED460A01A880EE208A00F012
:1051E000F5FC9DF80400022806D0042810D00828F9
:1051F00035D0102874D13EE09FED3E0A28EE000A1B
:10520000BCEEC00A10EE100A9FED3B0A82B20AE023
:105210009FED3A0A28EE000ABCEEC00A10EE100A12
:105220009FED370A82B228EE000A6E46BCEEC00A35
:1052300010EE100A81B2100A8DF800008DF80120DE
:10524000080A8DF802008DF80310E00726D03246D8
:1052500002214FF4EA7001F07DFA98BB17E09FED50
:10526000290A28EE000ABCEEC00A10EE100A9FEDD3
:10527000260A82B2D7E79FED250A28EE000ABCEE87
:10528000C00A10EE100A9FED220A82B2CBE7B21CD0
:1052900002214FF4927001F05DFA98B9A0070DD584
:1052A0006A4602214FF4EC7001F054FA50B9B21C76
:1052B00002214FF4947001F04DFA18B9600714D52B
:1052C0006A4600E00CE002214FF4EE7001F042FA71
:1052D00030B9B21C02214FF4967001F03BFA20B1B4
:1052E000284602B0BDEC028B70BD0020F9E700003B
:1052F0000000484300008046000040460000004691
:105300000000C04500008045000040450000004509
:105310000000C0440521B0FBF1F008B5010A8DF88A
:1053200000108DF801006A4602214FF4EF7001F081
:1053300011FA08BD0521B0FBF1F008B5010A8DF89E
:1053400000108DF801006A4602214FF4ED7001F063
:1053500001FA08BD82B0CDE9000121F000400190C2
:105360009DED000B02B051EC100B704738B50446B0
:105370008DF8000069460320ABBE204638BD000012
:1053800070B51D491D4A002051F8203042F82030E8
:10539000401C0828F8DB086A1949086017490020F2
:1053A00011F1240132F8303000EB40041D091B01DB
:1053B00003F0F00602EBC0030D559D880C44C5F3C5
:1053C00003231E436670401CA5700428EADB0C4AC8
:1053D0005520121D00231070AA20507093730220D4
:1053E0000C1814F8024C1454957B401C2C449473F4
:1053F0000E28F5DBD37370BDCC0000200C04002018
:10540000480000201FB50446274802AB042240682C
:105410000D21007800F0E8FA10B1072004B010BDAB
:105420009DF808101C2000EAD1029DF80B10DFED5A
:105430001F0AC1F301131A438DF800209DF80920BB
:10544000C1F3810300EAD2021A438DF801209DF8CE
:105450000A2001F0030100EAD20008439FED141A6C
:105460009FED140A8DF8020000216A46505C002866
:1054700004EB810002D080ED001A09E0C0ED000AC3
:105480000CE000BFD0ED001A61EE801AC0ED001AEA
:10549000535C5B1E13F0FF035354F3D1491CC9B294
:1054A0000329E3D30020B9E77000002000000000CA
:1054B0007B14AE3E1D5A843F2DE9FE4F0546012068
:1054C000C14E8DF800004FF000088DF80180306863
:1054D0000C461746817C70686B460222007800F00B
:1054E00093FA4FF0FF3A00287AD1C820FFF778FAF4
:1054F0008DF8008030686B460122C17B70680078AF
:1055000000F082FA0028EFD130686B460122417921
:105510007068007800F078FA0028E5D130686B46B2
:105520000122817C7068007800F06EFA0028DBD1DF
:1055300030686B460122C17D7068007800F064FA23
:105540000028D1D130686B4601220179706800785B
:1055500000F05AFA0028C7D14FF00C098DF80090DE
:1055600030686B46012201797068007800F04CFACF
:10557000002835D10F20FFF733FAB06A6B460122BD
:10558000407A8DF80000306881787068007800F00B
:105590003BFA002824D1B06A6B460122007A8DF8CC
:1055A0000000306841787068007800F02DFA00281B
:1055B00073D1B06A807A0FB140F0E0008DF800003E
:1055C00030686B46012281797068007800F01CFA1F
:1055D000002862D12FB1B06AC07A40F0E00001E04B
:1055E0004AE018208DF8000030686B460122C1792E
:1055F0007068007800F008FAF0BB17B1C820FFF718
:10560000EFF940208DF8000030686B4601220179E7
:105610007068007800F0F8F970BB78208DF8000011
:1056200030686B46012241797068007800F0ECF92F
:1056300010BB3220FFF7D4F98DF800803068474660
:105640006B46417970680122007800F0DDF998B965
:1056500031687068B046897A00786B46022200F0A3
:10566000C3F948B9BDF80000AF6040BAB0FBF9F02B
:105670006F60C6B22F6000E00FE0A7606760276030
:10568000002739E0D8F80010D8F804006B46C97A32
:1056900000780C2200F0A8F910B15046BDE8FE8F4A
:1056A000BDF80000236840BA02B2BDF80200BDF8A0
:1056B00004101A44226040BA626800B2104460606C
:1056C00049BAA06809B20844A060BDF806002B687A
:1056D00040BA02B2BDF808001A4440BA01B2BDF89F
:1056E0000A002A606A6840BA11446960A96800B279
:1056F00008447F1CFFB2A860B742C3D32868832246
:10570000C117090441EA104100040023FAF791FD92
:1057100032460023FAF78DFD286068688322C1179E
:10572000090441EA104100040023FAF782FD3246E1
:105730000023FAF77EFD6860A8688322C117090478
:1057400041EA104100040023FAF773FD32460023BA
:10575000FAF76FFDA86020684FF40065C1170904CF
:1057600041EA104100042A460023FAF762FD32465E
:105770000023FAF75EFD206060682A46C11709041D
:1057800041EA104100040023FAF753FD324600239A
:10579000FAF74FFD6060A0682A46C117090441EA84
:1057A000104100040023FAF744FD32460023FAF7C3
:1057B00040FDA060002802DDA0F5803001E000F58A
:1057C0008030A060002069E770000020F8B5064630
:1057D0002E480D46002440686B46032200780D21B8
:1057E00000F002F908B10720F8BD9DF80000002282
:1057F00000F01F008DF800009DF801009FED241AB5
:1058000000F01F008DF801009DF802006B4600F0CB
:105810001F008DF80200012156F8220055F8227071
:10582000C01B00D5404200EE100A985CB8EEC00ADA
:1058300060EE010AD0B1B3EE090ADFED161A01E0FD
:1058400020EE210AC0B2401E10F0FF009854F7D19C
:10585000C0EE801AB7EE000A0F4F31EEC00AB0EE6C
:10586000C00A10EE100AB84207DC09E010EE900AF8
:105870000A4F3844B0F1D97F02D901FA02F004434B
:10588000521C032AC8DB2046F8BD0000700000202F
:105890000000803754E3853F295C0F3E0000E0BEE6
:1058A00010B5FBF717F9144801781448062922D2DD
:1058B000DFE801F02103050F1419012100E00021A8
:1058C00001700220FBF77EF9BDE810400320FBF7D2
:1058D00079B90020FBF776F9022008E00020FBF7F9
:1058E00071F9042003E00020FBF76CF90320BDE808
:1058F0001040FDF7E1BE10BD090000200B000020A4
:1059000070B5144CD4F81002134E002501280CD0A9
:105910001248007830B101280AD141033046FBF724
:1059200035FF05E0C4F8B45202E00120C4F8B40227
:10593000D4F81002012806D10948007820B10128C6
:1059400001D1C4F8985270BD3046BDE87040402186
:10595000FBF71CBF00804042000402400A00002008
:105960000B000020194810B501881948022903D0FE
:10597000012903D061B103E0032100E0042101709B
:10598000144BD3F8104200210122012C02D013E065
:105990000521F4E7104C2478012C02D10F4CC4F8F7
:1059A000B8120F4CD4F8304214B1012C04D102E0EB
:1059B0000224047000E00270D3F830320948012B51
:1059C00001D0017010BD027010BD00006C000020FD
:1059D00009000020008040420000002000004142F9
:1059E000000040420A0000203EB54000CDE90032F0
:1059F0000A46FF240146029401230248FBF79EFF5A
:105A00003EBD0000C40100203EB54000CDE900329B
:105A10000A46FF240146029401230248FCF78AF853
:105A20003EBD0000C401002000B5024600F00DF8A4
:105A30000346D01C00F009F843EAC003901D00F0B3
:105A400004F843EA801080B200BD90F900100029EC
:105A500002DD4FF00000704702DA4FF0040070479B
:105A600090F90110002902DD4FF00100704702DAC1
:105A70004FF00500704790F90200002802DD4FF05A
:105A80000200704702DA4FF0060070474FF007003F
:105A900070470000FCF730F9FDF71AFFFEF77EF9BA
:105AA000FDF724FCFDF70CFCFDF788FBFDF7BEFCC1
:105AB000FDF710FDFDF7AAFDFDF7D8FCFDF7F0FCA2
:105AC000FDF7CAFDFDF73AFDFDF76CFD09222149FE
:105AD0002148FBF797FAFDF7E5FD0020FDF7ECFD07
